:020000040000FA
:10000000680420208D010000910100009301000090
:1000100000000000000000000000000000000000E0
:10002000000000000000000000000000790F000048
:100030000000000000000000E10E00000D130000B1
:100040009B010000550A00009B0100009B0100007D
:100050009B0100009B0100009B0100009B01000030
:10006000000000009B0100009B0100000000000058
:10007000000000009B0100009B0100009B010000AC
:100080009B0100009B0100009B0100009B01000000
:100090009B0100009B010000000000000000000028
:1000A0009B0100009B010000000000000000000018
:1000B0009B010000000000009B0100009B0100006C
:1000C00000F002F800F052F812A030C808382418E6
:1000D0002D18AC4201D100F049F80FCCA246AB4636
:1000E0000CA730CF2D1B083F3F197C427F1E544484
:1000F0002D090426F441641EAC4201D300F036F809
:100100000126334200D0FB1A3343984754465D46DC
:10011000DFE70000642500008425000000000000E7
:10012000103A02D378C878C1FAD8520701D330C840
:1001300030C101D504680C60704700000000000069
:100140007047000000000000002300240025002666
:10015000103A01D378C1FBD8520700D330C100D583
:100160000B6070471FB51FBD10B510BD00F05CFAE5
:100170001146FFF7F7FF01F071F900F074FA03B4CC
:10018000FFF7F2FF03BC00F0C9FA00000648004781
:10019000FEE7FEE7FEE7FEE7FEE7FEE70348044969
:1001A000024A044B70470000C10000006803202091
:1001B0006804202068032020002203098B4273D3A7
:1001C000030A8B4258D3030B8B423CD3030C8B4264
:1001D00021D312E003460B437FD4002243088B4215
:1001E00074D303098B425FD3030A8B4244D3030BBE
:1001F0008B4228D3030C8B420DD30902FF2212BA83
:10020000030C8B4202D31212090265D0030B8B42FE
:1002100019D300E0090AC30B8B4201D3CB03C01AE8
:100220005241830B8B4201D38B03C01A5241430BC3
:100230008B4201D34B03C01A5241030B8B4201D3B3
:100240000B03C01A5241C30A8B4201D3CB02C01A1E
:100250005241830A8B4201D38B02C01A5241430A96
:100260008B4201D34B02C01A5241030A8B4201D385
:100270000B02C01A5241CDD2C3098B4201D3CB012C
:10028000C01A524183098B4201D38B01C01A5241DB
:1002900043098B4201D34B01C01A524103098B42DF
:1002A00001D30B01C01A5241C3088B4201D3CB00CA
:1002B000C01A524183088B4201D38B00C01A5241AD
:1002C00043088B4201D34B00C01A5241411A00D25D
:1002D00001465241104670475DE0CA0F00D04942C6
:1002E000031000D3404253409C46002203098B4236
:1002F0002DD3030A8B4212D38901FC2212BA030ABE
:100300008B420CD3890192118B4208D3890192113F
:100310008B4204D389013AD0921100E08909C309C4
:100320008B4201D3CB01C01A524183098B4201D3C6
:100330008B01C01A524143098B4201D34B01C01AB1
:10034000524103098B4201D30B01C01A5241C30829
:100350008B4201D3CB00C01A524183088B4201D398
:100360008B00C01A5241D9D243088B4201D34B00B3
:10037000C01A5241411A00D201465241104663460A
:100380005B1001D34042002B00D5494270476346C1
:100390005B1000D3404201B50449002802DC491C2F
:1003A000084000E00846C046C04602BDFFFFFF7F90
:1003B0007047704770470000F0B5FF252D04C6094F
:1003C000C209FF2704462E400137CB093E4348406F
:1003D0002A402B400746002A6BD0002B69D0AA4246
:1003E00067D0AB4265D0002800DA32460125ED0522
:1003F00029432C4309022002090AD21A4B0C7F24FC
:10040000E31A434C000A7C44E35C7D242404121963
:1004100014145B00A218884201D3521C00E0400073
:1004200049420C465C4324115C43DB016415E3182C
:10043000040A5C43C502200D0C4644436419250A96
:100440005D432303EC0C0D46654300030019EB18D4
:100450004C42A34201D35B18401CD4052018002B4A
:1004600007D05B00C91804D3401C002901D1400803
:1004700040003F2189048A4209D3002A08DC110682
:10048000090F04D0032149074018C00FC007F0BD71
:1004900001224100120689187F2252069142F6D2AB
:1004A00005214907C84201D59010F0BDFF20C005C5
:1004B000F0BD002F00DA32461648AA4207D2AB42FE
:1004C00005D21902090E17D0F80FC007F0BDFF259D
:1004D00063002D06AB42F9D84900A942F6D8AB42D9
:1004E00001D1A942F2D0A94201D1002101E061006D
:1004F0004908D0050843F0BD1102090EFBD0FF20CA
:100500000243D005F0BD0A460146104654E70000FC
:10051000DE1900000000C07F10B501469E240002D5
:10052000CA15A307002A02D01843002A04DBA21A26
:10053000002A0CDDD04010BD1206120E01D1400081
:100540004008A21A03D4D04040420028F3DDFF2225
:1005500048001206904201D9002010BDC817C043C0
:10056000584010BD1F22030C02D10F2200041CD0E2
:10057000030E01D10002083A030F01D10001121F3E
:10058000830F01D18000921E002801DB4000521E23
:10059000D2055118021251181922904004D3491C57
:1005A000002801D14908490008467047C10FC90712
:1005B00000D04042012292071143D3E7012189076D
:1005C000D0E7000010B5FF231B0644009C421DD855
:1005D0004C009C421AD80346124A0B4307D4401AD7
:1005E00002D3EFF3008010BDEFF3008010BD081AB6
:1005F00003D3EFF30080904305E0EFF30080012187
:100600009043C907084380F3008810BD0D231B04E5
:100610001A4204D01146002000F02DF810BD00F061
:1006200041F810BD00000090754600F043F8AE465A
:10063000050069465346C008C000854618B020B57D
:10064000FFF7ACFD60BCB64600260027C0C5C0C59C
:10065000C0C5C0C5C0C5C0C5C0C5C0C5403D4908AE
:1006600049008D46704710B50446C046C046204636
:10067000FFF785FD10BDC80212D54803400F0028C2
:1006800004D0C803C043012188407047EFF30080C5
:100690000001000903210907084380F3008870471F
:1006A0000020704710B5024800F008F810BD0000A7
:1006B0000000C07F004870474800202010B50C465D
:1006C0001107090F092904D00A290AD008290CD1D9
:1006D00004E011460820FFF7CEFF06E0510606D5DC
:1006E00001E0510601D50120C007214610BDD10609
:1006F00007D501010909CC084907000E000604438B
:1007000009E0410F20024907000A0143200E0006BC
:100710001D22D14101430846E7E7000001491820A6
:10072000ABBEFEE7260002007047811E091F00BF16
:10073000FCD27047B0B51122120283580C4C1C40F9
:100740000B894D881D438B792B430A4D1D402B1976
:1007500083508B88CC791C43097821435D239B000F
:100760001940801842689A4389184160B0BDC0465C
:1007700080CCFFFF7F33000010B5012212038318E5
:100780000C785C604978815010BD0000F0B57A4A61
:1007900082183B4BC31808794E793A4D784C002E9D
:1007A00023D0202804D00526F601002803D003E03A
:1007B000354E002800D18826576F2F4037435767A2
:1007C000976F2F4037439767566B26405663966B5B
:1007D000264096630026566596658F26F6435F6829
:1007E00037405F609F6837409F608E790968202896
:1007F0000BD0002819D1491E5160D76E2F40882197
:100800000F43D7661746703719E0491E5160D16E05
:1008100029401D4F3943D166116F29403943116773
:1008200001214907194D174609E049085160D76E63
:100830002F400521C9010F43D766174670373C6822
:100840002C400C433C60D16A4D4C2140D162116B6D
:10085000214011630021D16411658F21C943D46FF8
:100860000C40D4671C680C401C600643BD2030401F
:100870001168074B0B40C018801C1060F0BDC046CB
:100880008418000024493E0001040000FFFFFFCF50
:100890004000FFCFB0B54A68364BC250364A801888
:1008A0000A78222A58D8930001A4E3589F46C046EC
:1008B0004F090000590900004F09000059090000C4
:1008C00059090000590900005909000059090000A0
:1008D0005909000059090000590900005909000090
:1008E0005909000059090000590900005909000080
:1008F0003D090000590900003D09000059090000A8
:10090000590900005909000059090000590900005F
:10091000590900005909000059090000590900004F
:10092000590900005909000059090000590900003F
:100930003D090000590900003D09000003231B0781
:1009400004689C4301235B07E318036004E003236E
:100950001B0704689C4304600B69C360CB68074CA9
:100960001C40C36A064D1D402B19C362097A11430E
:100970000160B0BD0818000004180000777702007D
:100980008888FDFF10B507239B041940920080184A
:10099000024A84589C436118815010BD30180000F1
:1009A00010B5029CA400001911431943014A81505B
:1009B00010BDC0465018000092008018014A8150B6
:1009C0007047C0461018000010B5012212038318AA
:1009D0000C789C604B7883508978014A815010BD17
:1009E0000C110000B0B51122120283580124A34358
:1009F00083500B888C781C438B882343094C1C4004
:100A00008358094D1D40631983508B79CC791C4361
:100A1000097A21437E231940801842689A4351186D
:100A20004160B0BD18670000E798FDFF10B50122D6
:100A3000120383180C789C604978815010BD000027
:100A400002480221016002480160704780E200E034
:100A500000E100E0F0B51B48014618390968890734
:100A60002FD50021CA4318490C46103C2368DB06E9
:100A7000164D10D52E6840253540164600D001266B
:100A8000134F3B68F3183B60124B1D700B68102529
:100A90001D430D600D4D23689B060ED52C688023E9
:100AA000234000D101220C4C256852192260094ACA
:100AB00053700A68202313430B60016802220A4323
:100AC0000260F0BD5811404048300A4080330A406F
:100AD00050022020A80020202803202080B50248B2
:100AE00000F0FEFB80BDC04618002020F0B581B0AC
:100AF0000C4606461C488642354600DC05461B4827
:100B0000854200DB05460027002E394600DA69429F
:100B100024483A46FFF750FF002E00DA3D460122F6
:100B200020482946FFF748FF0F488442264600DC4C
:100B300006460E48864200DB06461B4D002C06D4B6
:100B40000024284631462246FFF736FF05E0002103
:100B500028460A46FFF730FF744201222846214604
:100B6000FFF72AFF01B0F0BD48F4FFFFB80B00000B
:100B700070B50C4D0024284621462246FFF71CFF85
:100B80000126284621463246FFF716FF064D284625
:100B900021462246FFF710FF284621463246FFF73E
:100BA0000BFF70BD000086400000094070B50120B9
:100BB0000404164D2C61642000F0B8FB2C60322038
:100BC00000F0B4FB002412A5285D00F0ABF9641C12
:100BD000172CF9D100242546B0202843C0B200F0DC
:100BE000A1F9204600F09EF9102000F09BF926465E
:100BF000002000F0ABF9701C46B2002EF8D5681C3E
:100C0000E9B207290546E7D370BDC04690320A40D5
:100C1000AED580A83FD30040A1C8DA1281CFD9F168
:100C2000DB40A4A68D14AF00F0B583B01E46174676
:100C30000446800902220240501802905038C0B287
:100C400000F070F964B2E0178443210910200843D2
:100C5000019000F067F90F252540284600F062F961
:100C6000203FF8B2089F102E10D1000120490E1825
:100C7000002406E0305DC0B200F068F9641C082C66
:100C800016D0002FF6D0305DC043F4E70621414373
:100C900016484418002506E0605DC0B200F056F921
:100CA0006D1C062D1FD0002FF6D0605DC043F4E709
:100CB00002984F38C0B200F035F90198C0B200F088
:100CC00031F9284600F02EF90836002406E0305DA0
:100CD000C0B200F03BF9641C082C04D0002FF6D001
:100CE000305DC043F4E703B0F0BDC046281E0000ED
:100CF00050200000F0B587B004AC07C4002B40D0F2
:100D00001C460D9803900C9D68080290581E019097
:100D10000026374612E00127039800903020014357
:100D2000CAB230460299484304994018C0B20599A6
:100D30002B46FFF779FF761CA64222D0F0432018FD
:100D4000010606D001210A225143401E0206FAD1B3
:100D500000E00121069800F0DBFD0A21FFF72CFAE4
:100D6000002FD9D10198B042D6DD0029D3D1039804
:100D7000009030460299484304994018C0B220229E
:100D8000D5E707B0F0BDF0B58BB01F46144609910A
:100D9000079000251046294600F0C0FE002800D02C
:100DA0007F1C0126F0070394844302942046FFF73A
:100DB000B3FB059038061298089011980A90109885
:100DC000069026D00A98440817E0059800F0A0FD88
:100DD0000A21FFF7F1F90898009030220A432046D3
:100DE000684307994018C0B209990A9BFFF71CFF96
:100DF000F8B26D1CE9B281420BD2E8433818010603
:100E00003146E2D001210A225143401E0206FAD1A6
:100E1000DBE7089800900A9B59083846049148433C
:100E200007994018C0B22E220999FFF7FDFE0598D8
:100E3000FFF7BCFB0146029800F06EFF06990029FF
:100E40000BD0044601200A225043491E0A06FAD15B
:100E5000FFF7B4FB0146204601E07F21C90500F001
:100E600003FFFFF759FB0699002928D0044607988D
:100E7000461D002518E00121204600F049FD0A2109
:100E8000FFF79AF90898009030220A43E81904996C
:100E900048433018C0B209990A9BFFF7C5FE6D1C84
:100EA000E8B2069988420AD2E84308180106E2D05F
:100EB00001210A225143401E0206FAD1DCE700213B
:100EC000039800F020FE002807D1089800902D22FA
:100ED000079809990A9BFFF7A7FE0BB0F0BD000029
:100EE000EFF309800E4B1A6820381060F0C04446BA
:100EF0004D4656465F46F0C008B572B600F090FB0E
:100F000062B60CBC116808681030F0C8A046A9464B
:100F1000B246BB4680F309882038F0C81847C0465F
:100F200054022020B0B501231905114A11615B0458
:100F30001361104C2568ED06FCD42063206840073F
:100F4000FCD4206A13601160B0BDC04610B5012307
:100F50001905074A11615B041360064B1C68E4061F
:100F6000FCD4186318684007FCD4186A116010BDDF
:100F700090320A4010B1464070470000B0B5E149D8
:100F800087208867012082031E4802608822CA6188
:100F90001D4A0823136084234B638023136082233C
:100FA0000B62102414600B65184B4B65184C83259D
:100FB000A561CD675B1C636181230B604B60154DA0
:100FC0008D63CB632360A362E3638D65CD650D64A0
:100FD0004D641146303903230B60136001463039EC
:100FE0000D4A0A6002600D4801680D4A0A4302601A
:100FF0000C48016A3022114301620168114301600B
:10100000B0BDC046D0320A40D0120A40820004006F
:101010008480424081000C000800130090330A4095
:101020003055000028300A4070B582B01B4C1C4976
:101030002046FFF7C9FC1B492046FFF7A7FB1A48CB
:1010400001683C4A0A400260002500952046294676
:101050002A462B46FFF7A4FC204629462A46FFF7DE
:1010600091FC204629462A46FFF7A6FC0126009659
:10107000204629462A462B46FFF792FC2046294661
:101080003246FFF77FFC204629463246FFF794FCA4
:10109000064886600321016002B070BD00008640F2
:1010A00030260000342600000418864000118640D7
:1010B00070B582B01B4C1C492046FFF785FC1B49CC
:1010C0002046FFF763FB1A4801681A4A0A4002608B
:1010D00000250095204629462A462B46FFF760FC4E
:1010E000204629462A46FFF74DFC204629462A4637
:1010F000FFF762FC01260096204629462A462B4629
:10110000FFF74EFC204629463246FFF73BFC2046BF
:1011100029463246FFF750FC0748866003210160EC
:1011200002B070BD000009403C26000040260000CF
:10113000041809407F00FFFF0011094010B50D4C55
:101140000D492046FFF718FB0C492046FFF7F2FA3D
:101150000B4841680B4A0A400F32426081681222F4
:101160000A432D218A438260016801220A430260FA
:1011700010BDC04600A04640482600004A26000098
:1011800004B1464000FCFFFF044800210160044810
:1011900001680322914301607047C04608030B4079
:1011A00000010B4010B5084C08492046FFF70CFC25
:1011B00007492046FFF76EFB0648016801221143EC
:1011C00001600548026010BD0020864054260000E2
:1011D00058260000283086400831864010B5124C51
:1011E00012492046FFF722FC11492046FFF7FAFB7F
:1011F0000320C1030F4802688A43026001690E4A56
:101200000A4011320261416917220A4328218A43A8
:10121000426141680122114043689343591841607B
:1012200001681143016010BD008010406C26000071
:101230006E260000009110400000FFFF80B500F016
:101240001FF8FFF79BFEFFF79FFFFFF7EDFEFFF78D
:101250002FFFFFF7A7FFFFF7C1FFFFF76FFFB820D2
:10126000044900220A5404490A54242003490A5418
:1012700080BDC04690012020AC00202068012020C5
:10128000F0B581B00D480E4941600E4A51600E4BD9
:1012900059600E4C61600E4D69600E4E71600E4FCC
:1012A00079600E4901601160196021602960316028
:1012B00039601020FFF739FA01B0F0BD00080A408C
:1012C000030000B100280A400008864000080940D9
:1012D000002886400088104000A8464001000026F3
:1012E00000280DD081688900064A81238B5041690E
:1012F00089008B5006C8044BCA5041688068C850AA
:101300007047C046048042409012000010B500F0C3
:10131000EDF8044600F0FAF9002803D00120000798
:10132000A4490860204600F0F6F810BDB0B50028CA
:1013300020D00446EFF30580002807D07D20050269
:101340002846FFF7F2F9641EFAD113E000F0D0F955
:10135000022808D17D20C1004C43204600F0D8FA75
:1013600000F02AF9B0BD7D2005022846FFF7DDF91F
:10137000641EFAD1B0BD0000F0B581B017480188F5
:10138000491C018089B2042924D32F4F14213960CC
:1013900000210180534A10681160FFF707F92B4EB6
:1013A0003168FFF709F82A4C214600F05DFC294915
:1013B000FFF702F80546B8607068274900F054FC52
:1013C000064628462146FEF7F7FF0146304600F064
:1013D0004BFC38611C48006901B0F0BD4C02202074
:1013E000F0B581B017480188491C018089B20429F1
:1013F00024D3154F14217960002101803A4A1068E6
:101400001160FFF7D3F8114E3168FEF7D5FF104C8D
:10141000214600F029FC0F49FEF7CEFF0546F86093
:1014200070680D4900F020FC064628462146FEF76C
:10143000C3FF0146304600F017FC7861024840695E
:1014400001B0F0BD4E0220200000202038002020F6
:10145000000070420BD7A33CC3F5C84086B0FFF72D
:10146000EDFEFFF73BFBFFF7A1FBFFF781FBFFF76B
:10147000E7FA4B2000010146FFF738FBFFF7B0FF0A
:101480000490FFF779FF05901420FFF74FFF012428
:101490001027022600960396019702940020042547
:1014A0000146049A2B46FFF76EFC009601970294C2
:1014B00003212046059A2B46FFF765FC0948026880
:1014C000009701940626039831462B46FFF712FC3D
:1014D00005480268009701943C2031462B46FFF7EF
:1014E00009FCCBE75002202028032020EFF31080D6
:1014F00072B67047416882688A60516001694B68C2
:10150000834200D14A600A68521E0A6000220261CA
:1015100008687047FEE780F310887047B0B50B6825
:101520005A1C0BD004460834626815689D4208D8DE
:10153000546825689D422546F6D904E0026955683D
:1015400001E015462246A96008614D608A6051603D
:101550000168491C0160B0BD42684A6093688B60B5
:101560000861596003685B1C03609160704700006C
:1015700072B60A480168491C0160BFF34F8FBFF380
:101580006F8F704705480168002903D0491E01602C
:1015900002D0704772B6FEE762B670474000202066
:1015A0000120000703490860BFF34F8FBFF36F8F1F
:1015B0007047C04604ED00E070B500282CD0CA4941
:1015C0000A68002A01D072B6FEE70A68521C0A6057
:1015D0008C490C68C94D2968091D06460846FFF765
:1015E00089FFA4192868446006D3874800682968E1
:1015F000091DFFF793FF0AE0C24800682968091D2A
:10160000FFF78CFFC04801688C4200D2046000F0F4
:10161000FFF8002800D070BDFFF7C2FF70BDC046C4
:10162000F0B581B0B0480068002802D0B44801216C
:101630002CE0B34800210160B04C2068006B0268C8
:101640002A498A4208D142688A4205D182688A4280
:1016500002D1C068884204D0206821683431FFF785
:1016600059FFA448016814231A464A43A24DAE58B4
:10167000002E0ED0AA1853685B68536015460835D3
:10168000AB4201D15B685360DA682260016001B04F
:10169000F0BDAA1800291DD01E464E4376191746E4
:1016A000143F3F68002F17D1012913D01746283F58
:1016B0003F68002F13D102290CD017463C3F3F68EA
:1016C000002F0FD1032905D0091F503A1668002EAC
:1016D000E0D0D0E772B6FEE7143E491E04E0283E93
:1016E000891E01E03C3EC91E3246C4E7A5A5A5A55A
:1016F00005480068002805D07B4800684142414108
:10170000480070470120704758032020F0B583B08F
:1017100075480068002806D07C480168491C0160B3
:10172000002003B0F0BD374801684C1C04601BD397
:10173000744801680968002901D072B6FEE70168A3
:10174000314A13680360116030490A68521C0A600C
:1017500001680968002903D00068C068006801E0DA
:101760000020C0436849086067490868844201D284
:1017700000203FE00023DA43624E30680068002812
:101780002FD001920020029003E03068006800280A
:101790002CD03068C068C7687868844223D33D1D68
:1017A0002846FFF7A7FEB86A002803D0384618304D
:1017B000FFF7A0FEF86A4F490968884201D94D49F0
:1017C0000860142141434C4840182946FFF7C4FEE5
:1017D000F86A4A490968C96A8842D6D3012002904A
:1017E000D3E7029304E00246474901E04649019AE3
:1017F0000A60029842490968002992D0012003B08A
:10180000F0BDC0465C0320205C0220203C03202069
:10181000F0B581B0344C206800280DD0FFF7A8FE49
:101820002068401E206020680027002806D0FFF7AF
:10183000A9FE384601B0F0BD72B6FEE72B4800683D
:101840000028F4D02A4E3068002833D00097294F62
:1018500002E0306800281FD0F068C46820461830C5
:10186000FFF748FE251D2846FFF744FEE06A396869
:10187000884200D93860142141431F484018294646
:10188000FFF76AFEE06A1D490968C96A8842E0D329
:1018900001201B490860DCE71A4801680968002933
:1018A00003D00068C068006801E00020C043009FCA
:1018B00015490860154C2568002D0CD0104E01E02C
:1018C0006D1E06D0FFF722FF0028F9D001203060FE
:1018D000F6E7002020600A4800680028A7D0FFF73C
:1018E0005FFE0127A3E7C046300320202C03202001
:1018F00044032020340320206002202054022020B2
:10190000600320205802202038032020400320209C
:1019100043088B421AD3002203098B4279D3030A6E
:101920008B425ED3030B8B4242D3030C8B4227D3F3
:101930000902FF2212BA030C8B4202D312120902CF
:1019400003D0030B8B4233D31AE0D3E0411A80411A
:10195000401C704703460B4371D443088B42F5D3B8
:10196000002203098B4254D3030A8B4239D3030B61
:101970008B421DD3030C8B4202D394466EE0090ABE
:10198000C30B8B4201D3CB03C01A5241830B8B4252
:1019900001D38B03C01A5241430B8B4201D34B033B
:1019A000C01A5241030B8B4201D30B03C01A5241A0
:1019B000C30A8B4201D3CB02C01A5241830A8B4225
:1019C00001D38B02C01A5241430A8B4201D34B020E
:1019D000C01A5241030A8B4201D30B02C01A524172
:1019E000CDD2C3098B4201D3CB01C01A5241830926
:1019F0008B4201D38B01C01A524143098B4201D360
:101A00004B01C01A524103098B4201D30B01C01A8A
:101A10005241C3088B4201D3CB00C01A5241830804
:101A20008B4201D38B00C01A524143088B4201D331
:101A30004B00C01A5241411A524110007047CA0F60
:101A400000D04942031000D34042534000229C463C
:101A500003098B422DD3030A8B4212D38901FC2246
:101A600012BA030A8B420CD3890192118B4208D31C
:101A7000890192118B4204D3890137D0921100E081
:101A80008909C3098B4201D3CB01C01A5241830992
:101A90008B4201D38B01C01A524143098B4201D3BF
:101AA0004B01C01A524103098B4201D30B01C01AEA
:101AB0005241C3088B4201D3CB00C01A5241830864
:101AC0008B4201D38B00C01A5241D9D243088B42BA
:101AD00001D34B00C01A5241411A00D20146524173
:101AE000104663465B1000D34042704763465B106C
:101AF00000D3404201B50021004201D0C94308464D
:101B0000C046C04602BD10B500F05AF8EFF30080A1
:101B1000800001D5012010BD002010BD10B500F0DF
:101B200079F8EFF30080800001D4012010BD00207F
:101B300010BD000070B50125ED0704004C4020D415
:101B4000441A01D2001B0919C60D4B00F2B2FF2A3C
:101B500029D01B0E2CD000020C0228432C43D31A90
:101B6000DC40051910D2280A02D3401C6D0611D0A2
:101B7000761EF6058019FF2A00DA70BDC00DC0057B
:101B800070BD694000F0CEF801200543C541521CEC
:101B9000761CE8E764089C40C90161408900E7D1F0
:101BA0000124A043E4E71B0E440200D0034870BDAB
:101BB000002AFCD1C00FC00770BD00BF0000C07F6D
:101BC0000123DB0502000A430DD4DA4203D49A4212
:101BD00007D488427047D84214D4D94212D48842DC
:101BE000704780427047DA4203D59A42F9D5814264
:101BF00070475B004200DA4204D24A00DA4201D266
:101C00008142704710B5024AFEF7DCFC10BD00BFF0
:101C1000090013040123DB0502000A430DD4DA4254
:101C200003D49A4207D488427047D84214D4D94288
:101C300012D48842704780427047DA4203D59A42F4
:101C4000F9D5814270475B004200DA4204D24A0073
:101C5000DA4201D28142704710B5024AFEF7B2FC67
:101C600010BD00BF0900160470B5420064414B006E
:101C70005C41120E39D01B0E38D0FF2A3CD0FF2B0E
:101C80003AD0D2187F3A40024902400A490A451820
:101C9000ED0106004E43000A090A48430104731A85
:101CA0004019190C4318990F04D05B08012149070A
:101CB0005B1A521CD80904D3401CF50301D19D06C0
:101CC00007D0FF2A08D2D50506D0E40720434019E3
:101CD00070BD0125A843F4E7002A01DCE00770BDD0
:101CE0002402FF202043C00570BD1B0EFF2A03D035
:101CF000FF2B01D0E00770BDFF2636064500B54238
:101D000006D84D00B54203D8D218FF2A00D0E7E725
:101D1000004870BD0000C07F70B50125ED070400CC
:101D20004C4022D4441A02D26C40001B0919C60D43
:101D30004B00F2B2FF2A4BD01B0E50D000020C0217
:101D4000A8432C43D31ADC40051B05D5AD0019D39D
:101D50006D08761E521E37D0F605280A01D280196A
:101D600070BD70416D0603D070BD6940FFF7E8FE9D
:101D70009C4009026140490001D0401E70BD012411
:101D8000A04370BD6D081DD001202B0C01D12D0486
:101D900010302B0E01D12D0208302B0F01D12D0157
:101DA000001DAB0F01D1AD00801CEB0F01D16D0008
:101DB000401C361A121A6D00680AF5054019012AEE
:101DC00002DB70BD002070BDC036300AC00770BD98
:101DD0001B0E440201D1FF2B00D1024870BD002A26
:101DE000F0D070BD0000C07F8182838485868788A3
:101DF000898B8C8D8E8F919293959697999A9C9DB5
:101E00009FA0A2A3A5A7A8AAACAEB0B2B3B5B7B91C
:101E1000BCBEC0C2C5C7C9CCCED1D4D7D9DCDFE2E5
:101E2000E6E9ECF0F3F7FAFE000000000000000025
:101E3000002F000000000700070000147F147F142B
:101E400000242A7F2A1200626408132300364955B1
:101E5000225000000503000000001C224100000089
:101E600041221C000014083E08140008083E08081F
:101E7000000000A06000000808080808000060607A
:101E80000000002010080402003E5149453E0000B9
:101E9000427F4000004261514946002141454B319B
:101EA000001814127F10002745454539003C4A4967
:101EB00049300001710905030036494949360006D9
:101EC0004949291E00003636000000005636000041
:101ED00000081422410000141414141400004122BC
:101EE000140800020151090600324959513E007C94
:101EF0001211127C007F49494936003E414141227E
:101F0000007F4141221C007F49494941007F090966
:101F10000901003E4149497A007F0808087F000016
:101F2000417F4100002040413F01007F08142241D1
:101F3000007F40404040007F020C027F007F040889
:101F4000107F003E4141413E007F09090906003EE5
:101F50004151215E007F091929460046494949310E
:101F60000001017F0101003F4040403F001F204031
:101F7000201F003F4038403F0063140814630007EF
:101F80000870080700615149454300007F41410046
:101F900000552A552A55000041417F0000040201E6
:101FA00002040040404040400000010204000020C4
:101FB00054545478007F4844443800384444442002
:101FC00000384444487F00385454541800087E09AF
:101FD00001020018A4A4A47C007F08040478000077
:101FE000447D4000004080847D00007F1028440034
:101FF0000000417F4000007C04180478007C080445
:10200000047800384444443800FC24242418001880
:10201000242418FC007C080404080048545454206C
:1020200000043F444020003C4040207C001C2040F5
:10203000201C003C4030403C004428102844001C38
:10204000A0A0A07C004464544C4414141414141430
:102050000000000000000000000000000000000080
:10206000000000F800000000000000333000000015
:1020700000100C06100C060000000000000000001C
:1020800040C07840C0784000043F04043F0404008E
:10209000007088FC08300000001820FF211E00009E
:1020A000F008F000E018000000211C031E211E00B3
:1020B00000F00888700000001E2123241927211039
:1020C00010160E00000000000000000000000000DC
:1020D000000000E018040200000000071820400083
:1020E00000020418E0000000004020180700000073
:1020F000404080F0804040000202010F01020200D7
:10210000000000F0000000000101011F01010100BA
:10211000000000000000000080B07000000000001F
:1021200000000000000000000001010101010101A8
:10213000000000000000000000303000000000003F
:102140000000000080601804006018060100000014
:1021500000E010080810E000000F102020100F0011
:10216000001010F8000000000020203F2020000098
:1021700000700808088870000030282422213000F0
:1021800000300888884830000018202020110E00F8
:102190000000C02010F8000000070424243F2400A1
:1021A00000F80888880808000019212020110E0076
:1021B00000E0108888180000000F112020110E0088
:1021C00000380808C83808000000003F0000000080
:1021D0000070880808887000001C222121221C0041
:1021E00000E010080810E0000000312222110F006A
:1021F000000000C0C00000000000003030000000FF
:10220000000000800000000000008060000000006E
:102210000000804020100800000102040810200087
:1022200040404040404040000404040404040400D2
:102230000008102040800000002010080402010067
:10224000007048080808F000000000303601000067
:10225000C030C828E810E0000718272423140B001A
:102260000000C038E0000000203C23020227382094
:1022700008F8888888700000203F202020110E0078
:10228000C03008080808380007182020201008006F
:1022900008F808080810E000203F202020100F0058
:1022A00008F88888E8081000203F20202320180024
:1022B00008F88888E8081000203F2000030000008C
:1022C000C03008080838000007182020221E02002D
:1022D00008F808000008F808203F210101213F20EC
:1022E000000808F8080800000020203F2020000017
:1022F00000000808F8080800C08080807F00000007
:1023000008F888C028180800203F2001263820003F
:1023100008F8080000000000203F202020203000A6
:1023200008F8F800F8F80800203F003F003F2000C0
:1023300008F830C00008F808203F200007183F00C8
:10234000E01008080810E0000F10202020100F00F7
:1023500008F808080808F000203F210101010000EA
:10236000E01008080810E0000F18242438504F002F
:1023700008F8888888887000203F2000030C3020EF
:1023800000708808080838000038202121221C002D
:10239000180808F8080818000000203F2000000076
:1023A00008F808000008F808001F202020201F005F
:1023B0000878880000C83808000007380E010000BF
:1023C000F80800F80008F800033C0700073C030089
:1023D000081868808068180820302C03032C3020EF
:1023E0000838C800C83808000000203F200000005E
:1023F00010080808C83808002038262120201800B6
:10240000000000FE020202000000007F4040400089
:10241000000C30C000000000000000010638C000C1
:1024200000020202FE000000004040407F00000069
:10243000000004020202040000000000000000008E
:10244000000000000000000080808080808080808C
:102450000002020400000000000000000000000074
:1024600000008080808000000019242222223F206A
:1024700008F8008080000000003F112020110E00AD
:102480000000008080800000000E1120202011003C
:10249000000000808088F800000E112020103F20EE
:1024A0000000808080800000001F22222222130072
:1024B000008080F0888888180020203F20200000BD
:1024C0000000808080808000006B94949493600072
:1024D00008F8008080800000203F210000203F207D
:1024E00000809898000000000020203F202000007D
:1024F000000000809898000000C08080807F00006D
:1025000008F8000080808000203F24022D30200049
:10251000000808F8000000000020203F20200000F4
:102520008080808080808000203F20003F20003F0E
:102530008080008080800000203F210000203F201C
:102540000000808080800000001F202020201F00CD
:10255000808000808000000080FFA12020110E00FC
:102560000000008080808000000E112020A0FF80ED
:10257000808080008080800020203F21200001009A
:1025800000008080808080000033242424241900EF
:10259000008080E0808000000000001F20200000FC
:1025A0008080000000808000001F202020103F203D
:1025B000808080000080808000010E3008060100CD
:1025C00080800080008080800F300C030C300F0072
:1025D00000808000808080000020312E0E3120009D
:1025E000808080000080808080818E7018060100CD
:1025F00000808080808080000021302C22213000EB
:1026000000000000807C020200000000003F40400B
:102610000002027C800000000040403F00000000FB
:1026200000000000FF00000000000000FF000000AC
:1026300008070000B80B0000200101000807000097
:10264000B80B000020000100080004000003000097
:1026500007100000080762000000000000000000F2
:102660000000000000000000000000000800000062
:102670001800000000300000982600000000202014
:102680004800000020010000E02600004800202053
:1026900020040000480100001400000014000000A5
:1026A000000000000000000000000000000000002A
:1026B00000000A40020000000100000000000A4083
:1026C000010000000000000000000000E80300001E
:1026D00000800E4400004040AAAAAAAA0000000000
:04000005000000C136
:00000001FF
