:020000040000FA
:10000000E80420208D010000910100009301000010
:1000100000000000000000000000000000000000E0
:10002000000000000000000000000000990F000028
:100030000000000000000000010F00002D13000070
:100040009B010000050900009B0100009B010000CE
:100050009B0100009B0100009B0100009B01000030
:10006000000000009B0100009B0100000000000058
:10007000000000009B0100009B0100009B010000AC
:100080009B0100009B0100009B0100009B01000000
:100090009B0100009B010000000000000000000028
:1000A0009B0100009B010000000000000000000018
:1000B0009B010000000000009B0100009B0100006C
:1000C00000F002F800F052F812A030C808382418E6
:1000D0002D18AC4201D100F049F80FCCA246AB4636
:1000E0000CA730CF2D1B083F3F197C427F1E544484
:1000F0002D090426F441641EAC4201D300F036F809
:100100000126334200D0FB1A3343984754465D46DC
:10011000DFE70000D4230000F4230000000000000B
:10012000103A02D378C878C1FAD8520701D330C840
:1001300030C101D504680C60704700000000000069
:100140007047000000000000002300240025002666
:10015000103A01D378C1FBD8520700D330C100D583
:100160000B6070471FB51FBD10B510BD00F003FA3E
:100170001146FFF7F7FF01F085F900F01BFA03B411
:10018000FFF7F2FF03BC00F021FA00000648004729
:10019000FEE7FEE7FEE7FEE7FEE7FEE70348044969
:1001A000024A044B70470000C1000000E803202011
:1001B000E8042020E8032020002203098B4273D3A7
:1001C000030A8B4258D3030B8B423CD3030C8B4264
:1001D00021D312E003460B437FD4002243088B4215
:1001E00074D303098B425FD3030A8B4244D3030BBE
:1001F0008B4228D3030C8B420DD30902FF2212BA83
:10020000030C8B4202D31212090265D0030B8B42FE
:1002100019D300E0090AC30B8B4201D3CB03C01AE8
:100220005241830B8B4201D38B03C01A5241430BC3
:100230008B4201D34B03C01A5241030B8B4201D3B3
:100240000B03C01A5241C30A8B4201D3CB02C01A1E
:100250005241830A8B4201D38B02C01A5241430A96
:100260008B4201D34B02C01A5241030A8B4201D385
:100270000B02C01A5241CDD2C3098B4201D3CB012C
:10028000C01A524183098B4201D38B01C01A5241DB
:1002900043098B4201D34B01C01A524103098B42DF
:1002A00001D30B01C01A5241C3088B4201D3CB00CA
:1002B000C01A524183088B4201D38B00C01A5241AD
:1002C00043088B4201D34B00C01A5241411A00D25D
:1002D00001465241104670475DE0CA0F00D04942C6
:1002E000031000D3404253409C46002203098B4236
:1002F0002DD3030A8B4212D38901FC2212BA030ABE
:100300008B420CD3890192118B4208D3890192113F
:100310008B4204D389013AD0921100E08909C309C4
:100320008B4201D3CB01C01A524183098B4201D3C6
:100330008B01C01A524143098B4201D34B01C01AB1
:10034000524103098B4201D30B01C01A5241C30829
:100350008B4201D3CB00C01A524183088B4201D398
:100360008B00C01A5241D9D243088B4201D34B00B3
:10037000C01A5241411A00D201465241104663460A
:100380005B1001D34042002B00D5494270476346C1
:100390005B1000D3404201B50449002802DC491C2F
:1003A000084000E00846C046C04602BDFFFFFF7F90
:1003B0007047704770470000F0B5FF252D04C6094F
:1003C000C209FF2704462E400137CB093E4348406F
:1003D0002A402B400746002A6BD0002B69D0AA4246
:1003E00067D0AB4265D0002800DA32460125ED0522
:1003F00029432C4309022002090AD21A4B0C7F24FC
:10040000E31A434C000A7C44E35C7D242404121963
:1004100014145B00A218884201D3521C00E0400073
:1004200049420C465C4324115C43DB016415E3182C
:10043000040A5C43C502200D0C4644436419250A96
:100440005D432303EC0C0D46654300030019EB18D4
:100450004C42A34201D35B18401CD4052018002B4A
:1004600007D05B00C91804D3401C002901D1400803
:1004700040003F2189048A4209D3002A08DC110682
:10048000090F04D0032149074018C00FC007F0BD71
:1004900001224100120689187F2252069142F6D2AB
:1004A00005214907C84201D59010F0BDFF20C005C5
:1004B000F0BD002F00DA32461648AA4207D2AB42FE
:1004C00005D21902090E17D0F80FC007F0BDFF259D
:1004D00063002D06AB42F9D84900A942F6D8AB42D9
:1004E00001D1A942F2D0A94201D1002101E061006D
:1004F0004908D0050843F0BD1102090EFBD0FF20CA
:100500000243D005F0BD0A460146104654E70000FC
:10051000761700000000C07F1F22030C02D10F22BB
:1005200000041CD0030E01D10002083A030F01D1D0
:100530000001121F830F01D18000921E002801DBF1
:100540004000521ED2055118021251181922904033
:1005500004D3491C002801D14908490008467047C6
:10056000C10FC90700D04042012292071143D3E7CF
:1005700001218907D0E7754600F024F8AE46050052
:1005800069465346C008C000854618B020B5FFF73D
:1005900005FE60BCB64600260027C0C5C0C5C0C564
:1005A000C0C5C0C5C0C5C0C5C0C5403D490849009B
:1005B0008D46704710B50446C046C0462046FFF73A
:1005C000DEFD10BD00487047C800202001491820FA
:1005D000ABBEFEE7260002007047811E091F00BF68
:1005E000FCD27047B0B51122120283580C4C1C404B
:1005F0000B894D881D438B792B430A4D1D402B19C8
:1006000083508B88CC791C43097821435D239B0060
:100610001940801842689A4389184160B0BDC046AD
:1006200080CCFFFF7F33000010B501221203831836
:100630000C785C604978815010BD0000F0B57A4AB2
:1006400082183B4BC31808794E793A4D784C002EEE
:1006500023D0202804D00526F601002803D003E08B
:10066000354E002800D18826576F2F4037435767F3
:10067000976F2F4037439767566B26405663966BAC
:10068000264096630026566596658F26F6435F687A
:1006900037405F609F6837409F608E7909682028E7
:1006A0000BD0002819D1491E5160D76E2F408821E8
:1006B0000F43D7661746703719E0491E5160D16E57
:1006C00029401D4F3943D166116F294039431167C5
:1006D00001214907194D174609E049085160D76EB5
:1006E0002F400521C9010F43D766174670373C6874
:1006F0002C400C433C60D16A4D4C2140D162116BBF
:10070000214011630021D16411658F21C943D46F49
:100710000C40D4671C680C401C600643BD20304070
:100720001168074B0B40C018801C1060F0BDC0461C
:100730008418000024493E0001040000FFFFFFCFA1
:100740004000FFCFB0B54A68364BC250364A8018D9
:100750000A78222A58D8930001A4E3589F46C0463D
:10076000FF07000009080000FF070000090800005B
:100770000908000009080000090800000908000035
:100780000908000009080000090800000908000025
:100790000908000009080000090800000908000015
:1007A000ED07000009080000ED070000090800003F
:1007B00009080000090800000908000009080000F5
:1007C00009080000090800000908000009080000E5
:1007D00009080000090800000908000009080000D5
:1007E000ED07000009080000ED07000003231B07C8
:1007F00004689C4301235B07E318036004E00323C0
:100800001B0704689C4304600B69C360CB68074CFA
:100810001C40C36A064D1D402B19C362097A11435F
:100820000160B0BD081800000418000077770200CE
:100830008888FDFF10B507239B041940920080189B
:10084000024A84589C436118815010BD3018000042
:1008500010B5029CA400001911431943014A8150AC
:1008600010BDC0465018000092008018014A815007
:100870007047C0461018000010B5012212038318FB
:100880000C789C604B7883508978014A815010BD68
:100890000C110000B0B51122120283580124A343A9
:1008A00083500B888C781C438B882343094C1C4055
:1008B0008358094D1D40631983508B79CC791C43B3
:1008C000097A21437E231940801842689A435118BF
:1008D0004160B0BD18670000E798FDFF10B5012228
:1008E000120383180C789C604978815010BD000079
:1008F00002480221016002480160704780E200E086
:1009000000E100E0F0B51B48014618390968890785
:100910002FD50021CA4318490C46103C2368DB063A
:10092000164D10D52E6840253540164600D00126BC
:10093000134F3B68F3183B60124B1D700B6810257A
:100940001D430D600D4D23689B060ED52C6880233A
:10095000234000D101220C4C256852192260094A1B
:1009600053700A68202313430B60016802220A4374
:100970000260F0BD5811404048300A4080330A40C0
:10098000D002202028012020A803202080B5024882
:1009900000F0B6FC80BDC04698002020F0B581B0C4
:1009A0000C4606461C488642354600DC05461B4878
:1009B000854200DB05460027002E394600DA6942F1
:1009C00024483A46FFF750FF002E00DA3D46012248
:1009D00020482946FFF748FF0F488442264600DC9E
:1009E00006460E48864200DB06461B4D002C06D408
:1009F0000024284631462246FFF736FF05E0002155
:100A000028460A46FFF730FF744201222846214655
:100A1000FFF72AFF01B0F0BD48F4FFFFB80B00005C
:100A200070B50C4D0024284621462246FFF71CFFD6
:100A30000126284621463246FFF716FF064D284676
:100A400021462246FFF710FF284621463246FFF78F
:100A50000BFF70BD0000864000000940B0B50120CA
:100A60000404094D2C61642000F070FC2C603220DD
:100A700000F06CFC0024054D285D00F063FA641C56
:100A8000172CF9D1B0BDC04690320A40C01B0000FF
:100A9000F0B583B01C46164605460291084650380C
:100AA000C0B200F04FFA28091030019000F04AFA65
:100AB0000F272F40384600F045FAB00115490D18B0
:100AC000002606E0A85DC0B200F050FA761C102E99
:100AD00004D0002CF6D0A85DC043F4E702984F384C
:100AE000C0B200F02FFA019800F02CFA384600F05E
:100AF00029FA202606E0A85DC0B200F037FA761C7D
:100B0000302E04D0002CF6D0A85DC043F4E703B02B
:100B1000F0BDC046DF230000F0B583B01E46174687
:100B20000446800902220240501802905038C0B298
:100B300000F008FA64B2E01784432109102008434A
:100B4000019000F0FFF90F252540284600F0FAF942
:100B5000203FF8B2089F102E10D100011F490E1837
:100B6000002406E0305DC0B200F000FA641C082CDE
:100B700016D0002FF6D0305DC043F4E70621414384
:100B8000D6484418002506E0605DC0B200F0EEF9DA
:100B90006D1C062D1FD0002FF6D0605DC043F4E71A
:100BA00002984F38C0B200F0CDF90198C0B200F001
:100BB000C9F9284600F0C6F90836002406E0305D81
:100BC000C0B200F0D3F9641C082C04D0002FF6D07A
:100BD000305DC043F4E703B0F0BDC046FF1D000028
:100BE000F0B589B0012008900404B74D2C61642051
:100BF00000F0ACFB2C60322000F0A8FB0024B34DC9
:100C0000285D00F09FF9641C172CF9D100252F46B0
:100C1000B0203843C0B200F095F9284600F092F9B0
:100C2000102000F08FF92E460024204600F09EF997
:100C3000701C46B2002EF7D5781CF9B2072907467A
:100C4000E6D35522089F2646254605E0A0A1CA5DA9
:100C50007F1C0B2F064611D008980090F0B2E9B225
:100C6000D2B21023FFF758FF0836F1B27829204698
:100C700000D830467829E9D96D1CE7E70220002723
:100C800075253E4606970790024604E0761C94A020
:100C9000855D0E2E28D0B8090799084008921018D3
:100CA0005038C0B200F04EF9F8B20009103000F030
:100CB00049F90F20384000F045F9203DE8B20621FF
:100CC000414386484418069D605D00F04FF96D1C55
:100CD000062DF9D1BF1DF8B27A2800D90027089A4D
:100CE0007A28D3D9521CD1E70425002401262046B6
:100CF000294622463346FFF7CBFE102004902946B2
:100D0000029532463346FFF7C3FE202008900227A3
:100D100029463A463346FFF7BBFE062520462946BC
:100D200022462346FFF7B4FE04982946059632462C
:100D30002E462346FFF7ACFE0898294603973A460D
:100D40002346FFF7A5FE0094302036220299049B2B
:100D5000FFF7E2FE0694614D02E0641C022C58D0BD
:100D6000012C059906D00121081B0A225143401E7F
:100D70000206FAD14D2000F0AFFD0A21FFF71CFA60
:100D80000F4620460699084303D1002F2ED001209C
:100D900006903546079465433035A8090399084005
:100DA0004938C0B200F0CEF86DB2E8178543280983
:100DB000049C204300F0C6F80E20284000F0C2F842
:100DC0002743089700253746444C3846089948433E
:100DD0002018415DFF20484000F0C8F8761E6D1CC9
:100DE000002EF2D12546079C3E46B6E7B72000F01C
:100DF000A9F8132000F0A6F80027384600F0A2F862
:100E0000E95DFF20484000F0B1F87F1C062FF7D1C4
:100E1000A3E70025364C2E4628465038C0B200F0D5
:100E200091F8152000F08EF80A2000F08BF830467B
:100E30002030C7B2A05D00F099F8761CF0B287426E
:100E4000F8D1681CE9B203290546E5D30025029FC5
:100E500038465038C0B200F075F8152000F072F82E
:100E60000A2000F06FF828462030C6B2615DFF20EE
:100E7000484000F07BF86D1CE8B28642F6D1781C41
:100E8000F9B207290746E3D32E2000F05BF82620AD
:100E900000F058F80024204600F054F8204600F0F6
:100EA00051F80725284600F04DF8284600F04AF88A
:100EB000204600F047F8FF2000F044F82F2000F013
:100EC00041F809B0F0BDC04690320A40C01B000096
:100ED000554E49434F524E5F4C490000D71B00000E
:100EE000756E69636F726E5F6C695F3132330000DB
:100EF00000002020000000000000000000000000B2
:100F0000EFF309800E4B1A6820381060F0C0444699
:100F10004D4656465F46F0C008B572B600F064FB19
:100F200062B60CBC116808681030F0C8A046A9462B
:100F3000B246BB4680F309882038F0C81847C0463F
:100F4000D4022020B0B501231905114A11615B04B8
:100F50001361104C2568ED06FCD42063206840071F
:100F6000FCD4206A13601160B0BDC04610B50123E7
:100F70001905074A11615B041360064B1C68E406FF
:100F8000FCD4186318684007FCD4186A116010BDBF
:100F900090320A4010B1464070470000B0B5E149B8
:100FA00087208867012082031E4802608822CA6168
:100FB0001D4A0823136084234B638023136082231C
:100FC0000B62102414600B65184B4B65184C83257D
:100FD000A561CD675B1C636181230B604B60154D80
:100FE0008D63CB632360A362E3638D65CD650D6480
:100FF0004D641146303903230B60136001463039CC
:101000000D4A0A6002600D4801680D4A0A430260F9
:101010000C48016A302211430162016811430160EA
:10102000B0BDC046D0320A40D0120A40820004004F
:101030008480424081000C000800130090330A4075
:101040003055000028300A4070B582B01B4C1C4956
:101050002046FFF711FC1B492046FFF7EFFA1A481C
:1010600001683C4A0A400260002500952046294656
:101070002A462B46FFF7ECFB204629462A46FFF777
:10108000D9FB204629462A46FFF7EEFB01260096AB
:10109000204629462A462B46FFF7DAFB20462946FA
:1010A0003246FFF7C7FB204629463246FFF7DCFBF6
:1010B000064886600321016002B070BD00008640D2
:1010C0009F240000A42400000418864000118640DC
:1010D00070B582B01B4C1C492046FFF7CDFB1B4965
:1010E0002046FFF7ABFA1A4801681A4A0A40026024
:1010F00000250095204629462A462B46FFF7A8FBE7
:10110000204629462A46FFF795FB204629462A46CF
:10111000FFF7AAFB01260096204629462A462B46C1
:10112000FFF796FB204629463246FFF783FB204611
:1011300029463246FFF798FB074886600321016085
:1011400002B070BD00000940AC240000B0240000D3
:10115000041809407F00FFFF0011094010B50D4C35
:101160000D492046FFF760FA0C492046FFF73AFA8E
:101170000B4841680B4A0A400F32426081681222D4
:101180000A432D218A438260016801220A430260DA
:1011900010BDC04600A04640B8240000BA2400009C
:1011A00004B1464000FCFFFF0448002101600448F0
:1011B00001680322914301607047C04608030B4059
:1011C00000010B4010B5084C08492046FFF754FBBE
:1011D00007492046FFF7B6FA064801680122114385
:1011E00001600548026010BD00208640C424000054
:1011F000C8240000283086400831864010B5124CC3
:1012000012492046FFF76AFB11492046FFF742FBCF
:101210000320C1030F4802688A43026001690E4A35
:101220000A4011320261416917220A4328218A4388
:10123000426141680122114043689343591841605B
:1012400001681143016010BD00801040DC240000E3
:10125000DE240000009110400000FFFF80B500F088
:101260001FF8FFF79BFEFFF79FFFFFF7EDFEFFF76D
:101270002FFFFFF7A7FFFFF7C1FFFFF76FFFB820B2
:10128000044900220A5404490A54242003490A54F8
:1012900080BDC046100220202C012020E801202023
:1012A000F0B581B00D480E4941600E4A51600E4BB9
:1012B00059600E4C61600E4D69600E4E71600E4FAC
:1012C00079600E4901601160196021602960316008
:1012D00039601020FFF781F901B0F0BD00080A4025
:1012E000030000B100280A400008864000080940B9
:1012F000002886400088104000A8464001000026D3
:1013000000280DD081688900064A81238B504169ED
:1013100089008B5006C8044BCA5041688068C85089
:101320007047C046048042409012000010B500F0A3
:10133000C2F8044600F0CEF9002803D001200007CF
:101340008E490860204600F0CBF810BDB0B50028EB
:1013500020D00446EFF30580002807D07D20050249
:101360002846FFF73AF9641EFAD113E000F0A4F919
:10137000022808D17D20C1004C43204600F0ACFA81
:1013800000F0FEF8B0BD7D2005022846FFF725F9E4
:10139000641EFAD1B0BD0000F0B581B017480188D5
:1013A000491C018089B2042924D3304F14213960AB
:1013B00000210180124A10681160FFF7D1F82D4E0C
:1013C0003168FEF7F9FF2C4C214600F081FB2B49D8
:1013D000FEF7F2FF0546B8607068294900F078FB17
:1013E000064628462146FEF7E7FF0146304600F054
:1013F0006FFB38611D48006901B0F0BDCC022020B0
:10140000D0022020F0B581B017480188491C018026
:1014100089B2042924D3154F142179600021018059
:10142000134A10681160FFF79BF8124E3168FEF7FF
:10143000C3FF114C214600F04BFB1049FEF7BCFFE7
:101440000546F86070680E4900F042FB06462846E3
:101450002146FEF7B1FF0146304600F039FB7861C6
:101460000248406901B0F0BDCE022020800020205B
:10147000A8032020B8002020000070420BD7A33C16
:10148000C3F5C840FFF7EAFEFFF780FAFFF7E6FA78
:10149000FFF7A6FBFFF7C4FAFFF72AFA4B2000017B
:1014A0000146FFF77BFAFFF7ADFFFFF775FF14204A
:1014B000FFF74CFFF7E7EFF3108072B67047416813
:1014C00082688A60516001694B68834200D14A603A
:1014D0000A68521E0A600022026108687047FEE72F
:1014E00080F310887047B0B50B685A1C0BD00446C7
:1014F0000834626815689D4208D8546825689D4282
:101500002546F6D904E00269556801E015462246F1
:10151000A96008614D608A6051600168491C0160E2
:10152000B0BD42684A6093688B6008615960036887
:101530005B1C03609160704772B60A480168491CE1
:101540000160BFF34F8FBFF36F8F7047054801688D
:10155000002903D0491E016002D0704772B6FEE731
:1015600062B67047C00020200120000703490860D0
:10157000BFF34F8FBFF36F8F7047C04604ED00E09D
:1015800070B500282CD0CA490A68002A01D072B66A
:10159000FEE70A68521C0A608C490C68C94D29682C
:1015A000091D06460846FFF78AFFA419286844600B
:1015B00006D3874800682968091DFFF794FF0AE0F1
:1015C000C24800682968091DFFF78DFFC0480168FF
:1015D0008C4200D2046000F0FFF8002800D070BDFB
:1015E000FFF7C2FF70BDC046F0B581B0B0480068DB
:1015F000002802D0B44801212CE0B348002101604A
:10160000B04C2068006B02682A498A4208D14268BF
:101610008A4205D182688A4202D1C068884204D0D9
:10162000206821683431FFF75AFFA4480168142369
:101630001A464A43A24DAE58002E0ED0AA1853683F
:101640005B68536015460835AB4201D15B68536057
:10165000DA682260016001B0F0BDAA1800291DD02F
:101660001E464E4376191746143F3F68002F17D188
:10167000012913D01746283F3F68002F13D10229B4
:101680000CD017463C3F3F68002F0FD1032905D0EF
:10169000091F503A1668002EE0D0D0E772B6FEE778
:1016A000143E491E04E0283E891E01E03C3EC91E4E
:1016B0003246C4E7A5A5A5A505480068002805D0C1
:1016C0007B48006841424141480070470120704713
:1016D000D8032020F0B583B075480068002806D0F4
:1016E0007C480168491C0160002003B0F0BD374808
:1016F00001684C1C04601BD3744801680968002908
:1017000001D072B6FEE70168314A136803601160C8
:1017100030490A68521C0A6001680968002903D030
:101720000068C068006801E00020C04368490860A4
:1017300067490868844201D200203FE00023DA4371
:10174000624E3068006800282FD00192002002907D
:1017500003E03068006800282CD03068C068C76893
:101760007868844223D33D1D2846FFF7A8FEB86A57
:10177000002803D038461830FFF7A1FEF86A4F4919
:101780000968884201D94D490860142141434C48F9
:1017900040182946FFF7C5FEF86A4A490968C96A30
:1017A0008842D6D301200290D3E7029304E0024698
:1017B000474901E04649019A0A600298424909688E
:1017C000002992D0012003B0F0BDC046DC032020E8
:1017D000DC022020BC032020F0B581B0344C20680E
:1017E00000280DD0FFF7A8FE2068401E206020686A
:1017F0000027002806D0FFF7A9FE384601B0F0BD4B
:1018000072B6FEE72B4800680028F4D02A4E3068F4
:10181000002833D00097294F02E0306800281FD0FD
:10182000F068C46820461830FFF749FE251D284699
:10183000FFF745FEE06A3968884200D93860142114
:1018400041431F4840182946FFF76BFEE06A1D49D7
:101850000968C96A8842E0D301201B490860DCE7B7
:101860001A4801680968002903D00068C068006848
:1018700001E00020C043009F15490860154C256811
:10188000002D0CD0104E01E06D1E06D0FFF722FF98
:101890000028F9D001203060F6E7002020600A48D7
:1018A00000680028A7D0FFF75FFE0127A3E7C04626
:1018B000B0032020AC032020C4032020B403202048
:1018C000E0022020D4022020E0032020D8022020A3
:1018D000B8032020C003202043088B421AD30022E3
:1018E00003098B4279D3030A8B425ED3030B8B42ED
:1018F00042D3030C8B4227D30902FF2212BA030CF6
:101900008B4202D31212090203D0030B8B4233D352
:101910001AE0D3E0411A8041401C704703460B4354
:1019200071D443088B42F5D3002203098B4254D370
:10193000030A8B4239D3030B8B421DD3030C8B421A
:1019400002D394466EE0090AC30B8B4201D3CB034A
:10195000C01A5241830B8B4201D38B03C01A5241F0
:10196000430B8B4201D34B03C01A5241030B8B42F2
:1019700001D30B03C01A5241C30A8B4201D3CB02DD
:10198000C01A5241830A8B4201D38B02C01A5241C2
:10199000430A8B4201D34B02C01A5241030A8B42C5
:1019A00001D30B02C01A5241CDD2C3098B4201D3DD
:1019B000CB01C01A524183098B4201D38B01C01A5B
:1019C000524143098B4201D34B01C01A52410309D2
:1019D0008B4201D30B01C01A5241C3088B4201D381
:1019E000CB00C01A524183088B4201D38B00C01A2E
:1019F000524143088B4201D34B00C01A5241411A55
:101A0000524110007047CA0F00D04942031000D362
:101A10004042534000229C4603098B422DD3030AC7
:101A20008B4212D38901FC2212BA030A8B420CD3D7
:101A3000890192118B4208D3890192118B4204D300
:101A4000890137D0921100E08909C3098B4201D383
:101A5000CB01C01A524183098B4201D38B01C01ABA
:101A6000524143098B4201D34B01C01A5241030931
:101A70008B4201D30B01C01A5241C3088B4201D3E0
:101A8000CB00C01A524183088B4201D38B00C01A8D
:101A90005241D9D243088B4201D34B00C01A524164
:101AA000411A00D201465241104663465B1000D3F2
:101AB0004042704763465B1000D3404201B50021AD
:101AC000004201D0C9430846C046C04602BD0000DE
:101AD00070B5420064414B005C41120E39D01B0EC0
:101AE00038D0FF2A3CD0FF2B3AD0D2187F3A4002A0
:101AF0004902400A490A4518ED0106004E43000A12
:101B0000090A48430104731A4019190C4318990F24
:101B100004D05B08012149075B1A521CD80904D381
:101B2000401CF50301D19D0607D0FF2A08D2D50538
:101B300006D0E4072043401970BD0125A843F4E70F
:101B4000002A01DCE00770BD2402FF202043C0050D
:101B500070BD1B0EFF2A03D0FF2B01D0E00770BD24
:101B6000FF2636064500B54206D84D00B54203D8DB
:101B7000D218FF2A00D0E7E7004870BD0000C07F00
:101B80008182838485868788898B8C8D8E8F9192C4
:101B900093959697999A9C9D9FA0A2A3A5A7A8AA62
:101BA000ACAEB0B2B3B5B7B9BCBEC0C2C5C7C9CC84
:101BB000CED1D4D7D9DCDFE2E6E9ECF0F3F7FAFED8
:101BC000AED580A83FD30040A1C8DA1281CFD9F1A9
:101BD000DB40A4A68D14AF00000000000000000050
:101BE0002F000000000700070000147F147F14007E
:101BF000242A7F2A120062640813230036495522E2
:101C00005000000503000000001C224100000041BC
:101C1000221C000014083E08140008083E080800B2
:101C20000000A060000008080808080000606000CC
:101C300000002010080402003E5149453E000042C9
:101C40007F4000004261514946002141454B31002F
:101C50001814127F10002745454539003C4A494970
:101C6000300001710905030036494949360006492B
:101C700049291E00003636000000005636000000DC
:101C800008142241000014141414140000412214FA
:101C90000800020151090600324959513E007C12E8
:101CA00011127C007F49494936003E4141412200E2
:101CB0007F4141221C007F49494941007F090909B0
:101CC00001003E4149497A007F0808087F00004131
:101CD0007F4100002040413F01007F081422410065
:101CE0007F40404040007F020C027F007F040810CC
:101CF0007F003E4141413E007F09090906003E4107
:101D000051215E007F0919294600464949493100A1
:101D100001017F0101003F4040403F001F20402063
:101D20001F003F4038403F00631408146300070859
:101D300070080700615149454300007F41410000A0
:101D4000552A552A55000041417F00000402010236
:101D500004004040404040000001020400002054C4
:101D6000545478007F4844443800384444442000A8
:101D7000384444487F00385454541800087E090100
:101D8000020018A4A4A47C007F0804047800004486
:101D90007D4000004080847D00007F1028440000CA
:101DA00000417F4000007C04180478007C08040493
:101DB0007800384444443800FC24242418001824B3
:101DC0002418FC007C0804040800485454542000E3
:101DD000043F444020003C4040207C001C20402028
:101DE0001C003C4030403C004428102844001CA00B
:101DF000A0A07C004464544C441414141414140023
:101E000000000000000000000000000000000000D2
:101E10000000F80000000000000033300000000067
:101E2000100C06100C06000000000000000000402E
:101E3000C07840C0784000043F04043F0404000020
:101E40007088FC08300000001820FF211E0000F000
:101E500008F000E018000000211C031E211E0000F5
:101E6000F00888700000001E21232419272110107B
:101E7000160E00000000000000000000000000003E
:101E80000000E018040200000000071820400000D5
:101E9000020418E000000000402018070000004085
:101EA0004080F0804040000202010F010202000069
:101EB0000000F0000000000101011F01010100000D
:101EC0000000000000000080B07000000000000072
:101ED00000000000000000000101010101010100FB
:101EE0000000000000000000303000000000000092
:101EF0000000008060180400601806010000000067
:101F0000E010080810E000000F102020100F000063
:101F10001010F8000000000020203F2020000000EA
:101F20007008080888700000302824222130000042
:101F3000300888884830000018202020110E00004A
:101F400000C02010F8000000070424243F240000F3
:101F5000F80888880808000019212020110E0000C8
:101F6000E0108888180000000F112020110E0000DA
:101F7000380808C83808000000003F0000000000D2
:101F800070880808887000001C222121221C000093
:101F9000E010080810E0000000312222110F0000BC
:101FA0000000C0C000000000000030300000000051
:101FB00000008000000000000080600000000000C1
:101FC000008040201008000001020408102000409A
:101FD0004040404040400004040404040404000065
:101FE00008102040800000002010080402010000BA
:101FF0007048080808F0000000003036010000C0FA
:1020000030C828E810E0000718272423140B00002C
:1020100000C038E0000000203C23020227382008DE
:10202000F8888888700000203F202020110E00C012
:102030003008080808380007182020201008000879
:10204000F808080810E000203F202020100F0008AA
:10205000F88888E8081000203F2020232018000876
:10206000F88888E8081000203F200003000000C026
:102070003008080838000007182020221E02000837
:10208000F808000008F808203F210101213F200046
:102090000808F8080800000020203F202000000069
:1020A000000808F8080800C08080807F0000000851
:1020B000F888C028180800203F2001263820000892
:1020C000F8080000000000203F20202020300008F9
:1020D000F8F800F8F80800203F003F003F20000813
:1020E000F830C00008F808203F200007183F00E043
:1020F0001008080810E0000F10202020100F000822
:10210000F808080808F000203F210101010000E064
:102110001008080810E0000F18242438504F000859
:10212000F8888888887000203F2000030C30200049
:10213000708808080838000038202121221C001867
:102140000808F8080818000000203F2000000008D8
:10215000F808000008F808001F202020201F0008B1
:1021600078880000C83808000007380E010000F821
:102170000800F80008F800033C0700073C030008CB
:102180001868808068180820302C03032C30200841
:1021900038C800C83808000000203F2000000010A8
:1021A000080808C838080020382621202018000018
:1021B0000000FE020202000000007F4040400000DC
:1021C0000C30C000000000000000010638C0000014
:1021D000020202FE000000004040407F00000000BC
:1021E00000040202020400000000000000000000E1
:1021F00000000000000000808080808080808000DF
:1022000002020400000000000000000000000000C6
:10221000008080808000000019242222223F2008B4
:10222000F8008080000000003F112020110E000007
:1022300000008080800000000E112020201100008E
:102240000000808088F800000E112020103F200040
:1022500000808080800000001F22222222130000C4
:102260008080F0888888180020203F20200000000F
:1022700000808080808000006B94949493600008BC
:10228000F8008080800000203F210000203F2000D7
:10229000809898000000000020203F2020000000CF
:1022A0000000809898000000C08080807F000008B7
:1022B000F8000080808000203F24022D30200000A4
:1022C0000808F8000000000020203F2020000080C7
:1022D00080808080808000203F20003F20003F8061
:1022E00080008080800000203F210000203F2000EF
:1022F00000808080800000001F202020201F0080A0
:102300008000808000000080FFA12020110E0000CE
:1023100000008080808000000E112020A0FF8080BF
:102320008080008080800020203F2120000100006C
:102330000080808080800000332424242419000041
:102340008080E0808000000000001F2020000080CE
:1023500080000000808000001F202020103F20808F
:102360008080000080808000010E3008060100801F
:10237000800080008080800F300C030C300F000044
:10238000808000808080000020312E0E312000806F
:102390008080000080808080818E7018060100009F
:1023A000808080808080000021302C22213000003D
:1023B000000000807C020200000000003F4040005E
:1023C00002027C800000000040403F00000000004E
:1023D000000000FF00000000000000FF00000040BF
:1023E000221408F40200F80808FF0808F8000000AA
:1023F00000000000000000000000000000000008D5
:102400004482413F00206321213F212933600000A5
:10241000000000000000000000000000000000209C
:1024200010E824272424E424342C20E000000000B9
:10243000000000000000000000000000000000801C
:10244000601F090909097F090949897F0000000007
:10245000000000000000000000000000000000007C
:10246000007C545556547C545655547C0000000052
:10247000000000000000000000000000000000015B
:102480000101FD45454545454545FD01010100006A
:102490000000000000000000000000000000000834
:1024A00007000000B80B0000200101000807000031
:1024B000B80B000020000100080004000003000029
:1024C0000710000008076200000000000000000084
:1024D00000000000000000000000000008000000F4
:1024E0001800000000300000082500000000202037
:1024F000C800000020010000D0250000C8002020F6
:10250000200400004801000000000000000000005E
:102510000080800040E0E06000408000000080809B
:102520006060100000000000000000000090B26633
:102530006EECC98302004080000C0C0103070F11F0
:1025400020408000000000000000000008183B3719
:1025500066EEEECC88800000010204081010101016
:1025600010100F0000000000003E4040403E007E82
:102570000408107E007E003C42424242007E4242FD
:10258000427E007E0408107E14000000140000004B
:10259000000000000000000000000000000000003B
:1025A00000000A40020000000100000000000A4094
:1025B000010000000000000000000000E80300002F
:1025C00000800E4400004040AAAAAAAA0000000011
:04000005000000C136
:00000001FF
