:020000040000FA
:10000000A03F2020290200002D0200002F02000046
:1000100000000000000000000000000000000000E0
:10002000000000000000000000000000651C00004F
:100030000000000000000000211C00008D200000D6
:1000400037020000291B00003702000037020000C1
:1000500037020000370200003702000037020000BC
:10006000000000003702000037020000000000001E
:10007000000000003702000037020000AD20000041
:10008000370200003702000037020000370200008C
:1000900037020000370200000000000000000000EE
:1000A00037020000370200000000000000000000DE
:1000B0003702000000000000370200003702000095
:1000C00000F002F800F069F812A030C808382418CF
:1000D0002D18AC4201D100F060F80FCCA246AB461F
:1000E0000CA730CF2D1B083F3F197C427F1E544484
:1000F0002D090426F441641EAC4201D300F04DF8F2
:100100000126334200D0FB1A3343984754465D46DC
:10011000DFE700006C8400008C8400000000000019
:10012000103A02D378C878C1FAD8520701D330C840
:1001300030C101D504680C60704700000000000069
:100140007047000000000000002300240025002666
:10015000103A01D378C1FBD8520700D330C100D583
:100160000B60704710B5662902D107F017F810BD73
:10017000732902D100F07DFE10BD002010BD1FB517
:1001800000F08EF900F0DCFE04000020002106F0F3
:10019000DDFEE0601FBD10B510BD01F09FFA1146F5
:1001A000FFF7EDFF02F066FB01F0B7FA03B4FFF7CB
:1001B000F2FF03BC01F012FB30B40C490C684A6832
:1001C00023681068C0181060241D121D8C4207D2CD
:1001D0008A4208D20C604A6030BC40004008704738
:1001E0000C00DC3CF6E70A00DC3AF3E7FC002020D8
:1001F00070B505460C46164602E00FCC0FC5103E02
:10020000102EFAD2082E02D303CC03C5083E042ECA
:1002100007D301CC01C5361F03E021782970641C87
:100220006D1C761EF9D270BD06480047FEE7FEE75A
:10023000FEE7FEE7FEE7FEE703480449044A054BF4
:1002400070470000C1000000A01F2020A03F202018
:10025000A02F2020A02F20200FB41CB50C0007AA2F
:10026000009007D04142A14202D30019401E01E094
:100270000020C043074B7B4469460190069800F07C
:10028000CAFD0021002C01D0009A11701CBC08BCD2
:1002900004B01847C30B000070B50C460546012A90
:1002A00005D02878800600D5EA69002302E0012302
:1002B00005E05B1C934202D2E05C0028F9D1A869FA
:1002C000E618C01AA861286AC01828622846C046E5
:1002D000C04604E06A682078A968641C9047B4426C
:1002E000F8D32846C046C04670BD0000F3B50446AA
:1002F000002081B020622046E1688847002872D043
:10030000252802D06268A168ABE0594F00267F44DF
:100310002046E16888472028054608DB312D06D2B3
:10032000781920380078002801D00643F0E7B0079C
:1003300001D5042086430020E0610746A0612A2DF4
:100340000AD0284606F038FD002827D0B80000194A
:10035000303D0090856119E00298BA00121902C878
:10036000916102902046E1688847012F054617D128
:10037000E06900281FDA202086431CE000980A214B
:100380008069484300994019303888612046E16807
:100390008847054606F010FD0028EFD1012F0AD04E
:1003A0002E2D08D12046E1688847054620200643C7
:1003B0007F1C022FC3DBA069002803DA4042A06142
:1003C00001200643F00701D0102086436C2D0BD08E
:1003D000682D09D04C2D3CD06A2D38D0742D38D0E2
:1003E0007A2D36D016E040E0E1682F462046884757
:1003F000B842054609D16C2F29D001208002E1685E
:10040000064320468847054604E06C2F1DD0FF2098
:1004100001300643002D28D028464138192803D83A
:100420000120C00206432035204626602946029A54
:100430001646FFF797FE002810D001280BD0F61DB6
:10044000F008C0000830029055E74020E1E7802026
:10045000D5E70020D3E7361D02964CE762682846B0
:10046000A1689047206A401C44E7206AFEBD000056
:100470009A6E00000B4A30B511460B4C60310B46AA
:10048000DC3B0CC1372106E0020C8D0012185A51DA
:10049000064A504300190A46491E002AF4DC30BDC2
:1004A0000120E7E79C002020E119D666CD0D010070
:1004B000F8B5042A2CD3830712D00B78491C03709B
:1004C000401C521E83070BD00B78491C0370401C44
:1004D000521E830704D00B78491C0370401C521E27
:1004E0008B079B0F05D0C91ADF002023DE1B08C92C
:1004F0000AE0FFF77DFEF8BD1D4608C9FD401C4619
:10050000B4402C4310C0121F042AF5D2F308C91AB4
:10051000521EF0D40B78491C0370401C521EEAD4C2
:100520000B78491C0370401C012AE4D4097801703F
:10053000F8BDD2B210B513029A1813049A1800F03D
:1005400001F810BD01E004C0091F0429FBD28B078C
:1005500001D50280801CC90700D0027070470029B5
:100560000BD0C30702D00270401C491E022904D3DD
:10057000830702D50280801C891EE3E70022EEE794
:100580000022DFE7002203098B4273D3030A8B4268
:1005900058D3030B8B423CD3030C8B4221D312E084
:1005A00003460B437FD4002243088B4274D30309D4
:1005B0008B425FD3030A8B4244D3030B8B4228D375
:1005C000030C8B420DD30902FF2212BA030C8B429B
:1005D00002D31212090265D0030B8B4219D300E03B
:1005E000090AC30B8B4201D3CB03C01A5241830BC0
:1005F0008B4201D38B03C01A5241430B8B4201D370
:100600004B03C01A5241030B8B4201D30B03C01A98
:100610005241C30A8B4201D3CB02C01A5241830A12
:100620008B4201D38B02C01A5241430A8B4201D341
:100630004B02C01A5241030A8B4201D30B02C01A6B
:100640005241CDD2C3098B4201D3CB01C01A5241D2
:1006500083098B4201D38B01C01A524143098B425B
:1006600001D34B01C01A524103098B4201D30B0144
:10067000C01A5241C3088B4201D3CB00C01A524169
:1006800083088B4201D38B00C01A524143088B422E
:1006900001D34B00C01A5241411A00D201465241C7
:1006A000104670475DE0CA0F00D04942031000D3E6
:1006B000404253409C46002203098B422DD3030A3B
:1006C0008B4212D38901FC2212BA030A8B420CD34B
:1006D000890192118B4208D3890192118B4204D374
:1006E00089013AD0921100E08909C3098B4201D3F4
:1006F000CB01C01A524183098B4201D38B01C01A2E
:10070000524143098B4201D34B01C01A52410309A4
:100710008B4201D30B01C01A5241C3088B4201D353
:10072000CB00C01A524183088B4201D38B00C01A00
:100730005241D9D243088B4201D34B00C01A5241D7
:10074000411A00D201465241104663465B1001D364
:100750004042002B00D54942704763465B1000D3EE
:10076000404201B50449002802DC491C084000E071
:100770000846C046C04602BDFFFFFF7F7047704776
:10078000704700000121C9050123411842001B06E2
:10079000D3185B0E0AD0C1100722D2068918400771
:1007A0005242D14201D5520089187047090208D53A
:1007B0000146002A03D0C10FC90700207047104628
:1007C0007047420202D00020024970470721090504
:1007D0000143F4E70000F87FF0B5FF252D04C609BA
:1007E000C209FF2704462E400137CB093E4348404B
:1007F0002A402B400746002A6BD0002B69D0AA4222
:1008000067D0AB4265D0002800DA32460125ED05FD
:1008100029432C4309022002090AD21A4B0C7F24D7
:10082000E31A434C000A7C44E35C7D24240412193F
:1008300014145B00A218884201D3521C00E040004F
:1008400049420C465C4324115C43DB016415E31808
:10085000040A5C43C502200D0C4644436419250A72
:100860005D432303EC0C0D46654300030019EB18B0
:100870004C42A34201D35B18401CD4052018002B26
:1008800007D05B00C91804D3401C002901D14008DF
:1008900040003F2189048A4209D3002A08DC11065E
:1008A000090F04D0032149074018C00FC007F0BD4D
:1008B00001224100120689187F2252069142F6D287
:1008C00005214907C84201D59010F0BDFF20C005A1
:1008D000F0BD002F00DA32461648AA4207D2AB42DA
:1008E00005D21902090E17D0F80FC007F0BDFF2579
:1008F00063002D06AB42F9D84900A942F6D8AB42B5
:1009000001D1A942F2D0A94201D1002101E0610048
:100910004908D0050843F0BD1102090EFBD0FF20A5
:100920000243D005F0BD0A460146104654E70000D8
:10093000936900000000C07F10B501469E240002AC
:10094000CA15A307002A02D01843002A04DBA21A02
:10095000002A0CDDD04010BD1206120E01D140005D
:100960004008A21A03D4D04040420028F3DDFF2201
:1009700048001206904201D9002010BDC817C0439C
:10098000584010BD1F22030C02D10F2200041CD0BE
:10099000030E01D10002083A030F01D10001121F1A
:1009A000830F01D18000921E002801DB4000521EFF
:1009B000D2055118021251181922904004D3491C33
:1009C000002801D14908490008467047C10FC907EE
:1009D00000D04042012292071143D3E70121890749
:1009E000D0E710B500F0B0FA006810BD10B50446AD
:1009F00000F0AAFA046010BDFFB50C461E468FB089
:100A000003CA089009914F007D0D00D16D1E002191
:100A100008460020C0460321099A89050840002A9B
:100A200003DA8200801840080840800D01280A90EF
:100A300002DD0020C0430A90089807430DD0F0481B
:100A4000F049281848430714189800281DD075420B
:100A5000291E1DDD0A9842421BE01898012802D089
:100A60000020302104E00020F24305E02154401C26
:100A7000B042FBDB30460022189B002121540F9925
:100A80008B600A60486013B0F0BDBD1B6D1CDFE7D2
:100A90000A9A002900DA69420BA800F0DBFA0BABD6
:100AA00007CB03AB07C30899099800F03FFB6B46DF
:100AB00007C30146D4480918002D00910BDDD24927
:100AC00003980A9A49424018002303A903906846F4
:100AD00000F09CFD08E003990A9A0023081803A976
:100AE0000390684600F03CFD6B4607C30004000C11
:100AF00003D00020C043410800E01046189A002AA5
:100B000003D00022009215461EE0751E05D400F0A9
:100B10001FFA303262556D1EF9D50122084307963F
:100B200002D000227F1C04E02078302801D100226E
:100B30007F1E002A069787D01EE0112D07DA00F0ED
:100B400007FA303262556D1C02460A43F5D108435C
:100B500003D00098002819D00EE00021681E05E09F
:100B6000235C625C63542254401E491C8142F7DBC3
:100B7000A81B401E07950690079A18990020A054BC
:100B80000F98079B069A81600CC07CE71126002015
:100B9000189059E7D21DF0B50D460446D10893B020
:100BA000C90003C90C900D9106F00CF802460D988F
:100BB000C00F01D02D2007E02068810701D52B2030
:100BC00002E04007C00F4001032A0F9001D0072A1E
:100BD00005DB03462946204600F0F8F90EE12078AF
:100BE000800601D5E76900E006272846652D04D078
:100BF000662814D0672D69D12DE00020112F0090B8
:100C000001DB112300E07B1C0CAA03A910A8FFF74D
:100C1000F3FE1199002610987D1C0E9142E00120F0
:100C20003B460CAAC0070B900120009003A910A816
:100C3000FFF7E2FE119D12981099002600280E95EC
:100C400001D1781C0D18781B02D446427D1C761EFB
:100C5000E81B00903AE0012F00DA01270020112F55
:100C6000009001DD112300E03B460CAA03A910A867
:100C7000FFF7C2FE11993D46109800260E9121788B
:100C800009070BD40E99A94200DA0D4603A9012DDC
:100C900004DD4A19203AD27F302A06D0B84201DA60
:100CA000011D04DA012100910FE06D1EEFE700281D
:100CB00002DC86192D1A03E0411CA94200DD0D4615
:100CC000801B401C00900120C0070B90207800077B
:100CD00005D40098A84202DB0020C043009069467A
:100CE0000020C8720B98012102AF0337C907884260
:100CF00025D0022010902B2011900B9800280BDAA1
:100D000040420B902D20119006E00B9800F0CEFC95
:100D100030317F1E0B9039701099481E00291090B9
:100D2000F3DC0B980028F0D111987F1E38702088D2
:100D3000000501D5452000E065207F1E387001A820
:100D4000C01BC01D0B900F98002800D00120411936
:100D50000098C01709180B980818A169081A401EB6
:100D6000A0612078C00602D42046C046C0460F9835
:100D7000002805D06268A1689047206A401C206264
:100D80002078C00625D52046C046C04621E0002E6A
:100D900007DB0E98B04204DD03A86268805DA1689D
:100DA00002E06268A16830209047206A761C401CEF
:100DB00020620098401E002800900AD100F0C0F880
:100DC000C06862680168405CA1689047206A401C66
:100DD000206228466D1E0028D9DC07E0626838785A
:100DE000A1687F1C9047206A401C20620B99481E16
:100DF00000290B90F2DC2046C046C046032042E6A4
:100E000001FCFFFF104D0000E1DFFFFF01694A1CFC
:100E100002610878704700B58FB0029100210591FA
:100E20000549019379440391114604906846FFF700
:100E30005DFA0FB000BD0000E5FFFFFF0CC90839E7
:100E40009A4202D2531C0B601070704710B5436970
:100E5000002B02D0C046C04601E0FFF71DFA01207A
:100E600010BD1278014624310A7000224A70012216
:100E7000ECE711680022D243E8E70000C10D10B58D
:100E80000906090E2ED0FF2931D07E292DD319D085
:100E9000962916D2024675398A4005D000240246AA
:100EA0008A4003D3012302E00124F8E70023022251
:100EB000CA41511E8843002B03D08018002C00D05B
:100EC000904310BD0121420201D1012200E0002225
:100ED000C00FC0070029F4D0002AF2D17F21C90534
:100EE000084310BDC00FC00710BD0021EFE741024D
:100EF000FAD0014810BD00000000C07F10B5FF22ED
:100F0000C30D134009D05A4007D0914205DA5C4224
:100F1000A14202DDC905081810BDC40FE407002B6B
:100F200006D0002A06D0002902DBFF20C0050443BA
:100F3000204610BD4102FCD0004810BD0000C07F1B
:100F400000487047240120200048704704012020F9
:100F50000B4670B5024689078008084319469D086C
:100F6000141AA94125090807054308092C19484105
:100F7000250A01060D43010A2C194141200C0D04DC
:100F800028430D0C00194D41002140194D41C00866
:100F900069070843E908840F8D002543840024185D
:100FA0004D4124196D41121BAB4107E00925ED436A
:100FB0002C11521963410024401C61411C460A2532
:100FC0000026551BB441F1D270BD0000F8B51F4694
:100FD000044601230068DB02032601461840072A65
:100FE00005DB002801D017A506E017A504E00028BE
:100FF00001D016A500E016A5102081432160A0694C
:10100000C01E002FA06101D0401EA0612046C04636
:10101000C046002F09D038466268A1689047206A10
:10102000401C2062C01C206206E0206AFAE7626869
:101030002878A1686D1C9047761EF8D22046C046DD
:10104000C046F8BD4E414E006E616E00494E4600EE
:10105000696E6600F7B516468AB0334878446C4628
:1010600003467C33C06F5A689B680DC42E48784491
:10107000763003AC0DC80DC43720C00108183721E5
:101080001B30FFF78DFA05460C46803D1B3C02D510
:101090006442012000E000200027099010E0E007F2
:1010A0000CD00C2020497843794432464C39411801
:1010B0006846012300F054FA6B4607C364107F1C96
:1010C000002CECD1184F7F442E3F16E0E80712D0D9
:1010D0002001C0190EC80691089307920068F042DB
:1010E00001D1981908903246012306A903A800F0FF
:1010F00037FA03AB07C36D10641C002DE6D10998C5
:10110000002806D032466946012303A800F07EFA83
:1011100005E001233246694603A800F021FA0A9B44
:1011200007C30DB0F0BD0000C061000003464000E1
:101130000A4610B5400D0BD00121C9070F24A402A7
:1011400000191C0364082143540D2143D20207E017
:1011500000210120F2E7D40F490021435200401E34
:101160000029F8DADB0FDB07184310BDFFB50D4689
:10117000144685B04868516805F00BFD0091019058
:10118000A868A16805F005FD02910390A868616850
:1011900005F0FFFC029A12188242029201D201204D
:1011A00000E00020019A0B18D2180028019202D00A
:1011B0008A4202D903E08A4201D2012000E00020E5
:1011C0000099081800906868A16805F0E2FC029A8E
:1011D00012188242029201D2012000E00020019AFE
:1011E0000B18D2180028019202D08A4202D903E0DB
:1011F0008A4201D2012000E00020009908180090E6
:101200002868216840004900400849084018FA4908
:10121000471814E001994000C90F08430090019855
:1012200002994000C90F08430190029803994000B9
:10123000C90F08430290039840007F1E0390009856
:101240000028E7DA0898002801D0EC4E00E00026DC
:10125000B74201DA012000E00020002804902AD0E3
:10126000F71BF806C00E15D0029B2021091A039A1D
:101270008B401A430392029A019BC2408B401A434F
:101280000292019A009BC2408B4000991A4301923E
:10129000C14000917B110DD06F460320C11A03D5C8
:1012A00000218200B95003E08A008100BA587A50C8
:1012B000401EF3D5374603980299002800D001203C
:1012C000014308980291002808460CD0002800D05D
:1012D00001200199019A490508430121D20AC90256
:1012E000D202019200E001210E9B0122D207012BC4
:1012F00002D0002B03D013E0002807D120E0904259
:1013000004D890420CD1019B0B4209D0019B591883
:10131000019105D10099491C009101D17F1C0092D7
:1013200000280DD0102108460020C046049800284F
:1013300006D00F98002803D0082108460020C04698
:1013400028682168019B009A4840C10F0598C90789
:1013500039430EC009B0F0BDFFB587B0099A0898AF
:1013600008995368926840688968964600220393FA
:1013700017469446089A12685300099A5B08126847
:10138000520052089A1A9E4BD4180A9A002A01D089
:10139000352200E0402206920022012315460492E5
:1013A000DB07059324E0002D05D175460346039E17
:1013B0004D1BB34109D375466646039B491B049DEB
:1013C0009841059B7519AC465F4163463B4308D085
:1013D000059B049EDD0776082E435B080496059363
:1013E00001E0521E641EC50FED0749184041521C12
:1013F000069B9A42D7DB002D04D17546039A6B1ADF
:10140000824101D203200CE0039A0B466B4042401C
:10141000134303D0014303D0012002E0022000E087
:101420000020614601910021009702910A9900294C
:1014300005D0614640020143704B019102E08007F4
:10144000002302909C4201DA012000E00020070006
:101450003AD01A1BD006C00E15D0029D2021019C47
:10146000091AC5408C402543029C8C4000D00124C1
:101470002543019C0295009DC4408D4000992C435A
:101480000194C140009154111DD06D4602210022EB
:1014900002290CD10320001B07E0002804DB860092
:1014A000AE59002E00D00122401C0328F5DB081B9A
:1014B00002D588002A5004E08000285810438A0092
:1014C000A850491EE3D51C460A98002802980CD063
:1014D000002800D001200199019A49050843012103
:1014E000D20AC902D202019200E00121109B01221E
:1014F000D207012B02D0002B03D013E0002807D124
:101500001FE0904204D890420CD1019B0B4209D0BD
:10151000019B5918019105D10099491C009101D1F5
:10152000641C009200280CD0102108460020C04600
:10153000002F06D01198002803D00821084600206B
:10154000C04608980999019A009B006809684840BC
:10155000C10F0798C907214382600AC00BB0F0BDD4
:1015600000B585B0019300920A460146002302A807
:10157000FFF7FCFD02A807C805B000BDFFB50A468D
:101580001F4685B00799019301230091014602A8E7
:10159000FFF7ECFD02990398049ECA0F4900D20799
:1015A00000920F22490892028C1A0021002800DBC9
:1015B0000C46450013486D08844214D3079A002A4C
:1015C00004DA441E0026104DF64302E004460D46A0
:1015D0000E46102108460020C046002F03D00421EB
:1015E00008460020C0462005E90A08430099084340
:1015F0006905F20A1143ADE602C0FFFF013C00009D
:10160000FF3F0000FF070000FFFFFF7F00B585B030
:10161000019300920A460146002302A8FFF79CFEB0
:1016200002A807C8A8E7FFB50A461F4685B0079974
:10163000019301230091014602A8FFF78DFE029954
:101640000398049ECA0F4900D20700920F2249084E
:1016500092028C1A0021002800DB0C46450011483C
:101660006D08844214D3079A002A04DA441E002627
:101670000D4DF64302E004460D460E461021084685
:101680000020C046002F03D0042108460020C04699
:101690002005E90A0843009908436905F20A114345
:1016A00058E60000FF070000FFFFFF7F01468008AB
:1016B000081A02091018020A1018020C1018C008A3
:1016C000820012185200891A01E0401C0A390A29C6
:1016D000FBD2704700487047040120207546FFF791
:1016E000F9FFAE46050069465346C008C00085466E
:1016F00018B020B5FEF7A0FD60BCB6460026002756
:10170000C0C5C0C5C0C5C0C5C0C5C0C5C0C5C0C5B1
:10171000403D490849008D46704710B50446C04613
:10172000C0462046FEF742FD10BD000082078B0731
:101730009A423FD170B5920F0AD0032402780B78F9
:10174000401C491C002A33D09A4231D12042F5D1A5
:10175000214EF40104C808C9951B9543254018D1B2
:101760009A420FD104C808C9951B9543254010D152
:101770009A4207D104C808C9951B9543254008D152
:101780009A42E7D012BA1BBA01209A4200D24042D4
:1017900070BD12BA1BBA2DBA18241000E04019000F
:1017A000E140401A05D12E00E64002D1083CF4D1B8
:1017B000D01A70BD02780B78401C491C002A09D051
:1017C0009A4207D102780B78401C491C002A01D0AC
:1017D0009A42EFD0D01A7047010101010149182047
:1017E000ABBEFEE7260002007047811E091F00BF46
:1017F000FCD2704770B50A780C231A4001242403E8
:1018000005196E689E43B2186A6049780722114034
:10181000035993435918015170BD0000B0B511220E
:10182000120283580C4C1C400B894D881D438B7948
:101830002B430A4D1D402B1983508B88CC791C43B8
:10184000097821435D239B001940801842689A4320
:1018500089184160B0BDC04680CCFFFF7F330000D7
:1018600010B50122120383180C785C60497881500E
:1018700010BD0000F0B57A4A82183B4BC3180879B6
:101880004E793A4D784C002E23D0202804D00526DE
:10189000F601002803D003E0354E002800D1882649
:1018A000576F2F4037435767976F2F4037439767DE
:1018B000566B26405663966B264096630026566507
:1018C00096658F26F6435F6837405F609F683740B4
:1018D0009F608E79096820280BD0002819D1491EF5
:1018E0005160D76E2F4088210F43D7661746703757
:1018F00019E0491E5160D16E29401D4F3943D16610
:10190000116F29403943116701214907194D1746C5
:1019100009E049085160D76E2F400521C9010F43E6
:10192000D766174670373C682C400C433C60D16A40
:101930004D4C2140D162116B214011630021D164D3
:1019400011658F21C943D46F0C40D4671C680C40CB
:101950001C600643BD2030401168074B0B40C01887
:10196000801C1060F0BDC0468418000024493E0071
:1019700001040000FFFFFFCF4000FFCFB0B54A6871
:10198000364BC250364A80180A78222A58D893001B
:1019900001A4E3589F46C046371A0000411A0000D0
:1019A000371A0000411A0000411A0000411A0000D5
:1019B000411A0000411A0000411A0000411A0000BB
:1019C000411A0000411A0000411A0000411A0000AB
:1019D000411A0000411A0000251A0000411A0000B7
:1019E000251A0000411A0000411A0000411A0000A7
:1019F000411A0000411A0000411A0000411A00007B
:101A0000411A0000411A0000411A0000411A00006A
:101A1000411A0000411A0000251A0000411A000076
:101A2000251A000003231B0704689C4301235B075E
:101A3000E318036004E003231B0704689C4304606D
:101A40000B69C360CB68074C1C40C36A064D1D4040
:101A50002B19C362097A11430160B0BD0818000058
:101A600004180000777702008888FDFF10B507236F
:101A70009B04194092008018024A84589C436118C4
:101A8000815010BD3018000010B5029CA400001950
:101A900011431943014A815010BDC046501800003F
:101AA00092008018014A81507047C046101800000B
:101AB00010B50122120383180C789C604B78835078
:101AC0008978014A815010BD0C110000B0B5112277
:101AD000120283580124A34383500B888C781C4343
:101AE0008B882343094C1C408358094D1D406319C2
:101AF00083508B79CC791C43097A21437E2319408A
:101B0000801842689A4351184160B0BD18670000C0
:101B1000E798FDFF10B50122120383180C789C6032
:101B20004978815010BD0000F0B583B0344D28468F
:101B300018380068800760D5324E103E3068C00605
:101B400031492AD5086840210140304F397030486A
:101B500000680024019401AA214604F029FC012810
:101B60000ED13878002801D0012000E0E043294957
:101B70000A68801808602648006801A904F019FB6B
:101B80000198002803D001200007234908601D4A5E
:101B900010681021014311601B493068800628D568
:101BA000086880210140194F7970194E306800246F
:101BB000029402AA214604F0FBFB01280DD178789B
:101BC000002801D0E04300E0012014490A68801891
:101BD0000860306802A904F0ECFA0298002803D0EB
:101BE000012000070C490860064A106820210143C3
:101BF0001160286802210143296003B0F0BDC0468E
:101C00005811404048300A4080330A406401202087
:101C1000241F2020F003202004ED00E038072020BE
:101C2000EFF309800E4B1A6820381060F0C044466C
:101C30004D4656465F46F0C008B572B603F0F0FF59
:101C400062B60CBC116808681030F0C8A046A946FE
:101C5000B246BB4680F309882038F0C81847C04612
:101C60005806202070470000F0B52D498720C8662F
:101C700001239A032B48026088220A612A4A082419
:101C8000146084248C628024146082254D611024A9
:101C90001460264C661C4E600E605B064E681E4348
:101CA0004E600E681E430E604D64214D8D64214EC2
:101CB0008327B7610F676D1C75618125F5650F4638
:101CC0000C3F3D600F46083F3D603560B562F563EF
:101CD000CC640C654C638C63174C4C664C658C650E
:101CE000CC650C661146303903240C601460014643
:101CF0003039132212040A60014640390B600F4943
:101D00000160352000020E490A6802430A600D484E
:101D1000016A302211430162016811430160F0BD84
:101D200010804240D0320A40D0120A4081000C009C
:101D3000820004008480424081000E0000001302F3
:101D400090330A4028300A4010B511481149FFF776
:101D500051FD03225102104803680B430360012127
:101D60000B0204681C430460002343614262826BDF
:101D700007239A4382631A02836B93438363826AC5
:101D8000042313438362826A0A43826210BDC04601
:101D900000200F40B472000000320F4070B582B0D6
:101DA0001B4C1C492046FFF783FE1B492046FFF7CA
:101DB00061FD1A4801683C4A0A400260002500950E
:101DC000204629462A462B46FFF75EFE2046294636
:101DD0002A46FFF74BFE204629462A46FFF760FEBB
:101DE00001260096204629462A462B46FFF74CFE40
:101DF000204629463246FFF739FE2046294632461C
:101E0000FFF74EFE064886600321016002B070BDF8
:101E100000008640B6720000BC72000004188640C4
:101E20000011864070B582B01B4C1C492046FFF75C
:101E30003FFE1B492046FFF71DFD1A4801681A4A5C
:101E40000A40026000250095204629462A462B4676
:101E5000FFF71AFE204629462A46FFF707FE2046CE
:101E600029462A46FFF71CFE0126009620462946F1
:101E70002A462B46FFF708FE204629463246FFF742
:101E8000F5FD204629463246FFF70AFE07488660E0
:101E90000321016002B070BD00000940C47200005F
:101EA000C8720000041809407F00FFFF00110940BC
:101EB00010B50D4C0D492046FFF7D2FC0C492046C9
:101EC000FFF7ACFC0B4841680B4A0A400F324260F6
:101ED000816812220A432D218A438260016801220F
:101EE0000A43026010BDC04600A04640D072000008
:101EF000D272000004B1464000FCFFFF04480021FC
:101F00000160044801680322914301607047C046A4
:101F100008030B4000010B4010B5084C084920464F
:101F2000FFF7C6FD07492046FFF728FD0648016870
:101F30000122114301600548026010BD0020864067
:101F4000DC720000E07200002830864008318640D4
:101F500010B5194C19492046FFF7DCFD18492046F9
:101F6000FFF7B4FD0320C103164802688A430260EC
:101F70000169154A0A4011320261416917220A4378
:101F800028218A434261426801210A4043688B4309
:101F90009A1842608A020D4B1C6814431C60FF2291
:101FA00012060B4B1C6894438A07A2181A60026839
:101FB0000A43026010BDC04600801040F472000069
:101FC000F6720000009110400000FFFF28901040C2
:101FD0000CE400E080B500F021F8FFF745FEFFF7C4
:101FE0008DFFFFF7DBFEFFF71DFFFFF795FFFFF704
:101FF000ABFEFFF7ADFFFFF75BFFB82004490022FF
:102000000A5404490A54242003490A5480BDC04696
:10201000300320204C02202008032020F0B581B09E
:1020200010481149416011484160114B5960114CF1
:102030006160114D6960114E7160114F79601148F6
:1020400041601149074A1160084A11601960216016
:1020500029603160396001601020FFF7C6FB01B0D4
:10206000F0BDC04600080A40030000B100280A4045
:1020700000088640000809400028864000280F40DC
:102080000088104000A846400100002610B502F06C
:102090007CFF044604F070FA002803D001200007FA
:1020A00057490860204603F05AF810BD80B505482E
:1020B0000068C0B20B2804D103480068C0B200F029
:1020C000EDFC80BD209010402491104080B582B07E
:1020D0001E490A68521C0A601D4951431D4A91421B
:1020E00001D902B080BD4449884213D02C318842C6
:1020F0001CD1424800683C21415C4A1E0168914263
:1021000001DA491C016006C8121D083891420DDB36
:10211000C91E0AE0394800680168012901DB491E2F
:10212000016006C80838914200DA4160002101913F
:10213000D148006801AA03F035FC01980028D0D0EE
:10214000012000072E49086002B080BD68012020F0
:10215000CDCCCCCC3333333380B582B026498842E2
:1021600010D00A462C32904219D00A46583290427A
:1021700027D0843188422FD120480168096900297D
:1021800029D129E01D4800680168012901DB491EA9
:10219000016006C8083891421EDA41601CE0174809
:1021A00000683C21415C4A1E0168914201DA491CE9
:1021B000016006C8121D083891420DDBC91E41603E
:1021C0000AE00E4801683C228A5C002A04D00A68B2
:1021D000920089184969016000210191A6480068B0
:1021E00001AA03F0DFFB0198002803D001200007BB
:1021F0000349086002B080BD6C012020140020203B
:1022000004ED00E089004018C2607047F0B581B06D
:102210001E4615460F4604462C21FEF7B1F9A7606D
:102220002671A0780F2101408031A1706842684179
:10223000C001E907490E0818E1783F220A408018DA
:10224000E07001B0F0BD000083490A68002A04D0A4
:10225000824207D0926A002AFAD10A688262086034
:10226000002070470020C0437047C046B0B57A4890
:10227000046801E0E070A46A002C00D1EBE0207952
:10228000A1688847E1784A0702D02288521C228040
:10229000CA09904202D1C72001400EE0C7220A407D
:1022A000CB085B1C07251D40EB009A18E270002D3F
:1022B00004D047221140C0010918E170E0780721DD
:1022C0000140052907D8C0467944097949008F445F
:1022D00005441F5C0269F8210840CBE7A2780F2172
:1022E0001140C2094006C00F82427ED1A170E16850
:1022F000002901D02046884700202080A078F021C6
:102300000140481CA070E078F8210140481CB1E76A
:10231000C1094006C00F884256D1A0780F25284039
:10232000A070E168002901D020468847A0780146C6
:1023300029400F2905D0F0210140401C28404018B9
:10234000A0706169002901D02046884700202080C4
:10235000E078F8210140C81C8CE7C1094006C00F95
:10236000884246D120880B2800D284E7A0780F212C
:1023700001405031A170216A002901D020468847D0
:10238000E078F8210140481D74E7C1094206D20FE8
:102390008A4239D12188042900D26CE7F82108400B
:1023A000401C67E7A2780F211140C2094006C00F08
:1023B00082423DD16031A170616A002900D15AE7A3
:1023C00020468847A46A57E72088042800D252E7AD
:1023D000A1780F200840022837D001282FD13120C2
:1023E000A070A169002928D129E08031A170A46AD8
:1023F00042E7A0780F2101401031A1702169002926
:102400000FD0204688470CE0A0780F210140103102
:10241000A1702169002901D0204688472088022820
:102420000DD800202080E078F8210140881C21E7A9
:102430001031A1702169002901D020468847E07839
:10244000F8210140E170A46A16E74220A070E1691A
:102450000029F2D1F3E7B0BDEC03202080B582B0B3
:1024600005480121009101904A02044804A100237B
:1024700004F01CF802B080BD381F2020D1510000AC
:102480004F4C45445F4D454E55000000B0B5002807
:1024900020D00446EFF30580002807D07D200502F8
:1024A0002846FFF7A2F9641EFAD113E004F052F8AF
:1024B000022808D17D20C1004C43204604F06EFA6A
:1024C00003F0DCF9B0BD7D2005022846FFF78DF949
:1024D000641EFAD1B0BD10B5002805D004462020F6
:1024E000FFF783F9641EFAD110BD0000F0B583B088
:1024F000514C204601F040FA5049204601F0B5FD0C
:102500004F4D2868C168002901D003B0F0BD3C27B9
:10251000C15D002969D08168204601F031FD442168
:10252000615AC0B2081AC10F40184008C1B22868E9
:1025300083680822204601F083FC2868C05D0028DB
:1025400074D0002514263C4C0DE08900401814304E
:1025500000688368B2B20A21204601F071FC0D3692
:102560006D1C042D1FD03648006841686918C25D93
:10257000914218DA02689142E7D1304614380B21B3
:1025800000910B3082B200218023204601F020FA16
:10259000B2B2022120462BA301F052FC2848006869
:1025A00041686918D1E7264C2068406800280ADD98
:1025B000142080210090019102901F487C210E225E
:1025C000782301F043FC2068C15D4068001D88420B
:1025D0002CDA3620802100900191029016487C214F
:1025E0003C22782301F032FC20E01749204601F01C
:1025F000C7FC4421615AC5B2481BC10F40184008AE
:10260000C6B24620205A4008C7B2204631463A4654
:102610000D4B01F015FC142000900A3EB1B21435A8
:102620000C3FBAB220462B4601F0D2F9024801F025
:102630000EFD03B0F0BDC046F40820209C730000DE
:10264000140020203E000000007300000C480168C8
:102650000020002900D070470A4909680029FAD1F2
:10266000094909680029F6D108480068084909683D
:10267000491E884201D00120704702207047C046A1
:10268000401F2020981F20203C1F2020601F20205A
:10269000E019202080B501684A7B2D2102F056FC0C
:1026A00080BDF0B585B00446CA090D4602914D21A2
:1026B000039102F04BFC2046FFF7ECFF4C2601276C
:1026C000204631463A46019702F040FC2046FFF78B
:1026D000E1FF002204922046314602F037FC6806F2
:1026E000C20F2046039D294602F030FC2046FFF72A
:1026F000D1FF204631463A4602F028FC2046FFF73B
:10270000C9FF20463146049A02F020FC029FB80619
:10271000C20F2046294602F019FC2046FFF7BAFFF7
:1027200020463146019A02F011FC2046FFF7B2FF25
:1027300020463146049D2A4602F008FCF806C20FE6
:102740002046039902F002FC2046FFF7A3FF204633
:102750003146019F3A4602F0F9FB2046FFF79AFF07
:10276000204631462A4602F0F1FB02980007C20FCC
:102770002046039D294602F0E9FB2046FFF78AFF29
:10278000204631463A4602F0E1FB2046FFF782FF41
:1027900020463146049A02F0D9FB029F7807C20F07
:1027A0002046294602F0D2FB2046FFF773FF204661
:1027B0003146019A02F0CAFB2046FFF76BFF204624
:1027C0003146049D2A4602F0C1FBB807C20F2046DD
:1027D000039902F0BBFB2046FFF75CFF2046314621
:1027E000019F3A4602F0B2FB2046FFF753FF204616
:1027F00031462A4602F0AAFB029A3A403D4620465C
:10280000039F394602F0A2FB2046FFF743FF204614
:1028100031462A4602F09AFB2046FFF73BFF20464E
:102820003146049A02F092FB204639462A4602F0CD
:102830008DFB2046FFF72EFF204631462A4602F048
:1028400085FB2046FFF726FF204639462A4602F040
:102850007DFB2046FFF71EFF20463146049A02F01A
:1028600075FB05B0F0BD80B5FFF7F8FD002003F063
:1028700039F880BD82B0FFF7ADFB00230220009045
:102880000193044804A1402203F010FE03F05AF91A
:10289000FEE7C04667280000696E69745F74617363
:1028A0006B000000491ECAB2007E824200D3411E66
:1028B000C8B2704770B50546182048432B4C2618FF
:1028C000F26A1C36317D20469047810061184988A4
:1028D000ADB2A94209D130753269C1B220469047E4
:1028E000810061184988A942F5D070BD027E481C5C
:1028F000C1B2914200D30020C0B27047F0B581B0A0
:1029000018214143194C65182E461C36317D88002C
:1029100022185788205A0090EA6A2046904730755E
:10292000009A2A85AF84800021184988E984C91B50
:10293000E983205A801A04B2002C04D4012030808C
:102940000020224604E00A4830800120401A6242FA
:10295000F08110B20DB22946FDF722FEF18020462B
:10296000294604F03DF8B08001B0F0BD880D20206C
:10297000FFFF000010B50821415E0A22825E9142ED
:1029800014DA828883899A188281C388C489E318FB
:10299000C3811BB2012B05DB0488A2188281428807
:1029A0009A1AC281491C0181012010BD002010BD6E
:1029B00070B503460079821FD2B2FB2A00D270BDE7
:1029C0005A7A103A052AFAD80A33C0467A4412795C
:1029D000520097440240303828451729EFD1294941
:1029E0000C68002CEBD019785A78120251189A789A
:1029F0001204DD782D06AA1851181A795D792D0276
:102A0000AA189D792D04DE7936067519AA181D7A43
:102A10005E7A360275199E7A3604DB7A1B069B199C
:102A20005B19A04770BD0B29C9D116490969002956
:102A3000C5D0884770BD0B29C1D1124989680029CA
:102A4000BDD0884770BD0B29B9D10E49C96800298E
:102A5000B5D0884770BD0F29B1D10A494A6803E053
:102A60000F29ACD107494A69002AA8D019785C78A7
:102A7000240261189C782404DB781B061B19591862
:102A8000904770BD580720200022002904D0037809
:102A90009A18401C491EFAD1D0B27047F0B581B0E7
:102AA0003E4C21787944097949008F440239293113
:102AB0000A4B532863D13A490A683B4B985401208A
:102AC00035E037490B68384AD054581C08600A284A
:102AD00030D3507993791B021818D3791B04127ADA
:102AE0001206D21812182F480260183A0D23DB4341
:102AF0009A424ED800220A602270026001B0F0BDF6
:102B0000482819D126490A68274B985403200EE01B
:102B1000592811D122490A68234B9854042006E011
:102B20005A2809D11E490A681F4B98540220207068
:102B3000501C086001B0F0BD1948002101602170EF
:102B400001B0F0BD164D296816291DD8164A5054FB
:102B50004A1C2A60134E33689A42EBD1124A074648
:102B60001046FFF791FF874203D129680E48FFF70F
:102B70001FFF002028602070306001B0F0BD0848C1
:102B80000021016001B0F0BD0020286020700549DF
:102B9000CFE70520207001B0F0BDC04670072020AF
:102BA00054072020480220203C072020F0B581B0A7
:102BB000044602F0EDFC7A480168491C01607A4F36
:102BC000396800290AD036480068002847D1E06AF1
:102BD0003968C96A814242D83C6040E03C60006884
:102BE00001283CD1714D284602F0BCFA2846143029
:102BF00002F0B8FA2846283002F0B4FA28463C30F1
:102C000002F0B0FA2846503002F0ACFA28466430A0
:102C100002F0A8FA2846783002F0A4FA28468C3050
:102C200002F0A0FA2846A03002F09CFAB4352846FB
:102C300002F098FA1B4D284602F094FA1A4E3046DC
:102C400002F090FA194802F08DFA544802F08AFA1C
:102C5000174802F087FA17480560174806601748BA
:102C60000168491C21640160E06A4E490A6890428B
:102C700000D90860142141434C484018211D02F03E
:102C80009CFA02F08FFC06480068002806D0E06A33
:102C90003968C96A814201D202F0C2FD01B0F0BDBB
:102CA000541F2020EC1E2020001F2020401F202029
:102CB000601F20206006202068062020EC192020BC
:102CC00082B001200190344E344F354D05E0206B29
:102CD00002F076FC204602F073FC3068002817D022
:102CE00002F056FCF868C468201D02F00BFA286850
:102CF000401E28603068401E306002F053FC6120A6
:102D0000205C0228E9D00128E4D00028DFD03EE092
:102D10002448006824490968C96A0029DDD1411E98
:102D20008841224909680129019900D801460029F2
:102D3000D3D11F4800681F490968401A0228CCD324
:102D40001D490868401C086019480068194909684D
:102D500088421ED31348006813490968C96A0029CC
:102D600012D1411E8841114909680129019900D8F1
:102D70000146002908D10E4800680E490968401A2A
:102D8000022801D302F09EFC03F0E8FCA5E772B62E
:102D9000FEE772B6FEE7C046E4192020741F20202B
:102DA000E0192020F019202058062020700620204D
:102DB000281F2020881F2020E8192020F0B583B08C
:102DC00002930F4601900A9C206B9600A522314683
:102DD000FDF7AFFB206B8019031F0720214634311C
:102DE000089D002F30D03A780A70002A29D07A78CE
:102DF0004A70002A25D0BA788A70002A21D0FA7841
:102E0000CA70002A1DD03A790A71002A19D07A793D
:102E10004A71002A15D0BA798A71002A11D0FA793C
:102E2000CA71002A0DD03A7A0A72002A09D07A7A39
:102E30004A72002A05D0BA7A8A72002A01D0FA7A38
:102E4000CA720022CA7201E000220A708343009312
:102E5000099F0026E664092D00D30925A564E562D3
:102E6000201D02F089F92046183002F085F90A2069
:102E7000401BA06126656665A665E6652046503064
:102E800006746462246100AA07CA00F0A9FA2060EF
:102E9000002F00D03C6003B0F0BD0000F0B583B05F
:102EA000002936D01D460F4606460292099C089816
:102EB000019002F06DFBCD480068002815D116483E
:102EC00002F050F9154802F04DF9C7481349016066
:102ED000C448114901600020009014200C21104AC0
:102EE000104B02F08BFFC149086002F05BFBA76149
:102EF000E561019820622660201D02F03DF90298EC
:102F0000002804D02820215C04220A43225403B064
:102F1000F0BD72B6FEE7C046BC1E2020D01E2020A9
:102F20001405202004062020F0B585B0044603F0E7
:102F30001FFB234A1168884233D200940190A94FA5
:102F400005E068602D613868314602F018F938688C
:102F50000168002927D0C0680468C5682E1D304666
:102F600002F0D0F8296A284688472820285C4007C4
:102F7000EDD5A8690019A042E3D89C4E306800281E
:102F80000DD0049503940025029503F0E3FA306810
:102F900002A92A462B4602F07CFF0028D7D172B640
:102FA000FEE7002107E090490A683A6008600121C5
:102FB0000198009C024A1060216005B0F0BDC04637
:102FC0005406202081B0002000900A48006872B6A4
:102FD000401C09D0FEE70098002808D1009800287E
:102FE00005D10098002802D100980028F3D001B044
:102FF0007047C0461C0020208AB07A4E7B4F306854
:103000000468002C02D0C068056800E0002502F0CA
:1030100001FE04A8FFF788FF0499002902D003F0FD
:103020009DFB52E0002C15D0854213D8029003F08E
:1030300095FB3068C068C468201D019002F062F8FA
:103040002820205C410709D421462831FA2210406B
:10305000087037E0002C12D0002215E0A069411959
:1030600061602461029A9142314603D8511B81422A
:103070005D4914D20868019902F081F822E05A49AA
:10308000096809684A424A41291A386802F0D4FBA3
:1030900003F064FB002818D102F0C2FB15E0386889
:1030A000002800D19BE0099408950025079503F0BE
:1030B00051FA386807A92A462B4602F0EAFE002892
:1030C00000D18CE0216A20468847386804A9002294
:1030D000029202E0386804A9002203F0ACF800284C
:1030E0008DD004980028F5D4069D6869002802D088
:1030F000281D02F007F803A8FFF716FF0499092915
:10310000E8D8C0467944097949008F440A0A0A047C
:1031100042570A0A04422820295CFE220A402A5407
:10312000D8E728216A5C012313436B54AB690599E6
:103130005A186A602D61824224D98842304625D2CD
:103140008A42304622D334462E462836296A2846FB
:103150008847307826464007BCD5386800283AD0E2
:10316000A8690599099540180890029C079403F0F6
:10317000F1F9386807A92246234602F08AFE0028A2
:10318000A8D128E0401A98421748DCD2291D0068CF
:1031900011E028216A5C012313436B540599A9614E
:1031A00000291AD0091869602D618142304600D883
:1031B0000D480068291D01F0E2FF8BE72820285CFC
:1031C000810703D4284602F0FBF983E72835FE2166
:1031D000084028707EE772B6FEE772B6FEE772B668
:1031E000FEE7C0465C0620206C0620208C1F2020B5
:1031F000F0B581B004460646443602F0C9F9012014
:103200003756012F12DB2546243504E0781E79B2AB
:10321000012907460ADD2868002807D0284603F060
:103220005DFA0028F2D002F015FCEFE7FF2575707B
:1032300002F0B8F902F0ACF900203756012F11DB8B
:10324000103404E0781E79B2012907460ADD2068AF
:10325000002807D0204603F041FA0028F2D002F0FF
:10326000F9FBEFE7357002F09DF901B0F0BD000009
:10327000F0B583B0054602F0CDFC52480368002B40
:1032800002D0514909781DE00721CA434F4B590725
:10329000194601D0D91D11404D4C0326B6029E1986
:1032A0001640083E0660002206C432607260036861
:1032B000721A0B604A6047490A6047490A60424AED
:1032C000012111700024002D01D4224600E00122CA
:1032D0002E460836092E6CD30A406AD107222946A9
:1032E000914310310024B14200D821466A0700D032
:1032F0000E46711E384A126891425AD2344D2A68DD
:103300005768B74207D21168002904D015460A460B
:103310004F68B742F7D39A424BD02C6811682960A6
:10332000B91B11292DD393195D0701D072B6FEE7A1
:1033300059605660264E3168994204D20E689E420A
:103340000D46F8D301E035460E46696801916F18C5
:1033500002975F680299994203D101997F186F60C3
:103360002B46D919B14201D0304606E000688642AA
:1033700003D07068C0195860306818609D4200D052
:103380002B605068144B1968091A1960114B1D689D
:10339000A94200D2196008340B4909780023136050
:1033A0000E4B1D686D1C1D604B1E9941C9070843DB
:1033B000506003F0D3F9600701D072B6FEE72046F3
:1033C00003B0F0BD64062020E41E2020D50D20208F
:1033D000581F2020201F2020141F2020301F2020B5
:1033E0000346083B1960011F01231B060B600146C1
:1033F0000C39034B0B60014620390A604038704796
:10340000C52F0000042808D8800005A109580948E4
:1034100000680840411E8841704700207047C04640
:103420000010000000010000000200000004000085
:103430000008000080330A40F0B581B0594C2046A6
:1034400000F09AFA1249204600F09AFD4421615A90
:10345000C5B2481BC10F40184008C6B24620205ACA
:103460004008C7B2204631463A46094B00F0E8FC16
:10347000142000900A3EB1B214350C3FBAB2204677
:103480002B4600F0A5FA204600F0E1FD01B0F0BDAA
:103490000E730000F0B581B0424C204600F06CFA8B
:1034A0001249204600F06CFD4421615AC5B2481B08
:1034B000C10F40184008C6B24620205A4008C7B283
:1034C000204631463A46094B00F0BAFC14200090E1
:1034D0000A3EB1B214350C3FBAB220462B4600F07A
:1034E00077FA204600F0B3FD01B0F0BD1E73000076
:1034F000F0B581B02B4C204600F03EFA1249204630
:1035000000F03EFD4421615AC5B2481BC10F40186E
:103510004008C6B24620205A4008C7B2204631466D
:103520003A46094B00F08CFC142000900A3EB1B2E0
:1035300014350C3FBAB220462B4600F049FA20461B
:1035400000F085FD01B0F0BD34730000F0B581B02E
:10355000EF4C204600F010FA1349204600F010FD11
:103560004421615AC5B2481BC10F40184008C6B279
:103570004620205A4008C7B2204631463A460A4BF8
:1035800000F05EFC142000900A3EB1B214350C3FEE
:10359000BAB220462B4600F01BFA204600F057FD39
:1035A00001B0F0BDF40820204A730000F0B58FB0E0
:1035B0004B20029080000790002502F0D9FF039075
:1035C000D34F099512E0384600F041FD322002F059
:1035D00055F90C98E74903F0CFFC054602F0C8FF07
:1035E0000399401A00097D2800D388E1384600F08D
:1035F000C3F902F0BDFF06903846C64900F035FD1C
:103600003846C54900F0BCFC0446FF208105284629
:1036100003F0F8FCFDF790F90521FCF7C1FF0A91D2
:103620006008402105910C1A4D20099E0C950EE072
:10363000A1B2AAB20EAB384600F002FC0B982418D7
:10364000B54880194078761C052E0C9D40D00EA9F7
:10365000099A4A700870384600F092FC0B90304688
:10366000FDF7BCF9AD4903F0CDFC294603F084FC1D
:1036700003F0AAFB4121090603F0C4FCA84903F0AA
:103680007BFCFDF759F905460A98B042D0D10121DB
:103690000891384600F0E3FC13200090A01E81B290
:1036A00028460F3882B20B98001D83B2384600F0CE
:1036B0006EF90021384600F0D2FCA1B2AAB20EABDE
:1036C000384600F0BDFB3846089900F0C8FCB5E765
:1036D0003846944900F0C9FC039806990E1A3846FA
:1036E000914900F04DFC04469048864204963046CD
:1036F00000D38E48FDF772F98D49FDF76DF861082A
:10370000059A571A8B4903F07DFCFDF715F90A90CD
:103710002846FDF711F9064600255720089508E0D0
:103720000B983F188048401940780D366D1C072DC6
:103730002AD00DA9089A4A700870754800F020FC3C
:103740000B902846FDF74AF93F21090603F05AFC81
:103750000C9903F011FC03F037FB014603F00CFC5D
:10376000754903F009FCFDF7E7F8044630180A2113
:10377000FCF716FF0A988142D2DAB9B2A2B20DABB9
:10378000634800F05DFBCBE70298C100049D28462A
:10379000FCF7F8FE08910C98FDF7CEF804460B20D4
:1037A00060430A90AF2081002846FCF7EBFE0691AB
:1037B000079864300590E500002605E00F350932D2
:1037C0000A92761C802E5AD03046FDF707F904463F
:1037D0005A4903F017FC0C9903F0CEFB03F0F4FAFE
:1037E000574903F00FFC574903F0C6FBFDF7A4F857
:1037F000074682B2B1B246480B9100F02AFA52480D
:103800006843524940185249884209D80898059996
:10381000884205D2B81E82B23D480B9900F019FAD1
:1038200020464C4903F0EEFB0C9903F0A5FB4A49F6
:1038300003F0A2FB03F0C8FA414903F0E3FB474958
:1038400003F09AFBFDF778F8044682B2304F384611
:103850000B9900F0FEF942480A9A5043414940183A
:1038600041498842AAD8079806998142A6D2A01C4D
:1038700082B238460B9900F0ECF90A9A9EE70220D2
:10388000009005213E227625214F38462B4600F038
:103890009FF80499694335488142354E00D292E63B
:1038A0000846324903F07AF80446762800D32C46BD
:1038B000012C00D8012400252846FDF78FF87D2132
:1038C000C90503F09FFB0C9903F056FB03F07CFA4B
:1038D000314603F097FBFDF72FF83E3082B2681DAA
:1038E00086B23846314600F0B4F93F2238463146B8
:1038F0001F4E00F0AEF96D1CAC42DDD163E6044C06
:10390000204600F039F8204600F0A1FB0FB0F0BDD2
:10391000F40820206F770000817300003333333FB9
:103920000000F0413E81000087730000DC050000CC
:103930000080BB440000204100004842EC51B83DEB
:10394000000040400000704291C0DB0F78FB210175
:10395000F0F64302CDCCCC3DD00F49400000E04012
:103960007FBFDFEF0804020110080402B80B00005B
:10397000CDCC8C3FCDCC4C3E80B53821415C02682B
:10398000127C4A43D100406BFCF7F8FD80BDF0B5D6
:1039900083B015460E46089CA11889B20091029387
:1039A00099198BB20746314600F00EFB002C0DD062
:1039B00000280BD000200090AAB238463146029B66
:1039C00000F096F86D1C641E2004F3D103B0F0BD26
:1039D000F0B587B017460E4605460C9CA01880B27D
:1039E000009006935818059083B2284600F0ECFA30
:1039F00000282CD0002004900090284631463A46FA
:103A0000069B00F075F8022C21D37F1CA41E200415
:103A100015D0012001900090BAB20392A3B2029394
:103A20002846314600F064F8019800900598401E41
:103A300081B22846039A029B00F05AF8E7190498CD
:103A40000090BAB228463146069B00F051F807B004
:103A5000F0BDF0B589B0002B48D08C24045D002C5B
:103A600044D005464835AC88A2423FD3EC88A242F8
:103A70003CD25E186C88A142089401D3374600E01E
:103A8000671EB4B20396B44200D127460594BFB274
:103A90002D8801240026049602970795AF422546FB
:103AA00000D9049C089FB9420F46039E00D3079F8C
:103AB0000694059CB44200D10F46089CA74200D250
:103AC000049D069E354309D107998F4200D80F46C1
:103AD0000299A14200D32146CB1B3946002D05D1C6
:103AE000046BA468002500959BB2A04709B0F0BD07
:103AF000F0B58BB0002B00D1A9E08C24045D002C24
:103B000000D1A4E0109C022B08D3032C04D0022C7B
:103B100004D1C91A491C01E0D21A521C0646483683
:103B200001252C400A9410D1B78895B2BD4200D22D
:103B30008DE0F788BD4200D389E08DB2EF1874881C
:103B40000795A54212D33D4611E034888FB2A742B3
:103B50007DD37488A7427AD297B2FC180894F4886F
:103B60000697A74237D3089F079737E0651E099449
:103B7000BCB20497BC4200D125460394ACB236884F
:103B800001250027059702940896B4422E462C463C
:103B900000D9059C0694079D099CA5420D46049FEB
:103BA00000D3089D039CBC4200D10D46ADB2099CD8
:103BB000A54200D2059E069F3E4309D108998D4239
:103BC00000D80D460299A14200D321464B1B29463D
:103BD000002E34D03BE0671E0797089F0994BCB2C3
:103BE000BC42079F00D127460394BCB2B688002789
:103BF000049702940796B4422C4600D9049C05947D
:103C0000069E099CA6421646089F00D3079E039C69
:103C1000BC4200D11646B7B2099CA74200D2049D0F
:103C2000059E354309D1079A974200D81746029A54
:103C3000A24200D32246D31B3A46002D07D1046B83
:103C4000A4680A9D009589B292B29BB2A0470BB0BE
:103C5000F0BDF0B583B0034648339C88A24228D318
:103C6000DC88A24225D21C88A14222D35B889942DB
:103C70001FD205468C352D78002D1AD0012500263F
:103C80009942029500D2354601964E1CB7B2B74212
:103C900000D05F1EBFB2A742029E0CD835430DD0A4
:103CA000002D06D1036B9C6800230093029B9BB2FE
:103CB000A04703B0F0BD019E3543F1D1A14200D829
:103CC00021469F4200D31F467B1A0293002DE9D064
:103CD000EFE70000F0B583B001903020634C002185
:103CE000029021545448E06254486064227E658802
:103CF000022A14D3A61D0127284603E0361D7F1C87
:103D0000BA420DD0735E00B2984200DC18462CB265
:103D10009C42564CF2DD029D67551D46EEE7284653
:103D2000411B6183A9B280B2884201D103B0F0BDCA
:103D30000298205C48244D4908552EB20127304690
:103D40003946FEF7B7FD002530462946FEF7B2FD9D
:103D500046484776005D454C8000205A0299615CD8
:103D60008900615A814205D1608B401E6083000446
:103D700001D1DBE76576678B00200290FEF7BEFD80
:103D80000120FEF7BBFD607E002807D020461C30D6
:103D9000FEF7F0FD20463430FEF7ECFD019D443582
:103DA00003E0781E07B2002FC0DD3C20205E002813
:103DB0002CD482B20220285E11B2814226DA402041
:103DC000205E2821615E81420DDA00281ED4002386
:103DD000EB5E99421ADA984200DB1846CB179943FA
:103DE000401A83B20FE0002910D4029BEB5E984288
:103DF0000CDA0028029E00D40E469E4200DB1E46CE
:103E0000311A8BB281B20198FFF723FE26461C3689
:103E10003046FEF7AFFD002803D10020FEF76EFD0F
:103E2000F6E7264634363046FEF7A4FD0028B8D122
:103E30000120FEF763FDF6E7A5280000ED2800004D
:103E400010B5524C446000F0F1F910BDB0B5074C0C
:103E500003252576628021800499E180A38006995C
:103E6000618105992181FFF735FFB0BD880D2020C4
:103E7000F0B583B0044600F031FC002829D021467B
:103E80006A3100258D7020668F7B0378082F3E46AF
:103E900003D3401C20663E46083E204690300190E9
:103EA0008E70EA430292BA4093430B70F3B2226ED3
:103EB0001778DF40CD7BAB19D8B208280BD3501C44
:103EC00020660820801BC0B2567886403E43083BDF
:103ED00002E0002051E03E468B7001988078087126
:103EE000029AAA4096434E70424242414A71DEB263
:103EF000226E1778F7400D7C5B19D8B2082809D3D9
:103F0000501C20660820801BC0B2567886403E4375
:103F1000083B00E03E468B70029A1046A84086435C
:103F2000681EC0B28240B018019A1070487CC31855
:103F3000D8B2082803D3206E401C2066083B8B7043
:103F4000D8B2276E3E78C6408A7CD518E8B20828D9
:103F500009D3781C20660820C01AC0B27B78834041
:103F60003343083D00E033468D7002990846904087
:103F70008343501EC0B28140581840B203B0F0BD18
:103F800080B5024A426000F06BFC80BD1D4A000013
:103F900010B5094C09490A4A0A4B204600F0F0F8CE
:103FA000204600F00BFD0021204600F015FD2046C4
:103FB000FFF7E2FC10BDC046F4082020907300001B
:103FC0006D4A00009D4E0000F0B548308688C488D8
:103FD000059DA2420DD201240027B542264600D8F5
:103FE0003E46AA4200D83C463443002C0DD1002066
:103FF000F0BD01240027B542264600D83E46AA421D
:1040000000D83C463440002CF1D0028840888142E0
:1040100008D201200024934202460CD999420DD9BE
:104020001043F0BD012000249342024609D9994271
:104030000AD91040F0BD22469942F1D820461043DB
:10404000F0BD22469942F4D820461040F0BD10B58C
:10405000044600F0DBFB204600F0B7FC10BD02294F
:1040600000D90121922281547047B0B50446806D79
:10407000884253D00D46A165743408782070487882
:1040800060708878A070C878E070087920714879ED
:1040900060718879A071C879E071087A2072487AD5
:1040A0006072887AA072C87AE072087B2073487BBD
:1040B0006073887BA073C87BE073087C2074112137
:1040C000284600F051FB60821321284600F04CFB8B
:1040D000A0821521284600F047FBE082002D1DD06C
:1040E0000D202156A1760E202056E076627E002A11
:1040F00014D0012A07D10F22A256914200DAA276EB
:104100001021625607E00A22A3560C22A256D318A9
:104110008B4200DDA376904200DDE276B0BD000068
:104120000149C1657047C04629430000B0B5044647
:104130006D2000252554382022548D202554FF2041
:1041400002309222A0526163E362A5650498206365
:1041500021468D310D71214638314D700168204660
:104160008847064820656065206B4168204688477F
:104170002046FFF7D5FF6D34E570B0BD0000FFFFAE
:1041800070B582B016460D46044600930849094AA8
:10419000334600F028FC01AE304600F031FB01460A
:1041A00032780095044B2046FFF7C0FF02B070BD87
:1041B000714D0000254C000077470000022B09D00C
:1041C000012B04D0002B08D1401880B27047801A10
:1041D00080B27047401A80B27047801880B2704732
:1041E000022B09D0012B04D0002B08D1801880B2FB
:1041F0007047401880B27047801A80B27047401AEA
:1042000080B2704770B582B0C46AC58F069E0096B2
:10421000521B92B2A04702B070BD10B582B0049C90
:104220000094FFF7EFFF02B010BD0000F0B585B0BD
:104230001F4603920291064600F0A3FE3978726889
:10424000304690473749884265D0324664320492FE
:104250007D1C002201920BE002910199411801910D
:1042600029787268304690476D1C2146A04254D090
:1042700087B20C46481E80B28742F1D00498027B78
:10428000032A039802991FD87A441279520097445E
:104290000115080FF16D30468847039940180299BF
:1042A00012E0F16D304688470399081A02990BE035
:1042B000F16D304688470299411804E0F16D3046AF
:1042C00088470299091A0398049A50801180304651
:1042D000394600F003FA002804D00146304600F0C9
:1042E00025F800E000200499097B0329B5D8C046D1
:1042F0007944097949008F44040A01070299091A8F
:10430000AAE702994118A7E70399091A01E003995E
:1043100041180391A1E700200190019880B205B0F7
:10432000F0BDC046FFFF000000207047F0B591B01F
:10433000016607466437002207923A723A7D0C788C
:10434000082A134603D3491C01661346083B01465D
:10435000923108913B720799C943049191408C4373
:104360001094BC71D9B2056E2C78CC40797DCA18F6
:10437000D6B2082E09D36E1C06660826F31ADBB2E5
:104380006D789D402543083A00E025463A72089B27
:104390001B78BB72049C8C40A5430395FD71594268
:1043A0005941F972D6B2056E2B78F340B97D0F9161
:1043B0005418E2B2082A0AD36A1C02660822921B29
:1043C000D6B26978B14019430E91083C00E00E93D3
:1043D0003C72E3B2056E024638462F78DF400A9001
:1043E000C37D1E19F1B2082909D3691C1166082181
:1043F000091BC9B26D788D403D43083E00E03D4643
:10440000109840B210900A990E72F0B2146E27788C
:10441000C740087E02908019C1B2082909920AD3C8
:10442000611C11660821891BC9B262788A403A432F
:104430000192083800E00197039C0A9908721098CD
:10444000012800DA3DE10F9E701E049A1146B1402A
:10445000C0B20E9E8E4311468140581E71189A407C
:10446000C0B201234FB2954383406019181A45B278
:104470000A98067B0A98008839462A463346FFF791
:104480009DFE01460A980C4601800A9840883946EC
:104490000A9F2A463346FFF7A3FE7880032E2AD8C8
:1044A0007E4436797600B744011E081410992546DB
:1044B0006318039949B2411820E010992346611A04
:1044C0004D1C039949B2411A4C1C411C5B1C2046EF
:1044D00014E0039949B2254663181099411A4A1C01
:1044E000411C10460AE010994118039A52B2A21AD0
:1044F000551C631C02E0254623460146099C89B2EF
:104500000091A9B282B29BB22046FFF75DFD002860
:1045100000D1D6E00798B880099F05E0039840B223
:104520000B99814200DBC8E00A98047A3B6E1A7846
:10453000E240807C2118CDB2082D0AD35D1C3D6677
:1045400008252C1BE4B25B78A3401343069308397B
:1045500000E006920A9B1972CAB23D6E2C78D440D4
:10456000DA7C5318DEB2082E09D36E1C3E6608268C
:10457000711AC9B26D788D402543083B00E025468D
:10458000049C214681400698884306900A990B7244
:1045900020469040854305950CE0531C3B6608235C
:1045A0001B1ADBB252789A400A43C31F0A990B7256
:1045B000D007B3D04B790E79069D0F46079AB8798C
:1045C000841B787A002825D131463E7B78880F916C
:1045D0004FB210935AB20D9239463346FFF700FEA0
:1045E0000E900A98008839460A9F0D9A3346FFF7C5
:1045F000E5FD0146F87A089A10700096EBB2E0B239
:10460000834200D3034609980E9AFFF771FA079A7E
:10461000109B0F9EE0B2E9B2814203D32D1B5B1CBD
:104620001646CCE77B71A919397105980E900F9148
:10463000B8790D9078880B903E7B38884DB21093F6
:104640005CB2294622463346FFF7B8FD0C900B9822
:1046500029460B9422463346FFF7C2FD0246B87A3C
:104660000899087000960D980F99441AE5B20E98B3
:104670000646C7B2AF423B4600D32B4609980C9979
:10468000FFF736FAAF4206D3361B0E96109B5B1C23
:1046900000210A9FCBE70A99109848710F983018AB
:1046A0000871087A099F3A6E1178C140431CDCB248
:1046B000082C00D371E70A4678E70A98807A0899AF
:1046C000087004990846029A9040019B8343501E4B
:1046D000C0B28140581840B211B0F0BD70B50C4660
:1046E000816D86301731FF2C03D8612C2ED3408882
:1046F0002FE080880E1835460021284600F034F857
:1047000036180221284600F02FF82D1DA042F3D3C1
:10471000707831780902081841424141002812D0CE
:10472000A04201D1F01C0EE0B17870184278715CA3
:1047300009028A1851425141002A04D0A242064679
:10474000F2D1C01CFFE700290CD170BD412C01D370
:10475000008809184878002804D00A789442F8D1D3
:10476000881C70BD002070BD42185278405C000269
:10477000801880B27047F0B583B000919221415CFF
:1047800007261746374001240194BC400025012923
:10479000029500D02546022900D3029CB24301684D
:1047A000097C51438AB20290416B881800994218E3
:1047B0000898002819D00298923004E06D00640037
:1047C0005B1E190419D011782143694011707F1CB8
:1047D0003740F3D10178012900D0019D012900D88B
:1047E000019C0299498F5218EAE7107820436840EB
:1047F0001070521C5B1E1804F7D103B0F0BD00000E
:10480000082101700048704788092020F0B583B066
:1048100004463820205C02902068407C01902046AD
:1048200038304778002501262068037C1846684305
:104830000A490840616B08180090FAB2002120462E
:1048400000F0ADF80298864206D2761C08357F1C2F
:10485000F8B201998842E7D303B0F0BDF8FF000039
:10486000F0B585B00D4604466A2000262654204641
:1048700000F087FB297862682046904721466A311C
:104880000191214690310291684A904221D06E1CDC
:104890000025C021039104950BE003900498401972
:1048A00004903178626820469047761C3A46B842B8
:1048B00013D081B21746501E80B28142F1D02046FB
:1048C000FFF7D6FA05460398C028E6D1029800788B
:1048D000E3E7C0200390049635460198007800284D
:1048E0000ED00021029A5156049A521B40B2101861
:1048F0004718039948B2012803DBC8B23F1800E00B
:10490000049FB8B205B0F0BDB0B53821415CCA0013
:104910008287046862694264227CD2004287024630
:1049200038325378DD00C58715815D18607C85427B
:1049300000D9C11AC818C0005081B0BD70B582B08E
:1049400004460546403500262E81006CE064A888A8
:1049500068816B8AAA8A298AE88A00902046FFF734
:1049600033FB8C34002817D001202070288A298935
:10497000814200D22881688A6989814200D9688190
:10498000A88AA989814200D2A881E88AE98981425E
:1049900000D9E88102B070BD267002B070BDB0B51C
:1049A00082B06C46A271617123710699009185688D
:1049B0000F2101222346A84702B0B0BD10B584687C
:1049C0000A2100221346A04710BD10B584681021AB
:1049D00000221346A04710BD10B50A4684680B217B
:1049E0000023A04710BDB0B5232400250555056060
:1049F000044608340EC4049941618561014623319F
:104A0000CD70FF224A714A7000F001F8B0BD10B5B8
:104A10008468092100221346A04710BD03480029DD
:104A200002D00A2900D008467047C046FFFF0000A8
:104A300010B50469192100221346A04710BD80B5A6
:104A400082B001AA1170012100F002F802B080BD0D
:104A500010B513460A4604691721A04710BD10B5CA
:104A60000469182100221346A04710BDF0B581B09B
:104A70000446143900200C2900D977E01646274651
:104A80002437C0467944097949008F44066F6F1571
:104A900021516F6F6F6F6F6F6E004C2101252046A3
:104AA0002A4600F053FA4D2120462A4600F04EFADD
:104AB0002046FDF7EFFD58E0002E56D01D46297820
:104AC0002046FDF7EEFD6D1C761E3006F7D14CE05A
:104AD0007878002810D04D21012520462A4600F084
:104AE00035FA2046FDF7D6FD4C2120462A4600F037
:104AF0002DFA2046FDF7CEFD4D26012200922046DC
:104B0000314600F023FA0025204631462A4600F0BF
:104B10001DFA2046FDF7BEFD4C2120462A4600F036
:104B200015FA0098787039782046FDF7BAFD1CE038
:104B30004D26002200922046314600F007FA20461A
:104B4000FDF7A8FD4C21012520462A4600F0FEF97C
:104B50002046FDF79FFD204631462A4600F0F6F933
:104B60002046FDF797FD00987870012001B0F0BD58
:104B700010B5C468192100221346A04710BD10B516
:104B80000A46C46816210023A04710BD10B50A4686
:104B9000C46815210023A04710BD10B513460A466E
:104BA000C4681721A04710BD70B582B00C460546F9
:104BB00008E01838022815D2641CEE680022284646
:104BC0001346B047217808461729F2DC1538022829
:104BD00013D2627801A80270EE6800232846B0471D
:104BE000A41CEFE7FE2913D1627801A802702921E5
:104BF000284600F0ABF9A41CE4E7172908D1607837
:104C000001AA107001212846FFF7C7FFA41CD9E7AD
:104C100002B070BD10B5C468182100221346A04729
:104C200010BD0000F0B581B00446084614380528D0
:104C30005ED81E461546C046784400794000874439
:104C40000235151A114B2420205CFF2803D1204681
:104C5000243078220270276920462A463346B84716
:104C600001B0F0BD2448002101703EE020462946F5
:104C7000FFF7E5FE39E0204F3878012802D12046C1
:104C8000FFF7D6FE192D09D318212046324600F031
:104C900062F91836183DE8B21828F5D8E9B220466E
:104CA000324600F058F9002038701EE0124E30787D
:104CB000012802D12046FFF7BBFE2046FFF7CFFEBA
:104CC00000212046FFF7BBFE20462946FFF7B7FE2E
:104CD0000120307001B0F0BD074D2878012802D1C5
:104CE0002046FFF7A5FE00202870012001B0F0BD8E
:104CF000002001B0F0BDC046D40D2020F0B581B039
:104D000004464669282100252A462B46B047E66816
:104D1000142120462A462B46B0474B2601220092FA
:104D20002046314600F012F92068027929272046F2
:104D3000394600F00BF9204631462A4600F006F9C4
:104D4000206802792046394600F000F920463146B5
:104D5000009A00F0FBF8206842792046394600F0BE
:104D6000F5F801B0F0BD8A7C2223C254016070477F
:104D7000B0B50D46044600F021F801460120002997
:104D800000D0B0BD092D0BD00A2D10D1054620460C
:104D9000FFF7B4FF08492046FFF706FF2846B0BDDD
:104DA000044905462046FFF7DEFF2846B0BD002037
:104DB000B0BDC046608500001E850000F0B581B022
:104DC00004460B39002004295DD815467944097939
:104DD00049008F44025812061D00002D46D02D496F
:104DE00045E02046FFF716FF81212046FFF7CEFE63
:104DF00020462946FFF7C3FE34E026462236002D22
:104E000039D022492046FFF7CFFE2068C07C38E029
:104E10001E462046FFF7FEFE2220205C0090777998
:104E200040212046FFF7B2FEF80000994718F8B27B
:104E3000010910312046FFF7A9FE0F213940204615
:104E4000FFF79DFEB079B02101432046FFF797FEA2
:104E500032683079C006010E2046FFF79EFE6D1EB7
:104E60002806F5D12046FFF783FE0BE00A492046CD
:104E7000FFF79AFE06E006492046FFF795FE2068F8
:104E8000807C3070012001B0F0BDC0461785000065
:104E900010850000588500005385000080B5283932
:104EA0002B2921D80020C0467944097949008F4434
:104EB000253C1B1B1B161B1B1B1B1B1B1B1B1B1B1C
:104EC0001B1B1B1B1B1B1B1B1B1B1B1B1B1B1B1B32
:104ED0001B1B1B1B1D341B1B1515151580BD032A21
:104EE00028D30120FDF7F7FA012080BD01204004FE
:104EF0001449002A16D00860012080BD1248812183
:104F0000C1610160012041040E4A1160C0030C4BD5
:104F1000186011641864012080BD0120C003084995
:104F2000002AE8D10861012080BD1046FDF7AEFAE5
:104F3000012080BD0520FDF7CEFA012080BDC046CE
:104F400090320A4090120A408080424010B5446975
:104F50000023A04710BDF0B581B015460E460446AB
:104F6000FFF77DFD40212046FFF769FD27691721E6
:104F7000204632462B46B8472046FFF759FD01B080
:104F8000F0BD2621002242547047EFF3108072B624
:104F900070470000F0B581B0002801D072B6FEE77E
:104FA00014460E4600F0F4FA244D2868C06D00281F
:104FB0002BD12868602101224254002C25D02048A2
:104FC00007682868001D00F09DF8601C0AD03C1995
:104FD000286844600CD31D4800682968091D00F04A
:104FE000CEF810E02868011D194800F0E6F80AE044
:104FF000144800682968091D00F0C1F812480168CA
:105000008C4200D2046000F00BFC00F0CBFA00F000
:10501000BFFA2868C46D002C06D0002E01D00020F5
:1050200000E0601E2968C86528686021002242549B
:1050300000F0B8FA204601B0F0BDC0465806202066
:10504000881F202060062020281F2020680620209E
:10505000601F2020F0B583B0029106460025214F45
:1050600006E03846FDF7F0F82C376D1C052D14D0FE
:105070001D48435D002438461C492246FDF7C6F80A
:10508000032138463246FDF7BDF8012DE9D8062147
:105090003846029AFDF7B6F8E3E7154D2868002870
:1050A00005D0009403212246234601F049FC2868DC
:1050B000002808D10F4800900FA01E2101220023D4
:1050C00001F0CCFB28602D68002D08D001F050FACB
:1050D0000246009401212846234601F031FC03B02A
:1050E000F0BDC0466C0120200800202005340000DF
:1050F000E81E202057510000427574746F6E546989
:105100006D657200416882688A60516001694B6810
:10511000834200D14A600A68521E0A60002202617E
:1051200008687047034B03608020106002480860E5
:105130007047C046F41B2020F4192020034B036065
:1051400080201060024808607047C046581E20202A
:10515000581C2020FEE780B5FDF788F880BD80F35D
:10516000108870470021016002460832C94342603E
:105170008160C26002617047002101617047B0B573
:105180000B685A1C0BD004460834626815689D42AF
:1051900008D8546825689D422546F6D904E002697E
:1051A000556801E015462246A96008614D608A6095
:1051B00051600168491C0160B0BD42684A60936853
:1051C0008B600861596003685B1C036091607047E5
:1051D0008CB0FEF7DDFE3C209F4E052131540027A8
:1051E0009EA137607760B160F7603761B762F762A0
:1051F00037637763B763314614319BA218CA18C16D
:1052000038CA38C19D4C042121549DA09F499FA2BA
:1052100053689568D26827606760A060E760266180
:10522000204614302AC022626762A762E7622763C1
:105230006763A763994A9A489AA11760576091607B
:10524000D06016611046143029252946FBF798F9DD
:10525000984899A1076047608160C7600661143073
:105260002946FBF78DF9984898A10760476081604F
:10527000C760066114302946FBF782F9974898A168
:10528000076047608160C760066114302946FBF7FC
:1052900077F99648964997A2076047608260C16097
:1052A000046114302946FBF76BF99548954996A29D
:1052B000076047608260C160046114302946FBF7D3
:1052C0005FF99448944995A2076047608260C16085
:1052D000046114302946FBF753F99348934994A28B
:1052E000076047608260C160046114302946FBF7A3
:1052F00047F9924E3068002809D1914800907D20EE
:10530000C10090480122002301F0A8FA3060306803
:10531000002805D0009703213A463B4601F010FBD8
:105320008948017803295D4D09D8CA00874B88A4B4
:105330009C50491C01709918874A12684A6001788C
:10534000032909D8CA00814B844C9C50491C017028
:105350009918834A12684A600178032909D8CA005B
:105360007A4B804C9C50491C017099187E4A1268F7
:105370004A600178032909D8CA00744B7B4C9C50C1
:10538000491C017098187A4909684160FEF70EF9C6
:1053900078487949FFF75EFEFDF7A8F8039705E026
:1053A0007748FEF754FE039F3C4D644EFA430121BB
:1053B0003846FFF7EFFDFDF799F870480068C168BF
:1053C000002901D0002088476C480068A84209D015
:1053D00030680028EAD0009703213A463B4601F0A6
:1053E000AFFAE3E7664C2046FEF7C6FA2046654969
:1053F000FEF73BFE2046644D2946FEF7C1FD4421E1
:10540000615AC0B2081AC10F40184008C1B2082240
:1054100020462B46FEF714FD4C4E3D4603E0083671
:105420006D1C042DBCD03768002FF8D07068FBF7D6
:10543000A9F90090019104AC20212046534A3B4633
:10544000FAF70AFF0D206843143082B20A214C4853
:105450002346FEF7F5FCE2E7F40320204D61696E78
:10546000204D656E75000000340420209404202037
:10547000B407202074072020D404202034042020E6
:1054800052756E205461736B73000000F407202086
:105490003408202074082020B40820209404202000
:1054A000795D000056696577205661726961626CAA
:1054B00065730000B4072020536574205069642090
:1054C00053706565640000007407202053657420E4
:1054D000506964204D696C6561676500D4042020C3
:1054E000506C61792047616D65000000F407202051
:1054F0003934000072756E205461736B30310000D6
:10550000340820209534000072756E205461736B4E
:105510003032000074082020F134000072756E20D3
:105520005461736B30330000B40820204D35000007
:1055300072756E205461736B30340000941F20200C
:10554000055D0000697300006601202074042020BE
:105550004E414D4531000000000020202E73000018
:105560000400202044730000100020205A73000023
:105570001800202059210000CD2000001400202018
:10558000F40820209C730000777300006073000013
:1055900072B60A480168491C0160BFF34F8FBFF320
:1055A0006F8F704705480168002903D0491E0160CC
:1055B00002D0704772B6FEE762B670471C0020202A
:1055C000B0B5002844D0234909784A1E9141C90743
:1055D000041F2268114205D008380368002B03D04D
:1055E00072B6FEE772B6FEE78A432260054600F017
:1055F00011FB28462168184A13685B181360174B83
:105600001C68844204D2236883422246F8D301E016
:105610001A46234654681519854202D1091951606A
:10562000104644189C4201D01C4607E00C4C2468EC
:10563000A34203D05C68611841601C680460824228
:1056400000D0106007480168491C016001F086F82D
:10565000B0BDC046E41E2020141F2020581F20206B
:1056600064062020341F20206948012101706A4807
:1056700001706A4801706748002101608160024939
:105680004160072101607047FF7C000000000000BE
:105690000B4A13681868203080F30988022080F3D1
:1056A0001488BFF36F8F3FBCAE4608BC04BC62B623
:1056B0001847C046C046C046C046C046C046C04661
:1056C00058062020F0B585B0064651480178514F64
:1056D00038680122049290433860B8687D22140231
:1056E0004D4A1378002B224646D0002947D18E42DE
:1056F00000D30E46711E01914A431018474909789C
:105700000029039400D02D21451A00D8054672B611
:10571000BFF34F8FBFF36F8F0024E0430290FCF77D
:1057200095FF002830D07D60BC603868049908433C
:105730003860002E04D0BFF34F8F30BFBFF36F8FA0
:1057400062B6BFF34F8FBFF36F8F72B6BFF34F8F49
:10575000BFF36F8F062038603868C00320D4039DE4
:105760006E43B868361A3046294601F017F92946C3
:105770004143891B491937E01A460029B7D08321D4
:1057800089008E42B5D2B5E7B86878603868049968
:105790000843386020480078002808D1029808E0C3
:1057A0001D480078002808D10299039E07E003985D
:1057B000401E786062B605B0F0BD039E711EBA68E7
:1057C000521B521800283346354600D103469A42F0
:1057D000084600D810462D2A00D301460F4A1278F9
:1057E000002A00D1014601987960BC603A680499AA
:1057F0000A433A6000F0FCF907480078002801D11C
:10580000029800E0681E786062B605B0F0BDC04640
:105810001C1F202010E000E0DC192020D8192020D7
:105820000120000703490860BFF34F8FBFF36F8F5C
:105830007047C04604ED00E070B515460E460446BC
:10584000FFF7A6FE4420215C20464430FF2901D109
:10585000002101704178FF2901D100214170FFF73B
:10586000A1FEA06B002805D12046243031462A46EF
:1058700000F024F92046FDF7BBFC70BD70B5002890
:105880002CD06D490A68002A01D072B6FEE70A687A
:10589000521C0A60DD490C68A64D2968091D0646A0
:1058A0000846FFF72FFCA4192868446006D3A348D4
:1058B00000682968091DFFF762FC0AE09E4800683D
:1058C0002968091DFFF75BFCD14801688C4200D2B2
:1058D000046000F043FF002800D070BDFFF7A0FF78
:1058E00070BDC04670B50446FFF752FE002C01D1D2
:1058F00090480468251D2846FFF704FCA06A00288C
:1059000003D020461830FFF7FDFB22480168491CF0
:105910000160884E306884421AD01F480168491ED1
:1059200001606120205C022809D0012804D00028F1
:105930002BD1206BFFF744FE2046FFF741FE7E4847
:105940000168096800290CD00068C06800680AE096
:1059500012482946FFF731FC11480168491C0160D3
:1059600003E00020C043AA490860FFF71BFE9E48E1
:105970000068002802D03068844200D070BDDB4847
:105980000068002803D072B6FEE772B6FEE7FFF7A4
:1059900047FF70BDEC192020E0192020741F202043
:1059A000E4192020F0B581B0002803D0002903D0ED
:1059B00072B6FEE772B6FEE715460646FFF7E5FA51
:1059C0006022B35C0224B454F26D521CF265012BC8
:1059D0002DD13146B26A002A01D072B6FEE70746E1
:1059E000C2480068002802D0183114480FE0081D92
:1059F0000C460090FFF786FBE06AC0490A689042B7
:105A000000D9086014214143BD4840180099FFF7B0
:105A1000D4FBF06AB7490968C96A8842384606D992
:105A2000002D01D001212960B14901220A60FFF750
:105A300096FB01B0F0BDC046E8192020401F202091
:105A40000349096801607149096841607047C046AF
:105A50002C1F2020A64801210160704770B5002846
:105A600018D00C46A34D29681831FFF788FB67480A
:105A700006682868001DFFF745FB601C0CD0341930
:105A8000286844600ED32D4800682968091DFFF777
:105A900076FB70BD72B6FEE72868011D2848FFF747
:105AA0008CFB70BD244800682968091DFFF767FB5F
:105AB000574801688C4200D2046070BDF0B581B0D7
:105AC00000281BD015460C468A4E31681831FFF766
:105AD00074FB4E4807683068001DFFF713FB002D6C
