:020000040000FA
:10000000C01B2020C5010000C9010000CB01000079
:1000100000000000000000000000000000000000E0
:10002000000000000000000000000000950C00002F
:100030000000000000000000510C0000A1100000B2
:10004000D3010000550B0000D3010000D3010000D4
:10005000D3010000D3010000D3010000D301000050
:1000600000000000D3010000D301000000000000E8
:1000700000000000D3010000D3010000C510000003
:10008000D3010000D3010000D3010000D301000020
:10009000D3010000D30100000000000000000000B8
:1000A000D3010000D30100000000000000000000A8
:1000B000D301000000000000D3010000D3010000C4
:1000C00000F002F800F052F812A030C808382418E6
:1000D0002D18AC4201D100F049F80FCCA246AB4636
:1000E0000CA730CF2D1B083F3F197C427F1E544484
:1000F0002D090426F441641EAC4201D300F036F809
:100100000126334200D0FB1A3343984754465D46DC
:10011000DFE70000D4570000F457000000000000A3
:10012000103A02D378C878C1FAD8520701D330C840
:1001300030C101D504680C60704700000000000069
:100140007047000000000000002300240025002666
:10015000103A01D378C1FBD8520700D330C100D583
:100160000B6070471FB51FBD10B510BD00F024FB1C
:100170001146FFF7F7FF00F0F9FF00F03CFB03B476
:10018000FFF7F2FF03BC00F03FFB000070B505462F
:100190000C46164602E00FCC0FC5103E102EFAD2C8
:1001A000082E02D303CC03C5083E042E07D301CC8E
:1001B00001C5361F03E021782970641C6D1C761E72
:1001C000F9D270BD06480047FEE7FEE7FEE7FEE70E
:1001D000FEE7FEE703480449024A044B704700006B
:1001E000C1000000C01A2020C01B2020C01A2020FF
:1001F000F8B5042A2CD3830712D00B78491C03705E
:10020000401C521E83070BD00B78491C0370401C06
:10021000521E830704D00B78491C0370401C521EE9
:100220008B079B0F05D0C91ADF002023DE1B08C9EE
:100230000AE0FFF7ABFFF8BD1D4608C9FD401C46AC
:10024000B4402C4310C0121F042AF5D2F308C91A77
:10025000521EF0D40B78491C0370401C521EEAD485
:100260000B78491C0370401C012AE4D40978017002
:10027000F8BDD2B210B513029A1813049A1800F000
:1002800001F810BD01E004C0091F0429FBD28B074F
:1002900001D50280801CC90700D002707047002978
:1002A0000BD0C30702D00270401C491E022904D3A0
:1002B000830702D50280801C891EE3E70022EEE757
:1002C0000022DFE7002203098B4273D3030A8B422B
:1002D00058D3030B8B423CD3030C8B4221D312E047
:1002E00003460B437FD4002243088B4274D3030997
:1002F0008B425FD3030A8B4244D3030B8B4228D338
:10030000030C8B420DD30902FF2212BA030C8B425D
:1003100002D31212090265D0030B8B4219D300E0FD
:10032000090AC30B8B4201D3CB03C01A5241830B82
:100330008B4201D38B03C01A5241430B8B4201D332
:100340004B03C01A5241030B8B4201D30B03C01A5B
:100350005241C30A8B4201D3CB02C01A5241830AD5
:100360008B4201D38B02C01A5241430A8B4201D304
:100370004B02C01A5241030A8B4201D30B02C01A2E
:100380005241CDD2C3098B4201D3CB01C01A524195
:1003900083098B4201D38B01C01A524143098B421E
:1003A00001D34B01C01A524103098B4201D30B0107
:1003B000C01A5241C3088B4201D3CB00C01A52412C
:1003C00083088B4201D38B00C01A524143088B42F1
:1003D00001D34B00C01A5241411A00D2014652418A
:1003E000104670475DE0CA0F00D04942031000D3A9
:1003F000404253409C46002203098B422DD3030AFE
:100400008B4212D38901FC2212BA030A8B420CD30D
:10041000890192118B4208D3890192118B4204D336
:1004200089013AD0921100E08909C3098B4201D3B6
:10043000CB01C01A524183098B4201D38B01C01AF0
:10044000524143098B4201D34B01C01A5241030967
:100450008B4201D30B01C01A5241C3088B4201D316
:10046000CB00C01A524183088B4201D38B00C01AC3
:100470005241D9D243088B4201D34B00C01A52419A
:10048000411A00D201465241104663465B1001D327
:100490004042002B00D54942704763465B1000D3B1
:1004A000404201B50449002802DC491C084000E034
:1004B0000846C046C04602BDFFFFFF7F7047704739
:1004C00070470000F0B5FF252D04C609C209FF27BB
:1004D00004462E400137CB093E4348402A402B407A
:1004E0000746002A6BD0002B69D0AA4267D0AB42E6
:1004F00065D0002800DA32460125ED0529432C435A
:1005000009022002090AD21A4B0C7F24E31A434C39
:10051000000A7C44E35C7D242404121914145B005B
:10052000A218884201D3521C00E0400049420C4608
:100530005C4324115C43DB016415E318040A5C434B
:10054000C502200D0C4644436419250A5D4323036C
:10055000EC0C0D46654300030019EB184C42A34216
:1005600001D35B18401CD4052018002B07D05B007A
:10057000C91804D3401C002901D1400840003F2184
:1005800089048A4209D3002A08DC1106090F04D025
:10059000032149074018C00FC007F0BD01224100E8
:1005A000120689187F2252069142F6D20521490788
:1005B000C84201D59010F0BDFF20C005F0BD002F4E
:1005C00000DA32461648AA4207D2AB4205D21902D7
:1005D000090E17D0F80FC007F0BDFF2563002D06E8
:1005E000AB42F9D84900A942F6D8AB4201D1A942A1
:1005F000F2D0A94201D1002101E061004908D005F3
:100600000843F0BD1102090EFBD0FF200243D005C4
:10061000F0BD0A460146104654E70000FE440000C3
:100620000000C07F10B501469E240002CA15A30732
:10063000002A02D01843002A04DBA21A002A0CDD8B
:10064000D04010BD1206120E01D140004008A21A7F
:1006500003D4D04040420028F3DDFF2248001206B8
:10066000904201D9002010BDC817C043584010BDAA
:100670001F22030C02D10F2200041CD0030E01D153
:100680000002083A030F01D10001121F830F01D1AC
:100690008000921E002801DB4000521ED205511836
:1006A000021251181922904004D3491C002801D18C
:1006B0004908490008467047C10FC90700D04042A9
:1006C000012292071143D3E701218907D0E710B532
:1006D00000F06AF8006810BD10B5044600F064F838
:1006E000046010BDC10D10B50906090E2ED0FF29FA
:1006F00031D07E292DD319D0962916D202467539CC
:100700008A4005D0002402468A4003D3012302E038
:100710000124F8E700230222CA41511E8843002B1E
:1007200003D08018002C00D0904310BD012142025C
:1007300001D1012200E00022C00FC0070029F4D03F
:10074000002AF2D17F21C905084310BDC00FC007A0
:1007500010BD0021EFE74102FAD0014810BD0000B2
:100760000000C07F10B5FF22C30D134009D05A40CE
:1007700007D0914205DA5C42A14202DDC9050818A2
:1007800010BDC40FE407002B06D0002A06D00029B4
:1007900002DBFF20C0050443204610BD4102FCD00F
:1007A000004810BD0000C07F0048704708002020AE
:1007B00000487047080020207546FFF7F9FFAE4655
:1007C000050069465346C008C000854618B020B5EC
:1007D000FFF700FD60BCB64600260027C0C5C0C5B7
:1007E000C0C5C0C5C0C5C0C5C0C5C0C5403D49081D
:1007F00049008D46704710B50446C046C0462046A5
:10080000FFF7BDFC10BD000001491820ABBEFEE79C
:10081000260002007047811E091F00BFFCD27047EE
:1008200070B50A780C231A400124240305196E6858
:100830009E43B2186A6049780722114003599343D6
:100840005918015170BD0000B0B511221202835831
:100850000C4C1C400B894D881D438B792B430A4D52
:100860001D402B1983508B88CC791C430978214378
:100870005D239B001940801842689A4389184160A3
:10088000B0BDC04680CCFFFF7F33000010B5012211
:10089000120383180C785C604978815010BD000009
:1008A000F0B57A4A82183B4BC31808794E793A4D15
:1008B000784C002E23D0202804D00526F6010028ED
:1008C00003D003E0354E002800D18826576F2F4013
:1008D00037435767976F2F4037439767566B2640CC
:1008E0005663966B264096630026566596658F265E
:1008F000F6435F6837405F609F6837409F608E793E
:10090000096820280BD0002819D1491E5160D76EE4
:100910002F4088210F43D7661746703719E0491ECC
:100920005160D16E29401D4F3943D166116F294066
:100930003943116701214907194D174609E0490854
:100940005160D76E2F400521C9010F43D766174666
:1009500070373C682C400C433C60D16A4D4C2140C0
:10096000D162116B214011630021D16411658F2187
:10097000C943D46F0C40D4671C680C401C6006430C
:10098000BD2030401168074B0B40C018801C106020
:10099000F0BDC0468418000024493E000104000058
:1009A000FFFFFFCF4000FFCFB0B54A68364BC250C3
:1009B000364A80180A78222A58D8930001A4E358AE
:1009C0009F46C046630A00006D0A0000630A0000EB
:1009D0006D0A00006D0A00006D0A00006D0A00003B
:1009E0006D0A00006D0A00006D0A00006D0A00002B
:1009F0006D0A00006D0A00006D0A00006D0A00001B
:100A00006D0A0000510A00006D0A0000510A000042
:100A10006D0A00006D0A00006D0A00006D0A0000FA
:100A20006D0A00006D0A00006D0A00006D0A0000EA
:100A30006D0A00006D0A00006D0A00006D0A0000DA
:100A40006D0A0000510A00006D0A0000510A000002
:100A500003231B0704689C4301235B07E31803601F
:100A600004E003231B0704689C4304600B69C36014
:100A7000CB68074C1C40C36A064D1D402B19C3624E
:100A8000097A11430160B0BD081800000418000085
:100A9000777702008888FDFF10B507239B04194073
:100AA00092008018024A84589C436118815010BDFE
:100AB0003018000010B5029CA4000019114319431E
:100AC000014A815010BDC0465018000092008018A5
:100AD000014A81507047C0461018000010B501222D
:100AE000120383180C789C604B7883508978014AF4
:100AF000815010BD0C110000B0B5112212028358B4
:100B00000124A34383500B888C781C438B88234398
:100B1000094C1C408358094D1D40631983508B7943
:100B2000CC791C43097A21437E23194080184268FE
:100B30009A4351184160B0BD18670000E798FDFF67
:100B400010B50122120383180C789C6049788150FB
:100B500010BD0000F0B583B0344D28461838006849
:100B6000800760D5324E103E3068C00631492AD524
:100B7000086840210140304F397030480068002437
:100B8000019401AA214603F0CFF801280ED138784C
:100B9000002801D0012000E0E04329490A688018BC
:100BA00008602648006801A902F0BFFF01980028EC
:100BB00003D001200007234908601D4A1068102156
:100BC000014311601B493068800628D508688021E0
:100BD0000140194F7970194E30680024029402AA1E
:100BE000214603F0A1F801280DD17878002801D022
:100BF000E04300E0012014490A688018086030686A
:100C000002A902F092FF0298002803D001200007F9
:100C10000C490860064A10682021014311602868C9
:100C200002210143296003B0F0BDC0465811404085
:100C300048300A4080330A4068002020501A2020A3
:100C40001002202004ED00E0380420200000000005
:100C5000EFF309800E4B1A6820381060F0C044464C
:100C60004D4656465F46F0C008B572B602F068FDC4
:100C700062B60CBC116808681030F0C8A046A946DE
:100C8000B246BB4680F309882038F0C81847C046F2
:100C90005803202070470000F0B52B498720C86614
:100CA00001239A032948026088220A61284A0824FD
:100CB000146084248C628024146082244C6110258A
:100CC0001560244D4D600D605B064D681D434D6001
:100CD0000D681D430D604C641F4C651C8D641F4DD9
:100CE0008326AE610E67A61C6E610E460C3E812700
:100CF00037600E46083E3760CC620F632F60AF62EC
:100D0000EF63174EEE65CC640C654C638C63114643
:100D1000303903240C60146001463039114A0A60EE
:100D2000014640390B601049016010480168104AC3
:100D30000A4302600F48016A3022114301620168D0
:100D400011430160F0BDC04610804240D0320A40DD
:100D5000D0120A4082000C008100040084804240CE
:100D600081000200080013000800130290330A40BB
:100D70003035000028300A4010B511481149FFF7FE
:100D80004FFD03225102104803680B430360012109
:100D90000B0204681C430460002343614262826BBF
:100DA00007239A4382631A02836B93438363826AA5
:100DB000042313438362826A0A43826210BDC046E1
:100DC00000200F40744A000000320F4070B582B01E
:100DD000194C1A492046FFF781FE19492046FFF7B2
:100DE0005FFD00250095204629462A462B46FFF741
:100DF00061FE204629462A46FFF74EFE2046294638
:100E00002A46FFF763FE01260096204629462A4619
:100E10002B46FFF74FFE204629463246FFF73CFEA1
:100E2000204629463246FFF751FE064886600321D8
:100E3000016002B070BDC04600008640764A0000E6
:100E40007C4A00000011864070B582B0194C1A49E6
:100E50002046FFF743FE19492046FFF721FD0025F4
:100E60000095204629462A462B46FFF723FE2046BA
:100E700029462A46FFF710FE204629462A46FFF754
:100E800025FE01260096204629462A462B46FFF7D6
:100E900011FE204629463246FFF7FEFD2046294630
:100EA0003246FFF713FE064886600321016002B058
:100EB00070BDC04600000940844A0000884A000016
:100EC0000011094010B50D4C0D492046FFF7DEFC1E
:100ED0000C492046FFF7B8FC0B4841680B4A0A4012
:100EE0000F324260816812220A432D218A438260B8
:100EF000016801220A43026010BDC04600A04640BE
:100F0000904A0000924A000004B1464000FCFFFFF6
:100F100004480021016004480168032291430160F4
:100F20007047C04608030B4000010B4010B5084C49
:100F300008492046FFF7D2FD07492046FFF734FD58
:100F4000064801680122114301600548026010BD96
:100F5000002086409C4A0000A04A000028308640BD
:100F60000831864010B5194C19492046FFF7E8FDB5
:100F700018492046FFF7C0FD0320C1031648026848
:100F80008A4302600169154A0A40113202614169CF
:100F900017220A4328218A434261426801210A40FC
:100FA00043688B439A1842608A020D4B1C681443B5
:100FB0001C60FF2212060B4B1C6894438A07A21880
:100FC0001A6002680A43026010BDC04600801040EB
:100FD000B44A0000B64A0000009110400000FFFF34
:100FE000289010400CE400E080B500F021F8FFF7F5
:100FF00053FEFFF78DFFFFF7E9FEFFF725FFFFF731
:1010000095FFFFF7B9FEFFF7ADFFFFF75BFFB820D5
:10101000044900220A5404490A54242003490A546A
:1010200080BDC04654012020700020202C012020CB
:10103000F0B581B010481149416011484160114B31
:101040005960114C6160114D6960114E7160114F12
:101050007960114841601149074A1160084A1160DE
:101060001960216029603160396001601020FFF74C
:10107000D2FB01B0F0BDC04600080A40030000B139
:1010800000280A40000886400008094000288640E1
:1010900000280F400088104000A8464001000026AC
:1010A00010B501F050FE044602F022FF002803D0E4
:1010B0000120000702490860204601F072FE10BDC1
:1010C00004ED00E080B505480068C0B20B2804D1EB
:1010D00003480068C0B200F0D5F880BD20901040F1
:1010E00024911040B0B5002820D00446EFF30580CD
:1010F000002807D07D2005022846FFF78CFB641EE0
:10110000FAD113E002F0E2FE022808D17D20C100EE
:101110004C43204603F0B4F802F0F0F9B0BD7D2056
:1011200005022846FFF777FB641EFAD1B0BD000028
:10113000D94801680020002900D070470949096892
:101140000029FAD1084909680029F6D1D348006876
:10115000CD490968491E884201D00120704702200C
:101160007047C046BC1A2020641A202082B0FFF7C6
:101170003BFF00230120009001934202034804A199
:1011800002F050FE02F06EFAFEE7C04605320000A3
:101190004F4C45440000000070B503460079821FA3
:1011A000D2B2FB2A00D270BD5A7A103A052AFAD878
:1011B0000A33C0467A4412795200974402403038CC
:1011C00028451729EFD129490C68002CEBD0197854
:1011D0005A78120251189A781204DD782D06AA184E
:1011E00051181A795D792D02AA189D792D04DE799E
:1011F00036067519AA181D7A5E7A360275199E7A16
:101200003604DB7A1B069B195B19A04770BD0B29BE
:10121000C9D1164909690029C5D0884770BD0B2975
:10122000C1D1124989680029BDD0884770BD0B29FA
:10123000B9D10E49C9680029B5D0884770BD0F29BA
:10124000B1D10A494A6803E00F29ACD107494A697C
:10125000002AA8D019785C78240261189C782404AC
:10126000DB781B061B195918904770BD58042020C5
:101270000022002904D003789A18401C491EFAD194
:10128000D0B27047F0B581B03E4C217879440979ED
:1012900049008F44023929310A4B532863D13A4916
:1012A0000A683B4B9854012035E037490B68384AAF
:1012B000D054581C08600A2830D3507993791B0207
:1012C0001818D3791B04127A1206D21812182F4854
:1012D0000260183A0D23DB439A424ED800220A607E
:1012E0002270026001B0F0BD482819D126490A6871
:1012F000274B985403200EE0592811D122490A683F
:10130000234B9854042006E05A2809D11E490A6844
:101310001F4B985402202070501C086001B0F0BD93
:10132000194800210160217001B0F0BD164D2968F7
:1013300016291DD8164A50544A1C2A60134E336889
:101340009A42EBD1124A07461046FFF791FF8742B7
:1013500003D129680E48FFF71FFF00202860207086
:10136000306001B0F0BD08480021016001B0F0BD5F
:101370000020286020700549CFE70520207001B0CB
:10138000F0BDC04670042020540420206C002020B2
:101390003C042020F0B581B0044601F039FF7B48C1
:1013A0000168491C01607B4F396800290AD0374821
:1013B0000068002847D1E06A3968C96A814242D88A
:1013C0003C6040E03C60006801283CD1724D2846FA
:1013D00001F0EAFC2846143001F0E6FC28462830EB
:1013E00001F0E2FC28463C3001F0DEFC284650309B
:1013F00001F0DAFC2846643001F0D6FC284678304B
:1014000001F0D2FC28468C3001F0CEFC2846A030FA
:1014100001F0CAFCB435284601F0C6FC1C4D284634
:1014200001F0C2FC1B4E304601F0BEFC1A4801F030
:10143000BBFC554801F0B8FC184801F0B5FC184851
:1014400005601848066018480168491C216401605D
:10145000E06A4F490A68904200D90860142141436C
:101460004D484018211D01F0CAFC01F0DBFE074881
:101470000068002806D0E06A3968C96A814201D252
:1014800002F00EF801B0F0BD101520207C1A2020CB
:10149000181A20202C1A2020681A2020881A2020B0
:1014A00060032020680320201C15202082B001202A
:1014B0000190344E344F354D05E0206B01F0C0FEF5
:1014C000204601F0BDFE3068002817D001F0A0FED4
:1014D000F868C468201D01F03AFC2868401E2860A6
:1014E0003068401E306001F09DFE6120205C0228C3
:1014F000E9D00128E4D00028DFD03EE0244800688D
:1015000024490968C96A0029DDD1411E8841224960
:1015100009680129019900D801460029D3D11F4843
:1015200000681F490968401A0228CCD31D49086881
:10153000401C0860194800681949096888421ED390
:101540001348006813490968C96A002912D1411E6D
:101550008841114909680129019900D801460029EB
:1015600008D10E4800680E490968401A022801D3C4
:1015700001F0E8FE02F0AEFDA5E772B6FEE772B636
:10158000FEE7C046141520209C1A202010152020AC
:10159000201520205803202070032020541A2020DA
:1015A000B01A202018152020F0B583B002930F4602
:1015B00001900A9C206B9600A5223146FEF759FE49
:1015C000206B8019031F072021463431089D002F0E
:1015D00030D03A780A70002A29D07A784A70002AE6
:1015E00025D0BA788A70002A21D0FA78CA70002AE9
:1015F0001DD03A790A71002A19D07A794A71002AE5
:1016000015D0BA798A71002A11D0FA79CA71002AE4
:101610000DD03A7A0A72002A09D07A7A4A72002AE0
:1016200005D0BA7A8A72002A01D0FA7ACA720022E8
:10163000CA7201E000220A7083430093099F0026CA
:10164000E664092D00D30925A564E562201D01F09B
:10165000B5FB2046183001F0B1FB0A20401BA06109
:1016600026656665A665E6652046503006746462A8
:10167000246100AA07CA00F063FA2060002F00D09E
:101680003C6003B0F0BD0000F0B585B0044602F048
:101690002BFC234A1168884233D200940190A94F51
:1016A00005E068602D613868314601F08AFB3868D2
:1016B0000168002927D0C0680468C5682E1D30461F
:1016C00001F045FB296A284688472820285C400706
:1016D000EDD5A8690019A042E3D89C4E30680028D7
:1016E0000DD0049503940025029502F0EFFB3068BD
:1016F00002A92A462B4602F00EF90028D7D172B66D
:10170000FEE7002107E090490A683A60086001217D
:101710000198009C024A1060216005B0F0BDC046EF
:101720005403202081B0002000900A48006872B65F
:10173000401C09D0FEE70098002808D10098002836
:1017400005D10098002802D100980028F3D001B0FC
:101750007047C046000020208AB07A4E7B4F306828
:101760000468002C02D0C068056800E0002501F084
:10177000E1FF04A8FFF788FF0499002902D002F0D6
:10178000A9FC52E0002C15D0854213D8029002F03B
:10179000A1FC3068C068C468201D019001F0D7FA30
:1017A0002820205C410709D421462831FA22104024
:1017B000087037E0002C12D0002215E0A069411912
:1017C00061602461029A9142314603D8511B8142E3
:1017D0005D4914D20868019901F0F3FA22E05A49F0
:1017E000096809684A424A41291A386801F064FECA
:1017F00002F070FC002818D101F052FE15E03868A4
:10180000002800D19BE0099408950025079502F077
:101810005DFB386807A92A462B4602F07CF80028B1
:1018200000D18CE0216A20468847386804A900224C
:10183000029202E0386804A9002202F0B8F90028F8
:101840008DD004980028F5D4069D6869002802D040
:10185000281D01F07CFA03A8FFF716FF0499092957
:10186000E8D8C0467944097949008F440A0A0A0435
:1018700042570A0A04422820295CFE220A402A54C0
:10188000D8E728216A5C012313436B54AB6905999F
:101890005A186A602D61824224D98842304625D286
:1018A0008A42304622D334462E462836296A2846B4
:1018B0008847307826464007BCD5386800283AD09B
:1018C000A8690599099540180890029C079402F0B0
:1018D000FDFA386807A92246234602F01CF80028C2
:1018E000A8D128E0401A98421748DCD2291D006888
:1018F00011E028216A5C012313436B540599A96107
:1019000000291AD0091869602D618142304600D83B
:101910000D480068291D01F054FA8BE72820285C47
:10192000810703D4284601F08BFC83E72835FE218C
:10193000084028707EE772B6FEE772B6FEE772B620
:10194000FEE7C0465C0320206C032020B41A202050
:10195000F0B581B004460646443601F059FC01203A
:101960003756012F12DB2546243504E0781E79B264
:10197000012907460ADD2868002807D0284602F01A
:1019800069FB0028F2D001F0F7FDEFE7FF25757045
:1019900001F048FC01F03CFC00203756012F11DB20
:1019A000103404E0781E79B2012907460ADD206868
:1019B000002807D0204602F04DFB0028F2D001F0AD
:1019C000DBFDEFE7357001F02DFC01B0F0BD00004C
:1019D000F0B583B0054601F0ADFE52480368002B18
:1019E00002D0514909781DE00721CA434F4B5907DE
:1019F000194601D0D91D11404D4C0326B6029E193F
:101A00001640083E0660002206C432607260036819
:101A1000721A0B604A6047490A6047490A60424AA5
:101A2000012111700024002D01D4224600E0012282
:101A30002E460836092E6CD30A406AD10722294661
:101A4000914310310024B14200D821466A0700D0EA
:101A50000E46711E384A126891425AD2344D2A6895
:101A60005768B74207D21168002904D015460A46C4
:101A70004F68B742F7D39A424BD02C68116829605F
:101A8000B91B11292DD393195D0701D072B6FEE75A
:101A900059605660264E3168994204D20E689E42C3
:101AA0000D46F8D301E035460E46696801916F187E
:101AB00002975F680299994203D101997F186F607C
:101AC0002B46D919B14201D0304606E00068864263
:101AD00003D07068C0195860306818609D4200D00B
:101AE0002B605068144B1968091A1960114B1D6856
:101AF000A94200D2196008340B4909780023136009
:101B00000E4B1D686D1C1D604B1E9941C907084393
:101B1000506002F0DFFA600701D072B6FEE720469F
:101B200003B0F0BD64032020141A202008092020EF
:101B3000801A20204C1A2020401A20205C1A2020D5
:101B40000346083B1960011F01231B060B60014679
:101B50000C39034B0B60014620390A60403870474E
:101B60002517000080B53821415C0268127C4A4389
:101B7000D100406BFEF7A2FB80BDF0B583B01546E7
:101B80000E46089CA11889B20091029399198BB254
:101B90000746314600F0DAF9002C0DD000280BD0B2
:101BA00000200090AAB238463146029B00F047F868
:101BB0006D1C641E2004F3D103B0F0BDF0B587B0F6
:101BC00017460E4605460C9CA01880B2009006935E
:101BD0005818059083B2284600F0B8F900282CD098
:101BE000002004900090284631463A46069B00F0BB
:101BF00026F8022C21D37F1CA41E200415D001201E
:101C000001900090BAB20392A3B2029328463146E3
:101C100000F015F8019800900598401E81B2284602
:101C2000039A029B00F00BF8E71904980090BAB2EF
:101C300028463146069B00F002F807B0F0BDF0B52B
:101C40008BB0002B00D1A9E08C24045D002C00D1C6
:101C5000A4E0109C022B08D3032C04D0022C04D146
:101C6000C91A491C01E0D21A521C06464836012501
:101C70002C400A9410D1B78895B2BD4200D28DE0B5
:101C8000F788BD4200D389E08DB2EF1874880795BC
:101C9000A54212D33D4611E034888FB2A7427DD3CE
:101CA0007488A7427AD297B2FC180894F4880697F1
:101CB000A74237D3089F079737E0651E0994BCB247
:101CC0000497BC4200D125460394ACB23688012566
:101CD0000027059702940896B4422E462C4600D958
:101CE000059C0694079D099CA5420D46049F00D3C0
:101CF000089D039CBC4200D10D46ADB2099CA54293
:101D000000D2059E069F3E4309D108998D4200D816
:101D10000D460299A14200D321464B1B2946002EB5
:101D200034D03BE0671E0797089F0994BCB2BC42C1
:101D3000079F00D127460394BCB2B68800270497BA
:101D400002940796B4422C4600D9049C0594069E42
:101D5000099CA6421646089F00D3079E039CBC42DE
:101D600000D11646B7B2099CA74200D2049D059E39
:101D7000354309D1079A974200D81746029AA242E2
:101D800000D32246D31B3A46002D07D1046BA4682A
:101D90000A9D009589B292B29BB2A0470BB0F0BDEC
:101DA000F0B583B0034648339C88A24228D3DC8830
:101DB000A24225D21C88A14222D35B8899421FD21D
:101DC00005468C352D78002D1AD001250026994224
:101DD000029500D2354601964E1CB7B2B74200D0EC
:101DE0005F1EBFB2A742029E0CD835430DD0002D16
:101DF00006D1036B9C6800230093029B9BB2A04713
:101E000003B0F0BD019E3543F1D1A14200D8214677
:101E10009F4200D31F467B1A0293002DE9D0EFE7C3
:101E200010B5494C446000F0C3F910BDF0B583B063
:101E3000044600F015FC002829D021466A3100250F
:101E40008D7020668F7B0378082F3E4603D3401C9D
:101E500020663E46083E2046903001908E70EA4350
:101E60000292BA4093430B70F3B2226E1778DF40B0
:101E7000CD7BAB19D8B208280BD3501C20660820A4
:101E8000801BC0B2567886403E43083B02E00020EB
:101E900051E03E468B70019880780871029AAA4002
:101EA00096434E70424242414A71DEB2226E17782A
:101EB000F7400D7C5B19D8B2082809D3501C206666
:101EC0000820801BC0B2567886403E43083B00E0A5
:101ED0003E468B70029A1046A8408643681EC0B2E8
:101EE0008240B018019A1070487CC318D8B20828F4
:101EF00003D3206E401C2066083B8B70D8B2276E3F
:101F00003E78C6408A7CD518E8B2082809D3781CE8
:101F100020660820C01AC0B27B7883403343083D56
:101F200000E033468D700299084690408343501E6E
:101F3000C0B28140581840B203B0F0BD80B5024A2B
:101F4000426000F051FC80BDA5290000F0B548308A
:101F50008688C488059DA2420DD201240027B5427F
:101F6000264600D83E46AA4200D83C463443002CC0
:101F70000DD10020F0BD01240027B542264600D82F
:101F80003E46AA4200D83C463440002CF1D002889C
:101F90004088814208D201200024934202460CD995
:101FA00099420DD91043F0BD01200024934202460E
:101FB00009D999420AD91040F0BD22469942F1D878
:101FC00020461043F0BD22469942F4D820461040E6
:101FD000F0BD10B5044600F0DDFB204600F0B9FC72
:101FE00010BD022900D90121922281547047B0B559
:101FF0000446806D884253D00D46A165743408783C
:102000002070487860708878A070C878E07008798F
:102010002071487960718879A071C879E071087A77
:102020002072487A6072887AA072C87AE072087B5F
:102030002073487B6073887BA073C87BE073087C47
:1020400020741121284600F051FB6082132128469C
:1020500000F04CFBA0821521284600F047FBE082EF
:10206000002D1DD00D202156A1760E202056E076A1
:10207000627E002A14D0012A07D10F22A256914273
:1020800000DAA2761021625607E00A22A3560C223B
:10209000A256D3188B4200DDA376904200DDE27693
:1020A000B0BD00000149C1657047C046AD220000C7
:1020B000B0B504466D2000252554382022548D20CB
:1020C0002554FF2002309222A0526163E362A5658D
:1020D0000498206321468D310D71214638314D70B1
:1020E000016820468847064820656065206B416886
:1020F000204688472046FFF7D5FF6D34E570B0BD18
:102100000000FFFF70B582B016460D4604460093EE
:102110000849094A334600F02AFC01AE304600F077
:1021200033FB014632780095044B2046FFF7C0FF91
:1021300002B070BD092C0000892A0000FF260000B3
:10214000022B09D0012B04D0002B08D1401880B2FB
:102150007047801A80B27047401A80B2704780186A
:1021600080B27047022B09D0012B04D0002B08D17C
:10217000801880B27047401880B27047801A80B2D1
:102180007047401A80B2704770B582B0C46AC58F7C
:10219000069E0096521B92B2A04702B070BD10B5C9
:1021A00082B0049C0094FFF7EFFF02B010BD000066
:1021B000F0B585B01F4603920291064600F0BFFDC0
:1021C00039787268304690473749884265D0324640
:1021D000643204927D1C002201920BE0029101996D
:1021E0004118019129787268304690476D1C21464C
:1021F000A04254D087B20C46481E80B28742F1D02C
:102200000498027B032A039802991FD87A44127912
:10221000520097440115080FF16D30468847039925
:102220004018029912E0F16D304688470399081A68
:1022300002990BE0F16D304688470299411804E09D
:10224000F16D304688470299091A0398049A508024
:1022500011803046394600F003FA002804D00146C8
:10226000304600F025F800E000200499097B03299E
:10227000B5D8C0467944097949008F44040A01075A
:102280000299091AAAE702994118A7E70399091ABE
:1022900001E0039941180391A1E700200190019802
:1022A00080B205B0F0BDC046FFFF000000207047BF
:1022B000F0B591B0016607466437002207923A7282
:1022C0003A7D0C78082A134603D3491C016613464D
:1022D000083B0146923108913B720799C94304912A
:1022E00091408C431094BC71D9B2056E2C78CC40CF
:1022F000797DCA18D6B2082E09D36E1C0666082648
:10230000F31ADBB26D789D402543083A00E025467C
:102310003A72089B1B78BB72049C8C40A5430395C2
:10232000FD7159425941F972D6B2056E2B78F340CE
:10233000B97D0F915418E2B2082A0AD36A1C0266CA
:102340000822921BD6B26978B14019430E91083C1D
:1023500000E00E933C72E3B2056E024638462F78D9
:10236000DF400A90C37D1E19F1B2082909D3691C08
:1023700011660821091BC9B26D788D403D43083EA6
:1023800000E03D46109840B210900A990E72F0B2EB
:10239000146E2778C740087E02908019C1B20829C0
:1023A00009920AD3611C11660821891BC9B262789F
:1023B0008A403A430192083800E00197039C0A9949
:1023C00008721098012800DA3DE10F9E701E049AF1
:1023D0001146B140C0B20E9E8E4311468140581E38
:1023E00071189A40C0B201234FB2954383406019DF
:1023F000181A45B20A98067B0A98008839462A4678
:102400003346FFF79DFE01460A980C4601800A9864
:10241000408839460A9F2A463346FFF7A3FE788054
:10242000032E2AD87E4436797600B744011E08145C
:10243000109925466318039949B2411820E0109974
:102440002346611A4D1C039949B2411A4C1C411C88
:102450005B1C204614E0039949B225466318109985
:10246000411A4A1C411C10460AE010994118039A6F
:1024700052B2A21A551C631C02E0254623460146AF
:10248000099C89B20091A9B282B29BB22046FFF7A3
:102490005DFD002800D1D6E00798B880099F05E0CF
:1024A000039840B20B99814200DBC8E00A98047A95
:1024B0003B6E1A78E240807C2118CDB2082D0AD3F9
:1024C0005D1C3D6608252C1BE4B25B78A3401343DA
:1024D0000693083900E006920A9B1972CAB23D6E53
:1024E0002C78D440DA7C5318DEB2082E09D36E1C47
:1024F0003E660826711AC9B26D788D402543083BA7
:1025000000E02546049C21468140069888430690B9
:102510000A990B7220469040854305950CE0531CA8
:102520003B6608231B1ADBB252789A400A43C31F4A
:102530000A990B72D007B3D04B790E79069D0F46DE
:10254000079AB879841B787A002825D131463E7BDA
:1025500078880F914FB210935AB20D923946334694
:10256000FFF700FE0E900A98008839460A9F0D9AE0
:102570003346FFF7E5FD0146F87A089A1070009699
:10258000EBB2E0B2834200D3034609980E9AFFF7FC
:1025900056FB079A109B0F9EE0B2E9B2814203D32B
:1025A0002D1B5B1C1646CCE77B71A9193971059868
:1025B0000E900F91B8790D9078880B903E7B3888FB
:1025C0004DB210935CB2294622463346FFF7B8FD60
:1025D0000C900B9829460B9422463346FFF7C2FD18
:1025E0000246B87A0899087000960D980F99441A17
:1025F000E5B20E980646C7B2AF423B4600D32B4623
:1026000009980C99FFF71BFBAF4206D3361B0E96B9
:10261000109B5B1C00210A9FCBE70A991098487118
:102620000F9830180871087A099F3A6E1178C140E6
:10263000431CDCB2082C00D371E70A4678E70A98FD
:10264000807A0899087004990846029A9040019B84
:102650008343501EC0B28140581840B211B0F0BD43
:1026600070B50C46816D86301731FF2C03D8612C74
:102670002ED340882FE080880E183546002128464A
:1026800000F034F836180221284600F02FF82D1DEE
:10269000A042F3D3707831780902081841424141D1
:1026A000002812D0A04201D1F01C0EE0B1787018C1
:1026B0004278715C09028A1851425141002A04D0C3
:1026C000A2420646F2D1C01CFFE700290CD170BD22
:1026D000412C01D3008809184878002804D00A78D2
:1026E0009442F8D1881C70BD002070BD4218527809
:1026F000405C0002801880B2704701207047F0B53E
:1027000083B000919221415C07261746374001248F
:102710000194BC4000250129029500D025460229DC
:1027200000D3029CB2430168097C51438AB20290F3
:10273000416B8818009942180898002819D002980F
:10274000923004E06D0064005B1E190419D011780A
:102750002143694011707F1C3740F3D10178012972
:1027600000D0019D012900D8019C0299498F52187F
:10277000EAE71078204368401070521C5B1E180472
:10278000F7D103B0F0BD0000082101700048704788
:1027900008052020F0B583B004463820205C029064
:1027A0002068407C0190204638304778002501267B
:1027B0002068037C184668430A490840616B081882
:1027C0000090FAB20021204600F0ADF8029886424F
:1027D00006D2761C08357F1CF8B201998842E7D3EF
:1027E00003B0F0BDF8FF0000F0B585B00D4604461B
:1027F0006A2000262654204600F0A1FA2978626853
:102800002046904721466A3101912146903102913C
:10281000684A904221D06E1C0025C0210391049586
:102820000BE00390049840190490317862682046C8
:102830009047761C3A46B84213D081B21746501ED4
:1028400080B28142F1D02046FFF7F0FA05460398A6
:10285000C028E6D102980078E3E7C02003900496F0
:1028600035460198007800280ED00021029A515672
:10287000049A521B40B210184718039948B2012815
:1028800003DBC8B23F1800E0049FB8B205B0F0BD4A
:10289000B0B53821415CCA0082870468626942642D
:1028A000227CD2004287024638325378DD00C58749
:1028B00015815D18607C854200D9C11AC818C00016
:1028C0005081B0BD70B582B0044605464035002643
:1028D0002E81006CE064A88868816B8AAA8A298AA4
:1028E000E88A00902046FFF731FB8C34002817D08F
:1028F00001202070288A2989814200D22881688A93
:102900006989814200D96881A88AA989814200D257
:10291000A881E88AE989814200D9E88102B070BDC6
:10292000267002B070BDB0B582B06C46A271617104
:1029300023710699009185680F2101222346A8473B
:1029400002B0B0BD10B584680A2100221346A0472A
:1029500010BD10B58468102100221346A04710BD99
:1029600010B50A4684680B210023A04710BDB0B5FE
:102970002324002505550560044608340EC4049937
:102980004161856101462331CD70FF224A714A7051
:1029900000F001F8B0BD10B584680921002213468B
:1029A000A04710BD0348002902D00A2900D00846DC
:1029B0007047C046FFFF0000F0B581B01439002019
:1029C0000C2932D87944097949008F44062E2E1DEE
:1029D00017302E2E2E2E2E2E360001252E041C4FA3
:1029E0003E610A242046FEF77DFB3E602046FEF74E
:1029F00079FB28462905396001B0F0BD01200105A9
:102A0000134A116101B0F0BD0120002A0DD0002150
:102A1000104C5D5C2668F606FCD4256325686D07BE
:102A2000FCD4256A491C9142F3D101B0F0BD0120CC
:102A30000105074A116001B0F0BD01204104044BBB
:102A4000002A02D0196001B0F0BD196101B0F0BDDB
:102A500090320A4010B1464080B582B001AA117090
:102A6000012100F002F802B080BD10B513460A46FD
:102A700004691721A04710BD10B50A46046920213A
:102A80000023A04710BD0000F0B581B00C46143CF7
:102A9000052C22D87C4424796400A7441A02020E33
:102AA0001A1A002104461546FFF7E6FF204629467C
:102AB000FFF7D2FF012001B0F0BD012504460E460C
:102AC000294615461F46FFF7D7FF31463B462046AD
:102AD0002A460469A04701B0F0BD002001B0F0BD56
:102AE00010B5C468192100221346A04710BD10B5C7
:102AF0000A46C46816210023A04710BD10B50A4637
:102B0000C46815210023A04710BD10B513460A461E
:102B1000C4681721A04710BD70B582B00C460546A9
:102B200008E01838022815D2641CEE6800222846F6
:102B30001346B047217808461729F2DC15380228D9
:102B400013D2627801A80270EE6800232846B047CD
:102B5000A41CEFE7FE2913D1627801A80270292195
:102B6000284600F0E7F8A41CE4E7172908D16078AC
:102B700001AA107001212846FFF7C7FFA41CD9E75E
:102B800002B070BD10B5C468182100221346A047DA
:102B900010BDF0B581B004464669282100252A46BB
:102BA0002B46B047E668142120462A462B46B047FC
:102BB0004B26012200922046314600F0BBF82068E7
:102BC000027929272046394600F0B4F820463146DC
:102BD0002A4600F0AFF8206802792046394600F016
:102BE000A9F820463146009A00F0A4F820684279FE
:102BF0002046394600F09EF801B0F0BD8A7C2223C1
:102C0000C254016070470000B0B50D46044600F0A4
:102C100021F801460120002900D0B0BD092D0BD0BC
:102C20000A2D10D105462046FFF7B3FF084920467C
:102C3000FFF772FF2846B0BD044905462046FFF75E
:102C4000DDFF2846B0BD0020B0BDC046CC58000016
:102C50008B580000F0B581B004460B3900200429E0
:102C60005DD815467944097949008F440258120607
:102C70001D00002D46D02D4945E02046FFF782FF7C
:102C800081212046FFF73AFF20462946FFF72FFF14
:102C900034E026462236002D39D022492046FFF75F
:102CA0003BFF2068C07C38E01E462046FFF76AFFE5
:102CB0002220205C0090777940212046FFF71EFFFC
:102CC000F80000994718F8B2010910312046FFF7C3
:102CD00015FF0F2139402046FFF709FFB079B021D9
:102CE00001432046FFF703FF32683079C006010E2A
:102CF0002046FFF70AFF6D1E2806F5D12046FFF794
:102D0000EFFE0BE00A492046FFF706FF06E0064902
:102D10002046FFF701FF2068807C3070012001B061
:102D2000F0BDC046845800007D580000C558000022
:102D3000C058000010B544690023A04710BD2621EB
:102D4000002242547047EFF3108072B6704741681A
:102D500082688A60516001694B68834200D14A6091
:102D60000A68521E0A60002202610868704700006B
:102D7000034B036080201060024808607047C04623
:102D80002417202024152020034B0360802010608E
:102D9000024808607047C046881920208817202004
:102DA000FEE780F310887047002101600246083278
:102DB000C94342608160C2600261704700210161C5
:102DC0007047B0B50B685A1C0BD0044608346268D3
:102DD00015689D4208D8546825689D422546F6D955
:102DE00004E00269556801E015462246A9600861C1
:102DF0004D608A6051600168491C0160B0BD426845
:102E00004A6093688B600861596003685B1C0360CB
:102E100091607047F0B58FB0DD4FDE49DE4ADF4B81
:102E20003846FFF76FF93846FFF78CFD0025384626
:102E30002946FFF795FD4B2002908000079001F096
:102E400053F80390099512E03846FFF7C2F8322094
:102E500000F054FB0C98EA4901F0CAFC054601F069
:102E600043F80399401ACE49884200D387E1384697
:102E7000FEF778FE01F038F808903846C949FFF7A8
:102E8000B6F83846C849FFF759F80446FF208105CF
:102E90000C95284601F0F2FCFDF7C4FB0521FDF777
:102EA0001FFA0A916008BA4C402106910E1A4D2073
:102EB000099F0DE0B1B2AAB20EAB2046FEF7B0FFFB
:102EC0000B983618B848C01940787F1C052F41D0A0
:102ED0000EA9099A4A7008702046FFF72FF80B9048
:102EE0003846FDF7F1FBB14901F0C8FC0C9901F03F
:102EF0007FFC01F0BBFB4121090601F0BFFCAC499E
:102F000001F076FCFDF78EFB05460A98B842D1D158
:102F100001249F482146FFF764F813200090B01E5B
:102F200081B228460F3882B20B98001D83B29848B0
:102F3000FEF723FE00219648FFF753F8B1B2AAB27C
:102F40000EAB9348FEF76CFF91482146904CFFF77B
:102F500048F8B5E720469749FFF749F803980899DC
:102F60000D1A20469449FEF7E9FF0446934885422E
:102F70000495284600D39148FDF7A6FB9049FDF73C
:102F8000A1FA6108069A551A8E4901F077FCFDF7FF
:102F900049FB0A900C9E3046FDF744FB074600248F
:102FA0005720089409E00B982D18834800194078A1
:102FB0000D37641C072C0C9E2AD00DA9089A4A7064
:102FC00008707348FEF7BAFF0B902046FDF77CFBB4
:102FD0003F21090601F052FC314601F009FC01F0E5
:102FE00045FB014601F004FC774901F001FCFDF7C7
:102FF00019FB064638180A21FDF772F90A98814232
:10300000D1DAA9B2B2B20DAB6148FEF709FFCAE747
:103010000298C100049D2846FDF754F908913046F6
:10302000FDF700FB04460B264643AF2081002846EF
:10303000FDF748F90691079864300590E4000027F1
:1030400004E00F3409367F1C802F57D03846FDF737
:103050003BFB0A905D4901F011FC0C9901F0C8FBA3
:1030600001F004FB5A4901F009FC5A4901F0C0FB88
:10307000FDF7D8FA054682B2B9B245480B91FEF782
:103080008FFE55486043554940185549884209D834
:1030900008980599884205D2A81E82B23C480B992F
:1030A000FEF77EFE0A984F4901F0E8FB0C9901F00B
:1030B0009FFB4D4901F09CFB01F0D8FA444901F017
:1030C000DDFB4A4901F094FBFDF7ACFA054682B2FC
:1030D0002F480B99FEF764FE454870434549401858
:1030E00045498842ADD8079806998142A9D2A81CC3
:1030F00082B227480B99FEF753FEA2E70220009008
:1031000005213E227625224F38462B46FEF756FDF6
:103110000499694322488142384E00D294E6084619
:103120001F4901F0ADF80446762800D32C46012C47
:1031300000D801240025164F2846FDF7C5FA7D2149
:10314000C90501F09BFB0C9901F052FB01F08EFACE
:10315000314601F093FBFDF765FA3E3082B2681DFF
:1031600086B238463146FEF71BFE3F2238463146CE
:10317000224EFEF715FE6D1CAC42DDD164E6044C18
:103180002046FEF7EFFC2046FEF723FF0FB0F0BD10
:1031900074042020D04A0000B9290000FB2600005A
:1031A000B80B0000DC4A0000C04A00003333333F54
:1031B0000000F041AB540000C64A0000DC050000EE
:1031C0000080BB440000204100004842EC51B83D63
:1031D000000040400000704291C0DB0F78FB2101ED
:1031E000F0F64302CDCCCC3DD00F49400000E0408A
:1031F0007FBFDFEF0804020110080402CDCC8C3F32
:10320000CDCC4C3EFFF706FE0120FDF76BFFFBE740
:1032100072B60A480168491C0160BFF34F8FBFF3C3
:103220006F8F704705480168002903D0491E01606F
:1032300002D0704772B6FEE762B6704700002020E9
:10324000B0B5002844D0234909784A1E9141C907E6
:10325000041F2268114205D008380368002B03D0F0
:1032600072B6FEE772B6FEE78A432260054600F0BA
:1032700061FA28462168184A13685B181360174BD7
:103280001C68844204D2236883422246F8D301E0BA
:103290001A46234654681519854202D1091951600E
:1032A000104644189C4201D01C4607E00C4C246890
:1032B000A34203D05C68611841601C6804608242CC
:1032C00000D0106007480168491C016000F002FF4F
:1032D000B0BDC046141A2020401A2020801A202099
:1032E00064032020601A20206948012101706A4887
:1032F00001706A48017067480021016081600249DD
:103300004160072101607047FF7C00000000000061
:103310000B4A13681868203080F30988022080F374
:103320001488BFF36F8F3FBCAE4608BC04BC62B6C6
:103330001847C046C046C046C046C046C046C04604
:1033400058032020F0B585B0064651480178514F0A
:1033500038680122049290433860B8687D221402D4
:103360004D4A1378002B224646D0002947D18E4281
:1033700000D30E46711E01914A431018474909783F
:103380000029039400D02D21451A00D8054672B6B5
:10339000BFF34F8FBFF36F8F0024E0430290FDF720
:1033A000C7FE002830D07D60BC60386804990843AF
:1033B0003860002E04D0BFF34F8F30BFBFF36F8F44
:1033C00062B6BFF34F8FBFF36F8F72B6BFF34F8FED
:1033D000BFF36F8F062038603868C00320D4039D88
:1033E0006E43B868361A3046294600F049FF294630
:1033F0004143891B491937E01A460029B7D0832178
:1034000089008E42B5D2B5E7B8687860386804990B
:103410000843386020480078002808D1029808E066
:103420001D480078002808D10299039E07E0039800
:10343000401E786062B605B0F0BD039E711EBA688A
:10344000521B521800283346354600D103469A4293
:10345000084600D810462D2A00D301460F4A12789C
:10346000002A00D1014601987960BC603A6804994D
:103470000A433A6000F04CF907480078002801D16F
:10348000029800E0681E786062B605B0F0BDC046E4
:10349000481A202010E000E00C15202008152020FC
:1034A0000120000703490860BFF34F8FBFF36F8F00
:1034B0007047C04604ED00E070B515460E46044660
:1034C000FFF7A6FE4420215C20464430FF2901D1AD
:1034D000002101704178FF2901D100214170FFF7DF
:1034E000A1FEA06B002805D12046243031462A4693
:1034F00000F076F82046FEF72BFA70BD70B5002874
:103500002CD0C2490A68002A01D072B6FEE70A68C8
:10351000521C0A6085490C68BE4D2968091D064683
:103520000846FFF714FCA4192868446006D34B48EA
:1035300000682968091DFFF744FC0AE04648006856
:103540002968091DFFF73DFC794801688C4200D2CB
:10355000046000F0BFFD002800D070BDFFF7A0FFA1
:1035600070BDC0460349096801607049096841603F
:103570007047C046581A2020A548012101607047B5
:1035800070B5002818D00C46A24D29681831FFF7F5
:1035900018FC664806682868001DFFF7D8FB601C09
:1035A0000CD03419286844600ED32C480068296870
:1035B000091DFFF706FC70BD72B6FEE72868011D05
:1035C0002748FFF71CFC70BD234800682968091DC7
:1035D000FFF7F7FB564801688C4200D2046070BDCB
:1035E000F0B581B000281BD015460C46894E3168D5
:1035F0001831FFF704FC4D4807683068001DFFF7DD
:10360000A6FB002D01D00020C443002D0AD0601C71
:1036100008D13068011D1248FFF7F1FB01B0F0BD81
:1036200072B6FEE73C193068446007D30B48006867
:103630003168091DFFF7C5FB01B0F0BD0648006801
:103640003168091DFFF7BDFB394801688C4200D283
:10365000046001B0F0BDC046600320206803202054
:10366000881A2020B0B588B000240694059406A8D6
:1036700005A904AAFFF77CFB0598002833D0069D16
:10368000002D32D0049A64210791079964292ED124
:103690000799612102236B542863029507A80190C2
:1036A0000094154815A12346FDF77EFF2846FDF737
:1036B00071FE144807990160002910D000F08AFDBE
:1036C000411C16D001280AD172B6E043184908609F
:1036D0000D48012101601548046000F0A3F80B4873
:1036E000006808B0B0BD72B6FEE772B6FEE772B60B
:1036F000FEE772B6FEE7C046AD14000049444C45F3
:1037000000000000441A20207C1A2020E458000009
:1037100006490A681218064B1B689A4201D972B60C
:10372000FEE70A68101808607047C046B01A2020EB
:10373000541A202035480168491C01607047C04672
:10374000F0B581B031480068002802D0304801212E
:103750002CE02F48002101602E4C2068006B02688D
:103760002D498A4208D142688A4205D182688A423C
:1037700002D1C068884204D0206821683431FFF744
:103780000FFB2648016814231A464A43244DAE58BD
:10379000002E0ED0AA1853685B6853601546083592
:1037A000AB4201D15B685360DA682260016001B00E
:1037B000F0BDAA1800291DD01E464E4376191746A3
:1037C000143F3F68002F17D1012913D01746283F17
:1037D0003F68002F13D102290CD017463C3F3F68A9
:1037E000002F0FD1032905D0091F503A1668002E6B
:1037F000E0D0D0E772B6FEE7143E491E04E0283E52
:10380000891E01E03C3EC91E3246C4E7181520203F
:10381000BC1A202058032020A5A5A5A520152020EE
:1038200070032020B0B582B0FF200104124A136853
:103830000B4313600006116801431160FFF754FD4C
:103840000E4C00252560FFF763FDFFF779FF01951A
:10385000206872B6401C09D0FEE70198002808D104
:103860000198002805D10198002802D1019800286C
:10387000F3D0002002B0B0BD20ED00E00000202019
:1038800070B582B0002807D0002B07D0002907D1DF
:10389000002A05D072B6FEE772B6FEE772B6FEE702
:1038A000002903D0002A01D172B6FEE7502401940A
:1038B000019C502C2DD11D464435069E019CD86399
:1038C00019640029184600D0104618600120A8701D
:1038D0001C46FFF79DFC0020A063FF202870216894
:1038E0006870E06B226C431E504308185343CA189B
:1038F0006160A060E26020461030FFF755FA204674
:103900002430FFF751FAFFF78DFC2E72204602B0EB
:1039100070BD72B6FEE7F0B589B00892002812D0EB
:103920001D460446002910D0022D02D1E06B01286B
:103930003FD11646059100F0C9FA00280AD1002EA1
:1039400008D072B6FEE772B6FEE7206C0028EBD016
:1039500072B6FEE7FFF75CFCE06BA16B022D51D065
:1039600081424FD30898002800D1D9E0264644363A
:1039700006A8FFF7F7FDFFF755FCFFF7DBFEFFF7A3
:1039800047FC3078FF2801D1002030707078FF2884
:1039900001D100207070FFF745FC06A808A900F0CF
:1039A00011FA002807D02046FDF7D2FF00F092FB65
:1039B000B8E072B6FEE727461037FFF729FCE06B48
:1039C0000290A06B0190FFF72DFC029801998142B3
:1039D0000DD108993846FFF7D3FD2046FDF7B8FF13
:1039E00000F078FB002807D1FFF75AFD04E02046DD
:1039F000FDF7AEFF00F06EFBFFF70AFCE06BA16B7A
:103A000081424CD2226CA66B002A059919D001275D
:103A1000002D1BD0E068FCF7EBFB206CE168091A75
:103A2000E1602268914203D24042A1680818E06038
:103A3000701E31468141A81E424242410A40B61AD8
:103A400018E0206800280ED0012713E06068FCF71A
:103A5000CFFB206C616808186060A168884209D3B8
:103A60002068606006E0A06800F0C4FA0021A16050
:103A700047424741701CA063606A00280CD0243480
:103A8000204600F0E7FA002801D0FFF709FDFFF714
:103A9000C9FB012009B0F0BD002FF6D0F7E704966E
:103AA00003970BE02046FDF753FF00F013FBFFF7F1
:103AB000AFFBE06BA16B8142049EA3D30898002862
:103AC0002ED0FFF7AFFBFFF735FEFFF7A1FB3078F5
:103AD000FF2801D1002030707078FF2801D100202C
:103AE0007070FFF79FFB06A808A900F06BF900288B
:103AF00000D058E7FFF78CFBE76BA66BFFF792FB54
:103B0000BE42CFD108990398FFF73AFD2046FDF752
:103B10001FFF00F0DFFA0028C9D1FFF7C1FCC6E79C
:103B2000FFF780FB002009B0F0BD70B5002804D07D
:103B3000026C002A03D072B6FEE772B6FEE7026896
:103B4000002A23D00D460446FFF7FDF8A36BE26B75
:103B5000934219D221464522A25C5B1CA3637F2AB3
:103B600019D0FF2A19D14A6A0124002A19D0064621
:103B70002431084600F06EFA002D16D00028304699
:103B80000FD001242C600CE000240AE08268002A97
:103B9000D8D072B6FEE772B6FEE74531521C0A7005
:103BA0000124FFF7FEF8204670BD3046F9E7F0B576
:103BB00085B0049200280CD01546044600292ED06A
:103BC0000F4600F083F9002805D1002D03D072B60E
:103BD000FEE772B6FEE7FFF71BFBA56B002D23D0B7
:103BE000226C002A0AD03846E1688918E160A3688F
:103BF000994201D32168E160FCF7FAFA681EA063DC
:103C000020690125002800D189E01034204600F009
:103C100021FA002800D182E0FFF742FC7FE0206C0F
:103C20000028CDD072B6FEE700250498002876D093
:103C300000952646443602A8FFF794FCFFF7F2FAF7
:103C4000FFF778FDFFF7E4FA3078FF2801D1002074
:103C500030707078FF2801D1002070702046243029
:103C60000190FFF7DFFA02A804A900F0ABF80028E2
:103C70000DD02046FDF76CFE00F02CFAFFF7C8FAD5
:103C8000A56BFFF7CFFA002D1BD1002549E0FFF708
:103C9000BFFAA56BFFF7C6FA002D05D02046FDF749
:103CA00057FE00F017FA0CE004990198FFF768FC42
:103CB0002046FDF74DFE00F00DFA002801D1FFF778
:103CC000EFFBFFF7A5FAA56B002D89D1049800281A
:103CD00024D0FFF7A7FAFFF72DFDFFF799FA307808
:103CE000FF2801D1002030707078FF2801D100201A
:103CF0007070FFF797FA02A804A900F063F8002893
:103D0000C5D02046FDF724FE00F0E4F9FFF780FA65
:103D1000A56BFFF787FA002DD3D1B6E7009DFFF71B
:103D200081FA284605B0F0BDF0B583B0002833D045
:103D30000446002932D00D460292FFF704F8A66B24
:103D4000002E30D04421675C226C002A0CD00190F8
:103D5000E0688118E160A068814201D32168E160D8
:103D60002846FCF745FA0198711EA1637F2F1CD0ED
:103D7000FF2F1CD12169012500291CD006461034D3
:103D8000204600F067F90299002919D00028304632
:103D900011D001250D600EE072B6FEE7206C002800
:103DA000C9D072B6FEE7002505E072B6FEE74434DE
:103DB000791C21700125FEF7F4FF284603B0F0BD01
:103DC0003046F8E7F0B581B000281FD00C46002936
:103DD0001ED00546FFF71CFA6A6883480768216809
:103DE00000264B1C19D0824803682868834201D002
:103DF00097420FD2BA1A91420CD9881A20607C4897
:103E00000068286078480068686006E072B6FEE7DF
:103E100072B6FEE7002020600126FFF703FA304665
:103E200001B0F0BDF0B587B01F4604AB07C39000EA
:103E3000FDF7CEFD0025EC4300281CD00646039775
:103E40006420FDF7C5FD002812D007460D980C9997
:103E50006122BD543E6300910190029704AA07CAF3
:103E6000039BFDF7A1FB3846FDF794FA012402E01D
:103E70003046FFF7E5F9204607B0F0BDF0B587B052
:103E80000D9D002D1BD00E9C002C1AD0642605968B
:103E9000059E642E17D10C9E0496059F612702266D
:103EA000E6552563029406AD0195049D0095FDF746
:103EB0007BFB2046FDF76EFA069807B0F0BD72B6A0
:103EC000FEE772B6FEE772B6FEE70000054800683E
:103ED000002805D0B548006841424141480070477C
:103EE000012070477C1A20203F4800687047C04678
:103EF000F0B583B0AD480068002806D0B44801682A
:103F0000491C0160002003B0F0BD374801684C1C1B
:103F100004601BD3AC4801680968002901D072B65F
:103F2000FEE70168314A13680360116030490A688E
:103F3000521C0A6001680968002903D00068C06843
:103F4000006801E00020C043A04908609F4908685C
:103F5000844201D200203FE00023DA439A4E3068C9
:103F6000006800282FD001920020029003E0306802
:103F7000006800282CD03068C068C7687868844220
:103F800023D33D1D2846FEF7E2FEB86A002803D081
:103F900038461830FEF7DBFEF86A87490968884220
:103FA00001D98549086014214143844840182946B5
:103FB000FEF725FFF86A82490968C96A8842D6D3A4
:103FC00001200290D3E7029304E002467F4901E01A
:103FD0007E49019A0A6002987A490968002992D0BC
:103FE000012003B0F0BDC046B01A20206803202095
:103FF000581A2020B0B501460020002926D0704A6A
:104000001268914201D072B6FEE7CA6C002A1ED037
:10401000521ECA641AD18A6CCB6A934216D00C1D08
:104020000D462046FEF793FEA86CE8620A21091AA5
:10403000A96161490A68904200D90860142141438E
:104040005E4840182146FEF7DAFE0120B0BD72B688
:10405000FEE7C046B0B5C068C568002D0DD02C463F
:1040600018342046FEF773FE50480068002806D03A
:1040700050482146FEF7C3FE1FE072B6FEE72C1D36
:104080002046FEF764FEE86A4B490A68904200D970
:10409000086014214143494840182146FEF7AFFE0D
:1040A000494801680968002903D00068C0680068B1
:1040B00001E00020C04345490860E86A40490968BA
:1040C000C96A884203D93F4901200860B0BD002079
:1040D000B0BDC046F0B581B0344C206800280DD08A
:1040E000FFF796F82068401E20602068002700280F
:1040F00006D0FFF797F8384601B0F0BD72B6FEE77C
:104100002B4800680028F4D02A4E3068002833D0AD
:104110000097294F02E0306800281FD0F068C4687B
:1041200020461830FEF713FE251D2846FEF70FFE29
:10413000E06A3968884200D93860142141431F4839
:1041400040182946FEF75BFEE06A1D490968C96A06
:104150008842E0D301201B490860DCE71A48016867
:104160000968002903D00068C068006801E00020E9
:10417000C043009F15490860154C2568002D0CD0E0
:10418000104E01E06D1E06D0FFF7B2FE0028F9D0F8
:1041900001203060F6E7002020600A48006800280F
:1041A000A7D0FFF77DF90127A3E7C0461815202007
:1041B00010152020681A20202015202070032020B0
:1041C00058032020BC1A202060032020541A2020ED
:1041D000641A202070B586B0FFF71AF81D4E3068BB
:1041E000002814D11C4C2046FEF7DEFD1B4D28464E
:1041F000FEF7DAFD1A4805601A48046000200090B6
:1042000014200C21184A194BFFF73AFB3060FFF7D6
:1042100009F8306800281AD000240594049405A8F1
:1042200004A903AAFEF7B0FD039A04980599052393
:104230000093019002910E480EA12346FFF71EFE47
:104240000E490860002802D0012006B070BD72B689
:10425000FEE7C046B41A2020EC192020001A2020C6
:104260006C0320205C032020140220200403202063
:1042700059170000546D722053766300B81A20203D
:1042800043088B421AD3002203098B4279D3030AD5
:104290008B425ED3030B8B4242D3030C8B4227D35A
:1042A0000902FF2212BA030C8B4202D31212090236
:1042B00003D0030B8B4233D31AE0D3E0411A804181
:1042C000401C704703460B4371D443088B42F5D31F
:1042D000002203098B4254D3030A8B4239D3030BC8
:1042E0008B421DD3030C8B4202D394466EE0090A25
:1042F000C30B8B4201D3CB03C01A5241830B8B42B9
:1043000001D38B03C01A5241430B8B4201D34B03A1
:10431000C01A5241030B8B4201D30B03C01A524106
:10432000C30A8B4201D3CB02C01A5241830A8B428B
:1043300001D38B02C01A5241430A8B4201D34B0274
:10434000C01A5241030A8B4201D30B02C01A5241D8
:10435000CDD2C3098B4201D3CB01C01A524183098C
:104360008B4201D38B01C01A524143098B4201D3C6
:104370004B01C01A524103098B4201D30B01C01AF1
:104380005241C3088B4201D3CB00C01A524183086B
:104390008B4201D38B00C01A524143088B4201D398
:1043A0004B00C01A5241411A524110007047CA0FC7
:1043B00000D04942031000D34042534000229C46A3
:1043C00003098B422DD3030A8B4212D38901FC22AD
:1043D00012BA030A8B420CD3890192118B4208D383
:1043E000890192118B4204D3890137D0921100E0E8
:1043F0008909C3098B4201D3CB01C01A52418309F9
:104400008B4201D38B01C01A524143098B4201D325
:104410004B01C01A524103098B4201D30B01C01A50
:104420005241C3088B4201D3CB00C01A52418308CA
:104430008B4201D38B00C01A5241D9D243088B4220
:1044400001D34B00C01A5241411A00D201465241D9
:10445000104663465B1000D34042704763465B10D2
:1044600000D3404201B50021004201D0C9430846B3
:10447000C046C04602BDF8B5040C8BB2264682B2D7
:104480005E43104658430D0C370C3604002180194A
:10449000164679416E43370C360480192646794119
:1044A0006E438919F8BD4100080200D004200A0EAD
:1044B00001D001221043090EFF2901D10221084336
:1044C000012800D10520704710B50121FCF74AF9F9
:1044D00010BD10B500210846FBF7F4FF10BD5E21AA
:1044E00010B5C9430807FCF73DF910BDF0B50E46FD
:1044F00014465100FF22120687B0914203D31116D1
:10450000316007B0F0BD01202502C0070543E00D72
:104510007838C206D20E2020871A6000000E783844
:10452000401181004D4878440B189C464358002A9E
:1045300014D06046406893400146F840034360460B
:10454000806891408646F840014303916046714679
:10455000C0689140F84001430F4603E0604641685F
:104560000391876818462946FFF785FF029104905A
:1045700029460398FFF77FFF0391069038462946A6
:10458000FFF779FF0F460698029B3D18049A03999E
:10459000BD4201D2012700E000278818C019002F72
:1045A00002D0884202D903E0884201D2012100E012
:1045B000002159180A4620329709C20C8906520375
:1045C00040033760114301900846FCF775F80290EC
:1045D0000198FCF779F81221C943FCF7C3F8019060
:1045E0002846FCF771F82521C943FCF7BBF8009079
:1045F0000199029800F0FCF8009900F0F9F8012107
:10460000C9024018050B2D032846029900F09AF9BB
:10461000019900F097F9009900F088F9104900F02D
:104620002DF900900F49284600F028F9009900F074
:10463000DFF800900C49284600F020F9009900F0BE
:10464000D7F8002C00DB5CE701210907C91B3160AA
:104650000121C907484007B0F0BD00002A0500004D
:10466000DB0FC92F22AAFD290000C92FF0B5024691
:104670000446514B83B040006946984209D27321E9
:104680000906884202D20020C04300E000200090CA
:1046900030E05000494B400898426BD248491046E0
:1046A00000F0ECF8FCF71EF80746FBF7BBFF8007AD
:1046B000800F00904349384600F0E0F801904249ED
:1046C000384600F0DBF806464049384600F0D6F898
:1046D00005463F49384600F0D1F8214600F026F95A
:1046E000294600F02FF9314600F02CF9019900F02D
:1046F00029F904462546009C002C3FDBE007354E97
:10470000294608461AD000F0B9F80546324900F0AB
:10471000B5F8324900F06CF8294600F0AFF830499E
:1047200000F066F8294600F0A9F87F21C90500F0DD
:104730005FF8A10700D5704003B0F0BD00F09EF80F
:104740000746284900F09AF8274900F051F8394601
:1047500000F094F8254900F04BF8394600F08EF847
:10476000294600F08BF8294600F042F8A107E2D470
:1047700003B0F0BD1046FFF7B9FEBAE7FF216800AD
:104780000906884209D22846FFF78DFE042801D188
:10479000FFF7A5FE284603B0F0BD884206D10120F0
:1047A000FBF79AFFFFF795FE03B0F0BD2846FFF731
:1047B0008BFE03B0F0BD0000B61F927E490E494645
:1047C00083F9223F1A61342C0020A23300A0FD3966
:1047D0000000C93F00000080B93AB2BACA9F2A3D22
:1047E000DDFFFFBE336D4CB9DA82083CA0AA2ABEB9
:1047F00070B50125ED0704004C4020D4441A01D2C5
:10480000001B0919C60D4B00F2B2FF2A29D01B0E5E
:104810002CD000020C0228432C43D31ADC4005198B
:1048200010D2280A02D3401C6D0611D0761EF60560
:104830008019FF2A00DA70BDC00DC00570BD694047
:1048400000F086F801200543C541521C761CE8E7BC
:1048500064089C40C90161408900E7D10124A0435C
:10486000E4E71B0E440200D0034870BD002AFCD1CF
:10487000C00FC00770BD00BF0000C07F70B5420010
:1048800064414B005C41120E39D01B0E38D0FF2A18
:104890003CD0FF2B3AD0D2187F3A40024902400A5E
:1048A000490A4518ED0106004E43000A090A48432B
:1048B0000104731A4019190C4318990F04D05B08AE
:1048C000012149075B1A521CD80904D3401CF50387
:1048D00001D19D0607D0FF2A08D2D50506D0E407EE
:1048E0002043401970BD0125A843F4E7002A01DCEC
:1048F000E00770BD2402FF202043C00570BD1B0EE1
:10490000FF2A03D0FF2B01D0E00770BDFF2636063B
:104910004500B54206D84D00B54203D8D218FF2A4B
:1049200000D0E7E7004870BD0000C07F70B50125EA
:10493000ED07684004004C4002D5694000F008F8DB
:10494000FFF75CFF70B50125ED0704004C4022D451
:10495000441A02D26C40001B0919C60D4B00F2B27A
:10496000FF2A4BD01B0E50D000020C02A8432C4350
:10497000D31ADC40051B05D5AD0019D36D08761E92
:10498000521E37D0F605280A01D2801970BD704139
:104990006D0603D070BD6940FFF730FF9C400902EF
:1049A0006140490001D0401E70BD0124A04370BD8C
:1049B0006D081DD001202B0C01D12D0410302B0EC1
:1049C00001D12D0208302B0F01D12D01001DAB0F9D
:1049D00001D1AD00801CEB0F01D16D00401C361AD7
:1049E000121A6D00680AF5054019012A02DB70BD34
:1049F000002070BDC036300AC00770BD1B0E4402D7
:104A000001D1FF2B00D1024870BD002AF0D070BD4B
:104A10000000C07F8182838485868788898B8C8D06
:104A20008E8F919293959697999A9C9D9FA0A2A301
:104A3000A5A7A8AAACAEB0B2B3B5B7B9BCBEC0C248
:104A4000C5C7C9CCCED1D4D7D9DCDFE2E6E9ECF0DA
:104A5000F3F7FAFE000000006E83F9A22915444E18
:104A6000D15727FCC0DD34F5999562DB4190433C7A
:104A7000AB6351FE0800080700000000B80B0000FF
:104A80002001010008070000B80B00002000010011
:104A9000080004000003000007100000080762007F
:104AA0000000000000000000000000000000000006
:104AB00000000000080000001800000000300000A6
:104AC0004D53504D300057656C636F6D65000000AD
:104AD00091280000C52800009F2100005F02040308
:104AE00004050104050E1600FB10FC11FC0317065B
:104AF000AC09B220096E8F7FFCFF1F0221106E8F60
:104B00002FD9FDEF61654969E5F1040022166E8F2A
:104B10001F751373137313731373137313F3F8FF66
:104B2000080023276E8F7F9811391939913991A187
:104B30008392832A114111B9113919A9039A032AC1
:104B400091391141114111793C24246E8FB7D9C993
:104B5000B303A18989A889B989414B5343C389B952
:104B600089199109A183A983C8D9795C0025266E8A
:104B70008F7F08A211939909919909238B298A594A
:104B8000D9D1D9B3032909112193191135233642FB
:104B9000F4380626246E8F7F184AC389B191399163
:104BA000B909C94A42439111911993219AA12192BD
:104BB000A28BA112791C03270C6E8F37E1D9BDC7D8
:104BC000FF570028156E8F4759CAD1B5B3B2FBB154
:104BD000F0DA615ADA79100029196E8F7F08E159ED
:104BE000E2B5C3B3C3C2B36B856567654757D28A65
:104BF000022A1B6E8F7F5CCC0ECB8D48CC1C90554F
:104C0000564ACCC988CD8C45C5E363002B116E8F05
:104C10007F5CCC6E7740734037BB7B7C0E2C106E74
:104C20008F7FFC3F9325A59D959D9587032D0E6E47
:104C30008F7FFCF260E8601EFF2B002E0E6E8F7FD0
:104C4000FC3F9325A595C70D002F186E8F4F61D996
:104C5000A5B3A3B3B3B2B3B2B3B2B3B2B3C2F23873
:104C60000330236E8F7FA0C9330AAA9929A1353555
:104C7000333523123313223335333543DB4C519014
:104C80005DD2E301310F6E8F7FA8C9BAC390D9FD01
:104C9000DFE30132176E8F7F20C283A899B1A8D9B4
:104CA0004DF7ADECC1D0C13C8E01331C6E8F7F1827
:104CB000C2833099E159D9C1CA5A62E1D9A928A958
:104CC00099B1C37ABC00341D6E8F7F38D951968557
:104CD0001283127322632363325307340794B3DBC6
:104CE000E31C00351E6E8F7F8803A903A9D9B57711
:104CF0000761236451C2C2B3528A48A80E02EBF185
:104D000000361B6E8F7F28C2331231D915730752BC
:104D1000245343FB95D0D4C8DC213D1E37186E8F39
:104D20007F8883A18359D9A5B3B3B24B676765D791
:104D3000CAE30D0038206E8F7F98C2B311A25DCDFB
:104D40004C510CD64D9009AD129A9A9912A2993AEB
:104D500008ACC703391D6E8F7F20C2BB91A921A962
:104D6000A17D4375207610BB564C84EA20901E2FFF
:104D7000003A126E8F7F3C9725A595C7A12C29ADCF
:104D80003C6E003B116E8F7F7C2D4B4A2B8F67A4AE
:104D9000B46B15023C136E8F7FA4B193751D9212F4
:104DA000D3763B2C8FA7003D126E8F7FDC1ED01C6C
:104DB000D0A33FA039A0C7BF033E136E8F7FF0E89A
:104DC000D9DE52D63524AC9C8DC767003F186E8F54
:104DD000A7C2B39929C5B3A3A3A46B65E791CA92EF
:104DE000CEE3050040266E8F7FA0C2B399A1A9191A
:104DF000199391938991153223362313232B0E6235
:104E0000446E8669E20EE2EC710D41226E8F7FA83E
:104E100060E1D951D24A09C1893919B119B103A93F
:104E200003A1A999A9193991B979DC0242246E8F9D
:104E3000FF83B083A1AD66A66686860EA40EA48607
:104E400056CD4CCD4CCD4CCD0C0D1D0C1DC4E301ED
:104E5000431C6E8F7FA0BA83B099A1A919B1A0D9C4
:104E60003D169E929A993A08ACC7390044226E8F3B
:104E7000FFBB03A919A2AD66A666A666A666A666CE
:104E8000A666A666A684B6993A90BAC70B004518DE
:104E90006E8FFF039A039AD9DD1E481D48CDEEF6AA
:104EA00080E6801EC70046156E8F7F8883A183A190
:104EB000D96D0FA40EA466F77B3C02471F6E8F7F4F
:104EC000A0BA83B099A12921D9DD98CC988C8D8C7A
:104ED000CD4CCD303A90ABC7390048276E8FFFA933
:104EE00099A999A999A999A999A999A999039A03FD
:104EF0009AA999A999A999A999A999A999A9791C4E
:104F00000349136E8F7F8803A903C1D9FD0F0FA436
:104F10000EE4710D4A156E8F7F9883B083C8D9FD5A
:104F2000B320B191B14B7A3C014B236E8FFFA9990D
:104F3000A13553336223631373868613821373235D
:104F4000633353335343AB66A6E8710B4C106E8F3B
:104F50007F88D9FDBF3D183A98C731004D286E8F24
:104F60007FB991B191291222129A922E24462628B5
:104F700046264696882C1B191B191B191B191B1931
:104F80009BC72D004E286E8FFFA999A919A219A2BF
:104F9000999A999A152233136B462466466C666A71
:104FA000666A8668A666A666C6E4710C4F246E8F94
:104FB0007F20C2832812A2356323632363236323E4
:104FC0006323632363336233434324540781F478B8
:104FD000501C6E8FFF83B083A1219AA999A999A92A
:104FE00099A99983A103A9D97D8F570051286E8F64
:104FF0007F20C283B011A24562236323632363230E
:1050000063236323632363336242AB0EE24C856701
:105010002DEB210052256E8FFF83B003A9A15542CD
:10502000533353428B0E860EC246C666C466A686AE
:10503000A48656094DCDE31800531E6E8F7FA0BA8B
:1050400083289AA1A9A8D9615AD3E261E11931A1B3
:1050500019A203397B9C03540F6E8FFF839283B296
:10506000D9FDBFC70B0055256E8FFFA999A999A936
:1050700099A999A999A999A999A999A999A999A920
:1050800099A999A9A199A903B97A3C56216E8F7F54
:10509000B91139993121A92129A92131993119B998
:1050A0001141894109C952D261F57801572E6E8F9D
:1050B000F74111992011192532223222233222146C
:1050C0003213144212118A28145150914CCD4CCDF8
:1050D0008C0989098945C9E31A0058236E8FFFA9F5
:1050E0002129A9993119B9894109C9D2D9D14A8946
:1050F000B9893999A92129A99931791C0359196EBE
:105100008FF7B119B199A129A1A9193991B909C983
:105110004ADAFD1E2F005A1B6E8F7F8883A18359A8
:10512000D959D9D159D9D1D9D1B5A3073407F43830
:10513000065B126E8F9F83B083B0D9FD7F7B1076A4
:10514000108F015C186E8F1761E161E161E161E12F
:1051500061E1D9E1D9E1D961F598035D116E8F97CD
:1051600003A903D9FDFFEA40EA401E035E146E8FD7
:105170007F28D9594A09C1893919312979FC3F0257
:105180005F0E6E8F7FFCFFF541C9413D3800601115
:105190006E8F9FE86861E161E161D5F1F89F02617E
:1051A0001E6E8F7F9CD71D48CD0CCF4E1D081DCC89
:1051B0004CCD4CCDCC141D4C55CCE3180062206E68
:1051C0008F8FD9BD203B90A2199A9A999A999A9952
:1051D0009A999A999AA1193A9092A8C70363196E5D
:1051E0008F7FDCD71D4491108905CD6E2C16452389
:1051F0007610588F730064226E8FCFD99D514C1D4D
:1052000008CDD04CCD4CCD4CCD4CCD4CCD4C0DCD56
:10521000501D8851CCE31800651C6E8F7F9C171EB3
:1052200044CD0C4DCD1CD01CD0CC2E8BA2993A88ED
:10523000B3C7390066166E8FB7C2B31931A9A8D9A2
:10524000C903A903B9D9FD3DDE0067216E8F7F9C9C
:10525000930C1DCC8C4C0D6D35427667273C7B2022
:105260007530333632357340750F0368126E8F9781
:10527000D9BD203B902A19DAFF7F8F630069126E37
:105280008FAFD9F5C80C6DF787076107F138076A4A
:10529000156E8FBFD9F5A8EE6EF79F054D8D8C1D4D
:1052A00004D283016B1C6E8F97D93D5A3335323649
:1052B0003167683831373236333543B4D53C6E0107
:1052C0006C106E8F1743DBFD3F3C903A90C7350062
:1052D0006D2B6E8F7FDC5A0C1DD04C50C84C8CC887
:1052E0004C8CC84C8CC84C8CC84C8CC84C8CC84C52
:1052F0008CC84C8CC84C8CC8E318006E126E8F7F23
:105300001C4F901D48950CEDFFBFC731006F1E6EFE
:105310008F7FDC131E44911049CD8CC98C8D8C8DF0
:105320008CC94C0D91501DC4D5E30170226E8F7F46
:10533000DC4E901D48D10C4DCD4CCD4CCD4CCD4CC0
:10534000CD4CCDD00C1D484D90CD6E0F0971226E05
:105350008F7F9C57481D08CDD04CCD4CCD4CCD4CAB
:10536000CD4CCD4C0DCD501D8851CCEE1E0200729F
:10537000136E8F7F1C4F541D0C95481145CDEEF7D1
:105380007804731A6E8F7F9C171E44CD4C0D49D143
:10539000DAD64E85CDD04C1DC8D5E30174176E8F7B
:1053A0007FA05961C903A9034161D93D1E913BAC5E
:1053B000C7630075136E8F7FDC0EEDFF1F91501DCC
:1053C0008851CCE31A00761D6E8F7FDC8EC98C0964
:1053D000490D0D890989C9C88D084A489692CECED3
:1053E000E3050077286E8F7FDCCA8DC8888CC8885B
:1053F0008CC888C84C50084950084950084944286E
:105400002221221993191392C73500781D6E8F7FC0
:10541000DC4E0DCD8CC9C84D0C96CE8E164ECCC927
:105420004C0D094DCDE31800791E6E8F7FDC8E097F
:1054300089096D2426243622282268494A3A2C3BC1
:10544000173268480F087A166E8F7FDC1E0C1D8C91
:10545000CECA8E6EABF680E6801EC7007B176E8FBD
:105460007FA842BBD9DD4A56120F0BCFEE96D6B2BB
:105470001E04007C0B6E8FAFD9FDFFDF43017D154D
:105480006E8F7F88CADBE1D91D5756CAEED3B93B70
:105490007B28007E106E8F7F5C13C59CACB8A4C7C0
:1054A000FF150000000004FFFF000060000302037E
:1054B00004030404060B00FE08FE09FF0143028AF0
:1054C00003B5200500A203210641A3E31222079B96
:1054D000BA23B104230B2DAEA732289541A900248D
:1054E0000F559E2B5B2A4AB62551A254B608250EAD
:1054F00045A2675012A59BA428899400260D45A2B9
:1055000047AAD42A5192489112270519BB6328084B
:10551000D39E2B29F5562909D39E232BF552022A17
:105520000A2DAEAB52599A22002B0A2DA62B8C06BF
:10553000298C002C08A29A634814002D058BAE63B9
:105540002E0612A363082F0C559AB31666611666D1
:105550006108300D45A267C9A42599342D59003141
:105560000945A22B1A7B1A04320A45A267C9C2ACAC
:10557000E320330C45A267C9C2480DB56401340C61
:1055800045A22F93925232686136350C45A2E3183A
:105590000E69A8250B00360C45A26709C321C96C0A
:1055A000C902370A45A263106BC52600380C45A214
:1055B00067C9B464C96CC902390C45A267C96CC912
:1055C000105616003A0832A3630887003B09C29AB6
:1055D00063088744013C07BCA62F6A6C3D081DAEDA
:1055E000635007013E08BCA6236C6A033F0B45A22B
:1055F00067C9C25A1D8A00400E45A267C994214955
:1056000094214C8700410D45A22B4BA2A4A60D432B
:10561000A605420D45A26348326D5032DBA000431F
:105620000A45A267C9C46EC902440A45A26348324A
:10563000DF0605450B45A2E3180E49581C04460A2F
:1056400045A2E3180E49D808470C45A267C9C4D241
:10565000A6250B00480A45A223B30D43E616490AC6
:1056600045A26390C29E06014A0A45A2B3A3A6259D
:105670000B004B0D45A223939292A62551250B4C6E
:105680000845A223ECE3204D0C45A2235B96444938
:1056900034B7004E0B45A2239B9444DADC024F0A38
:1056A00045A267C97C4B1600500C45A26348326D79
:1056B00050C24600510A4D9E67C97CA9AC01520CEC
:1056C00045A26348326D5032B700530B45A267C9FB
:1056D000D435D49205540945A26390C23E015509C0
:1056E00045A223F35BB200560C45A223734B4A49F3
:1056F000164600570A45A223F39228C92D580B4598
:10570000A223B325B54A4D0B590A45A223734B6A10
:1057100061095A0A45A26310B38EE1205B08529FCB
:1057200063E917015C0CD59A234CC3344CC3340C89
:105730005D08D29E43E997015E081DB62B4B6A01B6
:105740005F060E9AE300600692BE230A61092DA24D
:1057500067D04C8A12620C45A2232C0E49661B149A
:105760000063092DA267C9C47408640A45A2B36521
:10577000D06CC910650A2DA267C986211D02660A70
:10578000C4A24B89A6AC1300670C3D9A67D06CC9C4
:1057900010260B00680A45A2232C0E49E61669085C
:1057A000C3A227975A066A09539A2B973A2D006B82
:1057B0000B45A2236C4A4A53250B6C08C3A243EA4B
:1057C000CB006D0C2DA263482A4AA2244A016E091F
:1057D0002DA2233169B6006F092DA267C96CC902D9
:1057E000700C3D9A634832DBA0842100710A3D9A17
:1057F00067D06CC9101672092DA223318945007338
:10580000092DA267500F0A007409C4A2272B4D5915
:105810005175092DA22373529400760B2DA223D328
:105820009252924500770C2DA22349944449942E1C
:1058300000780A2DA2234B6A955A00790B3D9A23D2
:10584000734B863059007A092DA263D0DA06017BAA
:105850000ADB9A2B895AB2A82D7C06519FE3217D41
:105860000BDB9A238BDA92A825027E0615B2C705B8
:105870007F0500A20300000004FFFF00001815A12F
:1058800015C819FF1815A015C019FF1815AE15D5A4
:10589000168015A8163F15D316001540158D161441
:1058A0001520160015A115C815DA1612158116CF88
:1058B00015D916F115DB1640152E15A415A619FFDE
:1058C0001815AF19FF1815AE19FF00000001140AD2
:1058D0006464323200127A00000428961008000036
:1058E000800040000900000008590000000020204E
:1058F00008000000200100001059000008002020CE
:10590000B81B000048010000AAAAAAAA00000000D3
:04000005000000C136
:00000001FF
