:020000040000FA
:1000000048642020C1020000C5020000E92300006E
:1000100000000000000000000000000000000000E0
:100020000000000000000000000000004927000060
:100030000000000000000000E1240000712B00001F
:10004000CF02000061230000CF020000CF020000B9
:10005000CF020000CF020000CF020000CF0200005C
:1000600000000000CF020000CF02000000000000EE
:1000700000000000CF020000CF020000952B00001E
:10008000CF020000CF020000CF020000CF0200002C
:10009000CF020000CF0200000000000000000000BE
:1000A000CF020000CF0200000000000000000000AE
:1000B000CF02000000000000CF020000CF020000CD
:1000C00000F002F800F0D1F812A030C80838241867
:1000D0002D18AC4201D100F0C8F80FCCA246AB46B7
:1000E0000CA730CF2D1B083F3F197C427F1E544484
:1000F0002D090426F441641EAC4201D300F0B5F88A
:100100000126334200D0FB1A3343984754465D46DC
:10011000DFE700001C9400003C9400000000000099
:10012000103A02D378C878C1FAD8520701D330C840
:1001300030C101D504680C60704700000000000069
:100140007047000000000000002300240025002666
:10015000103A01D378C1FBD8520700D330C100D583
:100160000B60704710B56E2902D100F023FD10BD61
:10017000702902D101F081F810BD662902D107F083
:10018000BFFF10BD652902D107F0BAFF10BD672976
:1001900002D107F0B5FF10BD612902D107F0B8FF09
:1001A00010BD03681B0A01D380231943692902D1BA
:1001B00000F0CAFC10BD642902D100F0C5FC10BDDE
:1001C000752902D100F0C0FC10BD6F2902D100F0EA
:1001D000FFFF10BD782902D101F03CF810BDE929DC
:1001E00002D100F09BFF10BDE42902D100F096FF80
:1001F00010BDF52902D100F091FF10BDEF2902D109
:1002000000F0F2FF10BDF82902D101F031F810BD65
:100210000368DB0901D380231943632902D100F06D
:1002200012FF10BD732902D100F015FF10BDE329A4
:1002300002D101F0EAFA10BDF32902D101F0EDFA82
:1002400010BD002010BD1FB501F086F8040000208D
:10025000002107F02DFE401C60600020002107F007
:1002600011FEE0601FBD10B510BD01F041FE11464A
:10027000FFF7E9FF03F08CFA01F062FE03B4FFF729
:10028000F2FF03BC01F0BCFE70B505460C461646F5
:1002900002E00FCC0FC5103E102EFAD2082E02D36A
:1002A00003CC03C5083E042E07D301CC01C5361F7D
:1002B00003E021782970641C6D1C761EF9D270BD94
:1002C00006480047FEE7FEE7FEE7FEE7FEE7FEE73B
:1002D00003480449044A054B70470000C100000070
:1002E00048342020486420204854202048542020AE
:1002F0007CB51D4616460C00009007D04142A14235
:1003000002D30019401E01E00020C043064B7B448D
:100310002A4669460190304600F06FFE002C02D05C
:10032000009A002111707CBD0F0D00000FB41CB5A8
:100330000C0007AA009007D04142A14202D3001945
:10034000401E01E00020C043074B7B4469460190FA
:10035000069800F052FE0021002C01D0009A117086
:100360001CBC08BC04B01847D30C000070B50C4688
:100370000546012A05D02878800600D5EA690023C1
:1003800002E0012305E05B1C934202D2E05C0028FE
:10039000F9D1A869E618C01AA861286AC0182862AD
:1003A000284600F097FB04E06A682078A968641C7E
:1003B0009047B442F8D3284600F0A2FB70BD00007D
:1003C000F3B50446002081B020622046E1688847EA
:1003D000002872D0252802D06268A168ABE0594F8E
:1003E00000267F442046E16888472028054608DB30
:1003F000312D06D2781920380078002801D0064324
:10040000F0E7B00701D5042086430020E0610746ED
:10041000A0612A2D0AD0284607F06AFC002827D0C0
:10042000B8000019303D0090856119E00298BA00CB
:10043000121902C8916102902046E1688847012F95
:10044000054617D1E06900281FDA202086431CE00A
:1004500000980A2180694843009940193038886122
:100460002046E1688847054607F042FC0028EFD1A6
:10047000012F0AD02E2D08D12046E1688847054675
:10048000202006437F1C022FC3DBA069002803DA6B
:100490004042A06101200643F00701D010208643AE
:1004A0006C2D0BD0682D09D04C2D3CD06A2D38D046
:1004B000742D38D07A2D36D016E040E0E1682F4612
:1004C00020468847B842054609D16C2F29D0012023
:1004D0008002E168064320468847054604E06C2F09
:1004E0001DD0FF2001300643002D28D0284641387A
:1004F000192803D80120C002064320352046266073
:100500002946029A1646FFF72DFE002810D0012832
:100510000BD0F61DF008C0000830029055E74020CF
:10052000E1E78020D5E70020D3E7361D02964CE7AF
:1005300062682846A1689047206A401C44E7206A08
:10054000FEBD00003A7D000030B5441C03E0017898
:10055000401C00290DD08107F9D10B4BDD0104C8E7
:10056000D11A91432940FAD0001B0A0603D0C01EBD
:1005700030BD001B30BD0A0401D0801E30BD090211
:10058000FCD0401E30BD000001010101F8B5042A75
:100590002CD3830712D00B78491C0370401C521EC9
:1005A00083070BD00B78491C0370401C521E830735
:1005B00004D00B78491C0370401C521E8B079B0F04
:1005C00005D0C91ADF002023DE1B08C90AE0FFF7A7
:1005D0005BFEF8BD1D4608C9FD401C46B4402C43D7
:1005E00010C0121F042AF5D2F308C91A521EF0D403
:1005F0000B78491C0370401C521EEAD40B78491C2E
:100600000370401C012AE4D409780170F8BDD2B20D
:1006100010B513029A1813049A1800F001F810BDCF
:1006200001E004C0091F0429FBD28B0701D5028019
:10063000801CC90700D00270704700290BD0C30787
:1006400002D00270401C491E022904D3830702D540
:100650000280801C891EE3E70022EEE70022DFE72C
:10066000002203098B4273D3030A8B4258D3030B36
:100670008B423CD3030C8B4221D312E003460B4345
:100680007FD4002243088B4274D303098B425FD38B
:10069000030A8B4244D3030B8B4228D3030C8B42B7
:1006A0000DD30902FF2212BA030C8B4202D312129D
:1006B000090265D0030B8B4219D300E0090AC30B72
:1006C0008B4201D3CB03C01A5241830B8B4201D31F
:1006D0008B03C01A5241430B8B4201D34B03C01A08
:1006E0005241030B8B4201D30B03C01A5241C30A80
:1006F0008B4201D3CB02C01A5241830A8B4201D3F1
:100700008B02C01A5241430A8B4201D34B02C01ADA
:100710005241030A8B4201D30B02C01A5241CDD27F
:10072000C3098B4201D3CB01C01A524183098B42CA
:1007300001D38B01C01A524143098B4201D34B01B3
:10074000C01A524103098B4201D30B01C01A524116
:10075000C3088B4201D3CB00C01A524183088B429D
:1007600001D38B00C01A524143088B4201D34B0086
:10077000C01A5241411A00D20146524110467047F8
:100780005DE0CA0F00D04942031000D340425340FD
:100790009C46002203098B422DD3030A8B4212D3BD
:1007A0008901FC2212BA030A8B420CD389019211EF
:1007B0008B4208D3890192118B4204D389013AD02C
:1007C000921100E08909C3098B4201D3CB01C01A01
:1007D000524183098B4201D38B01C01A5241430914
:1007E0008B4201D34B01C01A524103098B4201D302
:1007F0000B01C01A5241C3088B4201D3CB00C01A6F
:10080000524183088B4201D38B00C01A5241D9D286
:1008100043088B4201D34B00C01A5241411A00D207
:1008200001465241104663465B1001D34042002B03
:1008300000D54942704763465B1000D3404201B582
:100840000449002802DC491C084000E00846C04674
:10085000C04602BDFFFFFF7F704770477047000032
:100860000121C9050123411842001B06D3185B0E64
:100870000AD0C1100722D206891840075242D1423D
:1008800001D5520089187047090208D50146002A8F
:1008900003D0C10FC90700207047104670474202BD
:1008A00002D0002002497047072109050143F4E7FF
:1008B0000000F87FF0B5FF252D04C609C209FF2707
:1008C00004462E400137CB093E4348402A402B4086
:1008D0000746002A6BD0002B69D0AA4267D0AB42F2
:1008E00065D0002800DA32460125ED0529432C4366
:1008F00009022002090AD21A4B0C7F24E31A434C46
:10090000000A7C44E35C7D242404121914145B0067
:10091000A218884201D3521C00E0400049420C4614
:100920005C4324115C43DB016415E318040A5C4357
:10093000C502200D0C4644436419250A5D43230378
:10094000EC0C0D46654300030019EB184C42A34222
:1009500001D35B18401CD4052018002B07D05B0086
:10096000C91804D3401C002901D1400840003F2190
:1009700089048A4209D3002A08DC1106090F04D031
:10098000032149074018C00FC007F0BD01224100F4
:10099000120689187F2252069142F6D20521490794
:1009A000C84201D59010F0BDFF20C005F0BD002F5A
:1009B00000DA32461648AA4207D2AB4205D21902E3
:1009C000090E17D0F80FC007F0BDFF2563002D06F4
:1009D000AB42F9D84900A942F6D8AB4201D1A942AD
:1009E000F2D0A94201D1002101E061004908D005FF
:1009F0000843F0BD1102090EFBD0FF200243D005D1
:100A0000F0BD0A460146104654E700002B7800006E
:100A10000000C07F10B501469E240002CA15A3073E
:100A2000002A02D01843002A04DBA21A002A0CDD97
:100A3000D04010BD1206120E01D140004008A21A8B
:100A400003D4D04040420028F3DDFF2248001206C4
:100A5000904201D9002010BDC817C043584010BDB6
:100A60001F22030C02D10F2200041CD0030E01D15F
:100A70000002083A030F01D10001121F830F01D1B8
:100A80008000921E002801DB4000521ED205511842
:100A9000021251181922904004D3491C002801D198
:100AA0004908490008467047C10FC90700D04042B5
:100AB000012292071143D3E701218907D0E710B53E
:100AC00000F04EFC006810BD10B5044600F048FC74
:100AD000046010BD70B5044685690068C10601D583
:100AE000302600E02026C00707D070BD626830467F
:100AF000A1689047206A401C20626D1EF6D570BD2B
:100B000070B5044685690078C00707D170BD62687A
:100B1000A16820209047206A401C20626D1EF6D5F7
:100B200070BD09684A0501D540B27047C905FCD5BA
:100B300000B2704709684A0501D5C0B27047C905BF
:100B4000FCD580B270470000F7B500257529106804
:100B5000009914A611D0FFF7E4FF002802DA404202
:100B600011A608E0009909688A0701D50FA602E0DE
:100B7000490704D50EA6012501E0FFF7DBFF009F22
:100B80000024243704E001F09AF930313955641C0F
:100B90000028F8D12B4632462146009800F021FC6F
:100BA000FEBD0000000000002D0000002B00000032
:100BB0002000000011680268006A530501D5087022
:100BC00009E0D30501D5088005E0130602D5C21758
:100BD00005C100E00860012070470000FFB50C4629
:100BE0001E468FB003CA089009914F007D0D00D1B9
:100BF0006D1E002108460020C0460321099A890580
:100C00000840002A03DA8200801840080840800D5E
:100C100001280A9002DD0020C0430A90089807438B
:100C20000DD0F048F04928184843071418980028B8
:100C30001DD07542291E1DDD0A9842421BE01898FE
:100C4000012802D00020302104E00020F24305E01A
:100C50002154401CB042FBDB30460022189B00218F
:100C600021540F998B600A60486013B0F0BDBD1B22
:100C70006D1CDFE70A9A002900DA69420BA800F030
:100C8000D1FD0BAB07CB03AB07C30899099800F064
:100C900035FE6B4607C30146D4480918002D009164
:100CA0000BDDD24903980A9A49424018002303A950
:100CB0000390684601F092F808E003990A9A00232D
:100CC000081803A90390684601F032F86B4607C381
:100CD0000004000C03D00020C043410800E010468F
:100CE000189A002A03D00022009215461EE0751EB5
:100CF00005D400F039FB303262556D1EF9D5012262
:100D00000843079602D000227F1C04E02078302898
:100D100001D100227F1E002A069787D01EE0112DE8
:100D200007DA00F021FB303262556D1C02460A439F
:100D3000F5D1084303D00098002819D00EE0002117
:100D4000681E05E0235C625C63542254401E491C0B
:100D50008142F7DBA81B401E07950690079A189959
:100D60000020A0540F98079B069A81600CC07CE776
:100D700011260020189059E7D21DF0B50D46044603
:100D8000D10893B0C90003C90C900D9106F0B6FECE
:100D900002460D98C00F01D02D2007E02068810782
:100DA00001D52B2002E04007C00F4001032A0F901D
:100DB00001D0072A05DB03462946204600F0D6FC71
:100DC0000EE12078800601D5E76900E00627284675
:100DD000652D04D0662814D0672D69D12DE0002040
:100DE000112F009001DB112300E07B1C0CAA03A94A
:100DF00010A8FFF7F3FE1199002610987D1C0E91A4
:100E000042E001203B460CAAC0070B900120009055
:100E100003A910A8FFF7E2FE119D12981099002671
:100E200000280E9501D1781C0D18781B02D446427B
:100E30007D1C761EE81B00903AE0012F00DA0127A6
:100E40000020112F009001DD112300E03B460CAA89
:100E500003A910A8FFF7C2FE11993D46109800267D
:100E60000E91217809070BD40E99A94200DA0D469C
:100E700003A9012D04DD4A19203AD27F302A06D079
:100E8000B84201DA011D04DA012100910FE06D1E64
:100E9000EFE7002802DC86192D1A03E0411CA94265
:100EA00000DD0D46801B401C00900120C0070B9008
:100EB0002078000705D40098A84202DB0020C04338
:100EC000009069460020C8720B98012102AF0337D9
:100ED000C907884225D0022010902B2011900B9832
:100EE00000280BDA40420B902D20119006E00B9861
:100EF00000F0E5FF30317F1E0B9039701099481ECD
:100F000000291090F3DC0B980028F0D111987F1E77
:100F100038702088000501D5452000E065207F1E3F
:100F2000387001A8C01BC01D0B900F98002800D07E
:100F3000012041190098C01709180B980818A169D9
:100F4000081A401EA0612078C00602D42046FFF790
:100F5000C1FD0F98002805D06268A1689047206AFB
:100F6000401C20622078C00625D52046FFF7B2FD40
:100F700021E0002E07DB0E98B04204DD03A8626872
:100F8000805DA16802E06268A16830209047206A15
:100F9000761C401C20620098401E002800900AD158
:100FA00000F0DAF9C06862680168405CA1689047A7
:100FB000206A401C206228466D1E0028D9DC07E00C
:100FC00062683878A1687F1C9047206A401C2062C4
:100FD0000B99481E00290B90F2DC2046FFF790FD8C
:100FE000032042E601FCFFFF104D0000E1DFFFFFA0
:100FF00001694A1C02610878704700B58FB0029100
:10100000002105910549019379440391114604900B
:101010006846FFF7D5F90FB000BD0000E5FFFFFF00
:101020000CC908399A4202D2531C0B6010707047E9
:1010300010B54369002B02D0C046C04601E0FFF75F
:1010400095F9012010BD1278014624310A70002262
:101050004A700122ECE711680022D243E8E7000061
:10106000F7B50446154686B02B487844002703C8D8
:101070003E460090019111E007986A467100415A7E
:1010800002A800F0FBFE411C07D02178890603D599
:10109000E269391891420ED83F18761C20788006F4
:1010A00002D5E069B84206DDAE42E5DB0798710083
:1010B000405A0028E0D1A069C01BA0612046FFF77C
:1010C00009FD154878445A3803C800900020019162
:1010D00016E041006A460798415A02A800F0CEFE89
:1010E0000590401C0AD0002505E0626802A8A168AE
:1010F000405D90476D1C05988542F6D30498401CCE
:10110000B0420490E5DB206AC01920622046FFF758
:10111000F7FC09B0F0BD000006710000F7B5D21D64
:101120000025D20815A6D200F52905CA11D0002A3B
:1011300005DA00214042914111A60A4608E00099D3
:1011400009688B0701D50FA602E0490701D50EA655
:1011500001251146009F0024243704E000F004F923
:1011600030323A55641C02460A43F7D12B463246C8
:101170002146009800F035F9FEBD00000000000097
:101180002D0000002B0000002000000070B5044678
:101190000021243408E05507D2086D0F303565541E
:1011A0005D072A43DB08491C15461D43F3D104683B
:1011B000002310A2250708D520252C400C4304D07D
:1011C000C46901230CA2641EC46100F00AF970BD59
:1011D00010B5044621461068FFF7ACFC0023024618
:1011E0002046FFF7D3FF10BDD21DD108C9000CC99E
:1011F000CCE700000000000030000000F8B50F460A
:101200000188090502D5224C7C4402E0204C7C4434
:101210000E3405460021243508E016071209360F62
:10122000A65D6E541E0732431B09491C16461E4319
:10123000F3D1224604780023240705D5702F06D069
:10124000002901D00223113200F0CBF8F8BD0123B0
:101250001032F9E770B504460D4621461068FFF7D5
:1012600069FC0023024629462046FFF7C7FF70BDF0
:10127000D21DD308DB000CCBC0E730B403682024B8
:101280001268234303600823C36130BC0023B5E721
:10129000706F0000C10D10B50906090E2ED0FF2990
:1012A00031D07E292DD319D0962916D20246753910
:1012B0008A4005D0002402468A4003D3012302E07D
:1012C0000124F8E700230222CA41511E8843002B63
:1012D00003D08018002C00D0904310BD01214202A1
:1012E00001D1012200E00022C00FC0070029F4D084
:1012F000002AF2D17F21C905084310BDC00FC007E5
:1013000010BD0021EFE74102FAD0014810BD0000F6
:101310000000C07F10B5FF22C30D134009D05A4012
:1013200007D0914205DA5C42A14202DDC9050818E6
:1013300010BDC40FE407002B06D0002A06D00029F8
:1013400002DBFF20C0050443204610BD4102FCD053
:10135000004810BD0000C07F00487047900020206A
:1013600000487047700020200B4670B50246890780
:101370008008084319469D08141AA9412509080741
:10138000054308092C194841250A01060D43010AA5
:101390002C194141200C0D0428430D0C00194D411E
:1013A000002140194D41C00869070843E908840F2E
:1013B0008D002543840024184D4124196D41121BD2
:1013C000AB4107E00925ED432C115219634100247C
:1013D000401C61411C460A250026551BB441F1D230
:1013E00070BDFFB504460D4681B0243000902168E1
:1013F000880604D51022E0699143216000E00120B5
:10140000A84201DD471B00E000270498A1697A1972
:101410001018081AA0612078C00602D42046FFF7F1
:1014200059FB002608E003986268A168805D904738
:10143000206A401C761C206204988642F3DB2078E8
:10144000C0060AD52046FFF745FB06E06268A168A2
:1014500030209047206A401C206238467F1E0028BA
:10146000F4DC07E000986268A168405D9047206A5C
:10147000401C206228466D1E0028F3DC2046FFF742
:101480003FFB2078000602D5022005B0F0BD012008
:10149000FBE70000D21DF0B504460D46D0088DB024
:1014A000C000466807683146384606F027FB02460A
:1014B000F00F01D02D2307E02068810701D52B23F1
:1014C00002E04007C00F43016846002B037001D0C3
:1014D000012000E00020032A0A9001D0072A04DB43
:1014E0002946204600F042F92DE12078800601D4FB
:1014F0000D2500E0E5697000400D0D2D01904BDADF
:10150000300D00210B9008460020C04603218905BC
:101510000840002E05DA82008018C20F1018401013
:1015200008408015012801DD0020C043A9000023E8
:10153000182906D39C460A460123183A1B07D340B4
:1015400003E001221205CA4094460C31202902D33F
:101550003A46203900E032468A40002802DD002A5F
:1015600006D119E0002817D10121C9078A4213D3F7
:10157000194663467F185E41002806D10120C00746
:10158000824202D1084687439E430B98310D814227
:1015900002D00198401C01902088000502D57149B5
:1015A000794402E06F49794419396B460A98302230
:1015B0001A540A980A7C401C1A54401C0A9001983C
:1015C000002801DC302000E031201872019A01204F
:1015D000002A02D0644BD21804E072003A4302D0D1
:1015E000614A521C0192002D02DC2278120703D5B9
:1015F0006A462E20507202200022864694460CE055
:1016000032033601120F6D1E8B5C02AA1354624620
:10161000521C401C9446052A01DA002DF0DC002201
:1016200002AE08E03B0F3F01CB5C521C6D1E3354F1
:10163000401C082A01DA002DF4DC23689A0601D543
:1016400011E0401E704504DD3218203AD27F302A66
:10165000F7D0002807DD3218203AD27F2E2A02D197
:101660001A0700D4401E002D03DD3E223254401CD8
:101670006D1E497C31540199401C002906DA2D2148
:10168000471C315401984042019003E02B21471C34
:10169000315401987D21C900884206DBFEF7EEFF38
:1016A0003030F0557F1C019101E0642808DB01987F
:1016B0006421FEF7E3FF3030F0557F1C019101E01B
:1016C0000A2806DB01980A21FEF7D8FF3030F055D2
:1016D0007F1C01980A21FEF7D1FF3031F1550A989D
:1016E000A1697F1C7A191018081AA0612078C00619
:1016F00002D42046FFF7EEF9216A6E460A980818D0
:10170000206204E062683078A168761C90470A98ED
:10171000401E0A90401CF5D12078C00602D5204614
:10172000FFF7D8F902AE09E03078761C3E280DD0DC
:101730006268A1689047206A401C20627F1EF3D235
:101740002046FFF7DDF90DB00320F0BD206A4019F7
:10175000206203E06268A168302090476D1EEDD3DF
:10176000F8E70000336C000001FCFFFFF8B51F46EE
:10177000044601230068DB02032601461840072ABD
:1017800005DB002801D017A506E017A504E0002816
:1017900001D016A500E016A5102081432160A069A4
:1017A000C01E002FA06101D0401EA0612046FFF79F
:1017B00091F9002F09D038466268A1689047206AE5
:1017C000401C2062C01C206206E0206AFAE76268C2
:1017D0002878A1686D1C9047761EF8D22046FFF746
:1017E0008FF9F8BD4E414E006E616E00494E4600C5
:1017F000696E660010B54369002B02D0C046C04632
:1018000001E0FFF72DFC012010BD128801462431B4
:1018100082840022C2840122ECE711680022D243B4
:10182000E8E70000F7B516468AB0334878446C46BE
:1018300003467C33C06F5A689B680DC42E487844B9
:10184000763003AC0DC80DC43720C001081837210D
:101850001B30FEF713FF05460C46803D1B3C02D5AE
:101860006442012000E000200027099010E0E0071A
:101870000CD00C2020497843794432464C39411829
:101880006846012300F054FA6B4607C364107F1CBE
:10189000002CECD1184F7F442E3F16E0E80712D001
:1018A0002001C0190EC80691089307920068F04203
:1018B00001D1981908903246012306A903A800F027
:1018C00037FA03AB07C36D10641C002DE6D10998ED
:1018D000002806D032466946012303A800F07EFAAC
:1018E00005E001233246694603A800F021FA0A9B6D
:1018F00007C30DB0F0BD0000BC6900000346400006
:101900000A4610B5400D0BD00121C9070F24A402CF
:1019100000191C0364082143540D2143D20207E03F
:1019200000210120F2E7D40F490021435200401E5C
:101930000029F8DADB0FDB07184310BDFFB50D46B1
:10194000144685B04868516806F0BFF800910190D0
:10195000A868A16806F0B9F802910390A8686168C8
:1019600006F0B3F8029A12188242029201D20120C4
:1019700000E00020019A0B18D2180028019202D032
:101980008A4202D903E08A4201D2012000E000200D
:101990000099081800906868A16806F096F8029A05
:1019A00012188242029201D2012000E00020019A26
:1019B0000B18D2180028019202D08A4202D903E003
:1019C0008A4201D2012000E000200099081800900E
:1019D0002868216840004900400849084018FA4931
:1019E000471814E001994000C90F0843009001987E
:1019F00002994000C90F08430190029803994000E2
:101A0000C90F08430290039840007F1E039000987E
:101A10000028E7DA0898002801D0EC4E00E0002604
:101A2000B74201DA012000E00020002804902AD00B
:101A3000F71BF806C00E15D0029B2021091A039A45
:101A40008B401A430392029A019BC2408B401A4377
:101A50000292019A009BC2408B4000991A43019266
:101A6000C14000917B110DD06F460320C11A03D5F0
:101A700000218200B95003E08A008100BA587A50F0
:101A8000401EF3D5374603980299002800D0012064
:101A9000014308980291002808460CD0002800D085
:101AA00001200199019A490508430121D20AC9027E
:101AB000D202019200E001210E9B0122D207012BEC
:101AC00002D0002B03D013E0002807D120E0904281
:101AD00004D890420CD1019B0B4209D0019B5918AC
:101AE000019105D10099491C009101D17F1C009200
:101AF00000280DD0102108460020C0460498002878
:101B000006D00F98002803D0082108460020C046C0
:101B100028682168019B009A4840C10F0598C907B1
:101B200039430EC009B0F0BDFFB587B0099A0898D7
:101B30000899536892684068896896460022039322
:101B400017469446089A12685300099A5B0812686F
:101B5000520052089A1A9E4BD4180A9A002A01D0B1
:101B6000352200E04022069200220123154604920D
:101B7000DB07059324E0002D05D175460346039E3F
:101B80004D1BB34109D375466646039B491B049D13
:101B90009841059B7519AC465F4163463B4308D0AD
:101BA000059B049EDD0776082E435B08049605938B
:101BB00001E0521E641EC50FED0749184041521C3A
:101BC000069B9A42D7DB002D04D17546039A6B1A07
:101BD000824101D203200CE0039A0B466B40424045
:101BE000134303D0014303D0012002E0022000E0B0
:101BF0000020614601910021009702910A99002975
:101C000005D0614640020143704B019102E080071C
:101C1000002302909C4201DA012000E0002007002E
:101C20003AD01A1BD006C00E15D0029D2021019C6F
:101C3000091AC5408C402543029C8C4000D00124E9
:101C40002543019C0295009DC4408D4000992C4382
:101C50000194C140009154111DD06D460221002213
:101C600002290CD10320001B07E0002804DB8600BA
:101C7000AE59002E00D00122401C0328F5DB081BC2
:101C800002D588002A5004E08000285810438A00BA
:101C9000A850491EE3D51C460A98002802980CD08B
:101CA000002800D001200199019A4905084301212B
:101CB000D20AC902D202019200E00121109B012246
:101CC000D207012B02D0002B03D013E0002807D14C
:101CD0001FE0904204D890420CD1019B0B4209D0E6
:101CE000019B5918019105D10099491C009101D11E
:101CF000641C009200280CD0102108460020C04629
:101D0000002F06D01198002803D008210846002093
:101D1000C04608980999019A009B006809684840E4
:101D2000C10F0798C907214382600AC00BB0F0BDFC
:101D300000B585B0019300920A460146002302A82F
:101D4000FFF7FCFD02A807C805B000BDFFB50A46B5
:101D50001F4685B00799019301230091014602A80F
:101D6000FFF7ECFD02990398049ECA0F4900D207C1
:101D700000920F22490892028C1A0021002800DBF1
:101D80000C46450013486D08844214D3079A002A74
:101D900004DA441E0026104DF64302E004460D46C8
:101DA0000E46102108460020C046002F03D0042113
:101DB00008460020C0462005E90A08430099084368
:101DC0006905F20A1143ADE602C0FFFF013C0000C5
:101DD000FF3F0000FF070000FFFFFF7F00B585B059
:101DE000019300920A460146002302A8FFF79CFED9
:101DF00002A807C8A8E7FFB50A461F4685B007999D
:101E0000019301230091014602A8FFF78DFE02997C
:101E10000398049ECA0F4900D20700920F22490876
:101E200092028C1A0021002800DB0C464500114864
:101E30006D08844214D3079A002A04DA441E00264F
:101E40000D4DF64302E004460D460E4610210846AD
:101E50000020C046002F03D0042108460020C046C1
:101E60002005E90A0843009908436905F20A11436D
:101E700058E60000FF070000FFFFFF7FF8B5164699
:101E80000C46054600F054F80368FF200230C05CA1
:101E9000012807D0FF2C0FD8185D00280CD0012096
:101EA0002C70F8BDFF333246214608331868C71836
:101EB00028460023B847F8BD0020C043F8BD0146BE
:101EC0008008081A02091018020A1018020C1018CB
:101ED000C008820012185200891A01E0401C0A3919
:101EE0000A29FBD27047000000487047700020208C
:101EF0007546FFF7F9FFAE46050069465346C00830
:101F0000C000854618B020B5FEF7E2F960BCB646C1
:101F100000260027C0C5C0C5C0C5C0C5C0C5C0C556
:101F2000C0C5C0C5403D490849008D467047000006
:101F300010B5FFF711FA001D10BD00BF755F00005E
:101F400010B50446C046C0462046FEF797F910BDBE
:101F500082078B079A423FD170B5920F0AD00324B3
:101F600002780B78401C491C002A33D09A4231D1A8
:101F70002042F5D1214EF40104C808C9951B9543B0
:101F8000254018D19A420FD104C808C9951B954322
:101F9000254010D19A4207D104C808C9951B954322
:101FA000254008D19A42E7D012BA1BBA01209A42C2
:101FB00000D2404270BD12BA1BBA2DBA18241000CC
:101FC000E0401900E140401A05D12E00E64002D160
:101FD000083CF4D1D01A70BD02780B78401C491C23
:101FE000002A09D09A4207D102780B78401C491C7C
:101FF000002A01D09A42EFD0D01A704701010101A6
:1020000001491820ABBEFEE7260002007047811E82
:10201000091F00BFFCD2704770B50A780C231A4024
:102020000124240305196E689E43B2186A6049783A
:1020300007221140035993435918015170BD000004
:10204000B0B51122120283580C4C1C400B894D88EC
:102050001D438B792B430A4D1D402B1983508B88D0
:10206000CC791C43097821435D239B0019408018DB
:1020700042689A4389184160B0BDC04680CCFFFFDA
:102080007F33000010B50122120383180C785C60C6
:102090004978815010BD0000F0B57A4A82183B4B58
:1020A000C31808794E793A4D784C002E23D0202859
:1020B00004D00526F601002803D003E0354E0028A1
:1020C00000D18826576F2F4037435767976F2F40AF
:1020D00037439767566B26405663966B2640966348
:1020E0000026566596658F26F6435F6837405F6029
:1020F0009F6837409F608E79096820280BD00028A0
:1021000019D1491E5160D76E2F4088210F43D766E1
:102110001746703719E0491E5160D16E29401D4F96
:102120003943D166116F29403943116701214907AD
:10213000194D174609E049085160D76E2F40052117
:10214000C9010F43D766174670373C682C400C43D3
:102150003C60D16A4D4C2140D162116B214011632A
:102160000021D16411658F21C943D46F0C40D4671D
:102170001C680C401C600643BD2030401168074BB2
:102180000B40C018801C1060F0BDC04684180000D1
:1021900024493E0001040000FFFFFFCF4000FFCFB5
:1021A000B0B54A68364BC250364A80180A78222A9F
:1021B00058D8930001A4E3589F46C0465B22000014
:1021C000652200005B2200006522000065220000FD
:1021D00065220000652200006522000065220000E3
:1021E00065220000652200006522000065220000D3
:1021F00065220000652200006522000049220000DF
:1022000065220000492200006522000065220000CE
:1022100065220000652200006522000065220000A2
:102220006522000065220000652200006522000092
:10223000652200006522000065220000492200009E
:10224000652200004922000003231B0704689C4309
:1022500001235B07E318036004E003231B07046802
:102260009C4304600B69C360CB68074C1C40C36A85
:10227000064D1D402B19C362097A11430160B0BDA0
:102280000818000004180000777702008888FDFF16
:1022900010B507239B04194092008018024A845805
:1022A0009C436118815010BD3018000010B5029C8D
:1022B000A400001911431943014A815010BDC046C2
:1022C0005018000092008018014A81507047C046A3
:1022D0001018000010B50122120383180C789C60BE
:1022E0004B7883508978014A815010BD0C11000051
:1022F000B0B51122120283580124A34383500B88E6
:102300008C781C438B882343094C1C408358094D0F
:102310001D40631983508B79CC791C43097A214382
:102320007E231940801842689A4351184160B0BD1D
:1023300018670000E798FDFF10B50122120383180B
:102340000C789C604978815010BD0000034A8018C9
:1023500002681206FCD481617047C0460811000073
:10236000B0B51E480068800736D51D4C2546103D87
:102370002868C00609D5206810210143216019484A
:102380004069002801D001F085F82868800609D549
:10239000206820210143216012488069002801D073
:1023A00001F078F82868400609D5206840210143EB
:1023B00021600C48C069002801D001F06BF8286842
:1023C000000609D520688021014321600548006A84
:1023D000002801D001F05EF8B0BDC0464011404079
:1023E00048300A408403202004A000F017F803209E
:1023F000012101F0ADFB72B6FEE7C046212121208C
:10240000556E68616E646C656420496E74657272A5
:10241000757074202121210A0000000083B0B0B53E
:10242000C1B0044645914692479345AB00930120C5
:10243000010201AD28462246FDF75AFF054806492C
:1024400006A22B4604F00EF841B0B0BC01BC03B0AC
:102450000047C04600801040358300005B45525263
:102460004F525D0083B0B0B5C1B00446459146926D
:10247000479345AB00930120010201AD2846224657
:10248000FDF736FF05480649064A2B4603F0EAFFEA
:1024900041B0B0BC01BC03B00047C0460080104052
:1024A000358300003D83000080B582B0002101919A
:1024B0000648006801AA04F0DDFA0198002803D05C
:1024C000012000070249086002B080BDE0332020EF
:1024D00004ED00E00000000000000000000000002B
:1024E000EFF309800E4B1A6820381060F0C04446A4
:1024F0004D4656465F46F0C008B572B604F0F6FB8E
:1025000062B60CBC116808681030F0C8A046A94635
:10251000B246BB4680F309882038F0C81847C04649
:102520000C07202004F0C0FF7F4D2A890121002ADA
:102530000C4602D07D4B53439C0C531F9BB27C4EE8
:10254000B34200D30C46921F96B27A4B00229E42B1
:1025500000D31446041B784B1C60AE8A002E0C4638
:1025600002D0724C7443A40C771FBFB2704B9F42D1
:1025700000D30C46B61FB6B26E4B9E4200D3144633
:10258000041B6E4B1C602E8C002E0C4602D0674C38
:102590007443A40C771FBFB2654B9F4200D30C4617
:1025A000B61FB6B2634B9E4200D31446041B644B65
:1025B0001C60AE8D002E0C4602D05C4C7443A40C03
:1025C000771FBFB25A4B9F421F4600D30C46B11F24
:1025D00089B2584B994200D31446001B59490860F0
:1025E00005E0584A1268821AB24200DB90E00020EF
:1025F000C2430124214603F0D5FE04F055FF69785B
:10260000002919D0697B00293AD0697E00295BD066
:102610002521695C0029EAD1A96A0029E7D0AA8DA1
:10262000002A264602D0414B53439E0C521F92B2C1
:10263000BA42D6D32646D4E769680029E2D02B896E
:102640000122002B164602D0384E5E43B60C5B1FAB
:102650009BB2BB4200D31646374A1268821AB24276
:10266000D0DB0746884738463349096889197A1A02
:10267000002A3A4600DC0A462F490A602C4FC1E77F
:1026800029690029C1D0AB8A0122002B164602D04D
:10269000264E5E43B60C5B1F9BB2BB4200D3164670
:1026A000264A1268821AB242AFDB0746884738468C
:1026B0002249096889197A1A002A3A4600DC0A4632
:1026C0001E490A601A4FA0E7E9690029A0D02B8CA7
:1026D0000122002B164602D0144E5E43B60C5B1F3F
:1026E0009BB2BB4200D31646154A1268821AB24208
:1026F0008EDB0746884738461149096889197A1AD6
:10270000002A3A4600DC0A460D490A60084F7FE776
:102710000446884720460B4909688919621A002A2D
:1027200000DD5BE7084659E708002020CDCC00001B
:10273000FCFF0000FBFF0000D0002020D400202080
:10274000D8002020DC0020207047000070B52C4904
:102750008720C8660124A2032A48026088220A61F1
:10276000294A0823136084238B6280231360822507
:102770004D6110231360254B5E1C4E600E60640695
:102780004E6826434E600E6826430E604D64204D11
:102790008D64204C832666600E676D1C2560812544
:1027A0000D62CD630D644D676561A5624B638B63FC
:1027B000CB640B65184B4B664B658B65CB650B6625
:1027C0000B1F1D608D60E56425652563A5651146B9
:1027D0003039124B0B60136001463039104A0A60E1
:1027E0000260FF2000020F490A6802430A600E4897
:1027F000016AF0221143016201681143016070BD5A
:1028000010804240D0320A40D0120A4081000C00B1
:10281000820004009880424081000E00000300986E
:102820000100530C90330A4028300A4010B511487B
:102830001149FFF7F1FB03225102104803680B43D3
:10284000036001210B0204681C4304600023436100
:102850004262826B07239A4382631A02836B93431B
:102860008363826A042313438362826A0A43826217
:1028700010BDC04600200F40B882000000320F405B
:1028800070B582B01B4C1C492046FFF723FD1B4945
:102890002046FFF701FC1A4801683C4A0A400260E2
:1028A00000250095204629462A462B46FFF7FEFCC8
:1028B000204629462A46FFF7EBFC204629462A46B1
:1028C000FFF700FD01260096204629462A462B46A2
:1028D000FFF7ECFC204629463246FFF7D9FC20469C
:1028E00029463246FFF7EEFC064886600321016068
:1028F00002B070BD00008640BA820000C0820000B5
:10290000041886400011864070B582B01B4C1C49EB
:102910002046FFF7DFFC1B492046FFF7BDFB1A48A6
:1029200001681A4A0A40026000250095204629469F
:102930002A462B46FFF7BAFC204629462A46FFF7CF
:10294000A7FC204629462A46FFF7BCFC0126009634
:10295000204629462A462B46FFF7A8FC2046294652
:102960003246FFF795FC204629463246FFF7AAFC7F
:10297000074886600321016002B070BD0000094075
:10298000C8820000CC820000041809407F00FFFFCD
:102990000011094010B50D4C0D492046FFF772FBA0
:1029A0000C492046FFF74CFB0B4841680B4A0A4094
:1029B0000F324260816812220A432D218A438260CD
:1029C000016801220A43026010BDC04600A04640D3
:1029D000D4820000D682000004B1464000FCFFFF14
:1029E000044800210160044801680322914301600A
:1029F0007047C04608030B4000010B4010B5084C5F
:102A000008492046FFF766FC07492046FFF7C8FB48
:102A1000064801680122114301600548026010BDAB
:102A200000208640E0820000E482000028308640DA
:102A30000831864010B5194C19492046FFF77CFC37
:102A400018492046FFF754FC0320C10316480268CA
:102A50008A4302600169154A0A40113202614169E4
:102A600017220A4328218A434261426801210A4011
:102A700043688B439A1842608A020D4B1C681443CA
:102A80001C60FF2212060B4B1C6894438A07A21895
:102A90001A6002680A43026010BDC0460080104000
:102AA000F8820000FA820000009110400000FFFF51
:102AB000289010400CE400E080B500F021F8FFF70A
:102AC00045FEFFF78DFFFFF7DBFEFFF71DFFFFF76A
:102AD00095FFFFF7ABFEFFF7ADFFFFF75BFFB820F9
:102AE000044900220A5404490A54242003490A5480
:102AF00080BDC046C4022020E00120209C0220208E
:102B0000F0B581B010481149416011484160114B46
:102B10005960114C6160114D6960114E7160114F27
:102B20007960114841601149074A1160084A1160F3
:102B30001960216029603160396001601020FFF761
:102B400066FA01B0F0BDC04600080A40030000B1BB
:102B500000280A40000886400008094000288640F6
:102B600000280F400088104000A8464001000026C1
:102B700010B503F012FC044604F09AFC002803D0C0
:102B80000120000702490860204603F069FD10BDDE
:102B900004ED00E080B505480068C0B20B2804D100
:102BA00003480068C0B201F087F880BD2090104053
:102BB00024911040B0B5064A1378032B06D8DC00E8
:102BC000044D2851581C107028194160B0BDC046F2
:102BD000E8002020280420200120C00601490860C8
:102BE0007047C046A0120A400120C0060149086093
:102BF0007047C04690120A4070B5054604F054FC78
:102C000004460A4E3068201A64280DD31B488542BA
:102C100005D02C30854204D101F090FD01E001F097
:102C20009FFDFFF741FC346070BDC046F0002020DE
:102C300080B5124988420DD00A462C3290420ED0FF
:102C40000A46583290420FD08431884211D0FFF7A3
:102C50002BFC80BD01F084FDFFF726FC80BD01F058
:102C60006DFDFFF721FC80BD00F03EFCFFF71CFC72
:102C700080BD01F0FBFCFFF717FC80BDF4002020B5
:102C800089004018C2607047F0B581B01E461546F5
:102C90000F4604462C21FDF7E1FCA7608020A070C0
:102CA000267168426841C001E907490E0818E070C2
:102CB00001B0F0BD10B59A4B1A68002A16D0144620
:102CC0000021C943844214D0A46A002C0ED084424F
:102CD0000FD0A46A002C09D084420AD0A46A002C28
:102CE00004D0844205D0A46A002CE9D11860826225
:102CF0000021084610BDC046B0B58948046802E00E
:102D00000140E170A46A002C00D108E12079A1689B
:102D10008847E278510702D02188491C2180D109D7
:102D2000884203D1C720024011460EE0C72111405E
:102D3000D3085B1C07251D40EB005918E170002DDE
:102D400004D047210A40C0011118E1700720084053
:102D5000052806D8784400794000874404441C5F65
:102D6000026FF820CCE7A2780F2010404A06D20F5D
:102D7000CBB2DB09934200D084E0A070E268002A65
:102D800000D1BCE020469047A178012008430E21E5
:102D90008843E178B4E04806C00FCAB2D209824243
:102DA0005FD1A0780F252840A070E168002902D0EB
:102DB00020468847A078014629400F2905D0F021F8
:102DC0000140401C28404018A0706169002901D0D2
:102DD0002046884700202080E078F8210140C81C68
:102DE000E070A46A8FE74806C00FCAB2D2098242D7
:102DF0004CD12088332800D284E7A0780F220240EB
:102E00005032A270226A002A02D020469047E17810
:102E1000F8200840401DE070A46A74E74806C00F1F
:102E2000CAB2D209824244D120881A2800D269E766
:102E3000F8200140481CE070A46A64E7A2780F20E3
:102E400010404A06D20FCBB2DB09934247D1603023
:102E5000A070616A002900D154E720468847A46A1F
:102E600051E720881A2800D24CE7A2780F201040A2
:102E700002284ED001283AD13120A070A269002A40
:102E800032D134E08030A070A46A3CE7A0780F22F1
:102E900002401032A2702269002A02D020469047D8
:102EA000E17800202080F8200840801CE070A46AAF
:102EB00029E7A0780F2101401031A1702169002974
:102EC00001D0204688472088182815D80020208067
:102ED000E078F8210140881CE070A46A13E7103004
:102EE000A0702269002A02D020469047E178F8209D
:102EF0000840E070A46A06E7E078F82100E70120C6
:102F0000A07000202080F8200840401CE070A46AD7
:102F1000F9E64220A070E269002AE5D1E7E7B0BDFA
:102F200080032020B0B582B00C4800900CA0052191
:102F300001220024234604F02DFC05460B480560C1
:102F4000002D08D004F0B0FA024600940121284672
:102F5000234604F091FC02B0B0BDC046D16D000024
:102F6000356D732054696D65720000003434202083
:102F700080B582B0064908600648012100910190A1
:102F80000A02054805A1002304F02CFA02B080BD16
:102F9000D4012020E0332020D56600004F4C45446A
:102FA0005F4D454E5500000080B582B00B480121B1
:102FB000009101900A020A480AA1002304F012FAC3
:102FC000012804D119A0FFF74DFA02B080BD0146D7
:102FD00009A0FFF723FA02B080BDC046E000202020
:102FE00025250000506572696F6469634576656EDA
:102FF000745461736B0000004661696C65642074F1
:103000006F2063726561746520506572696F6469D1
:10301000634576656E745461736B21204572726FDF
:103020007220636F64653A2025640A0050657269F6
:103030006F6469634576656E745461736B20637267
:103040006561746564207375636365737366756C1D
:103050006C79210A00000000B0B5002820D0044699
:10306000EFF30580002807D07D2005022846FEF7F3
:10307000CEFF641EFAD113E004F008FA022808D14A
:103080007D20C1004C43204604F024FC03F0BEFC2C
:10309000B0BD7D2005022846FEF7B9FF641EFAD1B7
:1030A000B0BD0000FA490A7882420ED00A7B824203
:1030B00001D10C3109E00A7E824201D1183104E0CD
:1030C00024228A5C824202D1243101204870704758
:1030D000F0B583B002910646CC4C2046314601F053
:1030E000E5FF4421615A2246C4B2081BC10F4018B3
:1030F0004008C7B24620105A4008C5B210463946AB
:103100002A46334601F02EFF029800280AD01420E8
:10311000009014340A3FB9B20C3DAAB2BB48234612
:1031200001F049FD03B0F0BDF0B583B00446B74DE2
:10313000284601F014FDB649284602F01AF8E06866
:10314000002801D003B0F0BD3C20205C002800D155
:10315000B8E026463C36A168284601F0A7FF442186
:10316000695AC0B2081AC10F40184008C1B2A3681A
:103170000822284601F0F6FE3078002800D1C2E08F
:103180006068317888427FDA2746143721688842A0
:103190000ED10B2200929D4D00218023284601F084
:1031A0000AFD022114225A4B284601F0DBFE60681A
:1031B00080003858836895480A21142201F0D2FE15
:1031C0006068411C327891425EDA2068814210D1F9
:1031D0000B2000908D4D002118228023284601F0FD
:1031E000EAFC022121224A4B284601F0BBFE60681E
:1031F000411C88003858836884480A21212201F044
:10320000B1FE6068811C327891423DDA20688142CB
:1032100010D10B2000907D4D0021252280232846CF
:1032200001F0C9FC02212E22394B284601F09AFEFA
:103230006068811C88003858836874480A212E22EF
:1032400001F090FE6068C11C327891421CDA20685F
:10325000814210D10B2000906C4D0021322280233E
:10326000284601F0A8FC02213B22294B284601F008
:1032700079FE6068C11C88003858836863480A2159
:103280003B2201F06FFE606800280BDD14208021D6
:103290000090019102905D487C210E22782301F07C
:1032A00067FE60683178001D88422CDA3620802164
:1032B00000900191029055487C213C22782301F036
:1032C00057FE20E01349284601F0F0FE4421695AD8
:1032D000C4B2081BC10F40184008C6B24620285A85
:1032E0004008C7B2284631463A460A4B01F03AFE3A
:1032F000142000900A3EB1B214340C3FBAB22846F2
:10330000234601F058FC414801F025FF03B0F0BD11
:10331000188300000483000070B58AB004463B4D5A
:10332000284601F01CFC3A49284601F022FF394E9C
:103330002846314601F0BAFE4421695AC0B2081A43
:10334000C10F40184008C1B208222846334601F098
:1033500009FE2568002D12D060680068FDF780FA2C
:103360000090019102AE20212B4A30462B46FCF7FB
:10337000DDFF26480A211422334601F0F3FDA5683B
:10338000002D12D0E0680068FDF76AFA0090019104
:1033900002AE2021204A30462B46FCF7C7FF1B48CF
:1033A0000A212122334601F0DDFD2569002D12D0CE
:1033B00060690068FDF754FA0090019102AE202187
:1033C000154A30462B46FCF7B1FF10480A212E2241
:1033D000334601F0C7FDA569002D12D0E0690068F1
:1033E000FDF73EFA0090019102AC20210A4A2046E6
:1033F0002B46FCF79BFF05480A213B22234601F0A0
:10340000B1FD024801F0A7FE0AB070BDA40920205A
:10341000508300002B830000228300000C480168C9
:103420000020002900D070470A4909680029FAD114
:10343000094909680029F6D108480068084909685F
:10344000491E884201D00120704702207047C046C3
:10345000E833202040342020E4332020083420208A
:10346000902E20200A490A7882420ED00A7B82429E
:1034700001D10C3109E00A7E824201D1183104E009
:1034800024228A5C824202D1243100204870704795
:103490000800202070B50446C16806684068B2681C
:1034A00090470546B268A06821699047227D0321B4
:1034B0001140002D00D0091D002800D008318808D7
:1034C0002075481E0D2809D80549C140C90705D0F7
:1034D000800004490858A1690818A06170BDC04661
:1034E000EF3D000080820000054801683C228A5CB4
:1034F000002A04D00A68920089184969016070475F
:10350000D401202080B501684A7B2D2102F026FFDE
:1035100080BDF0B585B00446CA090D4602914D2123
:10352000039102F01BFF2046FFF7ECFF4C2601271A
:10353000204631463A46019702F010FF2046FFF739
:10354000E1FF002204922046314602F007FF6806A0
:10355000C20F2046039D294602F000FF2046FFF7D8
:10356000D1FF204631463A4602F0F8FE2046FFF7EA
:10357000C9FF20463146049A02F0F0FE029FB806C9
:10358000C20F2046294602F0E9FE2046FFF7BAFFA7
:1035900020463146019A02F0E1FE2046FFF7B2FFD5
:1035A00020463146049D2A4602F0D8FEF806C20F96
:1035B0002046039902F0D2FE2046FFF7A3FF2046E3
:1035C0003146019F3A4602F0C9FE2046FFF79AFFB6
:1035D000204631462A4602F0C1FE02980007C20F7B
:1035E0002046039D294602F0B9FE2046FFF78AFFD8
:1035F000204631463A4602F0B1FE2046FFF782FFF0
:1036000020463146049A02F0A9FE029F7807C20FB5
:103610002046294602F0A2FE2046FFF773FF20460F
:103620003146019A02F09AFE2046FFF76BFF2046D2
:103630003146049D2A4602F091FEB807C20F20468B
:10364000039902F08BFE2046FFF75CFF20463146CF
:10365000019F3A4602F082FE2046FFF753FF2046C4
:1036600031462A4602F07AFE029A3A403D4620460A
:10367000039F394602F072FE2046FFF743FF2046C3
:1036800031462A4602F06AFE2046FFF73BFF2046FD
:103690003146049A02F062FE204639462A4602F07C
:1036A0005DFE2046FFF72EFF204631462A4602F0F7
:1036B00055FE2046FFF726FF204639462A4602F0EF
:1036C0004DFE2046FFF71EFF20463146049A02F0C9
:1036D00045FE05B0F0BD70B504463C20059E26545D
:1036E000E260A160002060602060049820612046B4
:1036F0003C3043702546143528212846FCF7AEFFA0
:10370000002E28D00698002825D001682960012EB7
:1037100021D04168A161022E1DD08168E161032E94
:1037200019D0C1682162042E15D001696162052E8D
:1037300011D04169A162062E0DD08169E162072E88
:1037400009D0C1692163082E05D0016A6163092E81
:1037500001D0406AA06370BDB0B503060B4A1146A4
:103760001031002B0C4600D0144601239D06256025
:103770000404240E0C4600D01446DD062560000229
:10378000000E00D0114698050860B0BD90320A4086
:1037900080B5FFF791F900F01DF8FFF7C3FBFFF7C5
:1037A00003FC03F033FA05A0FEF738FEFF210231D7
:1037B000032000F0CDF9002080BDC046536368654A
:1037C00064756C6572205374617274204661696C13
:1037D0006400000070B584B04EA04F49FFF7EAF9CD
:1037E0004EA04F49FFF7E6F94EA04F49FFF7E2F927
:1037F0004EA04F49FFF7DEF94E48092100250095FC
:10380000019102904C4C4DA120462A462B46FFF7D1
:1038100062FF4D4804210094019102904B4E4CA14F
:1038200030462A462B46FFF756FF00940195029535
:103830004A484BA14E4A0123FFF74DFF00940195E2
:1038400002954C484CA12A462B46FFF744FF0094B2
:10385000019502954C484DA12A462B46FFF73BFFA8
:103860000094019502954D484DA12A462B46FFF73D
:1038700032FF0094019502954C484DA12A462B46F3
:10388000FFF729FF0094019502954C484CA12A4668
:103890002B46FFF720FF0094019502954B484CA161
:1038A0002A462B46FFF717FF0094019502954B48D7
:1038B0004BA12A462B46FFF70EFF00960195029575
:1038C0004A484BA14D4A2B46FFF705FF009601954C
:1038D00002954B484BA14E4A2B46FFF7FCFE009643
:1038E000019502954B484CA14E4A2B46FFF7F3FE3B
:1038F0000096019502954C484CA14F4A2B46FFF784
:10390000EAFE4E484E4902F0D1FD2046FFF730FB5B
:1039100004B070BD56413100E40020205641320011
:10392000EC00202056413300D001202056413400C5
:10393000D801202038002020A80320204D61696E86
:10394000204D656E750000005C002020E8032020FB
:1039500052756E205461736B730000004804202080
:1039600056696577205661726961626C6573000003
:10397000F16D0000640820205365742050696420B4
:10398000537065656400000024082020536574208E
:10399000506964204D696C6561676500880420206A
:1039A000506C61792047616D65000000C8042020DB
:1039B000506C61792047616D653100000805202059
:1039C000506C61792047616D653200004805202008
:1039D000506C61792047616D6533000088052020B7
:1039E000506C61792047616D65340000A408202087
:1039F00072756E205461736B303100007D4600009B
:103A0000E408202072756E205461736B3032000020
:103A1000AD4600002409202072756E205461736B3E
:103A200030330000DD4600006409202072756E20EE
:103A30005461736B303400000D470000312C0000DE
:103A4000F92B0000491ECAB2007E824200D3411EFB
:103A5000C8B2704770B50546182048432C4C26184C
:103A6000F26A1C36317D20469047810061184988F2
:103A7000ADB2A94209D130753269C1B22046904732
:103A8000810061184988A942F5D070BD027E481CAA
:103A9000C1B2914200D30020C0B27047F0B581B0EE
:103AA000182141431A4C661837461C37397D880067
:103AB00022185588205A0090F26A2046904738759F
:103AC000009A3285B584810060184088F084401BDC
:103AD000F083615A8F1A3CB200210122002C134658
:103AE00000DACB43B383002C00DA111A718505B2DA
:103AF0002046294603F010FF3084E0134740381A6F
:103B000000B22946FCF7BAFD718401B0F0BDC04691
:103B1000380E202010B50821415E0A22825E9142B3
:103B200014DA828883899A188281C388C489E31849
:103B3000C3811BB2012B05DB0488A2188281428855
:103B40009A1AC281491C0181012010BD002010BDBC
:103B500070B5002817D00C460546FF2000068443A8
:103B60002046FFF7F9FDFFF73FF8C8263046FFF77C
:103B700073FAFFF731F80020FFF7EEFD3046FFF74C
:103B80006BFA6D1EECD170BD70B503460079821FD3
:103B9000D2B2FB2A00D270BD5A7A103A052AFAD85E
:103BA0000A33C0467A4412795200974402403038B2
:103BB00028451729EFD129490C68002CEBD019783A
:103BC0005A78120251189A781204DD782D06AA1834
:103BD00051181A795D792D02AA189D792D04DE7984
:103BE00036067519AA181D7A5E7A360275199E7AFC
:103BF0003604DB7A1B069B195B19A04770BD0B29A5
:103C0000C9D1164909690029C5D0884770BD0B295B
:103C1000C1D1124989680029BDD0884770BD0B29E0
:103C2000B9D10E49C9680029B5D0884770BD0F29A0
:103C3000B1D10A494A6803E00F29ACD107494A6962
:103C4000002AA8D019785C78240261189C78240492
:103C5000DB781B061B195918904770BD08082020F7
:103C600070B5002907D003230A461A40042905D25B
:103C70000024234611E00023D8B270BD99430024EC
:103C80002346055DEB1805196E78F318AE78F31826
:103C9000ED78EB18241DA142F3D1002A0AD0015D72
:103CA000CB18012A06D000194178CB18022A01D07E
:103CB0008078C318D8B270BDF0B581B0404C21787F
:103CC0007944097949008F44023C2A330B4F532829
:103CD00067D13C4801683D4A53235354012238E0E0
:103CE00038490B68394AD054581C08600A2860D3F8
:103CF000507993791B021818D3791B04127A120693
:103D0000D218121830480260183A0D23DB439A4249
:103D100051D800220A602270026001B0F0BD48282C
:103D20001CD128480168294A48235354032210E033
:103D3000592813D123480168244A59235354042293
:103D400007E05A280AD11F480168204A5A235354D1
:103D500002222270491C016001B0F0BD1948002107
:103D60000160217001B0F0BD164D296816291BD8DD
:103D7000164A50544A1C2A60134E33689A4218D18E
:103D8000124A07461046FFF76BFF874203D12968A6
:103D90000E48FFF7F9FE002028602070306001B067
:103DA000F0BD08480021D6E70020286020700649B1
:103DB000086001B0F0BD0520207001B0F0BDC04624
:103DC0002008202004082020DC012020EC072020EF
:103DD000F0B581B0044602F0A5FC7A480168491CA0
:103DE00001607A4F396800290AD0364800680028F7
:103DF00047D1E06A3968C96A814242D83C6040E0F4
:103E00003C60006801283CD1714D284602F02BFC33
:103E10002846143002F027FC2846283002F023FC04
:103E200028463C3002F01FFC2846503002F01BFCB4
:103E30002846643002F017FC2846783002F013FC64
:103E400028468C3002F00FFC2846A03002F00BFC14
:103E5000B435284602F007FC1B4D284602F003FC4F
:103E60001A4E304602F0FFFB194802F0FCFB5448A2
:103E700002F0F9FB174802F0F6FB174805601748F7
:103E8000066017480168491C21640160E06A4E49D8
:103E90000A68904200D90860142141434C484018F8
:103EA000211D02F00BFC02F047FC064800680028C8
:103EB00006D0E06A3968C96A814201D202F078FD11
:103EC00001B0F0BDFC33202098332020AC332020FB
:103ED000E833202008342020140720201C0720204D
:103EE0009C2E202082B001200190344E344F354D5D
:103EF00005E0206B02F02EFC204602F02BFC30681F
:103F0000002817D002F00EFCF868C468201D02F0EB
:103F10003FFB2868401E28603068401E306002F079
:103F20000BFC6120205C0228E9D00128E4D00028A5
:103F3000DFD03EE02448006824490968C96A0029A6
:103F4000DDD1411E8841224909680129019900D823
:103F500001460029D3D11F4800681F490968401A4B
:103F60000228CCD31D490868401C08601948006825
:103F70001949096888421ED3134800681349096823
:103F8000C96A002912D1411E8841114909680129D5
:103F9000019900D80146002908D10E4800680E4951
:103FA0000968401A022801D302F054FC03F072FBA6
:103FB000A5E772B6FEE772B6FEE7C046942E202053
:103FC0001C342020902E2020A02E20200C07202002
:103FD00024072020D033202030342020982E202089
:103FE000F0B583B002930F4601900A9C206B9600B7
:103FF000A5223146FCF70BFB206B8019031F07201D
:1040000021463431089D002F30D03A780A70002ABA
:1040100029D07A784A70002A25D0BA788A70002A86
:1040200021D0FA78CA70002A1DD03A790A71002A84
:1040300019D07A794A71002A15D0BA798A71002A82
:1040400011D0FA79CA71002A0DD03A7A0A72002A80
:1040500009D07A7A4A72002A05D0BA7A8A72002A7E
:1040600001D0FA7ACA720022CA7201E000220A70F4
:1040700083430093099F0026E664092D00D3092598
:10408000A564E562201D02F0F8FA2046183002F01F
:10409000F4FA0A20401BA06126656665A665E66500
:1040A0002046503006746462246100AA07CA00F0FA
:1040B000B1FA2060002F00D03C6003B0F0BD0000DA
:1040C000F0B583B0002936D01D460F460646029251
:1040D000099C0898019002F025FBCD480068002853
:1040E00015D1164802F0BFFA154802F0BCFAC748CD
:1040F00013490160C4481149016000200090142058
:104100000C21104A104B02F0A5FEC149086002F0D4
:1041100013FBA761E561019820622660201D02F073
:10412000ACFA0298002804D02820215C04220A431B
:10413000225403B0F0BD72B6FEE7C0466C332020B7
:1041400080332020C8052020B8062020F0B585B097
:10415000044603F0A9F9234A1168884233D2009437
:104160000190A94F05E068602D613868314602F082
:1041700087FA38680168002927D0C0680468C568D4
:104180002E1D304602F004FA296A28468847282066
:10419000285C4007EDD5A8690019A042E3D89C4EE1
:1041A000306800280DD0049503940025029503F093
:1041B0006DF9306802A92A462B4602F096FE0028C7
:1041C000D7D172B6FEE7002107E090490A683A604D
:1041D000086001210198009C024A1060216005B02E
:1041E000F0BDC0460807202081B0002000900A489A
:1041F000006872B6401C09D0FEE70098002808D17C
:104200000098002805D10098002802D100980028C5
:10421000F3D001B07047C0466C0020208AB07A4EBF
:104220007B4F30680468002C02D0C068056800E04D
:10423000002502F053FD04A8FFF788FF0499002928
:1042400002D003F027FA52E0002C15D0854213D893
:10425000029003F01FFA3068C068C468201D019006
:1042600002F096F92820205C410709D42146283124
:10427000FA221040087037E0002C12D0002215E01E
:10428000A069411961602461029A9142314603D8C4
:10429000511B81425D4914D20868019902F0F0F97E
:1042A00022E05A49096809684A424A41291A38688D
:1042B00002F08AFB03F0EEF9002818D102F078FB37
:1042C00015E03868002800D19BE009940895002586
:1042D000079503F0DBF8386807A92A462B4602F059
:1042E00004FE002800D18CE0216A20468847386807
:1042F00004A90022029202E0386804A9002202F018
:1043000084FF00288DD004980028F5D4069D6869A4
:10431000002802D0281D02F03BF903A8FFF716FF82
:1043200004990929E8D8C0467944097949008F449D
:104330000A0A0A0442570A0A04422820295CFE227B
:104340000A402A54D8E728216A5C012313436B549E
:10435000AB6905995A186A602D61824224D9884256
:10436000304625D28A42304622D334462E4628365D
:10437000296A28468847307826464007BCD53868E1
:1043800000283AD0A8690599099540180890029C20
:10439000079403F07BF8386807A92246234602F009
:1043A000A4FD0028A8D128E0401A98421748DCD282
:1043B000291D006811E028216A5C012313436B5416
:1043C0000599A96100291AD0091869602D618142F7
:1043D000304600D80D480068291D02F051F98BE7DE
:1043E0002820285C810703D4284602F0B3F983E72C
:1043F0002835FE21084028707EE772B6FEE772B6C7
:10440000FEE772B6FEE7C0461007202020072020F6
:1044100038342020F0B581B004460646443602F018
:1044200081F901203756012F12DB2546243504E09F
:10443000781E79B2012907460ADD2868002807D0CE
:10444000284603F0E7F80028F2D002F069FBEFE716
:10445000FF25757002F070F902F064F900203756FC
:10446000012F11DB103404E0781E79B201290746D0
:104470000ADD2068002807D0204603F0CBF800288A
:10448000F2D002F04DFBEFE7357002F055F901B0C4
:10449000F0BD0000F0B583B0044602F01FFC5648A2
:1044A0000368002B05D055490978002C1FD4002241
:1044B0001EE00721CB43524D69072A4601D0EA1D71
:1044C0001A40504E01214F03ED191D40083D056073
:1044D00000230CC62B606B600368AD1A28C24A4AE1
:1044E00015604A4A1560454A1170002CDFD501223B
:1044F00025460835092D2AD30A4028D1072221460E
:1045000091431031A94200D80021620700D00D4626
:10451000691E3E4A1468A14219D23A4C21684E687D
:10452000AE4207D20F68002F04D00C4639467E6891
:10453000AE42F7D399420AD023680F682760761BF2
:10454000112E3AD34C1967070AD072B6FEE703F072
:10455000A1F802F045F8002041074BD072B6FEE703
:1045600066604D60274E3768A74204D23E68A64277
:104570003D46F8D301E035463E4601936F6800970B
:10458000EF1902976768029BA34203D1009C3F1971
:104590006F602C460297E719B742019B01D0304665
:1045A00007E0029F0068864203D07068C01960600F
:1045B00030682060A54200D02C6048681468241A36
:1045C0001460114A1568AC4200D2146008330B4ADB
:1045D000127800240C600E4C25686D1C2560541E5A
:1045E000A241D207104348601C4603F053F820460E
:1045F0004107B3D103B0F0BD180720209433202029
:10460000850E202000342020CC332020C0332020F1
:10461000D83320200346083B1960011F01231B06E5
:104620000B6001460C39034B0B60014620390A60D0
:1046300040387047E9410000042808D8800005A1EF
:104640000958094800680840411E88417047002009
:104650007047C0460010000000010000000200008A
:10466000000400000008000080330A40424801684E
:104670000969002900D001607047C04610B5064C9A
:10468000204600F06CFA05A00121FEF721FD20462E
:1046900000F061FD10BDC046A409202052756E6E69
:1046A000696E67205461736B2030310010B5064C81
:1046B000204600F054FA05A00121FEF709FD20462E
:1046C00000F049FD10BDC046A409202052756E6E51
:1046D000696E67205461736B2030320010B5064C50
:1046E000204600F03CFA05A00121FEF7F1FC20462F
:1046F00000F031FD10BDC046A409202052756E6E39
:10470000696E67205461736B2030330010B5064C1E
:10471000204600F024FA05A00121FEF7D9FC20462E
:1047200000F019FD10BDC046A409202052756E6E20
:10473000696E67205461736B203034000E48006846
:104740003C21415C4A1E0168914201DA491C01602A
:104750004268121D914201DBC91E41607047C0468C
:10476000054800680168012901DB491E01604268B3
:10477000914200DA41607047D4012020F0B58FB03B
:104780004B20019080000790002502F08DFE0390E1
:10479000D14F099512E0384600F0DDFC322002F0DE
:1047A00035F90C98E54903F099FB054602F07CFECB
:1047B0000399401A00097D2800D384E1384600F0AF
:1047C000CEF902F071FE06903846C44900F0D1FCE3
:1047D0003846C34900F06AFC0446FF20810528469C
:1047E00003F0C2FBFCF716F90521FBF747FF0A911E
:1047F0006008402105910C1A4D20099E0C950EE091
:10480000A1B2AAB20EAB384600F0ACFB0B9824184C
:10481000B34880194078761C052E0C9D40D00EA917
:10482000099A4A700870384600F040FC0B903046F8
:10483000FCF742F9AB4903F097FB294603F04EFB26
:1048400003F05EFA4121090603F08EFBA64903F04E
:1048500045FBFCF7DFF805460A98B042D0D10121AC
:104860000891384600F07FFC13200090A01E81B212
:1048700028460F3882B20B98001D83B2384600F0EC
:1048800079F90021384600F06EFCA1B2AAB20EAB55
:10489000384600F067FB3846089900F064FCB5E73D
:1048A0003846924900F065FC039806990E1A38467E
:1048B0008F4900F0FBFB04468E4886420496304642
:1048C00000D38C48FCF7F8F88B49FBF7F3FF61083D
:1048D000059A541A894903F047FBFCF79BF80A90A4
:1048E0002846FCF797F805460026572002950896BB
:1048F00009E00B9824187E48801940780D35761C05
:10490000072E754F2AD00DA9089A4A7008703846AC
:1049100000F0CCFB0B903046FCF7CEF83F210906A7
:1049200003F022FB0C9903F0D9FA03F0E9F90146F0
:1049300003F0D4FA724903F0D1FAFCF76BF807469A
:1049400028180A21FBF79AFE0A988142D1DAA1B20F
:10495000BAB20DAB604800F005FBCAE70198C10090
:10496000049C2046FBF77CFE08910B20029D6843C7
:104970000A90AF2081002046FBF772FE069107984F
:1049800064300590EC00002605E00F3409320A92ED
:10499000761C802E5BD03046FCF78EF805465949D0
:1049A00003F0E2FA0C9903F099FA03F0A9F95649D9
:1049B00003F0DAFA554903F091FAFCF72BF83B467D
:1049C000074682B2B1B218460B9100F0E9F950489F
:1049D0006043504940185049884209D808980599C1
:1049E000884205D2B81E82B23B480B9900F0D8F934
:1049F00028464A4903F0B8FA0C9903F06FFA48497F
:104A000003F06CFA03F07CF93F4903F0ADFA454935
:104A100003F064FAFBF7FEFF054682B22E4F3846DC
:104A20000B9900F0BDF940480A9A50433F4940189D
:104A30003F498842A9D8079806998142A5D2A81C67
:104A400082B238460B9900F0ABF90A9A9DE7022032
:104A5000009005213E22762538462B4600F0ABF823
:104A60000499694333488142334E00D293E60846A5
:104A7000304902F02FFF0446762800D32C4600254B
:104A80002846FCF719F87D21C90503F06DFA0C9949
:104A900003F024FA03F034F9314603F065FAFBF72A
:104AA000B9FF3E3082B2681D86B23846314600F00A
:104AB00077F93F22384631461F4E00F071F96D1CE0
:104AC000AC42DDD167E6044C204600F048F82046B1
:104AD00000F041FB0FB0F0BDA409202023870000A7
:104AE000128300003333333F0000F041F2900000A6
:104AF0001A830000DC0500000080BB440000204158
:104B000000004842EC51B83D0000404000007042B7
:104B100091C0DB0F78FB2101F0F64302CDCCCC3DF8
:104B2000D00F49400000E0407FBFDFEF08040201E2
:104B300010080402B80B0000CDCC8C3FCDCC4C3E0D
:104B400080B50420FEF78EFC80BD7047704780B5AD
:104B5000FEF7D2F880BD80B5FDF7A6FC80BD80B51C
:104B60003821415C0268127C4A43D100406BFBF75C
:104B700073FD80BDF0B583B015460E46089CA118A4
:104B800089B20091029399198BB20746314600F021
:104B9000B1FA002C0DD000280BD000200090AAB252
:104BA00038463146029B00F087F86D1C641E2004D5
:104BB000F3D103B0F0BDF0B587B017460E460546F9
:104BC0000C9CA01880B2009006935818059083B2F0
:104BD000284600F08FFA00282CD000200490009086
:104BE000284631463A46069B00F066F8022C21D34F
:104BF0007F1CA41E200415D0012001900090BAB2A1
:104C00000392A3B202932846314600F055F801986A
:104C100000900598401E81B22846039A029B00F03E
:104C20004BF8E71904980090BAB228463146069B23
:104C300000F042F807B0F0BDF0B583B0002B1FD0F4
:104C40008C24045D002C1BD004464834A588AA425D
:104C500016D3E588AA4213D25F186388994201D31C
:104C60003D4600E05D1EBEB2BE4200D13546029513
:104C7000258899420C4605D2BE4206D09C4207D3F5
:104C800003B0F0BD2C46BE42F8D10C469C42F7D290
:104C9000029989B2A942F3D9066BB668002700973A
:104CA000AC4200D82C46994200D31946091B8BB25E
:104CB0002146B04703B0F0BDF0B583B0002B6DD0F6
:104CC0008C24045D002C69D004464834089D022BD6
:104CD00006D3032D13D0022D02D1C91A491C01E0BD
:104CE000ED070ED1A588AA4258D3E588AA4255D22D
:104CF0008FB2FE1863889F4210D3029610E0D21A3A
:104D0000521C2588A94249D36588A94246D297B248
:104D1000FE18E3889F421FD302961FE05D1E029596
:104D2000B5B2B54200D1029524889F420F4600D308
:104D30002746B54200D10F46B9B299422ED2029D04
:104D4000ADB2A5422AD9A14200D821469D4200D346
:104D50001D466B1A00241CE05D1E0295B5B2B542DB
:104D600000D10295A4889F42174600D32746B5423A
:104D700000D11746BAB29A4210D2029DADB2A542F6
:104D80000CD9A24200D822469D4200D31D46AB1A40
:104D90000124056BAD6800949BB2A84703B0F0BD39
:104DA00010B582B0034648339C88A24213D3DC88F6
:104DB000A24210D21C88A1420DD35B8899420AD22C
:104DC00003468C331B78002B05D0036B9C680023B3
:104DD00000930123A04702B010BD0000F0B585B0DC
:104DE00030216B4B002504915D545C49D9625C49CC
:104DF00059641A7E012A1DD95F88019044300290BF
:104E00009E1D012303953C46284603E0361D5B1C8E
:104E10009A4212D0315E24B28C4200DC0C463DB284
:104E20008D42F3DD07465A48049D435538460393A7
:104E30000F46EBE75D8305B0F0BDE01B54494883A6
:104E4000B8B2A1B2814201D105B0F0BD48245048AA
:104E5000039901553EB2012730463946FEF7FAFD67
:104E6000002530462946FEF7F5FD49484776005DA6
:104E7000474C8000205A0499615C8900615A814244
:104E800005D1608B471E6783380402D1DCE7657665
:104E9000678B00200490FEF701FE0120FEF7FEFD67
:104EA000607E00280CD020461C30FEF733FE2046E2
:104EB0003430FEF72FFE03E0781E07B2002FC3DD6B
:104EC0003C20205E002833D482B202200299085E82
:104ED00011B281422CDA4020205E2821615E81429D
:104EE00011DA002824D40023029DEB5E99421FDAD8
:104EF000984200DB1846CB179943401A83B20198B9
:104F0000FFF79AFE14E0002912D4029B049D5B5F18
:104F100098420DDA0028049C00D40C469C4200DB29
:104F20001C46211A8BB281B20198FFF785FE184CFE
:104F300026461C363046FEF7EDFD002803D1002042
:104F4000FEF7ACFDF6E7264634363046FEF7E2FDC6
:104F50000028B1D10120FEF7A1FDF6E7453A000097
:104F60008D3A000010B5544C446000F0E3F910BDD8
:104F7000B0B5074C03252576069D6581059D2581E5
:104F8000049DE580A38062802180FFF727FFB0BDEC
:104F9000380E2020F0B583B0074600F034FC00281E
:104FA0002AD039466A3100228A7038668E7B0578AD
:104FB000082E334603D3401C38663346083B3C4634
:104FC000903401948B70D4430294B440A5430D7087
:104FD000DDB20478EC403A46CF7BFD18EEB2082EE5
:104FE00000920BD3461C16660822D21AD2B2407821
:104FF00090402043083D03E0002054E00646204650
:105000008D70019A92780A71029BBB409843487058
:10501000504250414871E8B23478C4400B7CEF18DC
:10502000F8B208280AD3701C009A10660822521B96
:10503000D2B2757895402543083F01E030462546B9
:10504000029C22469A4095435A1ED2B22346934070
:10505000EA18019B1A704A7CD519EAB2082A04D3CF
:10506000401C009F3866083D00E0009F8D70EAB24A
:105070000478D4408B7C5E19F2B2082A09D3421C12
:105080003A660822521BD2B2407890402043083E34
:1050900000E020468E70029A114699408843591EBE
:1050A000C9B28A40801840B203B0F0BD80B5024A50
:1050B000426000F065FD80BD3D5D000010B5094C0B
:1050C00009490A4A0A4B204600F0DEF8204600F063
:1050D00005FE0021204600F00FFE2046FFF73FFDB1
:1050E00010BDC046A4092020448300008D5D00004F
:1050F000C162000070B504464834A588E088049E6B
:10510000824205D2B24208D8AE4206D8002070BD15
:105110000020B24218D9AE4216D922886088814256
:1051200008D201200024934202460ED999420FD999
:10513000104370BD012000249342024600D822464D
:10514000994200D82046104070BD22469942EFD8BF
:105150002046104370BD10B5044600F0E7FC204621
:1051600000F0C3FD10BD022900D901219222815413
:105170007047F0B585B00446806D88424CD00D462E
:10518000A165743408782070487860708878A070C1
:10519000C878E07008792071487960718879A071C9
:1051A000C879E071087A2072487A60720A2008563D
:1051B0000290A072C87AE0720C2008560390207307
:1051C0000D200856049060730E200F56A7730F2011
:1051D00008560190E07310200E56267411212846BF
:1051E00000F083FB60821321284600F07EFBA08242
:1051F0001521284600F079FB049BE776A376E08230
:10520000607E002808D0012808D10198834200DA86
:10521000A076B74200DDE67605B0F0BD039E0298A9
:1052200030189842F4DCF4E70149C1657047C04684
:1052300031540000B0B504466D20002525543820B7
:1052400022548D202554FF2002309222A052616307
:10525000E362A5650498206321468D310D712146D6
:1052600038314D70016820468847064820656065E2
:10527000206B4168204688472046FFF7D5FF6D34F4
:10528000E570B0BD0000FFFF70B582B016460D4658
:10529000044600930849094A334600F034FD01AE44
:1052A000304600F03DFC014632780095044B204624
:1052B000FFF7C0FF02B070BD95610000455F0000C0
:1052C000F9580000022B09D0012B04D0002B08D183
:1052D000401880B27047801A80B27047401A80B27E
:1052E0007047801880B27047022B09D0012B04D080
:1052F000002B08D1801880B27047401880B27047E8
:10530000801A80B27047401A80B2704770B582B080
:10531000C46AC58F069E0096521B92B2A04702B087
:1053200070BD10B582B0049C0094FFF7EFFF02B08F
:1053300010BD0000F0B585B01F46039202910646ED
:1053400001F027F83978726830469047374988422B
:1053500065D03246643204927D1C002201920BE03B
:10536000029101994118019129787268304690475D
:105370006D1C2146A04254D087B20C46481E80B214
:105380008742F1D00498027B032A039802991FD820
:105390007A441279520097440115080FF16D304696
:1053A000884703994018029912E0F16D304688470A
:1053B0000399081A02990BE0F16D3046884702996B
:1053C000411804E0F16D304688470299091A0398A4
:1053D000049A508011803046394600F014FA0028B3
:1053E00004D00146304600F025F800E00020049982
:1053F000097B0329B5D8C0467944097949008F440F
:10540000040A01070299091AAAE702994118A7E7B5
:105410000399091A01E0039941180391A1E70020BB
:105420000190019880B205B0F0BDC046FFFF0000BA
:1054300000207047F0B58BB004460166074664371C
:1054400000253D72387D0E78082804D3491C21665A
:105450000346083B00E003462246923206923B7226
:105460000195EA430892824096430996BE71D8B2EC
:105470000D78C540787DC218D6B2082E0A970BD396
:105480004E1C26660827FB1A0A9FDBB24978994012
:1054900029430D46083A00E00E463A72069909780B
:1054A000B972089B83409D430795FD71484248416E
:1054B000F872D1B23078C840B97D03915518E9B27D
:1054C000082909D3731C23660821891AC9B2727886
:1054D0008A400243083D01E0334602463D72E8B28D
:1054E0001978C140F87D02904619F0B208280AD315
:1054F000581C206608277D1BEFB25D78BD400A9FCF
:105500000D43083E01E018460D46099949B209913C
:105510003E72F3B20178D9403B7E05939B19DFB20E
:10552000082F0AD3471C27660827BE1BF6B240780F
:10553000B04008430490083B00E004910A9F3B728E
:105540000998012800DAC8E0039E701E089B1946DE
:10555000B140C0B28A4319468140029E701E511864
:105560001A46B240C0B2012349B29543834007981E
:105570004019181A42B202923E7B38880D463346D3
:10558000FFF7A0FE0390388078882946029A3346B8
:10559000FFF7AAFE7880032E2CD8C0467E443679C9
:1055A0007600B744011E08140999039E73180799E1
:1055B00049B2411821E00999039B591A4E1C0799D9
:1055C00049B2411A4D1C411C5B1C284615E0079945
:1055D00049B2039E73180999411A4A1C411C10468E
:1055E0000BE009994118079A52B2039B9A1A561C6C
:1055F0005B1C02E0039E3346014689B20091B1B2C2
:1056000082B29BB22046FFF775FD002865D0019855
:10561000B880216E3A7A05E005203856079B5BB2C8
:10562000984257DAD0B20E78C640B87C0990131869
:10563000D8B2082809D34D1C25660820801AC0B2AC
:10564000497881403143083B01E00D4631463B72C9
:10565000DAB22878D040FA7CD618F7B2082F09D3EE
:105660006F1C27660827FB1ADFB26B78BB40034329
:10567000083E00E00346089D2846099FB840814344
:105680000A9F3E72284690408343CDB2DEB20CE0C2
:10569000411C21660822D21AD2B240789040384389
:1056A000DA1F0A9F3A72C007B6D000222046294668
:1056B00000F020F801222046314600F01BF83B7A2A
:1056C000206E0778DF405A1CD1B20829E0D201468B
:1056D0003846E6E7B87A0699087008990846059AA8
:1056E0009040049B8343501EC0B28140581840B282
:1056F0000BB0F0BDF0B58BB005920D4602466420AC
:10570000105A039264320521575604215456917958
:10571000099151880A910692167B21463A463346F2
:10572000FFF7D0FD07900A9821460A973A46374678
:105730003346FFF7D9FD024608940998041BE0B2EE
:1057400085422E4600D30546039801466F310191EC
:1057500001466E3192300290059800280491084667
:1057600009D00078029908700097039807992B4692
:10577000FFF7A2FA04E00698407A00280198F0D0DA
:10578000E0B2864207D206990A9848710898301804
:1057900008710BB0F0BD301B0FE00598002804988D
:1057A0002BD0007802990870009703980799FFF7AB
:1057B00083FA701BF1B2A942E5D309900698857966
:1057C00041880891077B00880A99491C4CB2002641
:1057D000314622463B46FFF775FD0790089808962C
:1057E0003146099E0A9422463B46FFF77DFD02465C
:1057F000F3B2AB42D1D32B46CFE70698407A0028CC
:105800000198D6D1CDE7F0B581B00C46816D8630D8
:105810001731FF2C03D8612C3BD340883CE08088B3
:105820000F183E4600253046294600F05EF83F1826
:105830000221304600F059F8361DA042F2D37878A4
:105840003978090208184DD0A0424AD0B9787818A2
:105850004278795C0902891844D0A14240D081780D
:1058600047187A78405C000280183BD0A04238D0BC
:10587000B97878184278795C0902891832D0A14247
:105880002ED0817847187A78405C00028018DBD1EE
:1058900028E0412C01D30088091848780025002809
:1058A00020D00A78944219D009184878002819D0D5
:1058B0000A78944212D009184878002812D00A7841
:1058C00094420BD00918487800280BD00A789442EB
:1058D00004D0091848780028E3D103E08D1C01E0CA
:1058E0000746FD1C284601B0F0BD42185278405CC6
:1058F0000002801880B27047F0B587B01746922238
:10590000865C072204970592174001240394BC404B
:105910000022012E154600D02546022E00D3144643
:10592000049A059EB2430668367C5643B2B2466B73
:10593000B21851180C9A002A16D0024692320692DA
:1059400003261E405A1E002E00D189E001920296C5
:105950000A7822436A400A70049A571C059A174035
:1059600010D06D00640019E003221A40581E002A6E
:1059700053D00E7826436E400E70012A20D1491C68
:1059800003464AE0069A167801220092012E00D0C2
:10599000009D012E00D8009C428F8918029A012A8E
:1059A00002D1019A13465BE00A7822436A400A70EA
:1059B000049A971C059A17400BD06D00640013E001
:1059C0004E7826436E404E70022A20D19B1E891CC1
:1059D00023E0069A12780126012A00D03546012AD2
:1059E00000D83446428F8918029A022A01D19B1EA0
:1059F00035E00A7822436A400A70049AD71C059A57
:105A00001740DB1E002F20D06D00640027E08A784D
:105A100022436A408A70DB1EC91C80B2032822D34D
:105A200008782043684008704878204368404870F0
:105A30008878204368408870C87820436840C870E0
:105A4000091D1B1F1804EBD10DE0069A1278012ADC
:105A500000D0039D012A00D8039C428F8918019A27
:105A600092B2032A08D207B0F0BD428F89180422EF
:105A700057401B1F1A04F6D00A7822436A400A7066
:105A80007A1C520702D06D0064000AE0069A16786C
:105A90000122012E00D01546012E00D81446428F57
:105AA00089180A7822436A400A70BA1C520702D049
:105AB0006D0064000AE0069A16780122012E00D0DB
:105AC0001546012E00D81446428F89180A782243C1
:105AD0006A400A70FA1C520702D06D0064000AE0A6
