:020000040000FA
:10000000C8682020A1020000A502000015310000F0
:1000100000000000000000000000000000000000E0
:100020000000000000000000000000004539000052
:100030000000000000000000B1310000053F00009A
:10004000AF020000DD2F0000AF020000B13F000052
:10005000AF020000AF020000AF020000AF020000DC
:1000600000000000AF020000AF020000000000002E
:1000700000000000AF020000AF020000253F0000BA
:10008000AF020000AF020000AF020000AF020000AC
:10009000AF020000AF0200000000000000000000FE
:1000A000AF020000AF0200000000000000000000EE
:1000B000AF02000000000000AF020000AF0200002D
:1000C00000F002F800F0C1F812A030C80838241877
:1000D0002D18AC4201D100F0B8F80FCCA246AB46C7
:1000E0000CA730CF2D1B083F3F197C427F1E544484
:1000F0002D090426F441641EAC4201D300F0A5F89A
:100100000126334200D0FB1A3343984754465D46DC
:10011000DFE7000064DB000084DB0000000000007B
:100120007047000000000000002300240025002686
:10013000103A01D378C1FBD8520700D330C100D5A3
:100140000B60704710B56E2902D100F0C5FC10BDE0
:10015000702902D100F001FE10BD662902D10CF019
:100160004BFA10BD652902D10CF046FA10BD672983
:1001700002D10CF041FA10BD612902D10CF044FA11
:1001800010BD03681B0A01D380231943692902D1DA
:1001900000F06CFC10BD642902D100F067FC10BDBA
:1001A000752902D100F062FC10BD6F2902D100F068
:1001B0007FFD10BD782902D100F0BCFD10BDE929FA
:1001C00002D100F01BFD10BDE42902D100F016FDA4
:1001D00010BDF52902D100F011FD10BDEF2902D1AB
:1001E00000F072FD10BDF82902D100F0B1FD10BD84
:1001F0000368DB0901D380231943632902D101F08D
:10020000D8FA10BD732902D101F0DBFA10BDE32941
:1002100002D101F0E5FA10BDF32902D101F0E8FAAC
:1002200010BD002010BD1FB501F0ECFB0400002044
:1002300000210CF009F8401C6060002000210BF048
:10024000EDFFE0601FBD10B510BD01F0B3FB11461E
:10025000FFF7E9FF05F066FF01F048FF03B4FFF781
:10026000F2FF03BC01F0FCFF70B505460C461646D4
:1002700002E00FCC0FC5103E102EFAD2082E02D38A
:1002800003CC03C5083E042E07D301CC01C5361F9D
:1002900003E021782970641C6D1C761EF9D270BDB4
:1002A00006480047FEE7FEE7FEE7FEE7FEE7FEE75B
:1002B00003480449044A054B70470000C100000090
:1002C000C8382020C8682020C8582020C8582020BE
:1002D0004343514330B55C18010C130C0D4692B2E8
:1002E0005D4380B251432C19054655430A0C09045D
:1002F0004D1962415843010C00044019514130BD71
:100300000FB41CB50C0007AA009007D04142A142CF
:1003100002D30019401E01E00020C043074B7B447C
:1003200069460190069800F0F0FB0021002C01D0F6
:10033000009A11701CBC08BC04B018470F080000DC
:100340007CB51D4616460C00009007D04142A142E4
:1003500002D30019401E01E00020C043064B7B443D
:100360002A4669460190304600F0CFFB002C02D0AF
:10037000009A002111707CBDCF07000030B5441CED
:1003800003E00178401C00290DD08107F9D10B4B07
:10039000DD0104C8D11A91432940FAD0001B0A0696
:1003A00003D0C01E30BD001B30BD0A0401D0801E2A
:1003B00030BD0902FCD0401E30BD0000010101012A
:1003C000F8B5042A2CD3830712D00B78491C03708C
:1003D000401C521E83070BD00B78491C0370401C35
:1003E000521E830704D00B78491C0370401C521E18
:1003F0008B079B0F05D0C91ADF002023DE1B08C91D
:100400000AE0FFF731FFF8BD1D4608C9FD401C4654
:10041000B4402C4310C0121F042AF5D2F308C91AA5
:10042000521EF0D40B78491C0370401C521EEAD4B3
:100430000B78491C0370401C012AE4D40978017030
:10044000F8BDD2B210B513029A1813049A1800F02E
:1004500001F810BD01E004C0091F0429FBD28B077D
:1004600001D50280801CC90700D0027070470029A6
:100470000BD0C30702D00270401C491E022904D3CE
:10048000830702D50280801C891EE3E70022EEE785
:100490000022DFE7002203098B4273D3030A8B4259
:1004A00058D3030B8B423CD3030C8B4221D312E075
:1004B00003460B437FD4002243088B4274D30309C5
:1004C0008B425FD3030A8B4244D3030B8B4228D366
:1004D000030C8B420DD30902FF2212BA030C8B428C
:1004E00002D31212090265D0030B8B4219D300E02C
:1004F000090AC30B8B4201D3CB03C01A5241830BB1
:100500008B4201D38B03C01A5241430B8B4201D360
:100510004B03C01A5241030B8B4201D30B03C01A89
:100520005241C30A8B4201D3CB02C01A5241830A03
:100530008B4201D38B02C01A5241430A8B4201D332
:100540004B02C01A5241030A8B4201D30B02C01A5C
:100550005241CDD2C3098B4201D3CB01C01A5241C3
:1005600083098B4201D38B01C01A524143098B424C
:1005700001D34B01C01A524103098B4201D30B0135
:10058000C01A5241C3088B4201D3CB00C01A52415A
:1005900083088B4201D38B00C01A524143088B421F
:1005A00001D34B00C01A5241411A00D201465241B8
:1005B000104670475DE0CA0F00D04942031000D3D7
:1005C000404253409C46002203098B422DD3030A2C
:1005D0008B4212D38901FC2212BA030A8B420CD33C
:1005E000890192118B4208D3890192118B4204D365
:1005F00089013AD0921100E08909C3098B4201D3E5
:10060000CB01C01A524183098B4201D38B01C01A1E
:10061000524143098B4201D34B01C01A5241030995
:100620008B4201D30B01C01A5241C3088B4201D344
:10063000CB00C01A524183088B4201D38B00C01AF1
:100640005241D9D243088B4201D34B00C01A5241C8
:10065000411A00D201465241104663465B1001D355
:100660004042002B00D54942704763465B1000D3DF
:10067000404201B50449002802DC491C084000E062
:100680000846C046C04602BDFFFFFF7F7047704767
:10069000704700000346CA02400D10B510430A150A
:1006A00004D00124E4072043002A05DB0A4CA21AE7
:1006B00004D4D040FF2A00DD002010BD4A00002BEA
:1006C00001D0012000E00020101801225205D04284
:1006D000F2D8C817C04310BD1E0400001F22030C2F
:1006E00002D10F22000402D0030E03D004E0002048
:1006F000014670470002083A030F01D10001121FA2
:10070000830F01D18000921E002801DB4000521EA1
:10071000120551184205C012411810467047C10F0A
:10072000C90700D04042012292071143D6E70121B8
:100730008907D3E70121C9050123411842001B069F
:10074000D3185B0E0AD0C1100722D20689184007C1
:100750005242D14201D5520089187047090208D58A
:100760000146002A03D0C10FC90700207047104678
:100770007047420202D00020024970470721090554
:100780000143F4E70000F87FF0B5FF252D04C6090A
:10079000C209FF2704462E400137CB093E4348409B
:1007A0002A402B400746002A6BD0002B69D0AA4272
:1007B00067D0AB4265D0002800DA32460125ED054E
:1007C00029432C4309022002090AD21A4B0C7F2428
:1007D000E31A434C000A7C44E35C7D242404121990
:1007E00014145B00A218884201D3521C00E04000A0
:1007F00049420C465C4324115C43DB016415E31859
:10080000040A5C43C502200D0C4644436419250AC2
:100810005D432303EC0C0D46654300030019EB1800
:100820004C42A34201D35B18401CD4052018002B76
:1008300007D05B00C91804D3401C002901D140082F
:1008400040003F2189048A4209D3002A08DC1106AE
:10085000090F04D0032149074018C00FC007F0BD9D
:1008600001224100120689187F2252069142F6D2D7
:1008700005214907C84201D59010F0BDFF20C005F1
:10088000F0BD002F00DA32461648AA4207D2AB422A
:1008900005D21902090E17D0F80FC007F0BDFF25C9
:1008A00063002D06AB42F9D84900A942F6D8AB4205
:1008B00001D1A942F2D0A94201D1002101E0610099
:1008C0004908D0050843F0BD1102090EFBD0FF20F6
:1008D0000243D005F0BD0A460146104654E7000029
:1008E0003EBE00000000C07F10B501469E240002FD
:1008F000CA15A307002A02D01843002A04DBA21A53
:10090000002A0CDDD04010BD1206120E01D14000AD
:100910004008A21A03D4D04040420028F3DDFF2251
:1009200048001206904201D9002010BDC817C043EC
:10093000584010BD1F22030C02D10F2200041CD00E
:10094000030E01D10002083A030F01D10001121F6A
:10095000830F01D18000921E002801DB4000521E4F
:10096000D2055118021251181922904004D3491C83
:10097000002801D14908490008467047C10FC9073E
:1009800000D04042012292071143D3E70121890799
:10099000D0E710B500F0F2FA006810BD10B50446BB
:1009A00000F0ECFA046010BD70B50446856900687B
:1009B000C10601D5302600E02026C00707D070BD53
:1009C00062683046A1689047206A401C20626D1E14
:1009D000F6D570BD70B5044685690078C00707D1AB
:1009E00070BD6268A16820209047206A401C206288
:1009F0006D1EF6D570BD09684A0501D540B2704735
:100A0000C905FCD500B2704709684A0501D5C0B2D6
:100A10007047C905FCD580B2704770B50C460546D5
:100A2000012A05D02878800600D5EA69002302E073
:100A3000012305E05B1C934202D2E05C0028F9D15F
:100A4000A869E618C01AA861286AC0182862284652
:100A5000FFF7AAFF04E06A682078A968641C904741
:100A6000B442F8D32846FFF7B5FF70BDF7B50025AF
:100A700075291068009914A611D0FFF7BCFF002853
:100A800002DA404211A608E0009909688A0701D5F8
:100A90000FA602E0490704D50EA6012501E0FFF7E5
:100AA000B3FF009F0024243704E000F0C6FE30317D
:100AB0003955641C0028F8D12B463246214600984F
:100AC00000F09DFAFEBD0000000000002D000000B7
:100AD0002B0000002000000011680268006A530526
:100AE00001D5087009E0D30501D5088005E013069B
:100AF00002D5C21705C100E0086001207047000060
:100B000001694A1C02610878704700B58FB00291F4
:100B10000021059105490193794403911146049000
:100B2000684600F027F90FB000BD0000E5FFFFFFA9
:100B30000CC908399A4202D2531C0B6010707047DE
:100B4000F7B50446154686B02B487844002703C8FD
:100B50003E460090019111E007986A467100415AA3
:100B600002A800F049FE411C07D02178890603D570
:100B7000E269391891420ED83F18761C2078800619
:100B800002D5E069B84206DDAE42E5DB07987100A8
:100B9000405A0028E0D1A069C01BA0612046FFF7A1
:100BA00003FF154878445A3803C80090002001918B
:100BB00016E041006A460798415A02A800F01CFE60
:100BC0000590401C0AD0002505E0626802A8A168D3
:100BD000405D90476D1C05988542F6D30498401CF3
:100BE000B0420490E5DB206AC01920622046FFF77E
:100BF000F1FE09B0F0BD00000ABB0000F7B5D21D40
:100C00000025D20815A6D200F52905CA11D0002A60
:100C100005DA00214042914111A60A4608E00099F8
:100C200009688B0701D50FA602E0490701D50EA67A
:100C300001251146009F0024243704E000F0A2F9AA
:100C400030323A55641C02460A43F7D12B463246ED
:100C50002146009800F0D3F9FEBD0000000000001E
:100C60002D0000002B0000002000000070B504469D
:100C70000021243408E05507D2086D0F3035655443
:100C80005D072A43DB08491C15461D43F3D1046860
:100C9000002310A2250708D520252C400C4304D0A2
:100CA000C46901230CA2641EC46100F0A8F970BDE0
:100CB00010B5044621461068FFF7A6FE0023024641
:100CC0002046FFF7D3FF10BDD21DD108C9000CC9C3
:100CD000CCE700000000000030000000F8B50F462F
:100CE0000188090502D5224C7C4402E0204C7C445A
:100CF0000E3405460021243508E016071209360F88
:100D0000A65D6E541E0732431B09491C16461E433E
:100D1000F3D1224604780023240705D5702F06D08E
:100D2000002901D00223113200F069F9F8BD012336
:100D30001032F9E770B504460D4621461068FFF7FA
:100D400063FE0023024629462046FFF7C7FF70BD19
:100D5000D21DD308DB000CCBC0E730B403682024DD
:100D60001268234303600823C36130BC0023B5E746
:100D700074B90000F3B50446002081B0206220461B
:100D8000E1688847002872D0252802D06268A168EF
:100D9000ABE0594F00267F442046E1688847202871
:100DA000054608DB312D06D2781920380078002856
:100DB00001D00643F0E7B00701D5042086430020A8
:100DC000E0610746A0612A2D0AD028460BF05CF9A5
:100DD000002827D0B8000019303D0090856119E047
:100DE0000298BA00121902C8916102902046E16887
:100DF0008847012F054617D1E06900281FDA202017
:100E000086431CE000980A218069484300994019F4
:100E1000303888612046E168884705460BF034F990
:100E20000028EFD1012F0AD02E2D08D12046E168ED
:100E300088470546202006437F1C022FC3DBA0699C
:100E4000002803DA4042A06101200643F00701D0E8
:100E5000102086436C2D0BD0682D09D04C2D3CD032
:100E60006A2D38D0742D38D07A2D36D016E040E077
:100E7000E1682F4620468847B842054609D16C2FC5
:100E800029D001208002E1680643204688470546B4
:100E900004E06C2F1DD0FF2001300643002D28D028
:100EA00028464138192803D80120C00206432035BE
:100EB000204626602946029A1646FFF743F9002885
:100EC00010D001280BD0F61DF008C00008300290A9
:100ED00055E74020E1E78020D5E70020D3E7361D25
:100EE00002964CE762682846A1689047206A401C39
:100EF00044E7206AFEBD0000EEB80000C10D10B549
:100F00000906090E2ED0FF2931D07E292DD319D004
:100F1000962916D2024675398A4005D00024024629
:100F20008A4003D3012302E00124F8E700230222D0
:100F3000CA41511E8843002B03D08018002C00D0DA
:100F4000904310BD0121420201D1012200E00022A4
:100F5000C00FC0070029F4D0002AF2D17F21C905B3
:100F6000084310BDC00FC00710BD0021EFE74102CC
:100F7000FAD0014810BD00000000C07F0048704753
:100F8000A00320200B4670B502468907800808435D
:100F900019469D08141AA94125090807054308099F
:100FA0002C194841250A01060D43010A2C1941411B
:100FB000200C0D0428430D0C00194D41002140194F
:100FC0004D41C00869070843E908840F8D00254397
:100FD000840024184D4124196D41121BAB4107E0D8
:100FE0000925ED432C11521963410024401C614135
:100FF0001C460A250026551BB441F1D270BDFFB531
:1010000004460D4681B0243000902168880604D53E
:101010001022E0699143216000E00120A84201DD37
:10102000471B00E000270498A1697A191018081AD4
:10103000A0612078C00602D42046FFF7B5FC002648
:1010400008E003986268A168805D9047206A401CB0
:10105000761C206204988642F3DB2078C0060AD50D
:101060002046FFF7A1FC06E06268A16830209047A7
:10107000206A401C206238467F1E0028F4DC07E00E
:1010800000986268A168405D9047206A401C206219
:1010900028466D1E0028F3DC2046FFF79BFC2078D5
:1010A000000602D5022005B0F0BD0120FBE70000DC
:1010B000FFB50C461E468FB003CA089009914F0039
:1010C0007D0D00D16D1E002108460020C046032181
:1010D000099A89050840002A03DA8200801840082E
:1010E0000840800D01280A9002DD0020C0430A90CC
:1010F000089807430DD0F048F049281848430714D2
:10110000189800281DD07542291E1DDD0A984242FC
:101110001BE01898012802D00020302104E00020B4
:10112000F24305E02154401CB042FBDB3046002274
:10113000189B002121540F998B600A60486013B0FE
:10114000F0BDBD1B6D1CDFE70A9A002900DA694279
:101150000BA800F09FFC0BAB07CB03AB07C30899B0
:10116000099800F003FD6B4607C30146D4480918EF
:10117000002D00910BDDD24903980A9A494240188C
:10118000002303A90390684600F060FF08E003997C
:101190000A9A0023081803A90390684600F000FF8C
:1011A0006B4607C30004000C03D00020C043410875
:1011B00000E01046189A002A03D00022009215463B
:1011C0001EE0751E05D4FFF7DDFE303262556D1E40
:1011D000F9D501220843079602D000227F1C04E0C3
:1011E0002078302801D100227F1E002A069787D060
:1011F0001EE0112D07DAFFF7C5FE303262556D1C77
:1012000002460A43F5D1084303D00098002819D0BC
:101210000EE00021681E05E0235C625C63542254EA
:10122000401E491C8142F7DBA81B401E0795069013
:10123000079A18990020A0540F98079B069A81607E
:101240000CC07CE711260020189059E7D21DF0B59C
:101250000D460446D10893B0C90003C90C900D9106
:101260000AF0D4FD02460D98C00F01D02D2007E0F2
:101270002068810701D52B2002E04007C00F400104
:10128000032A0F9001D0072A05DB03462946204692
:1012900000F0BCFB0EE12078800601D5E76900E094
:1012A00006272846652D04D0662814D0672D69D1FD
:1012B0002DE00020112F009001DB112300E07B1CAA
:1012C0000CAA03A910A8FFF7F3FE119900261098A5
:1012D0007D1C0E9142E001203B460CAAC0070B90FA
:1012E0000120009003A910A8FFF7E2FE119D1298BB
:1012F0001099002600280E9501D1781C0D18781B36
:1013000002D446427D1C761EE81B00903AE0012F75
:1013100000DA01270020112F009001DD112300E0E9
:101320003B460CAA03A910A8FFF7C2FE11993D463F
:10133000109800260E91217809070BD40E99A94226
:1013400000DA0D4603A9012D04DD4A19203AD27FA7
:10135000302A06D0B84201DA011D04DA01210091D9
:101360000FE06D1EEFE7002802DC86192D1A03E05E
:10137000411CA94200DD0D46801B401C009001204D
:10138000C0070B902078000705D40098A84202DB24
:101390000020C043009069460020C8720B980121CC
:1013A00002AF0337C907884225D0022010902B20B6
:1013B00011900B9800280BDA40420B902D201190D1
:1013C00006E00B9800F039FA30317F1E0B9039702F
:1013D0001099481E00291090F3DC0B980028F0D1DA
:1013E00011987F1E38702088000501D5452000E047
:1013F00065207F1E387001A8C01BC01D0B900F9880
:10140000002800D0012041190098C01709180B9836
:101410000818A169081A401EA0612078C00602D4ED
:101420002046FFF7C1FA0F98002805D06268A1682E
:101430009047206A401C20622078C00625D52046AF
:10144000FFF7B2FA21E0002E07DB0E98B04204DD70
:1014500003A86268805DA16802E06268A16830202C
:101460009047206A761C401C20620098401E00288D
:1014700000900AD100F0C6FAC06862680168405C5A
:10148000A1689047206A401C206228466D1E0028F3
:10149000D9DC07E062683878A1687F1C9047206A31
:1014A000401C20620B99481E00290B90F2DC20465C
:1014B000FFF790FA032042E601FCFFFF104D000009
:1014C000E1DFFFFFD21DF0B504460D46D0088DB018
:1014D000C00046680768314638460AF097FC024665
:1014E000F00F01D02D2307E02068810701D52B23C1
:1014F00002E04007C00F43016846002B037001D093
:10150000012000E00020032A0A9001D0072A04DB12
:101510002946204600F07AFA2DE12078800601D491
:101520000D2500E0E5697000400D0D2D01904BDAAE
:10153000300D00210B9008460020C046032189058C
:101540000840002E05DA82008018C20F10184010E3
:1015500008408015012801DD0020C043A9000023B8
:10156000182906D39C460A460123183A1B07D34084
:1015700003E001221205CA4094460C31202902D30F
:101580003A46203900E032468A40002802DD002A2F
:1015900006D119E0002817D10121C9078A4213D3C7
:1015A000194663467F185E41002806D10120C00716
:1015B000824202D1084687439E430B98310D8142F7
:1015C00002D00198401C01902088000502D5714985
:1015D000794402E06F49794419396B460A98302200
:1015E0001A540A980A7C401C1A54401C0A9001980C
:1015F000002801DC302000E031201872019A01201F
:10160000002A02D0644BD21804E072003A4302D0A0
:10161000614A521C0192002D02DC2278120703D588
:101620006A462E20507202200022864694460CE024
:1016300032033601120F6D1E8B5C02AA13546246F0
:10164000521C401C9446052A01DA002DF0DC0022D1
:1016500002AE08E03B0F3F01CB5C521C6D1E3354C1
:10166000401C082A01DA002DF4DC23689A0601D513
:1016700011E0401E704504DD3218203AD27F302A36
:10168000F7D0002807DD3218203AD27F2E2A02D167
:101690001A0700D4401E002D03DD3E223254401CA8
:1016A0006D1E497C31540199401C002906DA2D2118
:1016B000471C315401984042019003E02B21471C04
:1016C000315401987D21C900884206DBFEF7F0FE07
:1016D0003030F0557F1C019101E0642808DB01984F
:1016E0006421FEF7E5FE3030F0557F1C019101E0EA
:1016F0000A2806DB01980A21FEF7DAFE3030F055A1
:101700007F1C01980A21FEF7D3FE3031F1550A986B
:10171000A1697F1C7A191018081AA0612078C006E8
:1017200002D42046FFF740F9216A6E460A9808184D
:10173000206204E062683078A168761C90470A98BD
:10174000401E0A90401CF5D12078C00602D52046E4
:10175000FFF72AF902AE09E03078761C3E280DD05A
:101760006268A1689047206A401C20627F1EF3D205
:101770002046FFF72FF90DB00320F0BD206A401975
:10178000206203E06268A168302090476D1EEDD3AF
:10179000F8E70000FBB0000001FCFFFF10B5436953
:1017A000002B02D0C046C04601E0FFF736F9012009
:1017B00010BD1278014624310A7000224A700122BD
:1017C000ECE711680022D243E8E710B54369002B2B
:1017D00002D0C046C04601E0FFF7B2F9012010BDBB
:1017E00012880146243182840022C2840122ECE75F
:1017F00011680022D243E8E7F8B516460C460546C4
:1018000000F0F8F80368FF200230C05C012807D020
:10181000FF2C0FD8185D00280CD001202C70F8BDCB
:10182000FF333246214608331868C718284600237C
:10183000B847F8BD0020C043F8BD01468008081A2B
:1018400002091018020A1018020C1018C0088200B1
:1018500012185200891A01E0401C0A390A29FBD2E9
:1018600070470000F8B5264C4E00069DA6420AD8E7
:10187000A64201D1002806D15E00A64203D8A642A6
:101880000AD1002A08D00D242404254233D0294649
:10189000002000F033FCF8BD0C461C4311D49942E3
:1018A00007D0C81A02D3EFF30080F8BDEFF3008031
:1018B000F8BD801A02D3EFF30080F8BDEFF300808B
:1018C000F8BD09242407E5008B4207D0581A02D33B
:1018D000EFF3008006E0EFF3008007E0101A03D377
:1018E000EFF30080A04303E0EFF30080A043284320
:1018F00080F30088F8BD009500F018FCF8BD0000EA
:101900000000E0FF10B5FF231B0644009C421DD8D9
:101910004C009C421AD80346124A0B4307D4401A83
:1019200002D3EFF3008010BDEFF3008010BD081A62
:1019300003D3EFF30080904305E0EFF30080012133
:101940009043C907084380F3008810BD0D231B0492
:101950001A4204D01146002000F0D0FB10BD00F068
:10196000EFFB10BD0000009010B5FF22C30D134027
:1019700009D05A4007D0914205DA5C42A14202DD0B
:10198000C905081810BDC40FE407002B06D0002AB3
:1019900006D0002902DBFF20C0050443204610BD0D
:1019A0004102FCD0004810BD0000C07F00487047D5
:1019B000A00320207546FFF7F9FFAE4605006946F3
:1019C0005346C008C000854618B020B5FEF770FC2D
:1019D00060BCB64600260027C0C5C0C5C0C5C0C58E
:1019E000C0C5C0C5C0C5C0C5403D490849008D46F9
:1019F0007047000010B500F005F8001D10BD00BFD5
:101A000049A8000000487047C0032020F8B51F46D1
:101A1000044601230068DB02032601461840072A1A
:101A200005DB002801D017A506E017A504E0002873
:101A300001D016A500E016A5102081432160A06901
:101A4000C01E002FA06101D0401EA0612046FEF7FD
:101A5000ABFF002F09D038466268A1689047206A22
:101A6000401C2062C01C206206E0206AFAE762681F
:101A70002878A1686D1C9047761EF8D22046FEF7A4
:101A8000A9FFF8BD4E414E006E616E00494E460002
:101A9000696E6600F7B516468AB0334878446C46DE
:101AA00003467C33C06F5A689B680DC42E48784447
:101AB000763003AC0DC80DC43720C001081837219B
:101AC0001B30FEF7F5FC05460C46803D1B3C02D55D
:101AD0006442012000E000200027099010E0E007A8
:101AE0000CD00C2020497843794432464C394118B7
:101AF0006846012300F054FA6B4607C364107F1C4C
:101B0000002CECD1184F7F442E3F16E0E80712D08E
:101B10002001C0190EC80691089307920068F04290
:101B200001D1981908903246012306A903A800F0B4
:101B300037FA03AB07C36D10641C002DE6D109987A
:101B4000002806D032466946012303A800F07EFA39
:101B500005E001233246694603A800F021FA0A9BFA
:101B600007C30DB0F0BD000044AC000003464000C8
:101B70000A4610B5400D0BD00121C9070F24A4025D
:101B800000191C0364082143540D2143D20207E0CD
:101B900000210120F2E7D40F490021435200401EEA
:101BA0000029F8DADB0FDB07184310BDFFB50D463F
:101BB000144685B0486851680AF00FF90091019009
:101BC000A868A1680AF009F902910390A868616801
:101BD0000AF003F9029A12188242029201D20120FD
:101BE00000E00020019A0B18D2180028019202D0C0
:101BF0008A4202D903E08A4201D2012000E000209B
:101C00000099081800906868A1680AF0E6F8029A3E
:101C100012188242029201D2012000E00020019AB3
:101C20000B18D2180028019202D08A4202D903E090
:101C30008A4201D2012000E000200099081800909B
:101C40002868216840004900400849084018FA49BE
:101C5000471814E001994000C90F0843009001980B
:101C600002994000C90F084301900298039940006F
:101C7000C90F08430290039840007F1E039000980C
:101C80000028E7DA0898002801D0EC4E00E0002692
:101C9000B74201DA012000E00020002804902AD099
:101CA000F71BF806C00E15D0029B2021091A039AD3
:101CB0008B401A430392029A019BC2408B401A4305
:101CC0000292019A009BC2408B4000991A430192F4
:101CD000C14000917B110DD06F460320C11A03D57E
:101CE00000218200B95003E08A008100BA587A507E
:101CF000401EF3D5374603980299002800D00120F2
:101D0000014308980291002808460CD0002800D012
:101D100001200199019A490508430121D20AC9020B
:101D2000D202019200E001210E9B0122D207012B79
:101D300002D0002B03D013E0002807D120E090420E
:101D400004D890420CD1019B0B4209D0019B591839
:101D5000019105D10099491C009101D17F1C00928D
:101D600000280DD0102108460020C0460498002805
:101D700006D00F98002803D0082108460020C0464E
:101D800028682168019B009A4840C10F0598C9073F
:101D900039430EC009B0F0BDFFB587B0099A089865
:101DA00008995368926840688968964600220393B0
:101DB00017469446089A12685300099A5B081268FD
:101DC000520052089A1A9E4BD4180A9A002A01D03F
:101DD000352200E04022069200220123154604929B
:101DE000DB07059324E0002D05D175460346039ECD
:101DF0004D1BB34109D375466646039B491B049DA1
:101E00009841059B7519AC465F4163463B4308D03A
:101E1000059B049EDD0776082E435B080496059318
:101E200001E0521E641EC50FED0749184041521CC7
:101E3000069B9A42D7DB002D04D17546039A6B1A94
:101E4000824101D203200CE0039A0B466B404240D2
:101E5000134303D0014303D0012002E0022000E03D
:101E60000020614601910021009702910A99002902
:101E700005D0614640020143704B019102E08007AA
:101E8000002302909C4201DA012000E000200700BC
:101E90003AD01A1BD006C00E15D0029D2021019CFD
:101EA000091AC5408C402543029C8C4000D0012477
:101EB0002543019C0295009DC4408D4000992C4310
:101EC0000194C140009154111DD06D4602210022A1
:101ED00002290CD10320001B07E0002804DB860048
:101EE000AE59002E00D00122401C0328F5DB081B50
:101EF00002D588002A5004E08000285810438A0048
:101F0000A850491EE3D51C460A98002802980CD018
:101F1000002800D001200199019A490508430121B8
:101F2000D20AC902D202019200E00121109B0122D3
:101F3000D207012B02D0002B03D013E0002807D1D9
:101F40001FE0904204D890420CD1019B0B4209D073
:101F5000019B5918019105D10099491C009101D1AB
:101F6000641C009200280CD0102108460020C046B6
:101F7000002F06D01198002803D008210846002021
:101F8000C04608980999019A009B00680968484072
:101F9000C10F0798C907214382600AC00BB0F0BD8A
:101FA00000B585B0019300920A460146002302A8BD
:101FB000FFF7FCFD02A807C805B000BDFFB50A4643
:101FC0001F4685B00799019301230091014602A89D
:101FD000FFF7ECFD02990398049ECA0F4900D2074F
:101FE00000920F22490892028C1A0021002800DB7F
:101FF0000C46450013486D08844214D3079A002A02
:1020000004DA441E0026104DF64302E004460D4655
:102010000E46102108460020C046002F03D00421A0
:1020200008460020C0462005E90A084300990843F5
:102030006905F20A1143ADE602C0FFFF013C000052
:10204000FF3F0000FF070000FFFFFF7F00B585B0E6
:10205000019300920A460146002302A8FFF79CFE66
:1020600002A807C8A8E7FFB50A461F4685B007992A
:10207000019301230091014602A8FFF78DFE02990A
:102080000398049ECA0F4900D20700920F22490804
:1020900092028C1A0021002800DB0C4645001148F2
:1020A0006D08844214D3079A002A04DA441E0026DD
:1020B0000D4DF64302E004460D460E46102108463B
:1020C0000020C046002F03D0042108460020C0464F
:1020D0002005E90A0843009908436905F20A1143FB
:1020E00058E60000FF070000FFFFFF7F10B5044621
:1020F000C046C0462046FEF7B1F810BDC80212D552
:102100004803400F002804D0C803C0430121884081
:102110007047EFF30080000100090321090708431D
:1021200080F30088704700207047000010B5002041
:102130000249029A00F064F810BD00000000F87F28
:1021400010B5024800F05CF810BD00000000C07F30
:1021500082078B079A423FD170B5920F0AD00324B1
:1021600002780B78401C491C002A33D09A4231D1A6
:102170002042F5D1214EF40104C808C9951B9543AE
:10218000254018D19A420FD104C808C9951B954320
:10219000254010D19A4207D104C808C9951B954320
:1021A000254008D19A42E7D012BA1BBA01209A42C0
:1021B00000D2404270BD12BA1BBA2DBA18241000CA
:1021C000E0401900E140401A05D12E00E64002D15E
:1021D000083CF4D1D01A70BD02780B78401C491C21
:1021E000002A09D09A4207D102780B78401C491C7A
:1021F000002A01D09A42EFD0D01A704701010101A4
:1022000010B50C461107090F092904D00A290AD074
:1022100008290CD104E011460820FFF76FFF06E003
:10222000510606D501E0510601D50120C00721461F
:1022300010BDD10607D501010909CC084907000ED8
:102240000006044309E0410F20024907000A014348
:10225000200E00061D22D14101430846E7E7000099
:1022600001491820ABBEFEE726000200704770B59A
:102270008C180578401C6B075B0F01D10378401C5C
:102280002A1106D10278401C03E00678401C0E702B
:10229000491C5B1EF9D12B0705D40023521E0DD417
:1022A0000B70491CFAE70378401CCB1A921C03E020
:1022B0001D780D70491C5B1C521EF9D5A142D8D364
:1022C000002070BD811E091F00BFFCD2704784B082
:1022D0000390029101920398006800900098019980
:1022E0008843009000980299019A1140084303998D
:1022F000086004B0704783B00091014600980291D5
:1023000001A90870029809780901411809204202C0
:10231000885802231843885003B0704770B50B01EA
:10232000C31854689568254394892C4315695669E8
:102330002543D48924012C43350125430924640213
:102340001D51137852781A43BF231A408900401850
:10235000024944589C43A218425070BD101100001D
:1023600084B0009202460098039202AA1170019074
:1023700001980399127812018918024A885004B012
:102380007047C0460812000084B0009202460098D0
:10239000039202AA11700190019803991278120118
:1023A0008918024A885004B07047C04604120000E1
:1023B00085B000920A460099019202460198049263
:1023C00003AA107002A801800088049912781201F3
:1023D0008918024A885005B07047C0460C120000A8
:1023E00082B001900091009B0199094A88581843D6
:1023F000885002B07047C04682B001900091009BA7
:102400000199034A88581843885002B07047C04663
:102410004810000082B00190009100980199952227
:102420005201885002B0704782B00190009100982C
:10243000019995225201885002B0704782B00190F4
:1024400000910098019995225201885002B070477E
:1024500082B0019000910098019995225201885014
:1024600002B0704782B001900091009801999522C6
:102470005201885002B0704781B0009000988100EE
:10248000664A885801235B061843885001B070479C
:1024900081B0009000988100604A885801235B0653
:1024A0001843885001B0704782B001900091009BA2
:1024B0000199034A88581843885002B07047C046B3
:1024C0002810000082B00190009100980199074AFD
:1024D000885002B07047C04682B0019000910098C9
:1024E0000199024A885002B07047C046D0120000DD
:1024F00081B0009000990120C202D848885001B0F4
:102500007047C04682B0019000910198024940583E
:102510000099084002B070473810000081B0009068
:10252000009881003D4A1848885001B07047C04665
:1025300010B584B0069C039002910192009302981A
:102540000199084300990843069908430E49084336
:1025500003998900314A885004B010BD10B584B089
:10256000069C0390029101920093029801990843FE
:1025700000990843069908430349084303998900D1
:10258000264A885004B010BD8100040081B000903C
:1025900000988100214A8120885001B07047C046D0
:1025A00081B00090009881001C4A8120885001B0C1
:1025B0007047C04682B001900091009810490843CE
:1025C00001998900154A885002B0704710B584B04F
:1025D000079C069C03900291019200930298019936
:1025E000084300990843069908430799084304499A
:1025F000084303998900094A885004B010BDC046B9
:102600008000040082B0019000910098802108436E
:1026100001998900014A885002B070470480424005
:1026200082B00190009101982721C901405800997A
:10263000084002B0704782B00190009101982721B4
:10264000C90140580099084002B0704782B001901B
:10265000009101982721C90140580099084002B013
:102660007047000081B000900099A24AA2488850AB
:1026700001B0704782B001900091009B0199034A1C
:1026800088581843885002B07047C0469013000025
:1026900082B00190009100980199114A885002B0CF
:1026A0007047C04682B001900091009801990C4A91
:1026B000885002B07047C04682B0019000910098E7
:1026C0000199074A885002B07047C04682B0019015
:1026D000009100980199024A885002B07047C046A4
:1026E0009012000081B000900099092042028858A1
:1026F00001231B021843885001B0704781B000903D
:102700000099084A885801231843885001B070473F
:1027100081B000900099034A8858042318438850D8
:1027200001B070472812000081B00090009901208C
:10273000C2024A48885001B07047C04681B000903C
:1027400000996C4A6C48885001B0704781B0009085
:102750000099024A0020885001B07047141200000E
:1027600080B584B0019101460198039102A90880C7
:102770000398092252028018098803225202FFF7A7
:10278000A6FD04B080BD70B50A780C231A40012460
:10279000240305196E689E43B2186A6049780722BF
:1027A0001140035993435918015170BD80B584B04D
:1027B000019101460198039102A9088003980D4AEE
:1027C0008018098807221202FFF781FD04B080BD3E
:1027D00080B584B0019101460198039102A9087067
:1027E0000398044A801809780722FFF770FD04B0A7
:1027F00080BDC0463812000082B00190684601706A
:1028000000780199014A885002B0704724120000F4
:1028100082B0024601A8027000910178302048433E
:10282000024940580099084002B0704710114040DA
:1028300081B000900099034A8858012318438850BA
:1028400001B070470411000081B000900099012090
:10285000C202AE48885001B07047C0460100002651
:10286000B0B51122120283580C4C1C400B894D88C4
:102870001D438B792B430A4D1D402B1983508B88A8
:10288000CC791C43097821435D239B0019408018B3
:1028900042689A4389184160B0BDC04680CCFFFFB2
:1028A0007F33000081B00090009808494058102103
:1028B0000840000901B0704781B0009000980349BA
:1028C000405804210840800801B0704710110000F2
:1028D00081B00090009802494058C0B201B07047E2
:1028E0003011000081B000900099024A02488850DF
:1028F00001B0704704080000030000B180B582B049
:10290000019000910198754940180099024AFFF71B
:10291000DEFC02B080BDC046FF03000010B50122FE
:10292000120383180C785C604978815010BD000058
:1029300080B584B000920A4601460098039102A92E
:102940000A7001AA10700398044BC0180978127815
:1029500011433F22FFF7BBFC04B080BD0C11000007
:1029600082B0019068460170007801994522920179
:10297000885002B070470000F0B584B001242202F4
:102980002A4B19680392914319604F490D686D04F1
:10299000FCD5457E25409E69A64374199C61202480
:1029A000045D03252C40DE69AE433419DC61204C04
:1029B000256805262660466A37681F6276685E626B
:1029C00007262E402660C4697F252D02DE69AE43AE
:1029D0006406640C3419DC610768456882680092FB
:1029E000C66802690192426902929A69114C1440C8
:1029F0003A07120B2D03ADB2AA183243009D2D07E2
:102A00002D0D1543019A1543029A1543007E284364
:102A1000094A0240101998611868039A1043186017
:102A200008688005FCD504B0F0BDC04608010B4025
:102A3000001340408D00F0FF72FF0F0081B001468F
:102A40006846017000780249086001B07047C046CE
:102A500008030B4080B582B0014601A801800188BF
:102A60000F2002021748FFF732FC02B080BDC046BB
:102A700080B582B0014601A80170017802480322A6
:102A8000FFF725FC02B080BD00010B4080B582B08D
:102A9000014601A8017001780A483022FFF717FCAF
:102AA00002B080BD07498860074802689202FCD5E1
:102AB000012212040B6813430B600168C906FCD5A0
:102AC0007047C04604010B4004020B4081B00090E7
:102AD0000099024A0120885001B070470811000097
:102AE00082B001900091009B0199D44A8858184304
:102AF000885002B07047C04681B000900099012014
:102B0000C202D448885001B07047C0460100002678
:102B1000F0B5A64A82183B4BC31808794E793A4D56
:102B2000774C002E23D0202804D00526F60100285B
:102B300003D003E0354E002800D18826576F2F4080
:102B400037435767976F2F4037439767566B264039
:102B50005663966B264096630026566596658F26CB
:102B6000F6435F6837405F609F6837409F608E79AB
:102B7000096820280BD0002819D1491E5160D76E52
:102B80002F4088210F43D7661746703719E0491E3A
:102B90005160D16E29401D4F3943D166116F2940D4
:102BA0003943116701214907194D174609E04908C2
:102BB0005160D76E2F400521C9010F43D7661746D4
:102BC00070373C682C400C433C60D16A4C4C21402F
:102BD000D162116B214011630021D16411658F21F5
:102BE000C943D46F0C40D4671C680C401C6006437A
:102BF000BD2030401168074B0B40C018801C10608E
:102C0000F0BDC0468418000024493E0001040000C5
:102C1000FFFFFFCF4000FFCFB0B54A68364BC25030
:102C2000624A80180A78222A58D8930001A4E358EF
:102C30009F46C046D32C0000DD2C0000D32C0000A2
:102C4000DD2C0000DD2C0000DD2C0000DD2C000060
:102C5000DD2C0000DD2C0000DD2C0000DD2C000050
:102C6000DD2C0000DD2C0000DD2C0000DD2C000040
:102C7000DD2C0000C12C0000DD2C0000C12C000068
:102C8000DD2C0000DD2C0000DD2C0000DD2C000020
:102C9000DD2C0000DD2C0000DD2C0000DD2C000010
:102CA000DD2C0000DD2C0000DD2C0000DD2C000000
:102CB000DD2C0000C12C0000DD2C0000C12C000028
:102CC00003231B0704689C4301235B07E31803608D
:102CD00004E003231B0704689C4304600B69C36082
:102CE000CB68064C1C40C36A054D1D402B19C362BE
:102CF000097A11430160B0BD08180000777702001F
:102D00008888FDFF81B0009000997B4A7B488850FD
:102D100001B0704782B00190009100980199112292
:102D20001202885002B0704710B507239B04194067
:102D300092008018024A84589C436118815010BD4B
:102D40003018000010B5029CA4000019114319436B
:102D5000014A815010BDC0465018000092008018F2
:102D6000014A81507047C0461018000010B501227A
:102D7000120383180C789C604B7883508978914AB1
:102D8000815010BD81B000900099084A88580123F5
:102D90001843885001B0704781B000900099034AF1
:102DA000885801239843885001B0704704180000E8
:102DB00082B00190009100980199074A885002B0B2
:102DC0007047C04682B00190009100980199024A74
:102DD000885002B07047C0464810000081B0009093
:102DE000009911200202885801231843885001B02D
:102DF0007047000081B0009000990120C002024A93
:102E0000885001B07047C0468810000081B0009023
:102E1000009911200202885801235B04184388504E
:102E200001B0704782B001900091009B0199034A64
:102E300088581843885002B07047C04628100000D8
:102E400081B0009000990120C2020248885001B070
:102E50007047C0460100002681B000900098812193
:102E600049014058C0B201B0704781B0009000984D
:102E7000812149014058C0B201B07047B0B511225C
:102E8000120283580124A34383500B888C781C437F
:102E90008B882343094C1C408358094D1D406319FE
:102EA00083508B79CC791C43097A21437E231940C6
:102EB000801842689A4351184160B0BD18670000FD
:102EC000E798FDFF81B00090009806494058C0B2D5
:102ED00001B0704781B00090009802494058C0B2DC
:102EE00001B070472411000081B000900099024A9F
:102EF0000248885001B0704704080000030000B188
:102F000080B584B003900291019203980B49401858
:102F100002990B4AFFF7DBF903980A494018019917
:102F20003F22FFF7D4F90399074A881889580122EC
:102F30001140FFF7CCF904B080BDC046101100006D
:102F4000FFFF0000141100000411000010B5012261
:102F5000120383180C789C604978815010BD80B5AD
:102F600082B0019000910198112109024018009946
:102F70000322D203FFF7ABF902B080BD80B584B065
:102F8000019101460198039102A9087003980D4A26
:102F9000801809787022FFF79AF904B080BDC04606
:102FA00080B584B0019101460198039102A908708F
:102FB0000398044A801809780722FFF788F904B0BB
:102FC00080BDC0460C110000034A8018026812063A
:102FD000FCD481617047C0460811000080B584B000
:102FE00001200221FFF714FC002800D18CE04748A3
:102FF0001021FFF787FA00281CD0FFE74348102173
:10300000FFF7FAF903A8052101700078082810DC01
:10301000FFE703A8007881003D484058002808D009
:10302000FFE703A8007881003948405802F01AFDF4
:10303000FFE7FFE735482021FFF764FA00281CD09E
:10304000FFE732482021FFF7D7F902A806210170D7
:103050000078082810DCFFE702A8007881002C48DF
:103060004058002808D0FFE702A8007881002848CF
:10307000405802F0F7FCFFE7FFE724484021FFF744
:1030800041FA00281CD0FFE720484021FFF7B4F99F
:1030900001A8072101700078082810DCFFE701A8CB
:1030A000007881001A484058002808D0FFE701A89E
:1030B000007881001648405802F0D4FCFFE7FFE793
:1030C00012488021FFF71EFA00281CD0FFE70F48A6
:1030D0008021FFF791F968460821017000780828DF
:1030E00010DCFFE768460078810009484058002856
:1030F00008D0FFE76846007881000548405802F094
:10310000B1FCFFE7FFE7FFE704B080BD00200A4005
:103110007C07202080B582B00B4800F017F801A88A
:1031200001210170002141708170827869468A70A6
:10313000027840780002801808800099032003F08C
:10314000CCFB72B6FFE7FEE740C8000083B080B555
:1031500083B0079306920591029005A80190029909
:10316000019A012002F09EFF03B080BC01BC03B0B5
:103170008646704780B582B00021019108480068FA
:1031800001AA07F045FDFFE70198002805D0FFE7F9
:103190000120000703490860FFE7FFE702B080BD98
:1031A0006438202004ED00E0000000000000000072
:1031B000EFF309800E4B1A6820381060F0C04446C7
:1031C0004D4656465F46F0C008B572B607F05EFE43
:1031D00062B60CBC116808681030F0C8A046A94659
:1031E000B246BB4680F309882038F0C81847C0466D
:1031F000080B202010B59CB01B9008F01FFB199005
:103200000520189000201790FFE71798082867DC22
:10321000FFE7179818214143964840188068002816
:103220002ED0FFE717981821414392484018806834
:10323000052108F0D7FCFDF77AFA08900B910022DF
:1032400009928D4B0A9308F0DBFE0B9900280C9134
:1032500001D10A980C9008980A9B099A0B990C9C2A
:10326000059408F0CDFE01460898069100290790C4
:1032700001D106980790059807990391049004E0FE
:103280007D48002103910490FFE703980499FDF71E
:1032900001FA0246179818210B4643437548C31894
:1032A000DA60179A514340188068052807D8FFE76D
:1032B0001998401E17998A006D4988500BE019989B
:1032C000179918234B436B4AD218D268801A8A0088
:1032D00067498850FFE7FFE71798401C179094E76D
:1032E00008F0ACFA1A90FFE708F0A8FA1690002050
:1032F0000290159014A908701AA8052108F0DCF9AD
:1033000008F09CFA0146029813911290FFE7129878
:1033100008286BDCFFE712981821414355484018F4
:10332000407800285DD1FFE71298182141435148A9
:1033300040184068002854D0FFE7139812998B007A
:103340004B4AD258801A18224A434A498918C968F8
:10335000884245DBFFE708F071FA119012981821B6
:10336000009141434348019040184068804708F06D
:1033700065FA0099024601981092109A119BD21A90
:10338000129C0B466343C3181A61129B0A465A43A8
:1033900082181369159AD2181592149A521C14ABFC
:1033A0001A70129A5143411808698968490888427D
:1033B0000AD9FFE71298182141432E4841180120ED
:1033C0000875FFE7FFE7FFE71298182242432949F3
:1033D0008918CB68820026498858C0188850FFE7B2
:1033E000FFE7FFE71298401C129090E708F026FADA
:1033F0000F900F981699401A0E901598062836D3FC
:10340000FFE7FFE7FFE7FFE7FFE700200D90FFE79B
:103410000D98082828DCFFE713980D998B00144AB3
:10342000D258801A18224A4312498918C96888421A
:1034300015DBFFE70D98182141430E4840184078EE
:1034400000280CD1FFE70D98182141430948401886
:103450004068002803D0FFE7FFE7FFE7FFE7FFE74B
:103460000D98401C0D90D3E7FFE7FFE7FFE73BE730
:1034700000042020680120200000F03F80B582B0C9
:103480000190019800F050FA0199C8680969FEF7A7
:10349000E9FF019908684968FEF7E4FF00F017F8B2
:1034A0000199C8680969FFF711F900F010F801994E
:1034B000C8680969FEF7D6FF00F009F801990868A5
:1034C0004968FFF703F9FFE7FFE702B080BD80B569
:1034D000012001F032FF80BD80B582B001900198DB
:1034E000002803D1FFE7FFE7FFE718E001988068B5
:1034F0000021009101235A04DB04FFF72FF8019803
:103500008068FEF7C5FF0199C8680969FFF7DEF812
:10351000019908684968FFF7D9F8FFE7FFE702B0AB
:1035200080BD80B582B00190019800F0FDF901994D
:10353000C8680969FEF796FF019908684968FFF7AE
:10354000C5F8FFF7C4FF0199C8680969FFF7BEF81D
:10355000FFF7BDFF0199C8680969FEF783FFFFF710
:10356000B6FFFFE7FFE702B080BD80B586B00590EB
:1035700004A8017002A9002001900870059800F0CD
:10358000C1F9059908684968FFF7A0F8019803A9EF
:103590000870FFE703A80078072828DCFFE70599F3
:1035A000C8680969FEF75EFFFFF791FF0599C868D3
:1035B0000969FFF78BF80298400002A90870059985
:1035C00008684968FFF742F8059949680840884249
:1035D00005D1FFE70298401C02A90870FFE7FFF73A
:1035E00076FFFFE70398401C03A90870D2E705990E
:1035F000C8680969FEF736FF04A80078002804D1DE
:10360000FFE70598FFF78DFF03E00598FFF736FF0A
:10361000FFE7FFE7FFE702A8007806B080BD10B51E
:1036200086B0089C049003A8017002A8027001A84B
:1036300003700498002809D0FFE70898002805D0F7
:10364000FFE701A80078002806D1FFE7FFE7FFE7C2
:1036500005A90120087074E0049800F0BCF80498F3
:1036600003994900C9B200F070F8FFE7FFE704983A
:1036700000F0FBF8012809D1FFE7FFE7FFE7049816
:1036800000F0CFF805A9022008705AE0049802A9BA
:10369000097800F05AF8FFE7FFE7049800F0E5F832
:1036A000012809D1FFE7FFE7FFE7049800F0B9F828
:1036B00005A90220087044E0049800F08CF80498F2
:1036C00003994900491CC9B200F03FF8FFE7FFE742
:1036D000049800F0CAF8012809D1FFE7FFE7FFE7E7
:1036E000049800F09EF805A90220087029E0FFE781
:1036F00001A8007800281BD0FFE701A80078012866
:1037000007D1FFE704980021FFF72FFF0899087001
:1037100006E004980121FFF728FF08990870FFE7E9
:103720000198401E01A908700898401C0890DFE726
:10373000049800F076F8FFE7FFE705A9002008707D
:10374000FFE705A8007806B010BD80B584B00390EF
:1037500002A80170039800F0E7F80399C8680969A6
:10376000FEF780FE01A900200870FFE701A800789D
:1037700007282CDCFFE702A80078C009002806D043
:10378000FFE7039908684968FEF7A0FF05E0039981
:1037900008684968FEF766FEFFE70298400002A944
:1037A0000870FFF794FE0399C8680969FEF78EFF59
:1037B000FFF78DFE0399C8680969FEF753FEFFF70E
:1037C00086FEFFE70198401C01A90870CEE7FFE7DD
:1037D000FFE704B080BD80B582B00190019800F091
:1037E000A3F8019908684968FEF770FFFFF76FFEBC
:1037F0000199C8680969FEF769FFFFF768FE01993A
:1038000008684968FEF72EFEFFF761FE0199C86857
:103810000969FEF727FEFFF75AFEFFE7FFE702B050
:1038200080BD80B582B00190019800F07DF80199CB
:10383000C8680969FEF716FE019908684968FEF72D
:1038400011FEFFF744FE0199C8680969FEF73EFFC3
:10385000FFF73DFE019908684968FEF737FFFFF75B
:1038600036FEFFE7FFE702B080BD80B584B002906E
:1038700000200190029800F045F802990868496814
:10388000FEF724FF0299C8680969FEF7EBFDFFF710
:103890001EFE0299C8680969FEF718FFFFF717FEB8
:1038A000FFE7029908684968FEF7D0FE0299496867
:1038B0000840884215D1FFE70198401C019001980B
:1038C000FF212E31884209D3FFE7FFE7FFE7029887
:1038D000FFF7A7FF03A9012008700FE0FFF7F7FD2E
:1038E000DFE70299C8680969FEF7BCFDFFF7EFFD45
:1038F000FFE7FFE703A900200870FFE703A80078AF
:1039000004B080BD80B582B001900198806800212C
:10391000009101235A04DB04FEF720FE0198806821
:10392000FEF7B6FD02B080BD80B582B0019001986F
:103930008068FEF735FE019908684968FEF7CCFDFE
:1039400002B080BD7047000080B5034A03480021E3
:10395000FEF7E4FC80BDC046A8C7000000A04240BE
:1039600080B5FFF7F1FF80BD80B592B01E20072122
:103970000391FEF747FE01200990810364481090EF
:10398000FEF7A0FD039808210491FEF73BFE049981
:1039900060480D90FEF796FD0D2004210591FEF77D
:1039A00031FE0D988021FEF78DFD049802210691CD
:1039B000FEF728FE0D9810210891FEF783FD05986B
:1039C0000699099A00230A930193D2040C9200925B
:1039D0001A46FEF7FBFD06990A9B0C98019300908E
:1039E000032007901A46FEF7F1FD0598FEF744FD07
:1039F0000798FEF741FD06991420FEF703FE06998D
:103A00001520FEF7D7FD06990E20FEF7FBFD06995F
:103A10000F20FEF7CFFD07992620FEF7F3FD07994B
:103A20001F20FEF7EFFD07992520FEF7C3FD3B2081
:103A3000FEF7ACFD1220FEF7A9FD1320FEF7A6FD50
:103A40002020FEF7A3FD2A20FEF7A0FD2F20FEF781
:103A50009DFD0898FEF762FD1120FEF75FFD162020
:103A6000FEF75CFD1720FEF759FD09980A990C9B9B
:103A7000009142040B921C20FEF75AFD0A990B9A02
:103A80000C9B00911820FEF753FD0A990B9A0C9B92
:103A900000911920FEF74CFD0A990B9A0C9B00919E
:103AA0001A20FEF745FD0A990B9A0C9B00911B20EA
:103AB000FEF73EFD0B20FEF769FD3820FEF766FDA0
:103AC0003920FEF763FD3120FEF760FD0D981249A5
:103AD0000E91FEF79FFC0D980E99FEF7F3FC1098DF
:103AE0000E490F91FEF796FC0F991098FEF7EAFC2D
:103AF0001098FF210902FEF7BDFD1098F0211191E9
:103B0000FEF76EFC10981199FEF7CEFC12B080BD46
:103B100000200A4000000A40000300080100530C86
:103B200080B582B01249E3480190FEF72CFE01985F
:103B300003214902FEF714FE0198FEF7D3FD019818
:103B4000FEF704FE01980421FEF756FE01980021BD
:103B50000091FEF73DFE00990198FEF727FE0198BF
:103B6000FEF7D6FD0198FEF7C9FD02B080BDC04644
:103B7000C0C7000080B584B01B49CB480390FFF755
:103B8000F5F803981949FEF7C3FF03980023019342
:103B9000009319461A46FFF7D5F8019A0398114683
:103BA000FFF7C2F8019A03981146FFF7D7F8019B77
:103BB000039801210291009119461A46FFF7C2F8B5
:103BC0000199029A0398FFF7AFF80199029A0398B6
:103BD000FFF7C4F80398FEF779FF03980321FFF776
:103BE00099F804B080BDC046C2C70000C8C7000035
:103BF00080B584B01B49AD480390FFF7B7F8039830
:103C00001949FEF785FF0398002301930093194695
:103C10001A46FFF797F8019A03981146FFF784F8C0
:103C2000019A03981146FFF799F8019B0398012127
:103C30000291009119461A46FFF784F80199029AF9
:103C40000398FFF771F80199029A0398FFF786F835
:103C50000398FEF73BFF03980321FFF75BF804B0DE
:103C600080BDC046D0C70000D4C7000080B582B078
:103C70000B4991480190FEF751FE01980949FEF762
:103C8000EFFD01982721FEF739FE0198102102224D
:103C9000FEF74EFE0198FEF7CBFD02B080BDC04698
:103CA000DCC70000DEC7000080B582B000200190B4
:103CB000FEF7C4FE01204002FEF7CCFE0198FEF79D
:103CC000D7FE0548FEF758FE1020FEF7DFFE0198EC
:103CD000FEF7E8FE02B080BDE8C7000080B582B004
:103CE000084973480190FFF741F801980649FEF72B
:103CF00093FF01980121FEF7F3FE0198FEF7E6FE1F
:103D000002B080BD10C8000014C8000080B582B0A9
:103D10001449A3480190FFF719F901981249FFF7D8
:103D2000ADF801980021FFF71AF9019815212D220D
:103D3000FFF7E6F8019845218902FFF773F801982B
:103D4000FFF758F80198FFF761F801987021FFF725
:103D500015F901980721FFF723F90198FFF73EF8BD
:103D600002B080BD28C800002AC8000080B582B01B
:103D70001049F2480190FFF7E9F801980E49FFF762
:103D80007DF801980021FFF7EAF801984121C90068
:103D90003522FFF7B5F8019801218902FFF742F8B3
:103DA0000320022100F030FA0198FFF717F802B063
:103DB00080BDC04634C8000036C8000080B500F0A1
:103DC00029F8FFF7D1FDFFF76FFFFFF7D3FEFFF7ED
:103DD0000FFFFFF783FFFFF7A3FEFFF797FFFFF744
:103DE000C5FFFFF743FFFFF7BBFD0649B8220020E0
:103DF00088540549885405492C22885404492422B2
:103E0000885480BDA4052020880620204407202057
:103E10006006202080B58AB021480190FEF722FC80
:103E200020480290FEF71EFC1F480390FEF76AFF31
:103E30001E480490FEF766FF1D480590FEF762FFDE
:103E40001C480690FEF77AFC55480790FFF74CF89F
:103E5000BA480890FFF748F817480990FEF742FD66
:103E60000198FEF745FB0298FEF742FB0398FEF728
:103E700043FE0498FEF740FE0598FEF73DFE0698C7
:103E8000FEF752FC0798FEF7DBFF0898FEF7D8FF15
:103E90000998FEF7D9FC1020FEF714FA0AB080BD8D
:103EA00000000A4000200A4000008640000009404F
:103EB0000020864000200F4000A0464080B582B020
:103EC0000C499E4800900522019206F061FBC82033
:103ED00001F00AFA0098019A074906F059FB0748D1
:103EE00001F002FA0098019A054906F051FB02B070
:103EF00080BDC0466E00202064002020B80B00006A
:103F00006900202010B505F067FF044607F09AFC11
:103F1000002803D00120000724490860204606F04D
:103F200009FC10BD80B584B01D48FEF795FF014621
:103F300002A80170007801900B2808D0FFE70198D3
:103F40000D2810D0FFE70198112813D013E0144872
:103F5000FEF7B8FF03A908701348006800231A464B
:103F600007F0E3F908E00F4800680022114606F068
:103F70004FFE01E000E0FFE702A801780848FEF7E5
:103F800017FFFFE707480068002805D0FFE701207A
:103F9000000706490860FFE7FFE704B080BDC046A0
:103FA00000801040DC122020D012202004ED00E020
:103FB00080B590B061480B90FEF757FF01460B9813
:103FC0000FAA1170FEF786FF0EA908705C48007BEF
:103FD0000C90002808D0FFE70C9801280ED0FFE7CE
:103FE0000C9802281AD0A2E00EA80078552804D117
:103FF000FFE7534901200873FFE798E00EA8007817
:10400000532806D1FFE74E4902200873002048815B
:1040100003E04B4900200873FFE788E00E99484809
:104020004289531C43818154408909287ED1FFE78E
:1040300043490A9148780A788018CA7880188A78A3
:1040400080184A7980180A798018CA7980188A7984
:104050008218A8320DA802700078097A884261D1CE
:10406000FFE7374809900088FCF788FC0721C9065C
:1040700008F0F6F93349089108F0F2F90899024678
:1040800009980261006907F0E7FF002809D1FFE7FE
:104090002B48079000692C4908F01EF90799086120
:1040A000FFE7274806904088FCF768FC0721C9060F
:1040B00008F0D6F92349059108F0D2F9059902468E
:1040C00006984261406907F0C7FF002809D1FFE761
:1040D0001B48049040691C4908F0FEF804994861A7
:1040E000FFE7174803908088FCF748FC0721C906C2
:1040F00008F0B6F91349029108F0B2F902990246A4
:1041000003988261806907F0A7FF002809D1FFE7C3
:104110000B48019080690C4908F0DEF8019988612C
:10412000FFE7FFE7064900200873FFE7FFE70FA856
:1041300001780248FEF746FE10B080BD00005040F6
:1041400020012020000034430000B4C384B0039158
:104150000290039802994A1E9141084301900199E7
:104160000120C00781430248401AC00F04B07047C5
:104170000000F07F81B0009000990120C0078143CA
:10418000FF20C005401AC00F01B0704781B0014642
:104190006846017000214056002809D4FFE76846B0
:1041A00001781F2001400120884016490860FFE780
:1041B00001B0704781B00146684601700021405649
:1041C000002809D4FFE7684601781F20014001203C
:1041D00088400C490860FFE701B0704781B0014694
:1041E0006846017000214056002809D4FFE7684660
:1041F00001781F2001400120884002490860FFE744
:1042000001B0704700E100E070B582B0024601A83D
:104210000270009100214056002816D4FFE70024C8
:1042200001A908570322D3431840174A8058095759
:104230008C07E50EFF24AC40A043009CA401E4B22F
:10424000AC402043194088501AE001A908780F2497
:10425000204008380322D34318400A4A80580025DA
:1042600049578D07EE0EFF25B540A843009DAD01CF
:10427000EDB2B54028432140083919408850FFE786
:1042800002B070BD1CED00E000E400E010B584B0A9
:10429000029036485221405C002804D1FFE703A970
:1042A000002008701CE0029B3048019050210091D2
:1042B000425CD400021904591C6052685A60405C88
:1042C000401C0A21FCF7E6F8009A08460199885438
:1042D0005222885C401E885403A901200870FFE721
:1042E00003A8007804B010BD80B586B004AA107091
:1042F00003911E485221405C0A2804DBFFE705A910
:10430000002008701DE0049A184802905121019184
:10431000435CDB00C254039A435CDB00C3185A6061
:10432000405C401C0A21FCF7B5F8019A0846029946
:1043300088545222885C401C885405A901200870CA
:10434000FFE705A8007806B080BDC04607495022A7
:104350000020885451228854522288547047C04605
:1043600002485221405C41424841704728042020C5
:1043700080B584B00290FFF7E9FF029800F0BCFB23
:1043800002995022885401A900200870FFE701A873
:10439000007802995022895C884216DAFFE7029879
:1043A00001A90978CA008118805C4968FFF79CFF61
:1043B000002804D1FFE703A90020087009E0FFE707
:1043C0000198401C01A90870E1E703A901200870C9
:1043D000FFE703A8007804B080BD000082B0019020
:1043E00000910B48007803280FDCFFE7019808498B
:1043F0000A78D300074AD05000980B78DB00D21817
:1044000050600878401C0870FFE702B07047C04653
:104410007C0420202408202080B586B02F48007816
:10442000002801D1FFE756E007F008FA059005984B
:104430002B490968401A01902A4802887D20C10052
:104440000846504307F0CEFB01460198884242D30C
:10445000FFE705982249086023480078002812D118
:10446000FFE72448827804A98A7002784078000225
:1044700080180880049801F0C7FD00F08DF81A49F3
:104480000120087026E003A800210091017041700E
:104490008170827802A98A700278407800028018C0
:1044A0000880029801F0B0FD00F06EF800980E4907
:1044B00008700E480178491C017000780C49097891
:1044C000884206DBFFE705490020087007490870AD
:1044D000FFE7FFE7FFE706B080BDC0467E0420206F
:1044E000A0072020000020207C0520206D05202032
:1044F0007D0420207300202083B00190009101985A
:104500000099884203DDFFE7009802900CE00198D3
:1045100000994942884204DAFFE70098404202903D
:1045200002E001980290FFE7029803B0704780B55F
:1045300086B005900491059901918869C96907F0D1
:10454000CBFE0199096A07F0C7FE0199086005983A
:10455000039081690291006A0321890707F080FFB7
:10456000029907F0E1FF039948600599086A88609D
:104570000498002806D0FFE70599002048610861EB
:10458000C860FFE706B080BD80B50120C1060648BF
:10459000FDF754FF80BDC04680B50120C10602482A
:1045A000FEF780F880BDC04600000A4080B584B0A8
:1045B000039007F043F90290029811490968401AE4
:1045C00064281AD3FFE7039801900198294988428B
:1045D00003D1FFE703F0A6F809E0019825492C3143
:1045E000884203D1FFE703F07FF8FFE7FFE7FEF71C
:1045F000C1FD029802490860FFE704B080BDC046D3
:104600008004202080B582B001900198009000982D
:104610001849884203D1FFE703F084F825E00098A9
:1046200014492C31884203D1FFE703F05DF81BE009
:10463000009810495831884203D1FFE701F090FA01
:1046400011E000980B498431884203D1FFE702F062
:10465000C1FF07E000980749B031884201D1FFE768
:10466000FFE7FFE7FFE7FFE7FFE7FEF783FD02B0A5
:1046700080BDC0468404202080B582B0019001989E
:10468000FDF720FE02B080BD80B582B00190FFE74B
:104690000198411E0191002804D0FFE70248FFF76E
:1046A000EBFFF5E702B080BD8038010084B00092D6
:1046B00002460098039202AA117001900198039992
:1046C000127892008918C86004B0704710B584B0A1
:1046D0000390039881680079884702A908700398BD
:1046E000C07807210840012805DBFFE70399088807
:1046F000401C0880FFE702A800780399C978C9091F
:1047000088421DD0FFE7039AD178C808401C0723D0
:104710001840C300C7242140C918D17001280EDBFE
:10472000FFE7029A0399C878D2017F2318408018C6
:10473000C8700399C878C7221040C870FFE705E029
:104740000399C878C7221040C870FFE70398C07863
:10475000072108400190052800D95CE101988100FB
:1047600001A040588746C04681470000DD47000051
:104770005948000045490000174A0000BB490000A5
:104780000398C178C8094906C90F88421ED1FFE7BE
:10479000039988780F22104088700398C068002819
:1047A00004D0FFE70398C1688847FFE7039900201A
:1047B000088003998878F0221040401C8870039983
:1047C000C878F8221040401CC87006E00399887829
:1047D0000F22104080308870FFE722E10398C178F3
:1047E000C8094906C90F884219D0FFE7039988789C
:1047F0000F2210401030887003980069002804D000
:10480000FFE7039801698847FFE7039900200880C4
:104810000399C878F8221040801CC8701BE00398E8
:104820000088332816DBFFE7039988780F221040B1
:10483000503088700398006A002804D0FFE703987E
:10484000016A8847FFE70399C878F8221040401DA5
:10485000C870FFE7FFE7E4E00398C178C80949069C
:10486000C90F884232D1FFE7039988780F221040A0
:1048700088700398C068002804D0FFE70398C168D7
:104880008847FFE7039880780F2108400F280AD057
:10489000FFE703998878421C0F231A40F023184041
:1048A00080188870FFE703984069002804D0FFE76C
:1048B000039841698847FFE703990020088003991E
:1048C000C878F8221040C01CC8703AE003980088ED
:1048D0001A2835DBFFE7039880780F21084001286C
:1048E00010D1FFE7039988780F221040303088708C
:1048F00003988069002804D0FFE7039881698847FE
:10490000FFE717E0039880780F210840022810D1B4
:10491000FFE7039988780F22104040308870039891
:10492000C069002804D0FFE70398C1698847FFE702
:10493000FFE7FFE70399C878F8221040C870FFE747
:10494000FFE76EE00398C178C8094906C90F88429D
:1049500025D0FFE7039988780F2210401030887027
:1049600003980069002804D0FFE70398016988478D
:10497000FFE70398008818280ADCFFE70399002066
:1049800008800399C878F8221040801CC87005E0A0
:104990000399C878F8221040C870FFE70CE003982C
:1049A00000881A2807DBFFE70399C878F82210402F
:1049B000401CC870FFE7FFE733E00398C178C809DF
:1049C0004906C90F884210D1FFE7039988780F2262
:1049D0001040603088700398406A002804D0FFE7D8
:1049E0000398416A8847FFE714E0039988780F220B
:1049F00010401030887003980069002804D0FFE749
:104A0000039801698847FFE70399C878F8221040A6
:104A1000C870FFE705E00399C878F8221040C87015
:104A2000FFE704B010BD10B586B00590049103A84F
:104A30000190027002A8037005982C21FBF728FD55
:104A40000198059A91780F2319408031917004994B
:104A5000059A91600278504242410599C878D20186
:104A60007F2318408018C870039A0599C878D20728
:104A7000520EBF2318408018C8700298059908711B
:104A800006B010BD83B001901A4800680090FFE79F
:104A9000009800280DD0FFE700980199884204D1C2
:104AA000FFE70020C04302900CE00098806A00906D
:104AB000EEE710490868019A9062019808600020AA
:104AC0000290FFE7029803B07047C04680B582B0FD
:104AD000084800680190FFE70198002808D0FFE728
:104AE0000198FFF7F3FDFFE70198806A0190F3E773
:104AF00002B080BD7407202083B0029001A900207D
:104B0000087069460870FFE76846007809281BDCD2
:104B1000FFE7029869460978C900405C002808D080
:104B2000FFE7029869460978C900405C002801D176
:104B3000FFE709E00198401C01A90870FFE7009811
:104B4000401C69460870DFE701A8007803B0704791
:104B500080B584B0039002910398029907F0E4FCB9
:104B6000019001980121C90788430E4907F074FAA2
:104B7000002814D1FFE70398002107F06DFA002800
:104B800006D1FFE70198094907F0A6FB019005E06F
:104B90000198054907F0A0FB0190FFE7FFE70198A6
:104BA00004B080BD000034430000B4430000B4C32F
:104BB00080B500F0BDFD01F0F5FA7F20C105024887
:104BC000002203F063F880BD0000164480B586B073
:104BD000019101460198049103A90870F6480078F4
:104BE0000978884208D0FFE70398F34908700498D1
:104BF000C86000F0E3F9FFE700F0DCFF0290EE4848
:104C0000C068029907F090FC0121C90788433F2141
:104C1000090607F016FA00280AD1FFE7E649002046
:104C2000486088600320087005A90120087003E02F
:104C300005A900200870FFE705A8007806B080BD30
:104C400080B58CB00AAA107009A80170DA48007803
:104C500003280ED1FFE70A99D74801700078002891
:104C600006D1FFE700F0AAF9D3494048C860FFE742
:104C7000FFE706A800F0D4FF05A90120087004A9E9
:104C8000002008700390FFE703980B2812DCFFE771
:104C9000039906A8405C012807D1FFE705A9002079
:104CA000087004A90120087004E0FFE70398401C85
:104CB0000390E9E709A8007800281AD1FFE72C49FA
:104CC0000020087004A80078C00700280DD0FFE776
:104CD000B949032008700120029002F03FFD03F063
:104CE0005DF802980BA908703CE00BA90020087041
:104CF00038E009A8007801282FD1FFE705A800783F
:104D0000C007002821D0FFE719480178491C01702D
:104D10000078052818DBFFE700F04CFF154907F085
:104D2000A8F9002810D1FFE7A34903200870104913
:104D3000002008700120019002F010FD03F02EF811
:104D400001980BA908700DE003E0094900200870E4
:104D5000FFE70BA90020087004E0FFE70BA9002083
:104D60000870FFE70BA800780CB080BD00007F43FF
:104D7000600520200000C84280B582B001900198F3
:104D8000002804D0FFE7019868490860FFE76748FA
:104D900000900068FFF7ECFA0098654A0021117056
:104DA00000685221405C012806DBFFE75F4801688C
:104DB000512201208854FFE702B080BD80B582B047
:104DC00059480078C007002839D1FFE7FFF7C8FA33
:104DD000002834D0FFE7554800685121405CC007E7
:104DE00000282CD0FFE752480178491C0170007858
:104DF0004E4909685222895C88421ADBFFE74B481A
:104E000001685122002088546B4A032111700190DF
:104E1000FFE7019801280BDCFFE701988100664855
:104E2000411800204860FFE70198401C0190F0E71E
:104E300077E03E480068FFF79BFAFFE7FFE73A4854
:104E40000078C007002810D1FFE7FFF789FA002893
:104E50000BD1FFE73748FFF719FA002804D0FFE726
:104E6000314901200870FFE7FFE72F480078C007AD
:104E7000002856D0FFE76946002008702D480078CA
:104E8000012808D1FFE72B4840680021FFF79EFE6C
:104E9000694608703AE027480078022807D1FFE702
:104EA0002448406802F044FF694608702DE021481C
:104EB0000078032808D1FFE71E4840680221FFF769
:104EC00085FE694608701FE01A48007804280AD158
:104ED000FFE718484068FBF707FD0021FFF7B0FE29
:104EE000694608700FE01348007805280AD1FFE7EB
:104EF00010484068FBF7F8FC0121FFF7A1FE694666
:104F00000870FFE7FFE7FFE7FFE7FFE76846007885
:104F1000C007002804D0FFE7034900200870FFE71E
:104F2000FFE702B080BDC0466C0520207005202040
:104F3000740520206405202080B582B01E480078CA
:104F4000032816D1FFE700F039F800200190FFE7B1
:104F500001982549097888420ADAFFE701A8007814
:104F6000002101F025F9FFE70198401C0190EFE7CF
:104F700020E004F0BBFF04F093FF0F480078002806
:104F800003D1FFE705F06CF811E00B480078012829
:104F900003D1FFE705F086FA08E007480078022809
:104FA00003D1FFE705F056F9FFE7FFE7FFE704F05D
:104FB000DFFFFFE702B080BD0800202081B00020A5
:104FC0000090FFE700980849097888420ADAFFE76D
:104FD00000988200054900208850FFE70098401C97
:104FE0000090EFE701B07047940320208005202057
:104FF00080B586B00490039102920020002806D16B
:10500000FFE70498FFF7B6F8002808D111E00498EC
:10501000FBF790FBFFF79AF800280AD0FFE7039808
:10502000029907F059F93F21090607F019FA05908E
:105030001CE00498039906F0F9FF002803D1FFE76C
:10504000039801900FE00498029907F005F80028F2
:1050500003D1FFE70298009002E004980090FFE778
:1050600000980190FFE701980590FFE7059806B0CA
:1050700080BD000080B586B01448019002200090E9
:105080001348144901221202002306F0C1FA0590C8
:105090000598012817D0FFE70F48FEF757F804A836
:1050A00001210170002141708170827803A98A700A
:1050B000027840780002801808800399032001F0EC
:1050C0000CFCFFE7FEE706B080BDC0467807202055
:1050D000E35E000000C90000C3C8000080B584B0D2
:1050E0000390039806490860064801900122009247
:1050F000054806491202002306F08AFA04B080BD72
:105100007805202064382020A9A7000002CA0000EA
:1051100080B584B00B480190022000900A480B49EA
:1051200001225202002306F073FA0390039801282B
:1051300003D1FFE7FFE7FFE702E0FFE7FFE7FFE755
:1051400004B080BD24042020F531000009C900000E
:10515000FFE7FFE77047000080B586B00F20FFF73C
:105160003DF8012108020022049205F03BFF049A59
:1051700036490860412081000220059005F032FF89
:10518000049B01460598574A11600A490191009015
:1051900009480A498022039206F03AFA039A049BCE
:1051A00005981F49019100900548064906F030FA1C
:1051B00006B080BDD41220202552000033CA000062
:1051C000915200003BCA000083B080B5C7B04B933A
:1051D0004A924991469049A80490469A049B01201E
:1051E000010205A80290FBF7ABF80298FBF7C6F89E
:1051F000029945903B48006800230393DA4305F089
:105200008AFF039A0648006800920223114606F0BE
:10521000A1FA47B080BC01BC03B086467047C046C7
:10522000DC12202080B582B00190FFE707480068BB
:105230000021CA43694606F0FEF8012805D1FFE7C0
:105240006846007801F084FCFFE7EFE7D0122020E9
:1052500080B584B003900291039A0B48009000211E
:105260000191FDF791F800980199084AFDF778F847
:105270000098019902AA1288FDF79AF800980199FE
:10528000FDF739F804B080BD00A0424020911040E5
:1052900080B5C4B0439000200190FFE70020C243D6
:1052A000012104F09DFD0198002816D1FFE70D486B
:1052B000006802A9002206F0BEF801280CD1FFE721
:1052C0004298002807D0FFE701200190429902A8E8
:1052D000FFF7BEFFFFE7FFE702E000200190FFE7D6
:1052E000DCE7C046D812202080B582B0009000983C
:1052F000002801D1FFE71EE0EFF30580019001983F
:10530000002804D0FFE70098FFF7BEF913E006F08D
:1053100087FA02280AD1FFE7009A7D20C1000846DB
:10532000504306F05FFC05F0DFFB03E00098FFF759
:10533000ABF9FFE7FFE702B080BD80B582B0019016
:10534000FFE70198411E0191002804D0FFE750209B
:10535000FFF792F9F5E702B080BD000082B001A925
:10536000087000200090FFE70098082817DCFFE78E
:10537000009818214143ED48405C01A90978884212
:1053800008D1FFE7009818214143E848411801205F
:10539000487004E0FFE70098401C0090E4E702B08A
:1053A0007047C04680B588B0079006A8029001708B
:1053B0000799B448019002F0CDFF0146019805AA73
:1053C00011704421415A1278891ACA0F89184A0863
:1053D00004A90A704622825A530803AA1370097856
:1053E0001278079B02F02AFF02980078002811D05B
:1053F000FFE704A801780A3903A800780C3805AA49
:10540000137814331422009289B282B29D4802F0BC
:1054100067FDFFE708B080BD10B592B011909948C4
:10542000099002F001FD0998974903F011F81198CD
:10543000C068002801D0FFE7BEE011983C21405C25
:10544000002805D1FFE75E480121FFF7ABFFAFE081
:10545000119881688B48089002F07CFF01460898FB
:1054600010AA11704421415A1278891ACA0F89185A
:105470004A080FA90A700978119A9368082202F065
:10548000DDFE11983C21405C012800DA8FE000200D
:105490000E90FFE70E9900200329079011DCFFE72B
:1054A0000E991198426889183C22825C01200023E1
:1054B00005939142069001DB0598069006980790A7
:1054C000FFE70798C00700284BD0FFE70E990D2093
:1054D000484314300D900E9811994A688018096855
:1054E00088422AD1FFE70D9809380C9080200B9054
:1054F0000B200A900CA802880BA803880AA8008831
:10550000009060480490002102F0EAFC04980DA984
:1055100003910A88294B022102F090FE0399049816
:105520000A8811990E9B4C681B199B00C918496980
:105530008B680A2102F082FE0EE00DA80288119805
:105540000E994368C91889004018406983684D481E
:105550000A2102F073FEFFE7FFE70E98401C0E9051
:1055600098E71198406801280CDBFFE714200290AF
:1055700080210191009043487C210E22782302F083
:1055800075FEFFE711994868001D3C22895C88423E
:105590000CDAFFE736200290802101910090394813
:1055A0007C213C22782302F061FEFFE7FFE7FFE762
:1055B000344802F02FFFFFE712B010BD20CA0000F0
:1055C0000CCA000080B594B013902E48069002F0EB
:1055D0002BFC06982C4902F03BFF06982B491291B0
:1055E000129902F0B7FE0146069811AA11704421E3
:1055F000415A1278891ACA0F89184A0810A90A70E4
:105600000978129B082202F019FE0FA900200870E9
:10561000FFE70FA8007803282EDCFFE713980FA9F7
:105620000978C9004058002820D0FFE713990FA837
:1056300005900078C2008818895803914068006876
:10564000FBF778F8039B01910090114A07A804909A
:105650002021FAF755FE049B059800780D2242435D
:10566000143208480A2102F0E9FDFFE7FFE70F982E
:10567000401C0FA90870CCE7024802F0CBFE14B022
:1056800080BDC046F00D202098CA0000E4C900008B
:105690002ACA00000C4801680020002900D0704789
:1056A0000A4909680029FAD1094909680029F6D18F
:1056B0000848006808490968491E884201D001204D
:1056C000704702207047C0466C382020C038202028
:1056D000683820208C3820201433202080B584B0F6
:1056E00003A9087006F0AAF8029000200190FFE7D5
:1056F0000198082817DCFFE70198182141430B485F
:10570000405C03A90978884208D1FFE70198182175
:105710004143064841180020487004E0FFE7019823
:10572000401C0190E4E704B080BDC0466801202021
:1057300070B590B00C4A04A9084678CA78C078CAF7
:1057400078C078CA78C00948029009480190094891
:1057500000900948094B022200F012F80120FEF7E0
:1057600015FD10B070BDC04678C70000AD5B0000ED
:10577000A55B0000D5610000F8012020196200003F
:1057800070B58AB0109C0F9C0E9C0890079106A8DB
:10579000027005930898002809D0FFE707980028B1
:1057A00005D0FFE706A80078002806D1FFE7FFE74D
:1057B000FFE709A90020087006E10698089908711A
:1057C0000598089988600E980899C8600F980899FC
:1057D000086110980899486104A900200870FFE743
:1057E00004A8007806A90978884200DBE6E008985A
:1057F000026804AB01931D78282102910C466C438A
:10580000105107981E781822144674430059089CBA
:1058100024680D4675436419606007981E78144625
:10582000744300194068089C24680D467543641948
:10583000E06007981E781446744300198068089C3D
:1058400024680D4675436419A06007981E781446B5
:1058500074430019C068089C24680D467543641998
:10586000206107981E781446744300190069089C4B
:1058700024680D4675436419E06107981D786A43F2
:1058800080184069089A12680C466C43121910621D
:10589000089800681C780A466243821800209061CC
:1058A000089A12681D780C466C431219242410556E
:1058B00003AA10700898826800681B785943411841
:1058C0004868C9689047002806D0FFE7039801217F
:1058D000084303A90870FFE708988268006804A9D4
:1058E0000B78282159434118886809699047002896
:1058F00006D0FFE703980221084303A90870FFE7D9
:1059000003980899096804AA137828225A43891829
:1059100008750898C068002847D0FFE70898C36852
:10592000006804A90A78282151434218D0692849FF
:10593000984700280CD0FFE70898006804A90A7867
:105940002821514341182422885C401C8854FFE7D9
:105950000898C368006804A90A78282151434218AE
:10596000106A1B49984700280CD0FFE70898006888
:1059700004A90A782821514341182422885C401C3C
:105980008854FFE70898006804A90A782821514341
:1059900040182421405C012803DCFFE7FFE7FFE714
:1059A00002E0FFE7FFE7FFE702E0FFE7FFE7FFE7CF
:1059B000FFE70498401C04A9087011E7FFE7FFE720
:1059C00009A901200870FFE709A800780AB070BD96
:1059D000655A000080B586B0049003A801700020CD
:1059E00002900498002807D0FFE703A800780499E4
:1059F0000979884205DBFFE7FFE7FFE70020059014
:105A00002CE00498006803A90A7828215143401823
:105A1000019004980069002804D0FFE70498006909
:105A20008047FFE701982421405C012804DCFFE760
:105A3000019800F017F8FFE701988069029001993A
:105A40000020886104984069002804D0FFE704988A
:105A500040698047FFE702980590FFE7059806B088
:105A600080BD000080B588B0079007980690069822
:105A7000006805900598826806994868C96890474B
:105A8000411E884104A90191087005988268069911
:105A9000886809699047014601984A1E914103AA06
:105AA00011700699097D0322114002AA1170007835
:105AB000002806D0FFE702980421084302A90870D5
:105AC000FFE703A80078002806D0FFE70298082126
:105AD000084302A90870FFE702A801788908069A1E
