:020000040000FA
:10000000B0672020C1020000C502000019450000B1
:1000100000000000000000000000000000000000E0
:100020000000000000000000000000006D5600000D
:100030000000000000000000A14D0000C55A0000B3
:10004000CF02000091440000CF020000CF02000068
:10005000CF020000CF020000CF020000CF0200005C
:1000600000000000CF020000CF02000000000000EE
:1000700000000000CF020000CF020000E95A00009B
:10008000CF020000CF020000CF020000CF0200002C
:10009000CF020000CF0200000000000000000000BE
:1000A000CF020000CF0200000000000000000000AE
:1000B000CF02000000000000CF020000CF020000CD
:1000C00000F002F800F0D1F812A030C80838241867
:1000D0002D18AC4201D100F0C8F80FCCA246AB46B7
:1000E0000CA730CF2D1B083F3F197C427F1E544484
:1000F0002D090426F441641EAC4201D300F0B5F88A
:100100000126334200D0FB1A3343984754465D46DC
:10011000DFE700007CE900009CE90000000000002F
:10012000103A02D378C878C1FAD8520701D330C840
:1001300030C101D504680C60704700000000000069
:100140007047000000000000002300240025002666
:10015000103A01D378C1FBD8520700D330C100D583
:100160000B60704710B56E2902D100F085FE10BDFE
:10017000702902D101F0E3F910BD662902D10CF01B
:100180009BFD10BD652902D10CF096FD10BD6729BD
:1001900002D10CF091FD10BD612902D10CF094FD4B
:1001A00010BD03681B0A01D380231943692902D1BA
:1001B00000F02CFE10BD642902D100F027FE10BD16
:1001C000752902D100F022FE10BD6F2902D101F085
:1001D00061F910BD782902D101F09EF910BDE9291D
:1001E00002D101F0FDF810BDE42902D101F0F8F8C8
:1001F00010BDF52902D101F0F3F810BDEF2902D1AD
:1002000001F054F910BDF82902D101F093F910BDA5
:100210000368DB0901D380231943632902D101F06C
:1002200074F810BD732902D101F077F810BDE329ED
:1002300002D102F094F810BDF32902D102F097F830
:1002400010BD002010BD1FB501F030FE04000020DD
:1002500000210CF08BFB401C6060002000210CF0A2
:100260006FFBE0601FBD10B510BD02F01DFC114614
:10027000FFF7E9FF06F0D6FE02F03EFC03B4FFF7FD
:10028000F2FF03BC02F0E8FC70B505460C461646CA
:1002900002E00FCC0FC5103E102EFAD2082E02D36A
:1002A00003CC03C5083E042E07D301CC01C5361F7D
:1002B00003E021782970641C6D1C761EF9D270BD94
:1002C00006480047FEE7FEE7FEE7FEE7FEE7FEE73B
:1002D00003480449044A054B70470000C100000070
:1002E000B0372020B0672020B0572020B057202002
:1002F0007CB51D4616460C00009007D04142A14235
:1003000002D30019401E01E00020C043064B7B448D
:100310002A4669460190304600F0D1FF002C02D0F9
:10032000009A002111707CBDD30F00000FB41CB5E2
:100330000C0007AA009007D04142A14202D3001945
:10034000401E01E00020C043074B7B4469460190FA
:10035000069800F0B4FF0021002C01D0009A117023
:100360001CBC08BC04B01847970F000070B50C46C1
:100370000546012A05D02878800600D5EA690023C1
:1003800002E0012305E05B1C934202D2E05C0028FE
:10039000F9D1A869E618C01AA861286AC0182862AD
:1003A000284600F0F9FC04E06A682078A968641C1B
:1003B0009047B442F8D3284600F004FD70BD000019
:1003C000F3B50446002081B020622046E1688847EA
:1003D000002872D0252802D06268A168ABE0594F8E
:1003E00000267F442046E16888472028054608DB30
:1003F000312D06D2781920380078002801D0064324
:10040000F0E7B00701D5042086430020E0610746ED
:10041000A0612A2D0AD028460BF057FD002827D0CE
:10042000B8000019303D0090856119E00298BA00CB
:10043000121902C8916102902046E1688847012F95
:10044000054617D1E06900281FDA202086431CE00A
:1004500000980A2180694843009940193038886122
:100460002046E168884705460BF02FFD0028EFD1B4
:10047000012F0AD02E2D08D12046E1688847054675
:10048000202006437F1C022FC3DBA069002803DA6B
:100490004042A06101200643F00701D010208643AE
:1004A0006C2D0BD0682D09D04C2D3CD06A2D38D046
:1004B000742D38D07A2D36D016E040E0E1682F4612
:1004C00020468847B842054609D16C2F29D0012023
:1004D0008002E168064320468847054604E06C2F09
:1004E0001DD0FF2001300643002D28D0284641387A
:1004F000192803D80120C002064320352046266073
:100500002946029A1646FFF72DFE002810D0012832
:100510000BD0F61DF008C0000830029055E74020CF
:10052000E1E78020D5E70020D3E7361D02964CE7AF
:1005300062682846A1689047206A401C44E7206A08
:10054000FEBD0000F2C8000030B5441C03E0017895
:10055000401C00290DD08107F9D10B4BDD0104C8E7
:10056000D11A91432940FAD0001B0A0603D0C01EBD
:1005700030BD001B30BD0A0401D0801E30BD090211
:10058000FCD0401E30BD000001010101F8B5042A75
:100590002CD3830712D00B78491C0370401C521EC9
:1005A00083070BD00B78491C0370401C521E830735
:1005B00004D00B78491C0370401C521E8B079B0F04
:1005C00005D0C91ADF002023DE1B08C90AE0FFF7A7
:1005D0005BFEF8BD1D4608C9FD401C46B4402C43D7
:1005E00010C0121F042AF5D2F308C91A521EF0D403
:1005F0000B78491C0370401C521EEAD40B78491C2E
:100600000370401C012AE4D409780170F8BDD2B20D
:1006100010B513029A1813049A1800F001F810BDCF
:1006200001E004C0091F0429FBD28B0701D5028019
:10063000801CC90700D00270704700290BD0C30787
:1006400002D00270401C491E022904D3830702D540
:100650000280801C891EE3E70022EEE70022DFE72C
:10066000002203098B4273D3030A8B4258D3030B36
:100670008B423CD3030C8B4221D312E003460B4345
:100680007FD4002243088B4274D303098B425FD38B
:10069000030A8B4244D3030B8B4228D3030C8B42B7
:1006A0000DD30902FF2212BA030C8B4202D312129D
:1006B000090265D0030B8B4219D300E0090AC30B72
:1006C0008B4201D3CB03C01A5241830B8B4201D31F
:1006D0008B03C01A5241430B8B4201D34B03C01A08
:1006E0005241030B8B4201D30B03C01A5241C30A80
:1006F0008B4201D3CB02C01A5241830A8B4201D3F1
:100700008B02C01A5241430A8B4201D34B02C01ADA
:100710005241030A8B4201D30B02C01A5241CDD27F
:10072000C3098B4201D3CB01C01A524183098B42CA
:1007300001D38B01C01A524143098B4201D34B01B3
:10074000C01A524103098B4201D30B01C01A524116
:10075000C3088B4201D3CB00C01A524183088B429D
:1007600001D38B00C01A524143088B4201D34B0086
:10077000C01A5241411A00D20146524110467047F8
:100780005DE0CA0F00D04942031000D340425340FD
:100790009C46002203098B422DD3030A8B4212D3BD
:1007A0008901FC2212BA030A8B420CD389019211EF
:1007B0008B4208D3890192118B4204D389013AD02C
:1007C000921100E08909C3098B4201D3CB01C01A01
:1007D000524183098B4201D38B01C01A5241430914
:1007E0008B4201D34B01C01A524103098B4201D302
:1007F0000B01C01A5241C3088B4201D3CB00C01A6F
:10080000524183088B4201D38B00C01A5241D9D286
:1008100043088B4201D34B00C01A5241411A00D207
:1008200001465241104663465B1001D34042002B03
:1008300000D54942704763465B1000D3404201B582
:100840000449002802DC491C084000E00846C04674
:10085000C04602BDFFFFFF7F704770477047000032
:100860000246C80FC00781434B0030B54B405B00C8
:100870009B0D20D01923DB06C91801231B059942C3
:1008800020DB0324A40704251346AB400BD3002B25
:1008900004D1EB0613409B00E34204D40124640717
:1008A000002312195941FF231B0599420BD2C9009D
:1008B0000143500F09E0CB0204D501430803024372
:1008C00005D0054830BDFF21C905084330BD0846A5
:1008D00007210905884330BD0000C07FF0B58B4C6F
:1008E0000F09254689B0BD437BD01D092646AE437E
:1008F000FAD00E465E402740F60F3E43254071D0A9
:1009000024012142FBD0FF24AD19A4042D1B039523
:1009100001252D05DB02DB0AC9022B43C90A294345
:100920001E010901040F130F050121431701880B54
:10093000820391432D098C46A90B1E438A039543DC
:10094000B30B9A0396433F09BA0B9403A74302964D
:100950002E467E430497B6464E19D7190C4601968B
:10096000544305977E43371B7646BF1B3601B64678
:10097000BE0B361900967646BC043719009C01D38D
:10098000641C00946400002F01D001263443029EB1
:10099000049F754366467E430496760034196E00C4
:1009A00034190094029C019E1C196643751BAE46C7
:1009B000069465464519059C05956C435943754653
:1009C0000891691A0191049E01465143A41B0491A8
:1009D000611A009C0791E10605D0610901221143CB
:1009E00002E072E06EE06109089D00272C0A2D06E6
:1009F0006918049D7C412A0A2D066918019D6241EF
:100A0000AC0DAD026D185441079A910D9202551923
:100A10006141029A644658435443069B059A5A43DF
:100A2000121A131B9A0E9B015B187A41010B0005E9
:100A3000C3185141220A200644195A419A4200D251
:100A4000491C01204002814203D315230226F643AC
:100A500002E014230326F6432020C51AA9401746B6
:100A6000AF40DA400A4320460399D840091473186E
:100A700019055118039A3843D2075140AC4009D0A8
:100A80000122944006D30022401C5141002C01D188
:100A9000400840001E4A934212D301220398920656
:100AA000904207DB0520400709181A480143C0128D
:100AB000414004E0032040070818C10FC907002087
:100AC00009B0F0BD0020F107FAE705180C464C41CB
:100AD00011486D42A04115D394181A465A410E4848
:100AE000644290410ED301204A004005824209D35E
:100AF0005A00824206D35940C90F084AC90700204C
:100B00001143DDE700200649DAE700000000FF0797
:100B1000FE070000FFFFFF7F0000E0FF0000F07F06
:100B20000000F87F0121C9050123411842001B067E
:100B3000D3185B0E0AD0C1100722D20689184007CD
:100B40005242D14201D5520089187047090208D596
:100B50000146002A03D0C10FC90700207047104684
:100B60007047420202D00020024970470721090560
:100B70000143F4E70000F87FF0B5FF252D04C60916
:100B8000C209FF2704462E400137CB093E434840A7
:100B90002A402B400746002A6BD0002B69D0AA427E
:100BA00067D0AB4265D0002800DA32460125ED055A
:100BB00029432C4309022002090AD21A4B0C7F2434
:100BC000E31A434C000A7C44E35C7D24240412199C
:100BD00014145B00A218884201D3521C00E04000AC
:100BE00049420C465C4324115C43DB016415E31865
:100BF000040A5C43C502200D0C4644436419250ACF
:100C00005D432303EC0C0D46654300030019EB180C
:100C10004C42A34201D35B18401CD4052018002B82
:100C200007D05B00C91804D3401C002901D140083B
:100C300040003F2189048A4209D3002A08DC1106BA
:100C4000090F04D0032149074018C00FC007F0BDA9
:100C500001224100120689187F2252069142F6D2E3
:100C600005214907C84201D59010F0BDFF20C005FD
:100C7000F0BD002F00DA32461648AA4207D2AB4236
:100C800005D21902090E17D0F80FC007F0BDFF25D5
:100C900063002D06AB42F9D84900A942F6D8AB4211
:100CA00001D1A942F2D0A94201D1002101E06100A5
:100CB0004908D0050843F0BD1102090EFBD0FF2002
:100CC0000243D005F0BD0A460146104654E7000035
:100CD0001FC100000000C07F10B501469E24000225
:100CE000CA15A307002A02D01843002A04DBA21A5F
:100CF000002A0CDDD04010BD1206120E01D14000BA
:100D00004008A21A03D4D04040420028F3DDFF225D
:100D100048001206904201D9002010BDC817C043F8
:100D2000584010BD1F22030C02D10F2200041CD01A
:100D3000030E01D10002083A030F01D10001121F76
:100D4000830F01D18000921E002801DB4000521E5B
:100D5000D2055118021251181922904004D3491C8F
:100D6000002801D14908490008467047C10FC9074A
:100D700000D04042012292071143D3E701218907A5
:100D8000D0E710B501F096F8006810BD10B5044624
:100D900001F090F8046010BD70B5044685690068E4
:100DA000C10601D5302600E02026C00707D070BD5F
:100DB00062683046A1689047206A401C20626D1E20
:100DC000F6D570BD70B5044685690078C00707D1B7
:100DD00070BD6268A16820209047206A401C206294
:100DE0006D1EF6D570BD09684A0501D540B2704741
:100DF000C905FCD500B2704709684A0501D5C0B2E3
:100E00007047C905FCD580B270470000F7B50025D2
:100E100075291068009914A611D0FFF7E4FF002887
:100E200002DA404211A608E0009909688A0701D554
:100E30000FA602E0490704D50EA6012501E0FFF741
:100E4000DBFF009F0024243704E001F0E2FD303195
:100E50003955641C0028F8D12B46324621460098AB
:100E600001F069F8FEBD0000000000002D00000048
:100E70002B0000002000000011680268006A530582
:100E800001D5087009E0D30501D5088005E01306F7
:100E900002D5C21705C100E00860012070470000BC
:100EA000FFB50C461E468FB003CA089009914F004B
:100EB0007D0D00D16D1E002108460020C046032193
:100EC000099A89050840002A03DA82008018400840
:100ED0000840800D01280A9002DD0020C0430A90DE
:100EE000089807430DD0F048F049281848430714E4
:100EF000189800281DD07542291E1DDD0A9842420F
:100F00001BE01898012802D00020302104E00020C6
:100F1000F24305E02154401CB042FBDB3046002286
:100F2000189B002121540F998B600A60486013B010
:100F3000F0BDBD1B6D1CDFE70A9A002900DA69428B
:100F40000BA801F019FA0BAB07CB03AB07C3089949
:100F5000099801F07DFA6B4607C30146D448091889
:100F6000002D00910BDDD24903980A9A494240189E
:100F7000002303A90390684601F0DAFC08E0039916
:100F80000A9A0023081803A90390684601F07AFC26
:100F90006B4607C30004000C03D00020C043410887
:100FA00000E01046189A002A03D00022009215464D
:100FB0001EE0751E05D400F081FF303262556D1EB3
:100FC000F9D501220843079602D000227F1C04E0D5
:100FD0002078302801D100227F1E002A069787D072
:100FE0001EE0112D07DA00F069FF303262556D1CEA
:100FF00002460A43F5D1084303D00098002819D0CF
:101000000EE00021681E05E0235C625C63542254FC
:10101000401E491C8142F7DBA81B401E0795069025
:10102000079A18990020A0540F98079B069A816090
:101030000CC07CE711260020189059E7D21DF0B5AE
:101040000D460446D10893B0C90003C90C900D9118
:101050000AF0A0FD02460D98C00F01D02D2007E038
:101060002068810701D52B2002E04007C00F400116
:10107000032A0F9001D0072A05DB034629462046A4
:1010800001F01EF90EE12078800601D5E76900E045
:1010900006272846652D04D0662814D0672D69D10F
:1010A0002DE00020112F009001DB112300E07B1CBC
:1010B0000CAA03A910A8FFF7F3FE119900261098B7
:1010C0007D1C0E9142E001203B460CAAC0070B900C
:1010D0000120009003A910A8FFF7E2FE119D1298CD
:1010E0001099002600280E9501D1781C0D18781B48
:1010F00002D446427D1C761EE81B00903AE0012F88
:1011000000DA01270020112F009001DD112300E0FB
:101110003B460CAA03A910A8FFF7C2FE11993D4651
:10112000109800260E91217809070BD40E99A94238
:1011300000DA0D4603A9012D04DD4A19203AD27FB9
:10114000302A06D0B84201DA011D04DA01210091EB
:101150000FE06D1EEFE7002802DC86192D1A03E070
:10116000411CA94200DD0D46801B401C009001205F
:10117000C0070B902078000705D40098A84202DB36
:101180000020C043009069460020C8720B980121DE
:1011900002AF0337C907884225D0022010902B20C8
:1011A00011900B9800280BDA40420B902D201190E3
:1011B00006E00B9801F02DFC30317F1E0B9039704A
:1011C0001099481E00291090F3DC0B980028F0D1EC
:1011D00011987F1E38702088000501D5452000E059
:1011E00065207F1E387001A8C01BC01D0B900F9892
:1011F000002800D0012041190098C01709180B9849
:101200000818A169081A401EA0612078C00602D4FF
:101210002046FFF7C1FD0F98002805D06268A1683D
:101220009047206A401C20622078C00625D52046C1
:10123000FFF7B2FD21E0002E07DB0E98B04204DD7F
:1012400003A86268805DA16802E06268A16830203E
:101250009047206A761C401C20620098401E00289F
:1012600000900AD100F022FEC06862680168405C0C
:10127000A1689047206A401C206228466D1E002805
:10128000D9DC07E062683878A1687F1C9047206A43
:10129000401C20620B99481E00290B90F2DC20466E
:1012A000FFF790FD032042E601FCFFFF104D000018
:1012B000E1DFFFFF01694A1C02610878704700B551
:1012C0008FB0029100210591054901937944039162
:1012D000114604906846FFF773F80FB000BD000098
:1012E000E5FFFFFF0CC908399A4202D2531C0B607C
:1012F0001070704710B54369002B02D0C046C0463D
:1013000001E0FFF733F8012010BD127801462431C7
:101310000A7000224A700122ECE711680022D243D1
:10132000E8E70000F7B50446154686B02B48784438
:10133000002703C83E460090019111E007986A46D5
:101340007100415A02A801F043FB411C07D02178EB
:10135000890603D5E269391891420ED83F18761CE8
:101360002078800602D5E069B84206DDAE42E5DBB2
:1013700007987100405A0028E0D1A069C01BA06105
:101380002046FFF709FD154878445A3803C80090F5
:101390000020019116E041006A460798415A02A8D0
:1013A00001F016FB0590401C0AD0002505E062689C
:1013B00002A8A168405D90476D1C05988542F6D350
:1013C0000498401CB0420490E5DB206AC0192062FA
:1013D0002046FFF7F7FC09B0F0BD000096BA000008
:1013E000F7B5D21D0025D20815A6D200F52905CAE9
:1013F00011D0002A05DA00214042914111A60A4687
:1014000008E0009909688B0701D50FA602E049079B
:1014100001D50EA601251146009F0024243704E0C3
:1014200000F04CFD30323A55641C02460A43F7D1B5
:101430002B4632462146009800F07DFDFEBD00009F
:10144000000000002D0000002B0000002000000024
:1014500070B504460021243408E05507D2086D0F0A
:10146000303565545D072A43DB08491C15461D438A
:10147000F3D10468002310A2250708D520252C40AD
:101480000C4304D0C46901230CA2641EC46100F0A3
:1014900052FD70BD10B5044621461068FFF7ACFC44
:1014A000002302462046FFF7D3FF10BDD21DD1080E
:1014B000C9000CC9CCE700000000000030000000AB
:1014C000F8B50F460188090502D5224C7C4402E09C
:1014D000204C7C440E3405460021243508E01607D4
:1014E0001209360FA65D6E541E0732431B09491CB4
:1014F00016461E43F3D1224604780023240705D55F
:10150000702F06D0002901D00223113200F013FD04
:10151000F8BD01231032F9E770B504460D462146A7
:101520001068FFF769FC0023024629462046FFF7B2
:10153000C7FF70BDD21DD308DB000CCBC0E730B4B1
:10154000036820241268234303600823C36130BC6E
:101550000023B5E700B90000F0B50C46871A9C419E
:101560000D46861A9D4103D2C01BA141D219634189
:101570000D0D1F0DC94EEC1BAE435CD07F057F0DDA
:101580000026002F51D02D05AC46A943DD020123D2
:10159000ED0A1B051D4320231B1B24D41746E740DF
:1015A000381871412F46E740CC199D402818314624
:1015B00061410C0D27D161449A4013D50023401C92
:1015C000594152000ED14008400001224B00520503
:1015D000D34207D305204007C14201D5B04900E0FE
:1015E000B0493046F0BD6B00002A00D001229A18A5
:1015F0001F23203C1B1B01D5002302E0E5402818D7
:1016000071410C0DD7D0012424050919C407CD0759
:1016100040084908E40F28436144002CD5D0002439
:10162000401C61419A40D0D1CDE76A05520DD9D115
:10163000C90FC907D5E79C4D4E00002801D00124F1
:1016400000E0002434195F00002A01D0012600E0E8
:101650000026BE19954FAC420CD8AE420AD8B4420F
:1016600006D001256D05EC42BCD010461946F0BDF0
:101670009942FCD000203946F0BDF0B51FB40C46AD
:101680000F46811A9F412546861A9D4106D20125A3
:10169000ED076F40401ABC4152187B41210D1E0DD1
:1016A0008D1BAC467D4D8D437ED075056D0D7CD078
:1016B0000D05AE46AC431B031B0B794D52429D41B9
:1016C000202366469B1B14D31746F7403818002684
:1016D0000090744160462F460741E41900989D40F0
:1016E0002818664116D4714671189A4025D50123F1
:1016F00020E093182A466A415200002B00D0521C69
:101700001E23203E9B1B002B61DD3541EE17281860
:101710006641E8D5001876415B1C9A4000D3401C16
:101720004B05F3181524E34010D3002B52D071461B
:101730007118D30FC01802D3491C05B0F0BD0123A6
:10174000DB079A42F9D140084000F6E70122520532
:10175000B21801D1002853D00123CC0ADB029943EF
:10176000891E002A08D1020C03D0020C0004103993
:1017700002E00246002020390023550B05D1120259
:101780000823550B01D152010D23550C01D1120133
:101790001B1DD50C01D192009B1C150D01D15200CF
:1017A0005B1C2025EE1A01E02CE022E00546F54006
:1017B00015439840CA1AE10769181305C918002A89
:1017C000BBDA032040070818C10FC9070FE07146B4
:1017D0006118B2E7F10740080843711071444A00EC
:1017E0000CD001235B059A42A7D2C90FC90700207C
:1017F000A3E74905490D26D1002001E00028F4D1D6
:1018000000219AE7284D6600002801D0012100E060
:10181000002171185F00002A01D0012600E0002697
:10182000BE19224FA94210D8AE420ED8B14208D0FC
:1018300001256D05E94206D01946A802414010462F
:101840007BE79C4201D0214677E70020394674E7C8
:1018500010B50C465C4005D50124E4076340FFF752
:101860000CFF10BDFFF778FE10BD30B40C465C4095
:1018700004D50124E407634030BC6DE630BCFCE6CF
:1018800070B50124E40761400D465D4002D4FFF7C6
:1018900063FE70BD6340FFF7F0FE70BDFF07000000
:1018A0000000F0FF0000F07F0000E0FF0000F87F84
:1018B000F0B5F94D0C091E092C402E402F468BB077
:1018C000A7437DD0B543FCD0002E7AD0002CFCD0AD
:1018D0000D465D40ED0F2543AC1BFF25AD0464199B
:1018E0000894C502440DC9022143500DDC02044393
:1018F0000120C00701430443D2020191200C110CC6
:1019000000958C46010423468B430A9161460904E5
:10191000E24D8A430991010A7D44491980390978C9
:1019200005464D4301266D18F605751B6943C90C24
:10193000640B891C4C436418B5012C1B250C2E0428
:10194000B4434C434D43210C691889090591009D0E
:10195000E90701D00121C90704912C4601996708C4
:10196000CD072F434C08059DE10B4D432D0C294617
:101970006646754302950D4645432E46029D7D1BE6
:10198000B44100950D465D4301942C0C2F040D4687
:101990005543AE462D0C3D43029503947546049C79
:1019A0002D04641B049406D2029C039D641C002633
:1019B00075410395029401AC70CC009F7D1B01E042
:1019C0003EE162E1B4410904009507910194059953
:1019D000A4086143090C0C464443650BE7040C461C
:1019E00066467443A646640B3C43039502947446D2
:1019F000049DE4042C1B049406D2029C039D641CE9
:101A0000002675410395029401AC70CC009F7D1BAC
:101A1000B44101940C465C430095650FE7000C4609
:101A20005443A646640F3C43039502947446049DB8
:101A3000E4002C1B049406D2029C039D641C002627
:101A400075410395029401AC70CC009F7D1BB4419D
:101A5000AE09AF06049DC900AD092F43049DA4063D
:101A6000AD060495079D344369180791059DE10B68
:101A70004D432D0C29466646754302950D46454358
:101A80002E46029D7D1BB44100950D465D43019499
:101A90002C0C2F040D465543AE462D0C3D430295AC
:101AA00003947546049C2D04641B049406D2029C86
:101AB000039D641C002675410395029401AC70CC13
:101AC000009F7D1BB44101948C050694079C890AF4
:101AD000611800950791019C0599A4086143090CC0
:101AE0000D464543680BEF040D46644665436C0B99
:101AF0003C43049FED047D1BAC4602D20025641CD0
:101B00006841009E019D371B854108465843019559
:101B10000C46460FC5005443600F28436546E40059
:101B20002C1B02D20025401C6E41019D3F1AB5417D
:101B30002846BD09800628438446A009BF064E02F8
:101B40000699A40676180743079D002068410A9964
:101B5000079019430020099B00906046FF1913432A
:101B60004041E20F64003A43A4460446D71A8C4130
:101B7000A04203D90120009020463A46C70F94188E
:101B800040416246D20F2243644664000494009CA4
:101B9000BE466400D71AA446044602978C41774695
:101BA000002F01D1A04204D96046401C8446029A0D
:101BB0002046C40FA64694184041049A0546D20F09
:101BC000224364466400D31A8D417146002901D135
:101BD000A84202D928461A46641C10430122002854
:101BE00000D0164361020020079B891904465C411E
:101BF0000223002C02DB491813466441089DCE0ADB
:101C00002D145D194B056705E10A2C050D1908997E
:101C10003E43C9076940002B08D0934006D30022F9
:101C2000761C5141002B01D1760876001C4A002D0C
:101C300043DB154241D0AA433FD030460BB0F0BD44
:101C400006180D464D41174C7642AC411AD39518F3
:101C50001C465C41134A6D42A24113D30122520536
:101C60004C00D4420AD15C00D4420BD04B4002D588
:101C700092021143E2E749004908DFE75940C90FE2
:101C8000C90718E000200849D8E7054801420DD1EE
:101C90000342F7D0F2E700000000FF07DCB40000C9
:101CA0000000F07F0000E0FF0000F87F114859407D
:101CB0000143C01241400020C0E70123089A9B065F
:101CC0009A4205DC032252078918C90FC907B5E7F4
:101CD000052252078918074A1143D2125140ADE735
:101CE00070B515461C4602460B4628462146FFF7AE
:101CF000DFFD70BDFFFFFF7F70B505464800440D56
:101D0000124B0020002C0AD0634008D09A4206DA19
:101D10006642B24203DD12054019514170BD002CEC
:101D200008D0002B09D0C90FC907002AF6DB084AE2
:101D3000114370BDC90FC90770BD28460A0310437F
:101D400002D00020034970BD284670BDFF07000087
:101D50000000F07F0000F87FC10D10B50906090EE4
:101D60002ED0FF2931D07E292DD319D0962916D215
:101D7000024675398A4005D0002402468A4003D3C2
:101D8000012302E00124F8E700230222CA41511E88
:101D90008843002B03D08018002C00D0904310BD46
:101DA0000121420201D1012200E00022C00FC00740
:101DB0000029F4D0002AF2D17F21C905084310BDC3
:101DC000C00FC00710BD0021EFE74102FAD0014863
:101DD00010BD00000000C07F10B5FF22C30D1340EE
:101DE00009D05A4007D0914205DA5C42A14202DD97
:101DF000C905081810BDC40FE407002B06D0002A3F
:101E000006D0002902DBFF20C0050443204610BD98
:101E10004102FCD0004810BD0000C07F30B5C30DAA
:101E20001906214A090E31D0FF292FD000283ADBAC
:101E300001025002014301207D33C34000D2490812
:101E4000012080071724091A240649088210234319
:101E5000FF252D064C00211A04D4891A02D45400FF
:101E6000201800E0214652085B19F3D51A220446D7
:101E7000944007D382068A4203D180218030884370
:101E800000E08030C009D905081830BDFF2904D012
:101E90004100FAD0C00FC00730BD410201D010464A
:101EA00030BD0028FCDAFAE70000C07F0048704728
:101EB000D800202000487047B80020200B4670B59D
:101EC000024689078008084319469D08141AA9414B
:101ED00025090807054308092C194841250A010668
:101EE0000D43010A2C194141200C0D0428430D0C0F
:101EF00000194D41002140194D41C00869070843B0
:101F0000E908840F8D002543840024184D412419CD
:101F10006D41121BAB4107E00925ED432C1152190D
:101F200063410024401C61411C460A250026551BC4
:101F3000B441F1D270BDFFB504460D4681B02430E6
:101F400000902168880604D51022E0699143216041
:101F500000E00120A84201DD471B00E000270498B3
:101F6000A1697A191018081AA0612078C00602D455
:101F70002046FEF711FF002608E003986268A1687A
:101F8000805D9047206A401C761C2062049886423F
:101F9000F3DB2078C0060AD52046FEF7FDFE06E0FA
:101FA0006268A16830209047206A401C2062384651
:101FB0007F1E0028F4DC07E000986268A168405D9D
:101FC0009047206A401C206228466D1E0028F3DCE2
:101FD0002046FEF7F7FE2078000602D5022005B065
:101FE000F0BD0120FBE70000D21DF0B504460D4610
:101FF000D0088DB0C000466807683146384609F001
:10200000C9FD0246F00F01D02D2307E020688107AB
:1020100001D52B2302E04007C00F43016846002B87
:10202000037001D0012000E00020032A0A9001D0B3
:10203000072A04DB2946204600F042F92DE12078EA
:10204000800601D40D2500E0E5697000400D0D2DDE
:1020500001904BDA300D00210B9008460020C0465D
:10206000032189050840002E05DA82008018C20F7E
:102070001018401008408015012801DD0020C043E1
:10208000A9000023182906D39C460A460123183AC2
:102090001B07D34003E001221205CA4094460C31CD
:1020A000202902D33A46203900E032468A400028EF
:1020B00002DD002A06D119E0002817D10121C90745
:1020C0008A4213D3194663467F185E41002806D121
:1020D0000120C007824202D1084687439E430B98E5
:1020E000310D814202D00198401C019020880005EA
:1020F00002D57149794402E06F49794419396B4638
:102100000A9830221A540A980A7C401C1A54401C1F
:102110000A900198002801DC302000E0312018727C
:10212000019A0120002A02D0644BD21804E0720008
:102130003A4302D0614A521C0192002D02DC2278FF
:10214000120703D56A462E205072022000228646CE
:1021500094460CE032033601120F6D1E8B5C02AA0E
:1021600013546246521C401C9446052A01DA002D85
:10217000F0DC002202AE08E03B0F3F01CB5C521CBA
:102180006D1E3354401C082A01DA002DF4DC23684C
:102190009A0601D511E0401E704504DD3218203A40
:1021A000D27F302AF7D0002807DD3218203AD27FBC
:1021B0002E2A02D11A0700D4401E002D03DD3E2234
:1021C0003254401C6D1E497C31540199401C002939
:1021D00006DA2D21471C315401984042019003E05A
:1021E0002B21471C315401987D21C900884206DB10
:1021F000FEF744FA3030F0557F1C019101E064286D
:1022000008DB01986421FEF739FA3030F0557F1C65
:10221000019101E00A2806DB01980A21FEF72EFA57
:102220003030F0557F1C01980A21FEF727FA303133
:10223000F1550A98A1697F1C7A191018081AA06133
:102240002078C00602D42046FEF7A6FD216A6E461D
:102250000A980818206204E062683078A168761C49
:1022600090470A98401E0A90401CF5D12078C0067D
:1022700002D52046FEF790FD02AE09E03078761CCC
:102280003E280DD06268A1689047206A401C2062F9
:102290007F1EF3D22046FEF795FD0DB00320F0BD62
:1022A000206A4019206203E06268A16830209047EC
:1022B0006D1EEDD3F8E70000B3AD000001FCFFFF99
:1022C000F8B51F46044601230068DB0203260146D9
:1022D0001840072A05DB002801D017A506E017A53E
:1022E00004E0002801D016A500E016A510208143C7
:1022F0002160A069C01E002FA06101D0401EA06116
:102300002046FEF749FD002F09D038466268A168D3
:102310009047206A401C2062C01C206206E0206AB0
:10232000FAE762682878A1686D1C9047761EF8D29B
:102330002046FEF747FDF8BD4E414E006E616E002F
:10234000494E4600696E660010B54369002B02D005
:10235000C046C04601E0FEF7E5FF012010BD12882F
:102360000146243182840022C2840122ECE71168F4
:102370000022D243E8E70000F7B516468AB033489A
:1023800078446C4603467C33C06F5A689B680DC422
:102390002E487844763003AC0DC80DC43720C001F8
:1023A000081837211B30FEF769F905460C46803DB9
:1023B0001B3C02D56442012000E000200027099068
:1023C00010E0E0070CD00C202049784379443246D5
:1023D0004C3941186846012300F054FA6B4607C394
:1023E00064107F1C002CECD1184F7F442E3F16E068
:1023F000E80712D02001C0190EC806910893079271
:102400000068F04201D1981908903246012306A9CC
:1024100003A800F037FA03AB07C36D10641C002D4E
:10242000E6D10998002806D032466946012303A860
:1024300000F07EFA05E001233246694603A800F069
:1024400021FA0A9B07C30DB0F0BD00003CAB0000B1
:10245000034640000A4610B5400D0BD00121C907C4
:102460000F24A40200191C0364082143540D2143C6
:10247000D20207E000210120F2E7D40F49002143F6
:102480005200401E0029F8DADB0FDB07184310BDAD
:10249000FFB50D46144685B04868516809F061FBE8
:1024A00000910190A868A16809F05BFB029103907C
:1024B000A868616809F055FB029A121882420292DC
:1024C00001D2012000E00020019A0B18D218002848
:1024D000019202D08A4202D903E08A4201D201204D
:1024E00000E000200099081800906868A16809F0D1
:1024F00038FB029A12188242029201D2012000E0B7
:102500000020019A0B18D2180028019202D08A42AA
:1025100002D903E08A4201D2012000E000200099A4
:1025200008180090286821684000490040084908C0
:102530004018FA49471814E001994000C90F0843B0
:102540000090019802994000C90F08430190029839
:1025500003994000C90F08430290039840007F1E72
:10256000039000980028E7DA0898002801D0EC4E84
:1025700000E00026B74201DA012000E00020002838
:1025800004902AD0F71BF806C00E15D0029B20211C
:10259000091A039A8B401A430392029A019BC24084
:1025A0008B401A430292019A009BC2408B400099D3
:1025B0001A430192C14000917B110DD06F46032058
:1025C000C11A03D500218200B95003E08A008100BE
:1025D000BA587A50401EF3D537460398029900281E
:1025E00000D00120014308980291002808460CD031
:1025F000002800D001200199019A490508430121D2
:10260000D20AC902D202019200E001210E9B0122EE
:10261000D207012B02D0002B03D013E0002807D1F2
:1026200020E0904204D890420CD1019B0B4209D08B
:10263000019B5918019105D10099491C009101D1C4
:102640007F1C009200280DD0102108460020C046B3
:102650000498002806D00F98002803D008210846C7
:102660000020C04628682168019B009A4840C10F9D
:102670000598C90739430EC009B0F0BDFFB587B052
:10268000099A08980899536892684068896896463C
:102690000022039317469446089A12685300099A39
:1026A0005B081268520052089A1A9E4BD4180A9A74
:1026B000002A01D0352200E04022069200220123A8
:1026C00015460492DB07059324E0002D05D17546DD
:1026D0000346039E4D1BB34109D375466646039BD3
:1026E000491B049D9841059B7519AC465F416346A3
:1026F0003B4308D0059B049EDD0776082E435B080C
:102700000496059301E0521E641EC50FED0749189B
:102710004041521C069B9A42D7DB002D04D17546DE
:10272000039A6B1A824101D203200CE0039A0B46F4
:102730006B404240134303D0014303D0012002E029
:10274000022000E0002061460191002100970291E3
:102750000A99002905D0614640020143704B01915E
:1027600002E08007002302909C4201DA012000E091
:10277000002007003AD01A1BD006C00E15D0029DCB
:102780002021019C091AC5408C402543029C8C40A5
:1027900000D001242543019C0295009DC4408D403A
:1027A00000992C430194C140009154111DD06D46F5
:1027B0000221002202290CD10320001B07E000287F
:1027C00004DB8600AE59002E00D00122401C0328F5
:1027D000F5DB081B02D588002A5004E08000285849
:1027E00010438A00A850491EE3D51C460A980028C9
:1027F00002980CD0002800D001200199019A4905C7
:1028000008430121D20AC902D202019200E001214B
:10281000109B0122D207012B02D0002B03D013E022
:10282000002807D11FE0904204D890420CD1019BB0
:102830000B4209D0019B5918019105D10099491CFF
:10284000009101D1641C009200280CD01021084690
:102850000020C046002F06D01198002803D0082180
:1028600008460020C04608980999019A009B006814
:1028700009684840C10F0798C907214382600AC010
:102880000BB0F0BD00B585B0019300920A46014639
:10289000002302A8FFF7FCFD02A807C805B000BD91
:1028A000FFB50A461F4685B00799019301230091A1
:1028B000014602A8FFF7ECFD02990398049ECA0F97
:1028C0004900D20700920F22490892028C1A002177
:1028D000002800DB0C46450013486D08844214D3E1
:1028E000079A002A04DA441E0026104DF64302E03F
:1028F00004460D460E46102108460020C046002F13
:1029000003D0042108460020C0462005E90A0843F8
:10291000009908436905F20A1143ADE602C0FFFFC2
:10292000013C0000FF3F0000FF070000FFFFFF7FAA
:1029300000B585B0019300920A460146002302A823
:10294000FFF79CFE02A807C8A8E7FFB50A461F4686
:1029500085B00799019301230091014602A8FFF772
:102960008DFE02990398049ECA0F4900D207009277
:102970000F22490892028C1A0021002800DB0C4625
:10298000450011486D08844214D3079A002A04DADE
:10299000441E00260D4DF64302E004460D460E4649
:1029A000102108460020C046002F03D0042108460D
:1029B0000020C0462005E90A08430099084369053C
:1029C000F20A114358E60000FF070000FFFFFF7FF7
:1029D000F8B516460C46054600F086F80368FF2059
:1029E0000230C05C012807D0FF2C0FD8185D0028EA
:1029F0000CD001202C70F8BDFF333246214608333D
:102A00001868C71828460023B847F8BD0020C043FF
:102A1000F8BD01468008081A02091018020A1018A9
:102A2000020C1018C008820012185200891A01E026
:102A3000401C0A390A29FBD27047000010B5FF2359
:102A40001B0644009C421DD84C009C421AD80346E9
:102A5000124A0B4307D4401A02D3EFF3008010BD93
:102A6000EFF3008010BD081A03D3EFF3008090430A
:102A700005E0EFF3008001219043C907084380F38C
:102A8000008810BD0D231B041A4204D011460020FB
:102A900000F092F810BD00F0A7F810BD0000009003
:102AA00000487047B80020207546FFF7F9FFAE4692
:102AB000050069465346C008C000854618B020B5D9
:102AC000FDF706FC60BCB64600260027C0C5C0C5A1
:102AD000C0C5C0C5C0C5C0C5C0C5C0C5403D49080A
:102AE00049008D467047000010B5FFF7DFF9001D63
:102AF00010BD00BF799E000010B50446C046C04618
:102B00002046FDF7BBFB10BD82078B079A423FD1E1
:102B100070B5920F0AD0032402780B78401C491C30
:102B2000002A33D09A4231D12042F5D1214EF4010E
:102B300004C808C9951B9543254018D19A420FD166
:102B400004C808C9951B9543254010D19A4207D166
:102B500004C808C9951B9543254008D19A42E7D07F
:102B600012BA1BBA01209A4200D2404270BD12BA7A
:102B70001BBA2DBA18241000E0401900E140401A99
:102B800005D12E00E64002D1083CF4D1D01A70BD28
:102B900002780B78401C491C002A09D09A4207D1C0
:102BA00002780B78401C491C002A01D09A42EFD0D1
:102BB000D01A704701010101C80212D54803400F25
:102BC000002804D0C803C043012188407047EFF3B8
:102BD00000800001000903210907084380F30088F1
:102BE000704700207047000010B5024800F004F85C
:102BF00010BD00000000C07F10B50C461107090F82
:102C0000092904D00A290AD008290CD104E0114668
:102C10000820FFF7D1FF06E0510606D501E0510676
:102C200001D50120C007214610BDD10607D50101FD
:102C30000909CC084907000E0006044309E0410FCA
:102C400020024907000A0143200E00061D22D1413F
:102C500001430846E7E7000001491820ABBEFEE744
:102C60002600020070470000F0B587B003A80025D9
:102C70000570009061485721FF240123224602F08D
:102C800025FA02A803990170007855283AD0002748
:102C90001E4D04A804700090380A50210143C9B2A7
:102CA000FAB20123554802F0C7FB0A26304603F06A
:102CB0002DFA304603F02AFA781CAF420746E8D3D3
:102CC00005A85521017000904C4C5725FF2601277F
:102CD0002046294632463B4602F0AEFB0A2003F06E
:102CE00015FA06A8002101700090204629463246B8
:102CF0003B4602F0EBF902A8069901700578553DB4
:102D0000681E8541284607B0F0BDC046FF07000099
:102D1000B0B5104802F044F9192044012546FFF7E8
:102D2000A3FF00280FD0142003F0F0F96D1EF6D198
:102D300009480178012909D00221017007A0214624
:102D400001F032FFB0BD04480121017010A001F074
:102D50004FFFB0BD8CCF0000180120204154323409
:102D600043303220696E697469616C697A61746993
:102D70006F6E206661696C6564206166746572209F
:102D8000256420617474656D7074732E00000000FA
:102D90004154323443303220696E697469616C6920
:102DA0007A6564207375636365737366756C6C799B
:102DB0002E00000010B582B001AC002121700094FB
:102DC000C2B24005410F50310C48012302F07EF998
:102DD000207802B010BDC04680B582B001AA117043
:102DE0000092C2B24005410F50310448012302F065
:102DF00023FB0A2003F08AF902B080BD8CCF0000CB
:102E0000811E091F00BFFCD2704710B5002A0FD0E9
:102E100091235B01C3180020DC692405240F05D031
:102E20000C5C1C60401C8242F6D1104680B210BD82
:102E3000002080B210BD70B50A780C231A4001241E
:102E4000240305196E689E43B2186A604978072208
:102E50001140035993435918015170BDB0B5112267
:102E6000120283580C4C1C400B894D881D438B79F2
:102E70002B430A4D1D402B1983508B88CC791C4362
:102E8000097821435D239B001940801842689A43CA
:102E900089184160B0BDC04680CCFFFF7F33000081
:102EA00010B50122120383180C785C6049788150B8
:102EB00010BD0000F0B584B0012422022A4B19682D
:102EC00003929143196035490D686D04FCD5457E28
:102ED00025409E69A64374199C612024045D032546
:102EE0002C40DE69AE433419DC61204C2568052690
:102EF0002660466A37681F6276685E6207262E4043
:102F00002660C4697F252D02DE69AE436406640C29
:102F10003419DC610768456882680092C6680269F6
:102F20000192426902929A69114C14403A07120BBD
:102F30002D03ADB2AA183243009D2D072D0D154368
:102F4000019A1543029A1543007E2843094A02401C
:102F5000101998611868039A104318600868800572
:102F6000FCD504B0F0BDC04608010B400013404042
:102F70008D00F0FF72FF0F00074988600748026864
:102F80009202FCD5012212040B6813430B60016806
:102F9000C906FCD57047C04604010B4004020B4033
:102FA000F0B57A4A82183B4BC31808794E793A4DEE
:102FB000784C002E23D0202804D00526F6010028C6
:102FC00003D003E0354E002800D18826576F2F40EC
:102FD00037435767976F2F4037439767566B2640A5
:102FE0005663966B264096630026566596658F2637
:102FF000F6435F6837405F609F6837409F608E7917
:10300000096820280BD0002819D1491E5160D76EBD
:103010002F4088210F43D7661746703719E0491EA5
:103020005160D16E29401D4F3943D166116F29403F
:103030003943116701214907194D174609E049082D
:103040005160D76E2F400521C9010F43D76617463F
:1030500070373C682C400C433C60D16A4D4C214099
:10306000D162116B214011630021D16411658F2160
:10307000C943D46F0C40D4671C680C401C600643E5
:10308000BD2030401168074B0B40C018801C1060F9
:10309000F0BDC0468418000024493E000104000031
:1030A000FFFFFFCF4000FFCFB0B54A68364BC2509C
:1030B000364A80180A78222A58D8930001A4E35887
:1030C0009F46C046633100006D310000633100004F
:1030D0006D3100006D3100006D3100006D31000078
:1030E0006D3100006D3100006D3100006D31000068
:1030F0006D3100006D3100006D3100006D31000058
:103100006D310000513100006D310000513100007F
:103110006D3100006D3100006D3100006D31000037
:103120006D3100006D3100006D3100006D31000027
:103130006D3100006D3100006D3100006D31000017
:103140006D310000513100006D310000513100003F
:1031500003231B0704689C4301235B07E3180360F8
:1031600004E003231B0704689C4304600B69C360ED
:10317000CB68074C1C40C36A064D1D402B19C36227
:10318000097A11430160B0BD08180000041800005E
:10319000777702008888FDFF10B507239B0419404C
:1031A00092008018024A84589C436118815010BDD7
:1031B0003018000010B5029CA400001911431943F7
:1031C000014A815010BDC04650180000920080187E
:1031D000014A81507047C0461018000010B5012206
:1031E000120383180C789C604B7883508978014ACD
:1031F000815010BD0C110000B0B51122120283588D
:103200000124A34383500B888C781C438B88234371
:10321000094C1C408358094D1D40631983508B791C
:10322000CC791C43097A21437E23194080184268D7
:103230009A4351184160B0BD18670000E798FDFF40
:1032400010B50122120383180C789C6049788150D4
:1032500010BD0000034A801802681206FCD4816188
:103260007047C04608110000F0B583B0002A3CD07A
:1032700006460020044601920091012292071C4D4F
:103280002A6008CE02961B4E33701A0A72701A0C0E
:10329000B2701A0EF2702B6080004518A8B2317817
:1032A000FFF79AFD3227384602F030FF681C80B2E3
:1032B0007178FFF791FD384602F028FFA81C80B214
:1032C000B178FFF789FD384602F020FFE81C80B294
:1032D000F178029EFFF780FD384602F017FF009953
:1032E000019A641CA0B28242C7D8012003B0F0BD8D
:1032F0006001202064012020F0B581B0A64909F0CA
:103300000FFC7D21C90509F047FB0446FDF7E4FCED
:1033100005460021204608F0CDFD002800D06D1E96
:103320002846FDF723FD0146204609F05DFC1121EA
:10333000890609F0F5FB0546FDF7CEFC984C0440E4
:103340002046FDF71BFD0146284609F04DFC0546C9
:103350007F20C005294609F047FC0646A7008F4894
:10336000C0194168284609F0DBFB04468B48C15967
:10337000304609F0D5FB214609F00EFB01B0F0BD47
:10338000F0B581B00646844909F0CAFB0446FDF752
:10339000A3FC05460021304608F08CFD002800D033
:1033A0006D1E2846FDF7E2FC0146204609F01CFC94
:1033B0001121890609F0B4FB0546FDF78DFC784C18
:1033C00004402046FDF7DAFC0146284609F00CFCD3
:1033D00005467F20C005294609F006FC0646A700E1
:1033E0006E48C0194168284609F09AFB04466B48AC
:1033F000C159304609F094FB214609F0CDFA01B0DD
:10340000F0BDC046F0B589B004920591624909F05B
:1034100087FB0446FDF760FC05460021204608F0C6
:1034200049FD002800D06D1E2846FDF79FFC01468F
:10343000204609F0D9FB1121890609F071FB0190A2
:10344000FDF74AFC05468030C005400D534E31580B
:10345000089130184068039009F0C6FB0690504F61
:103460002F40B8003458301841680791204609F0C1
:1034700093FA05460698014609F08EFA0646494930
:10348000284609F04DFB314609F0AEFB009020467E
:103490002146264609F080FA0146079809F07CFA91
:1034A000414909F03DFB05464049069809F038FBC3
:1034B000294609F071FA04463846FDF75FFC0146DB
:1034C000019809F091FB0746009909F029FB014694
:1034D000204609F061FA0146384609F021FB04460E
:1034E000029630462F4909F01BFB214609F054FA99
:1034F0000146384609F014FB0146089D284609F0AC
:103500004BFA049908600798314609F06DFB0446B0
:103510002846039E314609F03FFA234909F000FB93
:1035200005462046214609F037FA0146284609F0AB
:103530005BFB05460898014609F02EFA314609F072
:103540002BFA184909F0ECFA06462046174909F00B
:10355000E7FA314609F020FA04463846294609F0D0
:10356000DFFA214609F018FA0146384609F0D8FA80
:10357000044608980C4909F0D3FA0146204609F0A0
:103580000BFA0146384609F0CBFA029909F004FA21
:103590000599086009B0F0BD83F9223E18D00000FB
:1035A000FF010000DB0F49BCDB0F493C000040403D
:1035B000F0B589B01D46144601920A460291059065
:1035C0000E990491104609F0ABFA08900F990691F4
:1035D000204609F0A5FA0646109C2846214609F027
:1035E0009FFA07460898314609F0D6F90146384651
:1035F00009F0D2F9002108F03AFC039028462E4643
:10360000069909F08DFA0546019F3846214609F0D2
:1036100087FA294609F0E8FA0890029D28462146D3
:1036200009F07EFA04463046049E314609F078FAE5
:10363000214609F0D9FA07903846314609F070FA68
:1036400004462846069909F06BFA214609F0CCFA9F
:103650000399002938D104460898014609F060FA18
:1036600005460798014609F05BFA064620462146C2
:1036700009F056FA07462846314609F08DF9014609
:10368000384609F089F94510134909F049FA1349F8
:103690004D1B294609F044FA294609F041FA104920
:1036A00009F07AF9294609F03BFA054608982946B7
:1036B00009F036FA08900798294609F031FA079080
:1036C0002046294609F02CFA0599089A0A60079ABB
:1036D0004A60886009B0F0BD12D336BF12141F5F74
:1036E000FF51D83FF0B58FB00C460A908D6909950F
:1036F000CF69284639460D9709F012FA0B90266AD1
:1037000028463146039609F00BFA0E90656A384652
:103710002946029509F004FA0746089030462946E2
:1037200009F0FEF90646069038460E9909F05CFA53
:1037300005460B98314609F02FF9E16A059109F029
:10374000EFF90746A16A04910794284609F0E8F9C1
:10375000394609F021F900900998014609F0E0F98D
:10376000BF21090609F018F90746029E3046314686
:1037700009F0D6F93946019709F00EF9216B0C9141
:1037800009F0CEF9009909F007F9014609F004F9AA
:103790000A9D0090A8600998314609F0C1F90646D3
:1037A00009900D98039C214609F0BAF90290314620
:1037B00009F0F2F806462046214609F0B1F93946EB
:1037C00009F0EAF8059F394609F0AAF9044630469F
:1037D000049E314609F0A4F9214609F0DDF80446BB
:1037E00006980B9909F000FA0C9909F099F921460D
:1037F00009F0D2F8014609F0CFF868600D9801464B
:1038000009F08EF9019909F0C7F804460298099960
:1038100009F0EAF9394609F083F9054620463146B0
:1038200009F07EF9294609F0B7F804460E98089980
:1038300009F0B2F80C9909F073F921460A9C09F0D5
:10384000ABF8014609F0A8F8206007980078022834
:1038500001D2054902E005D17F20C105009809F099
:103860009BF8A0600FB0F0BD000080BF10B50C4603
:1038700018341CCC496A1CC0016010BD10B5044648
:1038800012A100F02FF834200121215400207F21C3
:10389000C905A161E06120626062A062E06220630C
:1038A00020662146343108734549A1636064A064F1
:1038B000E06420656065A065214644310876682192
:1038C000605461696166E066216710BD0000000018
:1038D0000000003F000000000000B4420000B442BD
:1038E00000000000F0B583B00446087820704868F6
:1038F0000190606000918F6800253846294608F0E5
:10390000ABFA06462B49384609F00AF92A49002E37
:10391000029100D10146A160009EF7683846294611
:1039200008F09AFA002824480CD12449384609F0B6
:10393000F7F808F075FE3F21090609F0F1F8014695
:1039400009F0EEF8E06035690021284608F084FAB5
:1039500000283746019E0DD11849284609F0E0F8A5
:1039600008F05EFE3F21090609F0DAF8014609F089
:10397000D7F80290029820617D69656125676566C8
:103980000021304608F068FA002801D1002D02D14C
:103990000948E06020613420205C002800D1A66343
:1039A0000748314609F020F90649FDF7E5F8E063DC
:1039B00003B0F0BD48E17A3FFFFF7F7F35FA8E3CD0
:1039C0000000204100004040F0B59DB00F930E92E2
:1039D000044624980B90206323981290E06222986A
:1039E0001490A06201201590C2070A9108469043E6
:1039F000A568294608F046FA2746343721465C3147
:103A000017912899139100281894169715D1F24F01
:103A10000F983840294608F035FA0646401E864180
:103A20000E9807403846294608F02CFA00281598C9
:103A300000D130460128169F53D10020A062E062D9
:103A40002063012139702066E44AA2636064A064A7
:103A5000E06420656065A0652246443210766269A4
:103A6000A369189CE469189D2D6A189E766A1C96B5
:103A70001B951A94189C1993179B187339736266D7
:103A8000E06622671B9820621A98E0611998A0618D
:103A90001C986062E06B139909F042F80146A06B34
:103AA00009F0A2F82146044688634D68002628469E
:103AB000314608F0D1F90746401E87412046294685
:103AC00008F0F8F90028159800D138460128159813
:103AD0000D90189C0AD1169806730670A5630D9672
:103AE00004E03878C007D5D100200D90217800205F
:103AF00008910229169031D2A669256A30462946D6
:103B000009F00EF811901898C4691898476A204671
:103B1000394609F005F8119909F066F81190204628
:103B2000314608F0FDFF04462846394608F0F8FF04
:103B3000214608F031FF10903046314608F0F0FF82
:103B4000BF21090608F028FF04463846394608F028
:103B5000E7FF2146189C08F01FFF3AE011901090F3
:103B60000C9037D1E669616A0C91304608F0D8FFB5
:103B70000446189885691898076A2846394608F057
:103B8000CFFF214609F030F811902846314608F061
:103B9000C7FF044638460C9E314608F0C1FF214657
:103BA00008F0FAFE0121C907414010912846294634
:103BB00008F0B6FF01463F20000609F015F804465C
:103BC0003046314608F0ACFF01462046189C09F00B
:103BD0000BF80C90259A0123179803707E4D1498CA
:103BE0004000099209D11298284006D10B9828402C
:103BF00016980646014600D19FE0079314980146A7
:103C000008F08EFF04461298014608F089FF054629
:103C10000B9F3846394608F083FF06462046294662
:103C200008F0BAFE0146304608F0B6FE44106C4972
:103C300008F076FF6B490D1B294608F071FF2946F5
:103C400008F06EFF684908F0A7FE294608F068FFF3
:103C50000446149908F064FF05462046129908F0BE
:103C60005FFF06462046189C394608F059FF034678
:103C700011980090109801900C98029019A829466C
:103C80003246FFF795FC1B981A99199A6264A16451
:103C9000E0640D98002821D1606C014608F040FFD7
:103CA00004461898806C014608F03AFF05461898BB
:103CB000C06C014608F034FF06462046189C294691
:103CC00008F06AFE0146304608F066FEE16808F03A
:103CD000D9F8002802D00020079B05E000201799A2
:103CE00008700820C3431598216E626EC91891426E
:103CF000394D0EDD0020179A107060666369994295
:103D00000A4600DB1A46002900D410462066099AAC
:103D100010E06369636699420A4600DB1A46002692
:103D20000029314600D4114621660028314630462C
:103D3000099A02D0666CA16CE06C0B9112902798E6
:103D40001490269F0123179803732A4208D13846FE
:103D5000284005D1149805401698054600D17FE10A
:103D60000898022806960393079776D001283DD03D
:103D7000002800D0A8E0A569666A2846314608F008
:103D8000CFFE16902046E469076A2046394608F0BF
:103D9000C7FE169908F000FE16902846214608F046
:103DA000BFFE04463846314608F0BAFE214608F008
:103DB0001BFF08902846294608F0B2FEBF210906DD
:103DC00008F0EAFD04463846394608F0A9FE2146C7
:103DD00008F0E2FD75E0C046FFFFFF7F00002041D4
:103DE00012D336BF12141F5FFF51D83FE669216A14
:103DF0001691304608F094FE214604468F694D6ABC
:103E00003846294608F08CFE214608F0EDFE059064
:103E10003846169908F084FE04463046294608F0D4
:103E20007FFE214608F0B8FD0399C907414008917B
:103E30003846394608F074FE01463F20000608F077
:103E4000D3FE04463046314608F06AFE014620465D
:103E500008F0CAFE079F16903AE0A669616A0891C9
:103E6000304608F05DFE21460446CF690D6A3846AB
:103E7000294608F055FE214608F08EFD0121C907AC
:103E8000414016912846089908F04AFE04463046FB
:103E9000394608F045FE214608F0A6FE0890304657
:103EA000314608F03DFE01463F20000608F09CFE2A
:103EB00004462846294608F033FE0146204608F00D
:103EC00093FE079F059003E0002005901690089050
:103ED0000C9D2846394608F023FE04461098149F8E
:103EE000394608F01DFE214608F07EFE0646119870
:103EF000394608F015FE04462846099D294608F073
:103F00000FFE214608F070FE074604963046314603
:103F100008F006FE0446384639463E4608F000FEE4
:103F2000214608F039FD14901098294608F0F8FD54
:103F300004461198079908F0F3FD214608F054FE55
:103F40000746014608F0ECFD149908F025FD4410E1
:103F5000CA4908F0E5FDC8490D1B294608F0E0FDF7
:103F6000294608F0DDFDC64908F016FD294608F08F
:103F7000D7FD04460498214608F0D2FD0546304698
:103F8000214608F0CDFD06463846214608F0C8FD1A
:103F9000034616980090059801900898029019A879
:103FA00029463246FFF704FB1B981A99199A189C68
:103FB00022656165A0650D98002822D1206D01461B
:103FC00008F0AEFD04461898406D014608F0A8FDC3
:103FD00005461898806D014608F0A2FD0646204669
:103FE000189C294608F0D8FC0146304608F0D4FC5D
:103FF000216907F047FF002803D000201590039A9D
:1040000004E00020179908730820C243E06E216F76
:1040100080188842069E0DDD0021179A11732167D2
:1040200063699842024600DB1A46002800D4114614
:10403000E16611E0626922679042014600DB1146A9
:1040400000220028104600D40846E0661598002893
:1040500015461692104603D0206D1690656DA06D22
:104060001190884F0A98394608F05AFD17900E981B
:10407000394608F055FD15903046169908F08CFC2D
:1040800007460B98294608F087FC0646A56B109555
:104090003846294608F044FD04463046294608F0D3
:1040A0003FFD06461798214608F076FC0446159811
:1040B000314608F071FC0646139F3846214608F049
:1040C0002FFD054617903846314608F029FD014678
:1040D0001490189E306A169008F022FD04460120C4
:1040E000C007F16915914840294608F019FD21469D
:1040F00008F07AFD06460F98624908F011FD044663
:104100001298119908F048FC0146109808F008FD33
:104110000146204608F040FC0146384608F000FD04
:104120000446189D6F6A38460F972146139408F08D
:10413000F7FC0146304608F057FD129016982146CC
:1041400008F0EEFC0446AE6930460D96179908F06B
:10415000E7FC214608F020FC04463846149D294619
:1041600008F0DEFC0146204608F03EFD04463046DD
:10417000129908F011FC0646159F3846214608F0B2
:104180000BFC1190014608F0CBFC04461296304619
:10419000314608F0C5FC214608F0FEFB0E9038467B
:1041A000139908F0BDFC04460D9E3046294608F0E0
:1041B000B7FC214608F018FD04460F9D28461799C4
:1041C00008F0AEFC214608F0E7FB0146169F384692
:1041D00008F0E2FB1090014608F0A2FC0E9908F0EE
:1041E000DBFB0E901598149908F09AFC04463046B3
:1041F000139908F095FC214608F0CEFB044638469A
:10420000179908F08DFC0146204608F0EDFC0146A8
:10421000284608F0C1FB0546014608F081FC0E99CE
:1042200008F0BAFB4408154908F07AFC12490F1B44
:10423000394608F075FC394608F072FC104908F060
:10424000ABFB394608F06CFC07462846394608F0B7
:1042500067FC189C60621098394608F061FC206287
:104260001198394608F05CFCE0611298394608F074
:1042700057FCA0611DB0F0BD12141F5F12D336BFF2
:10428000FF51D83F35FA0E3CF0B58DB00446159875
:1042900006900020059004900390149802901398C3
:1042A0000190129800902046FFF78EFB3420205C8E
:1042B00001286DD1E069276A394608F031FC0646CD
:1042C000A069656A294608F02BFC314608F064FBBA
:1042D0000C903846394608F023FC01463F2007067B
:1042E000384608F081FC06462846294608F018FCA6
:1042F0000146304608F078FC01460C9807F086FF2E
:10430000394608F00DFC054608F0CEF8064628466A
:1043100008F086F90546A1690C91304608F000FCCA
:104320000746616A0B912846099508F0F9FB394662
:1043300008F032FBA061E1690A913046374608F087
:10434000EFFB0890266A2846314608F0E9FB0899F9
:1043500008F022FBE0613846314608F0E1FB0546F3
:10436000099E30460A9908F0DBFB0146284608F012
:104370003BFC206238460B9908F0D2FB05463046DC
:104380000C9908F0CDFB0146284608F02DFC606230
:104390000DB0F0BD10B50446002005224A4362600E
:1043A000A060E060206160610846FCF7E7FC014620
:1043B0007F20C005FCF7E0FB024908F0B1FB20605C
:1043C00010BDC046FDAD003EF0B587B01C460D46A1
:1043D0000690C9681046039108F006FC0646296954
:1043E0002046029108F000FC0746274C059626401F
:1043F0002649304607F046FD0646049727403846D2
:10440000224907F03FFD0746374369690C9801913F
:1044100008F0EAFB0646044020461C4907F032FD3E
:10442000384302D03446002005E06968A868884215
:1044300005D23446401CA860059E049F1FE02968F1
:10444000344630460E46009108F06AFB014601985A
:1044500008F0A2FA6861049F3846314608F060FB14
:104460000146029808F098FA2861059E30460099A6
:1044700008F056FB0146039808F08EFAE8600698AB
:10448000C0C0046007B0F0BDFFFFFF7F00004040E8
:10449000B0B51E480068800736D51D4C2546103D36
:1044A0002868C00609D520681021014321601948F9
:1044B0004069002801D002F08FF82868800609D5ED
:1044C000206820210143216012488069002801D022
:1044D00002F082F82868400609D52068402101438F
:1044E00021600C48C069002801D002F075F82868E6
:1044F000000609D520688021014321600548006A33
:10450000002801D002F068F8B0BDC046401140401C
:1045100048300A407C05202004A000F045FB032021
:10452000012102F063FF72B6FEE7C046212121207F
:10453000556E68616E646C656420496E7465727254
:1045400075707420486172644661756C745F48616F
:104550006E646C6572202121210A0000F0B587B0DD
:1045600005930E46074606A90A700C9A0492FEF7B8
:104570004CFC9848381898497918C82301249AB2F5
:104580005542554182689206274600D42F46002F97
:1045900009D18268920606D48268920603D41B1F52
:1045A00082689206EBD502688C4B1A407300D218D1
:1045B000026042688A4D2A408A4D52194260C825DD
:1045C000AAB25642564182685206274600D537465F
:1045D000002F09D18268520606D58268520603D59B
:1045E0002D1F82685206EBD4C825AAB25642564106
:1045F00082689206274600D43746002F09D1826888
:10460000920606D48268920603D42D1F8268920611
:10461000EBD50268714D2A401343012203921343E4
:10462000036042686E4B1A40049D2B04134307221B
:104630001A434260002D58D003232A4602931A40A1
:104640000192042D53D20026019A002A4DD0C8238E
:104650009AB2554255410A681207274600D12F46A3
:10466000002F09D10A68120706D10A68120703D180
:104670001B1F0A681207EBD0C268059B9A55019A66
:10468000012A32D0C8239AB2554255410A6812070E
:10469000274600D12F46002F09D10A68120706D1FC
:1046A0000A68120703D11B1F0A681207EBD0059A8C
:1046B0009319C2685A70019A022A16D0C82296B27B
:1046C000754275410E683607264600D12E46002EEB
:1046D00009D10D682D0706D10D682D0703D1121FD2
:1046E0000D682D07EBD0C068987007B0F0BDFC22B4
:1046F00015400026049506E0C268059B5A55361DF4
:10470000049DAE42A0D0C825AAB2574257410A68BC
:104710001207234600D13B46002B09D10A68120735
:1047200006D10A68120703D12D1F0A681207EBD0C1
:10473000C268059B9A553546039A1543C827BAB2F5
:10474000534253410A681207224600D11A46002AF2
:1047500009D10A68120706D10A68120703D13F1F60
:104760000A681207EBD0C268059B5A5502253543EB
:10477000C827BAB2534253410A681207224600D1F1
:104780001A46002A09D10A68120706D10A681207D8
:1047900003D13F1F0A681207EBD0C268059B5A5528
:1047A0003546029A1543C827BAB2534253410A68A4
:1047B0001207224600D11A46002A9DD10A68120724
:1047C0009AD10A68120797D13F1F0A681207EBD0E7
:1047D00092E7C046101200003C12000000F8FFFFF4
:1047E000F8FF00F007000100F0B585B0E64C682541
:1047F0006B2281232046294603F024FE642001F029
:1048000085FC75222046294603F00EFE0146DF484E
:1048100001700120AD2934DC122936D0682900D17D
:10482000B9E0982900D0B4E068266B220025204624
:1048300031462B4603F006FE1922204631462B4610
:1048400003F000FE642001F061FC1A2202232046DE
:10485000314603F0F7FD1B220827204631463B4630
:1048600003F0F0FD1C22204631463B4603F0EAFDF2
:104870001D2203232046314603F0E4FD284605B0FF
:10488000F0BDAE39022900D383E068256B26802372
:1048900020462946324603F0D5FDC820049001F099
:1048A00035FC012320462946324603F0CBFD0A2081
:1048B00001F02CFC1922039200262046294633469B
:1048C00003F0C0FD1A22029202232046294603F07B
:1048D000B9FD1B2201920827204629463B4603F0DA
:1048E000B1FD1C220092204629463B4603F0AAFD5A
:1048F0001D270323204629463A4603F0A3FD6C22D8
:1049000020462946334603F09DFD1E2220462946B7
:10491000334603F097FD232220462946334603F011
:1049200091FD049801F0F2FB20462946039A03F01A
:104930007BFD344E307020462946029A03F074FD08
:10494000707020462946019A03F06EFDB070204633
:104950002946009A03F068FDF070204629463A4641
:1049600003F062FD307128490A794240C878F37833
:10497000434013438878B27842401A4348787378AA
:10498000434013430878317841401943C8B2411E6F
:10499000884105B0F0BD68256B2780232046294655
:1049A0003A4603F04FFDC82001F0B0FB0026204638
:1049B00029463A46334603F045FD0A2001F0A6FB9E
:1049C000192220462946334603F03CFD03232046A6
:1049D00029463A4603F036FD1A220223204629468C
:1049E00003F030FD1B220827204629463B4603F0F2
:1049F00029FD1C22204629463B4603F023FD304674
:104A000005B0F0BD440520200F002020F0B585B092
:104A100016460C4605460E2000905B4868213B2256
:104A200001AB01F0FAFE59480078AD2829DC1228C4
:104A30002AD0682857D0982855D10198C0BAFCF7D9
:104A400095F920600298C0BA4042FCF78FF9A06047
:104A500001AF7888C0BA4042FCF788F960600398DB
:104A6000C0BAFCF783F928600498C0BA4042FCF74A
:104A70007DF9A8607889C0BA4042FCF777F9686090
:104A800025E0AE3802282ED20198C0BA4042FCF789
:104A90006DF9206001AF7888C0BAFCF767F96060F3
:104AA0000298C0BA4042FCF761F9A0600398C0BA0E
:104AB0004042FCF75BF928607889C0BAFCF756F9E8
:104AC00068600498C0BA4042FCF750F9A860F888C2
:104AD000C0BAFCF74BF92E4907F05EFF2D49FCF7F1
:104AE0004BF82D492AE00298C0BAFCF73FF9A060C4
:104AF0000198C0BA4042FCF739F9206001AF7888CC
:104B0000C0BA4042FCF732F960600498C0BAFCF7C2
:104B10002DF9A8600398C0BA4042FCF727F9286035
:104B20007889C0BA4042FCF721F96860F888C0BAB9
:104B3000FCF71CF91949FCF71FF8194907F02CFF7D
:104B400030606868174E314607F0EAFF6860A86871
:104B5000314607F0E5FFA8602868314607F0E0FF1E
:104B60002860392005066068294607F0D9FF606093
:104B7000A068294607F0D4FFA0602068294607F006
:104B8000CFFF206005B0F0BD00200F4000002020C6
:104B90000000C8C16666A3430000C8410000AA43E4
:104BA000B81E124247237A3C83B0B0B5C1B0044668
:104BB00045914692479345AB00930120010201AD18
:104BC00028462246FBF794FB0548064906A22B46D9
:104BD00005F028FD41B0B0BC01BC03B00047C046A1
:104BE000008010408FD800005B4552524F525D004C
:104BF00083B0B0B5C1B0044645914692479345ABEA
:104C000000930120010201AD28462246FBF770FB0C
:104C100005480649064A2B4605F004FD41B0B0BCE4
:104C200001BC03B00047C046008010408FD8000090
:104C300097D80000F0B589B006920C460646086980
:104C400000250890294607F007F90746401E8741CE
:104C5000E0680790294607F0FFF8411E8841384078
:104C600027460C3700963546012820D1606900217F
:104C700007F0F2F800281AD02068002107F0ECF8BD
:104C8000002814D06068002107F0E6F800280ED054
:104C9000A068002107F0E0F8002808D02046103076
:104CA00021461431231D3D600646224656E00597F5
:104CB000A56006994868039088680490CF680869E1
:104CC000496906910899E16061686560226802920D
:104CD0002160019107F024FF06463846294607F077
:104CE0001FFF314607F058FE06460698029907F066
:104CF00017FF314607F050FE06460398089F3946D5
:104D000007F00EFF0146304607F06EFF0646049896
:104D1000079907F005FF0146304607F065FF20615F
:104D2000606122461432214610317B00104EB3429E
:104D300012D20E4B0126F607019FB7439F420BD2BA
:104D40000746B7439F4207D2009FB7439F4223467F
:104D5000059E03D209B0F0BD2346059E0D60356067
:104D600015601D60A560284609B0F0BD0100807F78
:104D7000020000FF80B582B0002101910648006862
:104D800001AA05F055FF0198002803D00120000773
:104D90000249086002B080BD4C37202004ED00E0DD
:104DA000EFF309800E4B1A6820381060F0C04446BB
:104DB0004D4656465F46F0C008B572B606F074F828
:104DC00062B60CBC116808681030F0C8A046A9464D
:104DD000B246BB4680F309882038F0C81847C04661
:104DE0002809202084B006F0F5FB02905648068979
:104DF00005253046294606F0B9FD0121052E0F464E
:104E000000D301460298441E062E204601D3029884
:104E1000401A4E4908604C48068B3046294606F039
:104E2000A5FD052E394600D30146062E204601D3A6
:104E30000298401A454948604348068D3046294645
:104E400006F094FD052E394600D30146062E204675
:104E500001D30298401A3D4988603B48068F30468E
:104E6000294606F083FD052E394600D30146062E5D
:104E7000204601D30298401A3449C860482032497C
:104E80000E5A3046294606F071FD052E394600D3EC
:104E90000146062E204601D30298401A2B4908618C
:104EA000582029490E5A3046294606F05FFD052E46
:104EB000394600D30146062E204601D30298401AF7
:104EC00022494861682020490E5A3046294606F09A
:104ED0004DFD052E00D30746062E01D30298C41BB4
:104EE0001A48846106F076FB039003A8052106F0BA
:104EF00015FB154F0837002406F06CFB019003E00A
:104F00001037241D1C2CF0D0F81F00780028F7D192
:104F1000381F00680028F3D002903E8805213046F3
:104F200006F024FD052E01D3054600E001250748C3
:104F300000590199081AA8420298E1DB8047034909
:104F4000085940190851DBE71C0020201C012020D3
:104F500070B50C468600B0B2FDF72CFF0E4D2870E0
:104F6000701C80B2FDF726FF6870B01C80B2FDF7A0
:104F700021FFA870F01C80B2FDF71CFFE8702878B4
:104F80000649087068784870A8788870E878C87012
:104F90000868206070BDC0466401202060012020A8
:104FA00010B5002812D081688900E54A464B8B5025
:104FB000816889008B58012464061C438C50C168A9
:104FC0000269E04BCA5001684068C85010BDC04635
:104FD000F0B585B0019181688A00D94C3A491151E8
:104FE00081688B001959012252060A431A5102683E
:104FF00003904168D348115000252F460495952011
:105000004201039CE06821690292815001263046EA
:1050100001F0A2F8E0682169CA4A81502720C00146
:1050200022CC0C58304601F097F82C40601B4142CE
:105030004141049840004518781C072F0746DDD3EE
:10504000039CE1682069029E8851A068800081224B
:10505000F64B1A5022686068F64BD05023698B518A
:10506000F3495118019A002A16D0086101263046EA
:1050700001F072F8039CE0682169ED4FC1513046A0
:1050800001F06AF8E0682169029A8150304601F027
:1050900063F803CCC15113E008600126304601F0EB
:1050A0005BF8039CE0682169E14A8150304601F0D9
:1050B00053F8E0682169029A8150304601F04CF8BB
:1050C000E8B205B0F0BDC04681000E00F0B587B073
:1050D0000127002B00D11AE1002800D117E10C9C18
:1050E000002C00D113E10192049400938268920095
:1050F000CE4B8126D6500CC8CE4C135108380590A3
:105100000291CB4C13510127384601F025F8059840
:10511000C068059909690151059C384601F01CF8E1
:105120009520450103CC41513846083C01F014F864
:10513000E06821694151384601F00EF8A06880000E
:105140000396BA49465003CCBA4A81506068A168B8
:10515000069541510298460000250296059C1AE0EA
:10516000B34806CC0A5001273846083C00F0F4FF4B
:10517000E0682169AE4A8150384600F0EDFFE068F2
:105180002169069A8150384600F0E6FF681C7600D7
:10519000072D054605D270B20028E1DBA448103087
:1051A000DFE7204600F0D0F8A16889009F4A039B02
:1051B000535006CC9F4BCA506368A568069E9D510C
:1051C000083C002801D0022790E00025019E1AE04B
:1051D000974806CC0A5001273846083C00F0BCFF2F
:1051E000E0682169924A8150384600F0B5FFE068D6
:1051F0002169069A8150384600F0AEFF681C76009F
:10520000072D054605D270B20028E1DB8848103032
:10521000DFE7204600F098F8A1688900834A039DE3
:10522000555006CC834BCA50083C002801D00227B9
:1052300058E07F4E88190260384600F08DFFE06824
:1052400021698151384600F087FF03CC069E8151C9
:105250003846083C00F080FFE068216981513846FB
:1052600000F07AFFA068800070490D5003CCFD4A21
:1052700081506068A1688151029939430025083C3A
:105280001AE0F94806CC0A5001263046083C00F0E6
:1052900063FFE0682169F44A8150304600F05CFF0A
:1052A000E0682169069A8150304600F055FF681C7D
:1052B0007900072D054606D248B20F460028E0DBEC
:1052C000E9481030DEE7204600F03EF8002821D003
:1052D0000227E34D0399E34BA0688000295006CCD8
:1052E000CA50083C069EE068236983518A51012513
:1052F000284600F031FFE0682169DB4E81512846E5
:1053000000F02AFF03CC8151284600F025FFF8B2B7
:1053100007B0F0BD009FD24D08E000212046FFF706
:1053200057FE04990870491C04917F1E0399F8B236
:105330000128CC4BF1D00028CED03146EEE7C04654
:105340000480424090120000F0B587B004468068A7
:105350008000C34BF949C150A0688000C1580125A5
:105360006A060A43C25003CCBF4E81519520069075
:1053700047016068A168C1512846083C00F0ECFE76
:10538000E06821698151284600F0E6FE2720C60129
:1053900003CC80590840083C2246103223460C3387
:1053A0000025884231D10293039504920597201D70
:1053B00001904B2087000125284600F0CDFE03CC4C
:1053C00082590A40083C8A4222D17F1EF3D10699B5
:1053D00049014218A34BC018A3689B008126A04F27
:1053E000FE5063680360E0682669465013602846F3
:1053F00000F0B2FEE06821699B4A8150284600F027
:10540000ABFE059F103F019806E01C46104603E0E6
:10541000029C0498039D059F00682168C8510120E3
:1054200000F09AFE284607B0F0BDC0460480424016
:1054300090120000D0120000F0B587B004460120A1
:105440000393002B00D108E1002C00D105E10C9B57
:105450000293002B00D100E105910192A068800029
:105460007F4981220492425003CC7E4A81507E4D76
:10547000415101273846083C00F06EFEE068216982
:105480004151384600F068FE9520460103CC815119
:105490003846083C00F060FEE068216981513846DA
:1054A00000F05AFEA06880006D4A0499815003CC38
:1054B0006C4A81506068A168069681510026083CBC
:1054C00017E006CC0A5001273846083C00F044FE9D
:1054D000E06821694151384600F03EFEE0682169EC
:1054E000069A8150384600F037FE701C072E06469B
:1054F00009D20598400040B2002805905A4D284630
:10550000DFDB1030DDE72046FFF71EFFA1688900D2
:10551000534E049A725006CC524BCA506368A56829
:10552000069FDD51083C002803D03D460220009034
:1055300081E00027019E19E006CC0A50012528468B
:10554000083C00F009FEE0682169474A815028467E
:1055500000F002FEE0682169069A8150284600F0BA
:10556000FBFD781C7600072F074605D270B2002895
:105570003D48E1DB1030DFE72046FFF7E5FE022182
:105580000091002804D00499364B069D344E49E022
:105590000020019002460499324B069D304E02983D
:1055A0000592875CA0688000315003CCC1506068D0
:1055B000A1684151019E083C19E006CC0A50012522
:1055C0002846083C00F0C8FDE0682169264A815061
:1055D000284600F0C1FDE0682169069A81502846FE
:1055E00000F0BAFD701C7F00072E064605D278B287
:1055F00000281D48E1DB1030DFE72046FFF7A4FE5E
:1056000000280BD1059A521C03988242144E04992B
:10561000144B069DC3D10020009003E0104E049966
:10562000104B069DA0688000315006CCCA506068BF
:10563000A3684351083C4A510125284600F08CFDDF
:10564000E0682169084E8151284600F085FD03CCB1
:105650008151284600F080FD009807B0F0BDC0469B
:1056600004804240D01200009012000070470000F9
:1056700070B52C498720C8660124A2032A4802601D
:1056800088220A61294A0823136084238B628023BD
:10569000136082254D6110231360254B5E1C4E6004
:1056A0000E6064064E6826434E600E6826430E6008
:1056B0004D64204D8D64204C832666600E676D1C02
:1056C00025608125A565CD630D644D676561A56283
:1056D0004B638B63CB640B65184B4B664B658B65DB
:1056E000CB650B660B1F1D608D600D62E564256543
:1056F000256311463039124B0B6013600146303977
:10570000104A0A600260FF2000020F490A68024343
:105710000A600E48016AF0221143016201681143D8
:10572000016070BD10804240D0320A40D0120A4061
:1057300081000C00820004009880424081000E002D
:10574000000300980100530C90330A4028300A40AF
:1057500010B511481149FDF76EFB032041021048B6
:1057600002680A43026001210A02036813430360CE
:105770000022426104224262836B0724A3438363B5
:105780002302846B9C438463836A13438362826A2B
:105790000A43826210BDC04600200F40A4CF000023
:1057A00000320F4070B582B01B4C1C492046FDF7FB
:1057B00015FD1B492046FDF7F3FB1A4801683C4ADA
:1057C0000A40026000250095204629462A462B46BD
:1057D000FDF7F0FC204629462A46FDF7DDFC204671
:1057E00029462A46FDF7F2FC012600962046294666
:1057F0002A462B46FDF7DEFC204629463246FDF7B9
:10580000CBFC204629463246FDF7E0FC0648866080
:105810000321016002B070BD00008640A6CF0000E9
:10582000ACCF0000041886400011864070B582B0ED
:105830001B4C1C492046FDF7D1FC1B492046FDF7B7
:10584000AFFB1A4801681A4A0A4002600025009519
:10585000204629462A462B46FDF7ACFC2046294621
:105860002A46FDF799FC204629462A46FDF7AEFC5C
:1058700001260096204629462A462B46FDF79AFC2B
:10588000204629463246FDF787FC20462946324607
:10589000FDF79CFC074886600321016002B070BDE3
:1058A00000000940B4CF0000B8CF00000418094040
:1058B0007F00FFFF0011094010B50D4C0D49204637
:1058C000FDF7EEFA0C492046FDF7C8FA0B4841688F
:1058D0000B4A0A4027324260816812220A432D2176
:1058E0008A438260016801220A43026010BDC046FB
:1058F00000A04640C0CF0000C2CF000004B1464027
:1059000000FCFFFFB0B50F48002404600F20000228
:105910000D4D2968814301204002081828600320AA
:10592000C043291F0A6802400A600848FDF7C2FA0E
:105930002868102101432020814329602046FDF77B
:105940001BFBB0BD08030B4004010B40CCCF000093
:1059500010B5084C08492046FDF740FC0749204691
:10596000FDF7A2FB064801680122114301600548CA
:10597000026010BD00208640F4CF0000F8CF000088
:10598000283086400831864010B5194C1949204608
:10599000FDF756FC18492046FDF72EFC0320C103F5
:1059A000164802688A4302600169154A0A401532A6
:1059B000026141692D220A4312218A4342614268F1
:1059C00001210A4043688B439A1842608A020D4BBA
:1059D0001C6814431C60FF2212060B4B1C68944386
:1059E0008A07A2181A6002680A43026010BDC04606
:1059F000008010400CD000000ED00000009110403C
:105A00000000FFFF289010400CE400E080B500F09B
:105A100021F8FFF72DFEFFF775FFFFF7C3FEFFF735
:105A200005FFFFF795FFFFF793FEFFF7ADFFFFF7C9
:105A300043FFB820044900220A5404490A54242090
:105A400003490A5480BDC04624042020400320207E
:105A5000FC032020F0B581B0104811494160114885
:105A60004160114B5960114C6160114D6960114EDC
:105A70007160114F7960114841601149074A116006
:105A8000084A116019602160296031603960016045
:105A90001020FDF7B5F901B0F0BDC04600080A407E
:105AA000030000B100280A400008864000080940B1
:105AB0000028864000280F400088104000A846407B
:105AC0000100002610B504F048FD044605F086FDEF
:105AD000002803D00120000702490860204604F096
