:020000040000FA
:10000000E8172020C1020000C5020000C70200005E
:1000100000000000000000000000000000000000E0
:10002000000000000000000000000000A925000002
:10003000000000000000000011250000C52A00009B
:10004000CF0200004D230000CF020000CF020000CD
:10005000CF020000CF020000CF020000CF0200005C
:1000600000000000CF020000CF02000000000000EE
:1000700000000000CF020000CF020000CF0200000D
:10008000CF020000CF020000CF020000CF0200002C
:10009000CF020000CF0200000000000000000000BE
:1000A000CF020000CF0200000000000000000000AE
:1000B000CF02000000000000CF020000CF020000CD
:1000C00000F002F800F0D1F812A030C80838241867
:1000D0002D18AC4201D100F0C8F80FCCA246AB46B7
:1000E0000CA730CF2D1B083F3F197C427F1E544484
:1000F0002D090426F441641EAC4201D300F0B5F88A
:100100000126334200D0FB1A3343984754465D46DC
:10011000DFE700006451000084510000000000008F
:10012000103A02D378C878C1FAD8520701D330C840
:1001300030C101D504680C60704700000000000069
:100140007047000000000000002300240025002666
:10015000103A01D378C1FBD8520700D330C100D583
:100160000B60704710B56E2902D100F025FD10BD5F
:10017000702902D101F06BF810BD662902D104F09C
:100180009BFF10BD652902D104F096FF10BD6729C1
:1001900002D104F091FF10BD612902D104F094FF57
:1001A00010BD03681B0A01D380231943692902D1BA
:1001B00000F0CCFC10BD642902D100F0C7FC10BDDA
:1001C000752902D100F0C2FC10BD6F2902D100F0E8
:1001D000E9FF10BD782902D101F026F810BDE92908
:1001E00002D100F085FF10BDE42902D100F080FFAC
:1001F00010BDF52902D100F07BFF10BDEF2902D11F
:1002000000F0DCFF10BDF82902D101F01BF810BD91
:100210000368DB0901D380231943632902D101F06C
:1002200098FA10BD732902D101F09BFA10BDE329A1
:1002300002D101F0A5FA10BDF32902D101F0A8FA0C
:1002400010BD002010BD1FB501F02EF804000020E5
:10025000002104F0C3FE401C60600020002104F077
:10026000A7FEE0601FBD10B510BD01F0FBFD1146FB
:10027000FFF7E9FF02F0F0FC01F01CFE03B4FFF70A
:10028000F2FF03BC01F076FE70B505460C4616463B
:1002900002E00FCC0FC5103E102EFAD2082E02D36A
:1002A00003CC03C5083E042E07D301CC01C5361F7D
:1002B00003E021782970641C6D1C761EF9D270BD94
:1002C00006480047FEE7FEE7FEE7FEE7FEE7FEE73B
:1002D00003480449024A044B70470000C100000073
:1002E000E8162020E8172020E81620204343514339
:1002F00030B55C18010C130C0D4692B25D4380B210
:1003000051432C19054655430A0C09044D19624105
:100310005843010C00044019514130BD7CB51D46C5
:1003200016460C00009007D04142A14202D30019AA
:10033000401E01E00020C043064B7B442A4669462C
:100340000190304600F05BFE002C02D0009A0021A4
:1003500011707CBDE70C00000FB41CB50C0007AA9F
:10036000009007D04142A14202D30019401E01E093
:100370000020C043074B7B4469460190069800F07B
:100380003EFE0021002C01D0009A11701CBC08BC5C
:1003900004B01847AB0C0000F3B50446002081B050
:1003A00020622046E1688847002872D0252802D0C4
:1003B0006268A168ABE0594F00267F442046E1689F
:1003C00088472028054608DB312D06D278192038C9
:1003D0000078002801D00643F0E7B00701D50420DB
:1003E00086430020E0610746A0612A2D0AD02846F6
:1003F00004F0D6FD002827D0B8000019303D009049
:10040000856119E00298BA00121902C89161029040
:100410002046E1688847012F054617D1E06900288A
:100420001FDA202086431CE000980A218069484397
:1004300000994019303888612046E16888470546B0
:1004400004F0AEFD0028EFD1012F0AD02E2D08D1E7
:100450002046E16888470546202006437F1C022F7E
:10046000C3DBA069002803DA4042A06101200643F3
:10047000F00701D0102086436C2D0BD0682D09D0D9
:100480004C2D3CD06A2D38D0742D38D07A2D36D0F2
:1004900016E040E0E1682F4620468847B84205460E
:1004A00009D16C2F29D001208002E1680643204643
:1004B0008847054604E06C2F1DD0FF20013006431D
:1004C000002D28D028464138192803D80120C00221
:1004D00006432035204626602946029A1646FFF735
:1004E00041FE002810D001280BD0F61DF008C000F6
:1004F0000830029055E74020E1E78020D5E7002052
:10050000D3E7361D02964CE762682846A1689047FB
:10051000206A401C44E7206AFEBD00001A4D00001E
:1005200030B5441C03E00178401C00290DD0810740
:10053000F9D10B4BDD0104C8D11A91432940FAD0FF
:10054000001B0A0603D0C01E30BD001B30BD0A04CC
:1005500001D0801E30BD0902FCD0401E30BD00001D
:1005600001010101F8B5042A2CD3830712D00B78BE
:10057000491C0370401C521E83070BD00B78491C8A
:100580000370401C521E830704D00B78491C037073
:10059000401C521E8B079B0F05D0C91ADF00202379
:1005A000DE1B08C90AE0FFF76FFEF8BD1D4608C94B
:1005B000FD401C46B4402C4310C0121F042AF5D243
:1005C000F308C91A521EF0D40B78491C0370401C62
:1005D000521EEAD40B78491C0370401C012AE4D453
:1005E00009780170F8BDD2B210B513029A1813043D
:1005F0009A1800F039FE10BD002203098B4273D314
:10060000030A8B4258D3030B8B423CD3030C8B421F
:1006100021D312E003460B437FD4002243088B42D0
:1006200074D303098B425FD3030A8B4244D3030B79
:100630008B4228D3030C8B420DD30902FF2212BA3E
:10064000030C8B4202D31212090265D0030B8B42BA
:1006500019D300E0090AC30B8B4201D3CB03C01AA4
:100660005241830B8B4201D38B03C01A5241430B7F
:100670008B4201D34B03C01A5241030B8B4201D36F
:100680000B03C01A5241C30A8B4201D3CB02C01ADA
:100690005241830A8B4201D38B02C01A5241430A52
:1006A0008B4201D34B02C01A5241030A8B4201D341
:1006B0000B02C01A5241CDD2C3098B4201D3CB01E8
:1006C000C01A524183098B4201D38B01C01A524197
:1006D00043098B4201D34B01C01A524103098B429B
:1006E00001D30B01C01A5241C3088B4201D3CB0086
:1006F000C01A524183088B4201D38B00C01A524169
:1007000043088B4201D34B00C01A5241411A00D218
:1007100001465241104670475DE0CA0F00D0494281
:10072000031000D3404253409C46002203098B42F1
:100730002DD3030A8B4212D38901FC2212BA030A79
:100740008B420CD3890192118B4208D389019211FB
:100750008B4204D389013AD0921100E08909C30980
:100760008B4201D3CB01C01A524183098B4201D382
:100770008B01C01A524143098B4201D34B01C01A6D
:10078000524103098B4201D30B01C01A5241C308E5
:100790008B4201D3CB00C01A524183088B4201D354
:1007A0008B00C01A5241D9D243088B4201D34B006F
:1007B000C01A5241411A00D20146524110466346C6
:1007C0005B1001D34042002B00D54942704763467D
:1007D0005B1000D3404201B50449002802DC491CEB
:1007E000084000E00846C046C04602BDFFFFFF7F4C
:1007F00070477047704700000246C80FC00781432A
:100800004B0030B54B405B009B0D20D01923DB061D
:10081000C91801231B05994220DB0324A4070425E2
:100820001346AB400BD3002B04D1EB0613409B00C7
:10083000E34204D401246407002312195941FF2321
:100840001B0599420BD2C9000143500F09E0CB02AE
:1008500004D501430803024305D0054830BDFF21FC
:10086000C905084330BD084607210905884330BD46
:100870000000C07F0121C9050123411842001B0669
:10088000D3185B0E0AD0C1100722D2068918400780
:100890005242D14201D5520089187047090208D549
:1008A0000146002A03D0C10FC90700207047104637
:1008B0007047420202D00020024970470721090513
:1008C0000143F4E70000F87FF0B5FF252D04C609C9
:1008D000C209FF2704462E400137CB093E4348405A
:1008E0002A402B400746002A6BD0002B69D0AA4231
:1008F00067D0AB4265D0002800DA32460125ED050D
:1009000029432C4309022002090AD21A4B0C7F24E6
:10091000E31A434C000A7C44E35C7D24240412194E
:1009200014145B00A218884201D3521C00E040005E
:1009300049420C465C4324115C43DB016415E31817
:10094000040A5C43C502200D0C4644436419250A81
:100950005D432303EC0C0D46654300030019EB18BF
:100960004C42A34201D35B18401CD4052018002B35
:1009700007D05B00C91804D3401C002901D14008EE
:1009800040003F2189048A4209D3002A08DC11066D
:10099000090F04D0032149074018C00FC007F0BD5C
:1009A00001224100120689187F2252069142F6D296
:1009B00005214907C84201D59010F0BDFF20C005B0
:1009C000F0BD002F00DA32461648AA4207D2AB42E9
:1009D00005D21902090E17D0F80FC007F0BDFF2588
:1009E00063002D06AB42F9D84900A942F6D8AB42C4
:1009F00001D1A942F2D0A94201D1002101E0610058
:100A00004908D0050843F0BD1102090EFBD0FF20B4
:100A10000243D005F0BD0A460146104654E70000E7
:100A2000CF4700000000C07F1F22030C02D10F221D
:100A300000041CD0030E01D10002083A030F01D1BB
:100A40000001121F830F01D18000921E002801DBDC
:100A50004000521ED205511802125118192290401E
:100A600004D3491C002801D14908490008467047B1
:100A7000C10FC90700D04042012292071143D3E7BA
:100A800001218907D0E770B5044685690068C10671
:100A900001D5302600E02026C00707D070BD62686F
:100AA0003046A1689047206A401C20626D1EF6D532
:100AB00070BD70B5044685690078C00707D170BD68
:100AC0006268A16820209047206A401C20626D1E49
:100AD000F6D570BD09684A0501D540B27047C90511
:100AE000FCD500B2704709684A0501D5C0B270470D
:100AF000C905FCD580B2704770B50C460546012A81
:100B000005D02878800600D5EA69002302E0012399
:100B100005E05B1C934202D2E05C0028F9D1A86991
:100B2000E618C01AA861286AC01828622846FFF78C
:100B3000AAFF04E06A682078A968641C9047B44260
:100B4000F8D32846FFF7B5FF70BD0000F7B50025C4
:100B500075291068009914A611D0FFF7BBFF002873
:100B600002DA404211A608E0009909688A0701D517
:100B70000FA602E0490704D50EA6012501E0FFF704
:100B8000B2FF009F0024243704E001F052F9303115
:100B90003955641C0028F8D12B463246214600986E
:100BA00000F0C3FBFEBD0000000000002D000000AF
:100BB0002B0000002000000011680268006A530545
:100BC00001D5087009E0D30501D5088005E01306BA
:100BD00002D5C21705C100E008600120704700007F
:100BE000FFB50C461E468FB003CA089009914F000E
:100BF0007D0D00D16D1E002108460020C046032156
:100C0000099A89050840002A03DA82008018400802
:100C10000840800D01280A9002DD0020C0430A90A0
:100C2000089807430DD0F048F049281848430714A6
:100C3000189800281DD07542291E1DDD0A984242D1
:100C40001BE01898012802D00020302104E0002089
:100C5000F24305E02154401CB042FBDB3046002249
:100C6000189B002121540F998B600A60486013B0D3
:100C7000F0BDBD1B6D1CDFE70A9A002900DA69424E
:100C80000BA800F089FD0BAB07CB03AB07C308999A
:100C9000099800F0EDFD6B4607C30146D4480918DA
:100CA000002D00910BDDD24903980A9A4942401861
:100CB000002303A90390684601F04AF808E003996D
:100CC0000A9A0023081803A90390684600F0EAFF77
:100CD0006B4607C30004000C03D00020C04341084A
:100CE00000E01046189A002A03D000220092154610
:100CF0001EE0751E05D400F0DBFA303262556D1E21
:100D0000F9D501220843079602D000227F1C04E097
:100D10002078302801D100227F1E002A069787D034
:100D20001EE0112D07DA00F0C3FA303262556D1C57
:100D300002460A43F5D1084303D00098002819D091
:100D40000EE00021681E05E0235C625C63542254BF
:100D5000401E491C8142F7DBA81B401E07950690E8
:100D6000079A18990020A0540F98079B069A816053
:100D70000CC07CE711260020189059E7D21DF0B571
:100D80000D460446D10893B0C90003C90C900D91DB
:100D900004F0F0F802460D98C00F01D02D2007E0B6
:100DA0002068810701D52B2002E04007C00F4001D9
:100DB000032A0F9001D0072A05DB03462946204667
:100DC00000F078FC0EE12078800601D5E76900E0AC
:100DD00006272846652D04D0662814D0672D69D1D2
:100DE0002DE00020112F009001DB112300E07B1C7F
:100DF0000CAA03A910A8FFF7F3FE1199002610987A
:100E00007D1C0E9142E001203B460CAAC0070B90CE
:100E10000120009003A910A8FFF7E2FE119D12988F
:100E20001099002600280E9501D1781C0D18781B0A
:100E300002D446427D1C761EE81B00903AE0012F4A
:100E400000DA01270020112F009001DD112300E0BE
:100E50003B460CAA03A910A8FFF7C2FE11993D4614
:100E6000109800260E91217809070BD40E99A942FB
:100E700000DA0D4603A9012D04DD4A19203AD27F7C
:100E8000302A06D0B84201DA011D04DA01210091AE
:100E90000FE06D1EEFE7002802DC86192D1A03E033
:100EA000411CA94200DD0D46801B401C0090012022
:100EB000C0070B902078000705D40098A84202DBF9
:100EC0000020C043009069460020C8720B980121A1
:100ED00002AF0337C907884225D0022010902B208B
:100EE00011900B9800280BDA40420B902D201190A6
:100EF00006E00B9800F09DFF30317F1E0B9039709B
:100F00001099481E00291090F3DC0B980028F0D1AE
:100F100011987F1E38702088000501D5452000E01B
:100F200065207F1E387001A8C01BC01D0B900F9854
:100F3000002800D0012041190098C01709180B980B
:100F40000818A169081A401EA0612078C00602D4C2
:100F50002046FFF798FD0F98002805D06268A16829
:100F60009047206A401C20622078C00625D5204684
:100F7000FFF789FD21E0002E07DB0E98B04204DD6B
:100F800003A86268805DA16802E06268A168302001
:100F90009047206A761C401C20620098401E002862
:100FA00000900AD100F080F9C06862680168405C76
:100FB000A1689047206A401C206228466D1E0028C8
:100FC000D9DC07E062683878A1687F1C9047206A06
:100FD000401C20620B99481E00290B90F2DC204631
:100FE000FFF767FD032042E601FCFFFF104D000004
:100FF000E1DFFFFF01694A1C02610878704700B514
:101000008FB0029100210591054901937944039124
:10101000114604906846FFF7BFF90FB000BD00000D
:10102000E5FFFFFF0CC908399A4202D2531C0B603E
:1010300010707047F7B50446154686B02B487844C3
:10104000002703C83E460090019111E007986A46C8
:101050007100415A02A800F0CBFE411C07D0217854
:10106000890603D5E269391891420ED83F18761CDB
:101070002078800602D5E069B84206DDAE42E5DBA5
:1010800007987100405A0028E0D1A069C01BA061F8
:101090002046FFF7F8FC154878445A3803C80090FA
:1010A0000020019116E041006A460798415A02A8C3
:1010B00000F09EFE0590401C0AD0002505E0626805
:1010C00002A8A168405D90476D1C05988542F6D343
:1010D0000498401CB0420490E5DB206AC0192062ED
:1010E0002046FFF7E6FC09B0F0BD0000EA40000032
:1010F000F7B5D21D0025D20815A6D200F52905CADC
:1011000011D0002A05DA00214042914111A60A4679
:1011100008E0009909688B0701D50FA602E049078E
:1011200001D50EA601251146009F0024243704E0B6
:1011300000F0BEF830323A55641C02460A43F7D13B
:101140002B4632462146009800F0EFF8FEBD000025
:10115000000000002D0000002B0000002000000017
:1011600070B504460021243408E05507D2086D0FFD
:10117000303565545D072A43DB08491C15461D437D
:10118000F3D10468002310A2250708D520252C40A0
:101190000C4304D0C46901230CA2641EC46100F096
:1011A000C4F870BD10B5044621461068FFF79BFCDB
:1011B000002302462046FFF7D3FF10BDD21DD10801
:1011C000C9000CC9CCE7000000000000300000009E
:1011D000F8B50F460188090502D5224C7C4402E08F
:1011E000204C7C440E3405460021243508E01607C7
:1011F0001209360FA65D6E541E0732431B09491CA7
:1012000016461E43F3D1224604780023240705D551
:10121000702F06D0002901D00223113200F085F88A
:10122000F8BD01231032F9E770B504460D4621469A
:101230001068FFF758FC0023024629462046FFF7B6
:10124000C7FF70BDD21DD308DB000CCBC0E730B4A4
:10125000036820241268234303600823C36130BC61
:101260000023B5E7543F000001E004C0091F042932
:10127000FBD28B0701D50280801CC90700D0027009
:10128000704700290BD0C30702D00270401C491ED2
:10129000022904D3830702D50280801C891EE3E75C
:1012A0000022EEE70022DFE7004870471801202007
:1012B0000B4670B5024689078008084319469D0809
:1012C000141AA94125090807054308092C194841A2
:1012D000250A01060D43010A2C194141200C0D0479
:1012E00028430D0C00194D41002140194D41C00803
:1012F00069070843E908840F8D00254384002418FA
:101300004D4124196D41121BAB4107E00925ED4306
:101310002C11521963410024401C61411C460A25CE
:101320000026551BB441F1D270BDFFB504460D46F1
:1013300081B0243000902168880604D51022E0692D
:101340009143216000E00120A84201DD471B00E03D
:1013500000270498A1697A191018081AA06120784A
:10136000C00602D42046FFF78EFB002608E0039853
:101370006268A168805D9047206A401C761C2062EC
:1013800004988642F3DB2078C0060AD52046FFF792
:101390007AFB06E06268A16830209047206A401C12
:1013A000206238467F1E0028F4DC07E0009862685F
:1013B000A168405D9047206A401C206228466D1E4F
:1013C0000028F3DC2046FFF774FB2078000602D5E6
:1013D000022005B0F0BD0120FBE70000D21DF0B5F2
:1013E00004460D46D0088DB0C000466807683146F7
:1013F000384603F0BFFD0246F00F01D02D2307E071
:101400002068810701D52B2302E04007C00F43016C
:101410006846002B037001D0012000E00020032A61
:101420000A9001D0072A04DB2946204600F042F941
:101430002DE12078800601D40D2500E0E5697000DB
:10144000400D0D2D01904BDA300D00210B90084618
:101450000020C046032189050840002E05DA8200DD
:101460008018C20F1018401008408015012801DDB7
:101470000020C043A9000023182906D39C460A4631
:101480000123183A1B07D34003E001221205CA408A
:1014900094460C31202902D33A46203900E03246E6
:1014A0008A40002802DD002A06D119E0002817D161
:1014B0000121C9078A4213D3194663467F185E414A
:1014C000002806D10120C007824202D10846874386
:1014D0009E430B98310D814202D00198401C01902F
:1014E0002088000502D57149794402E06F497944AA
:1014F00019396B460A9830221A540A980A7C401C03
:101500001A54401C0A900198002801DC302000E0A9
:1015100031201872019A0120002A02D0644BD2189F
:1015200004E072003A4302D0614A521C0192002D3D
:1015300002DC2278120703D56A462E205072022060
:101540000022864694460CE032033601120F6D1ECF
:101550008B5C02AA13546246521C401C9446052A16
:1015600001DA002DF0DC002202AE08E03B0F3F0163
:10157000CB5C521C6D1E3354401C082A01DA002D2E
:10158000F4DC23689A0601D511E0401E704504DDA5
:101590003218203AD27F302AF7D0002807DD3218DF
:1015A000203AD27F2E2A02D11A0700D4401E002DE5
:1015B00003DD3E223254401C6D1E497C315401999A
:1015C000401C002906DA2D21471C31540198404265
:1015D000019003E02B21471C315401987D21C90063
:1015E000884206DBFFF716F83030F0557F1C01917A
:1015F00001E0642808DB01986421FFF70BF8303024
:10160000F0557F1C019101E00A2806DB01980A21B0
:10161000FFF700F83030F0557F1C01980A21FEF7E3
:10162000F9FF3031F1550A98A1697F1C7A19101819
:10163000081AA0612078C00602D42046FFF723FADA
:10164000216A6E460A980818206204E062683078C1
:10165000A168761C90470A98401E0A90401CF5D15C
:101660002078C00602D52046FFF70DFA02AE09E049
:101670003078761C3E280DD06268A1689047206AB9
:10168000401C20627F1EF3D22046FFF712FA0DB0F5
:101690000320F0BD206A4019206203E06268A1685F
:1016A000302090476D1EEDD3F8E70000833C00002A
:1016B00001FCFFFFF8B51F46044601230068DB026A
:1016C000032601461840072A05DB002801D017A58C
:1016D00006E017A504E0002801D016A500E016A535
:1016E000102081432160A069C01E002FA06101D09D
:1016F000401EA0612046FFF7C6F9002F09D03846EA
:101700006268A1689047206A401C2062C01C206269
:1017100006E0206AFAE762682878A1686D1C9047A5
:10172000761EF8D22046FFF7C4F9F8BD4E414E00B0
:101730006E616E00494E4600696E660010B54369E1
:10174000002B02D0C046C04601E0FFF7D5F90120CA
:1017500010BD1278014624310A7000224A7001221D
:10176000ECE711680022D243E8E710B54369002B8B
:1017700002D0C046C04601E0FFF75CFC012010BD6E
:1017800012880146243182840022C2840122ECE7BF
:1017900011680022D243E8E7F7B516468AB033480D
:1017A00078446C4603467C33C06F5A689B680DC40E
:1017B0002E487844763003AC0DC80DC43720C001E4
:1017C000081837211B30FEF725FF05460C46803DE3
:1017D0001B3C02D56442012000E000200027099054
:1017E00010E0E0070CD00C202049784379443246C1
:1017F0004C3941186846012300F054FA6B4607C380
:1018000064107F1C002CECD1184F7F442E3F16E053
:10181000E80712D02001C0190EC80691089307925C
:101820000068F04201D1981908903246012306A9B8
:1018300003A800F037FA03AB07C36D10641C002D3A
:10184000E6D10998002806D032466946012303A84C
:1018500000F07EFA05E001233246694603A800F055
:1018600021FA0A9B07C30DB0F0BD0000E03900006B
:10187000034640000A4610B5400D0BD00121C907B0
:101880000F24A40200191C0364082143540D2143B2
:10189000D20207E000210120F2E7D40F49002143E2
:1018A0005200401E0029F8DADB0FDB07184310BD99
:1018B000FFB50D46144685B04868516803F041FBFA
:1018C00000910190A868A16803F03BFB029103908E
:1018D000A868616803F035FB029A121882420292EE
:1018E00001D2012000E00020019A0B18D218002834
:1018F000019202D08A4202D903E08A4201D2012039
:1019000000E000200099081800906868A16803F0C2
:1019100018FB029A12188242029201D2012000E0C2
:101920000020019A0B18D2180028019202D08A4296
:1019300002D903E08A4201D2012000E00020009990
:1019400008180090286821684000490040084908AC
:101950004018FA49471814E001994000C90F08439C
:101960000090019802994000C90F08430190029825
:1019700003994000C90F08430290039840007F1E5E
:10198000039000980028E7DA0898002801D0EC4E70
:1019900000E00026B74201DA012000E00020002824
:1019A00004902AD0F71BF806C00E15D0029B202108
:1019B000091A039A8B401A430392029A019BC24070
:1019C0008B401A430292019A009BC2408B400099BF
:1019D0001A430192C14000917B110DD06F46032044
:1019E000C11A03D500218200B95003E08A008100AA
:1019F000BA587A50401EF3D537460398029900280A
:101A000000D00120014308980291002808460CD01C
:101A1000002800D001200199019A490508430121BD
:101A2000D20AC902D202019200E001210E9B0122DA
:101A3000D207012B02D0002B03D013E0002807D1DE
:101A400020E0904204D890420CD1019B0B4209D077
:101A5000019B5918019105D10099491C009101D1B0
:101A60007F1C009200280DD0102108460020C0469F
:101A70000498002806D00F98002803D008210846B3
:101A80000020C04628682168019B009A4840C10F89
:101A90000598C90739430EC009B0F0BDFFB587B03E
:101AA000099A089808995368926840688968964628
:101AB0000022039317469446089A12685300099A25
:101AC0005B081268520052089A1A9E4BD4180A9A60
:101AD000002A01D0352200E0402206920022012394
:101AE00015460492DB07059324E0002D05D17546C9
:101AF0000346039E4D1BB34109D375466646039BBF
:101B0000491B049D9841059B7519AC465F4163468E
:101B10003B4308D0059B049EDD0776082E435B08F7
:101B20000496059301E0521E641EC50FED07491887
:101B30004041521C069B9A42D7DB002D04D17546CA
:101B4000039A6B1A824101D203200CE0039A0B46E0
:101B50006B404240134303D0014303D0012002E015
:101B6000022000E0002061460191002100970291CF
:101B70000A99002905D0614640020143704B01914A
:101B800002E08007002302909C4201DA012000E07D
:101B9000002007003AD01A1BD006C00E15D0029DB7
:101BA0002021019C091AC5408C402543029C8C4091
:101BB00000D001242543019C0295009DC4408D4026
:101BC00000992C430194C140009154111DD06D46E1
:101BD0000221002202290CD10320001B07E000286B
:101BE00004DB8600AE59002E00D00122401C0328E1
:101BF000F5DB081B02D588002A5004E08000285835
:101C000010438A00A850491EE3D51C460A980028B4
:101C100002980CD0002800D001200199019A4905B2
:101C200008430121D20AC902D202019200E0012137
:101C3000109B0122D207012B02D0002B03D013E00E
:101C4000002807D11FE0904204D890420CD1019B9C
:101C50000B4209D0019B5918019105D10099491CEB
:101C6000009101D1641C009200280CD0102108467C
:101C70000020C046002F06D01198002803D008216C
:101C800008460020C04608980999019A009B006800
:101C900009684840C10F0798C907214382600AC0FC
:101CA0000BB0F0BD00B585B0019300920A46014625
:101CB000002302A8FFF7FCFD02A807C805B000BD7D
:101CC000FFB50A461F4685B007990193012300918D
:101CD000014602A8FFF7ECFD02990398049ECA0F83
:101CE0004900D20700920F22490892028C1A002163
:101CF000002800DB0C46450013486D08844214D3CD
:101D0000079A002A04DA441E0026104DF64302E02A
:101D100004460D460E46102108460020C046002FFE
:101D200003D0042108460020C0462005E90A0843E4
:101D3000009908436905F20A1143ADE602C0FFFFAE
:101D4000013C0000FF3F0000FF070000FFFFFF7F96
:101D500000B585B0019300920A460146002302A80F
:101D6000FFF79CFE02A807C8A8E7FFB50A461F4672
:101D700085B00799019301230091014602A8FFF75E
:101D80008DFE02990398049ECA0F4900D207009263
:101D90000F22490892028C1A0021002800DB0C4611
:101DA000450011486D08844214D3079A002A04DACA
:101DB000441E00260D4DF64302E004460D460E4635
:101DC000102108460020C046002F03D004210846F9
:101DD0000020C0462005E90A084300990843690528
:101DE000F20A114358E60000FF070000FFFFFF7FE3
:101DF000F8B516460C46054600F054F80368FF2077
:101E00000230C05C012807D0FF2C0FD8185D0028D5
:101E10000CD001202C70F8BDFF3332462146083328
:101E20001868C71828460023B847F8BD0020C043EB
:101E3000F8BD01468008081A02091018020A101895
:101E4000020C1018C008820012185200891A01E012
:101E5000401C0A390A29FBD270470000004870472D
:101E6000F80020207546FFF7F9FFAE4605006946E9
:101E70005346C008C000854618B020B5FEF728FAC2
:101E800060BCB64600260027C0C5C0C5C0C5C0C5D9
:101E9000C0C5C0C5C0C5C0C5403D490849008D4644
:101EA0007047000010B5FFF7FFF9001D10BD00BF1F
:101EB0002D31000010B50446C046C0462046FEF74E
:101EC000DDF910BD82078B079A423FD170B5920FA2
:101ED0000AD0032402780B78401C491C002A33D016
:101EE0009A4231D12042F5D1214EF40104C808C9EB
:101EF000951B9543254018D19A420FD104C808C9B3
:101F0000951B9543254010D19A4207D104C808C9B2
:101F1000951B9543254008D19A42E7D012BA1BBAC7
:101F200001209A4200D2404270BD12BA1BBA2DBAAB
:101F300018241000E0401900E140401A05D12E009D
:101F4000E64002D1083CF4D1D01A70BD02780B787B
:101F5000401C491C002A09D09A4207D102780B780C
:101F6000401C491C002A01D09A42EFD0D01A704779
:101F70000101010101491820ABBEFEE72600020065
:101F80007047811E091F00BFFCD2704770B50A78E8
:101F90000C231A400124240305196E689E43B218CD
:101FA0006A60497807221140035993435918015137
:101FB00070BD0000B0B51122120283580C4C1C40B9
:101FC0000B894D881D438B792B430A4D1D402B19DE
:101FD00083508B88CC791C43097821435D239B0077
:101FE0001940801842689A4389184160B0BDC046C4
:101FF00080CCFFFF7F33000010B50122120383184D
:102000000C785C604978815010BD0000F0B57A4AC8
:1020100082183B4BC31808794E793A4D784C002E04
:1020200023D0202804D00526F601002803D003E0A1
:10203000354E002800D18826576F2F403743576709
:10204000976F2F4037439767566B26405663966BC2
:10205000264096630026566596658F26F6435F6890
:1020600037405F609F6837409F608E7909682028FD
:102070000BD0002819D1491E5160D76E2F408821FE
:102080000F43D7661746703719E0491E5160D16E6D
:1020900029401D4F3943D166116F294039431167DB
:1020A00001214907194D174609E049085160D76ECB
:1020B0002F400521C9010F43D766174670373C688A
:1020C0002C400C433C60D16A4D4C2140D162116BD5
:1020D000214011630021D16411658F21C943D46F60
:1020E0000C40D4671C680C401C600643BD20304087
:1020F0001168074B0B40C018801C1060F0BDC04633
:102100008418000024493E0001040000FFFFFFCFB7
:102110004000FFCFB0B54A68364BC250364A8018EF
:102120000A78222A58D8930001A4E3589F46C04653
:10213000CF210000D9210000CF210000D9210000CB
:10214000D9210000D9210000D9210000D9210000A7
:10215000D9210000D9210000D9210000D921000097
:10216000D9210000D9210000D9210000D921000087
:10217000BD210000D9210000BD210000D9210000AF
:10218000D9210000D9210000D9210000D921000067
:10219000D9210000D9210000D9210000D921000057
:1021A000D9210000D9210000D9210000D921000047
:1021B000BD210000D9210000BD21000003231B0721
:1021C00004689C4301235B07E318036004E00323D6
:1021D0001B0704689C4304600B69C360CB68074C11
:1021E0001C40C36A064D1D402B19C362097A114376
:1021F0000160B0BD081800000418000077770200E5
:102200008888FDFF10B507239B04194092008018B1
:10221000024A84589C436118815010BD3018000058
:1022200010B5029CA400001911431943014A8150C2
:1022300010BDC0465018000092008018014A81501D
:102240007047C0461018000010B501221203831811
:102250000C789C604B7883508978014A815010BD7E
:102260000C110000B0B51122120283580124A343BF
:1022700083500B888C781C438B882343094C1C406B
:102280008358094D1D40631983508B79CC791C43C9
:10229000097A21437E231940801842689A435118D5
:1022A0004160B0BD18670000E798FDFF10B501223E
:1022B000120383180C789C604978815010BD00008F
:1022C000034A801802681206FCD481617047C04638
:1022D00008110000B0B582B0144802210160144812
:1022E0000160012001F0D6FD1249086000281AD0D3
:1022F0001148009011A0142101220024234602F06D
:1023000085FC054610480560002D0DD002F0CCFA82
:102310000246009401212846234602F0E9FC0128E8
:1023200003D102B0B0BDFEE7FEE7FEE780E200E0C9
:1023300000E100E070162020E1290000537065657F
:102340006454696D65720000A0162020F0B583B05A
:10235000344D284618380068800760D5324E103E4C
:102360003068C00631492AD5086840210140304F05
:102370003970304800680024019401AA214602F017
:10238000C5F801280ED13878002801D0012000E0DE
:10239000E04329490A68801808602648006801A9B6
:1023A00001F0B5FF0198002803D001200007234960
:1023B00008601D4A10681021014311601B493068F4
:1023C000800628D5086880210140194F7970194E80
:1023D00030680024029402AA214602F097F80128EE
:1023E0000DD17878002801D0E04300E001201449A5
:1023F0000A6880180860306802A901F088FF029816
:10240000002803D0012000070C490860064A106824
:10241000202101431160286802210143296003B093
:10242000F0BDC0465811404048300A4080330A4051
:102430005801202070162020FC02202004ED00E02E
:102440002405202083B0B0B5C1B004464591469222
:10245000479345AB00930120010201AD2846224677
:10246000FDF75CFF0548064906A22B4601F00EF970
:1024700041B0B0BC01BC03B00047C0460080104072
:10248000645200005B4552524F525D0070B501200E
:102490000404164D2C61642000F032FB2C603220C5
:1024A00000F02EFB002412A5285D00F053F8641CF8
:1024B000172CF9D100242546B0202843C0B200F0E3
:1024C00049F8204600F046F8102000F043F8264670
:1024D000002000F053F8701C46B2002EF8D5681C9E
:1024E000E9B207290546E7D370BDC04690320A40DD
:1024F000AED580A83FD30040A1C8DA1281CFD9F170
:10250000DB40A4A68D14AF00000000000000000016
:10251000EFF309800E4B1A6820381060F0C0444673
:102520004D4656465F46F0C008B572B601F012FC43
:1025300062B60CBC116808681030F0C8A046A94605
:10254000B246BB4680F309882038F0C81847C04619
:1025500044042020B0B501231905114A11615B0420
:102560001361104C2568ED06FCD4206320684007F9
:10257000FCD4206A13601160B0BDC04610B50123C1
:102580001905074A11615B041360064B1C68E406D9
:10259000FCD4186318684007FCD4186A116010BD99
:1025A00090320A4010B1464070470000F0B52B4908
:1025B0008720C86601239A032948026088220A619D
:1025C000284A0824146084248C62802414608224A5
:1025D0004C6110251560244D4D600D605B064D6803
:1025E0001D434D600D681D430D604C641F4C651C00
:1025F0008D641F4D8326AE610E67A61C6E610E466C
:102600000C3E812737600E46083E3760CC620F6370
:102610002F60AF62EF63174EEE65CC640C654C63C0
:102620008C631146303903240C6014600146303944
:10263000114A0A60014640390B6010490160104898
:102640000168104A0A4302600F48016A30221143B0
:102650000162016811430160F0BDC0461080424034
:10266000D0320A40D0120A4082000C0081000400DF
:102670008480424081000200080013000800130219
:1026800090330A403035000028300A4010B5114818
:102690001149FFF77BFC03225102104803680B43EA
:1026A000036001210B0204681C43046000234361A2
:1026B0004262826B07239A4382631A02836B9343BD
:1026C0008363826A042313438362826A0A438262B9
:1026D00010BDC04600200F401852000000320F40CD
:1026E00070B582B0194C1A492046FFF7ADFD194963
:1026F0002046FFF78BFC00250095204629462A46F8
:102700002B46FFF78DFD204629462A46FFF77AFD26
:10271000204629462A46FFF78FFD012600962046CF
:1027200029462A462B46FFF77BFD2046294632469E
:10273000FFF768FD204629463246FFF77DFD064833
:1027400086600321016002B070BDC0460000864073
:102750001A520000205200000011864070B582B06D
:10276000194C1A492046FFF76FFD19492046FFF71B
:102770004DFC00250095204629462A462B46FFF7AA
:102780004FFD204629462A46FFF73CFD20462946B4
:102790002A46FFF751FD01260096204629462A4683
:1027A0002B46FFF73DFD204629463246FFF72AFD1E
:1027B000204629463246FFF73FFD06488660032142
:1027C000016002B070BDC046000009402852000000
:1027D0002C5200000011094010B50D4C0D49204647
:1027E000FFF70AFC0C492046FFF7E4FB0B48416861
:1027F0000B4A0A400F324260816812220A432D219F
:102800008A438260016801220A43026010BDC0460B
:1028100000A04640345200003652000004B1464049
:1028200000FCFFFF04480021016004480168032206
:10283000914301607047C04608030B4000010B4004
:1028400010B5084C08492046FFF7FEFC0749204612
:10285000FFF760FC0648016801221143016005484A
:10286000026010BD0020864040520000445200002B
:10287000283086400831864010B5194C1949204649
:10288000FFF714FD18492046FFF7ECFC0320C103B5
:10289000164802688A4302600169154A0A401132EB
:1028A0000261416917220A4328218A434261426832
:1028B00001210A4043688B439A1842608A020D4BFB
:1028C0001C6814431C60FF2212060B4B1C689443C7
:1028D0008A07A2181A6002680A43026010BDC04647
:1028E00000801040585200005A52000000911040E1
:1028F0000000FFFF289010400CE400E080B500F0DD
:1029000021F8FFF753FEFFF78DFFFFF7E9FEFFF712
:1029100025FFFFF795FFFFF7B9FEFFF7ADFFFFF7C4
:102920005BFFB820044900220A5404490A542420B9
:1029300003490A5480BDC046400220205C0120208B
:1029400018022020F0B581B01048114941601148AB
:102950004160114B5960114C6160114D6960114E1D
:102960007160114F7960114841601149074A116047
:10297000084A116019602160296031603960016086
:102980001020FFF7FEFA01B0F0BDC04600080A4073
:10299000030000B100280A400008864000080940F2
:1029A0000028864000280F400088104000A84640BC
:1029B0000100002600280DD081688900064A812385
:1029C0008B50416989008B5006C8044BCA5041683E
:1029D0008068C8507047C046048042409012000092
:1029E000F0B581B02E4E30680024E14301F0DCFDEB
:1029F0000128254613D12B480468002101602A488C
:102A00000568016030680A460B4601F0F0FA20467E
:102A1000FEF72EF804462846FEF72AF80546234915
:102A20001420086048602248076820463946FDF7B0
:102A30004BFF204902F0E8FA1F49FDF745FF064623
:102A40001A4CA06028463946FDF73EFF194902F0AE
:102A5000DBFA1949FDF738FF054620611448406844
:102A6000164902F0D1FA074630461249FDF72CFF0D
:102A70000146384602F0C8FA114C2146FDF724FF02
:102A80000A4EF06028460B49FDF71EFF0146384606
:102A900002F0BAFA2146FDF717FF706101B0F0BDF0
:102AA00070162020FC022020240520200000202079
:102AB000EC002020000070420BD7A33CC3F5C840B7
:102AC0000000C84210B500F0DDFD044601F0F0FE44
:102AD000002803D00120000702490860204600F0CA
:102AE00030FE10BD04ED00E0044C0120002223461E
:102AF00000F028FD642000F003F8F6E700002E4007
:102B0000B0B5002820D00446EFF30580002807D098
:102B10007D2005022846FFF734FA641EFAD113E03F
:102B200001F0B4FE022808D17D20C1004C432046AC
:102B300002F00CF900F0B2FFB0BD7D20050228467E
:102B4000FFF71FFA641EFAD1B0BD0000A14801686A
:102B50000020002900D07047094909680029FAD1EE
:102B6000084909680029F6D19B480068D6490968D8
:102B7000491E884201D00120704702207047C0469C
:102B8000E01620208416202080B50248FFF712FFAF
:102B900080BDC046CC002020B0B59F21C943144A57
:102BA00001E028310DD04318A8241C5D012CF8D178
:102BB000AC241B59002BF4D09C580125AC439C50ED
:102BC000EFE7B0BDB0B59F21C943094A01E0283104
:102BD0000DD04318A8241C5D012CF8D1AC241B593E
:102BE000002BF4D09C58012525439D50EFE7B0BD44
:102BF0000418000070B5032929D828234B43C518B1
:102C0000297A0835002913D0446861428A42104667
:102C100000DC0846A24200DC04466868002816D0A2
:102C20000C260821002C09DC002C11D4002405E01E
:102C3000686800280BD000240C2608216A5C00215B
:102C4000FFF7FAFAAA5D68682146FFF7F5FA70BD4A
:102C5000644208260C21F1E782B0FFF74FFEFFF730
:102C600093FFFFF713FCFFF735FB00F021F800247A
:102C70000A4D2046294600F021F801263046294613
:102C800000F01CF8009601947202054805A1234645
:102C900001F0A8FD00F0F0FFFEE7C04624FAFFFFB8
:102CA000E92A0000546573745461736B00000000DE
:102CB00080B5064801680648884780BD80B50A4649
:102CC0000146024883680248984780BDC000202022
:102CD00018002020F0B581B0044600F06BFD7A4862
:102CE0000168491C01607A4F396800290AD03648CA
:102CF0000068002847D1E06A3968C96A814242D831
:102D00003C6040E03C60006801283CD1714D2846A1
:102D100000F01AFD2846143000F016FD2846283031
:102D200000F012FD28463C3000F00EFD28465030E1
:102D300000F00AFD2846643000F006FD2846783091
:102D400000F002FD28468C3000F0FEFC2846A03042
:102D500000F0FAFCB435284600F0F6FC1B4D28467E
:102D600000F0F2FC1A4E304600F0EEFC194800F07C
:102D7000EBFC544800F0E8FC174800F0E5FC17486D
:102D800005601748066017480168491C2164016006
:102D9000E06A4E490A68904200D908601421414314
:102DA0004C484018211D00F0FAFC00F00DFD0648CB
:102DB0000068002806D0E06A3968C96A814201D2F9
:102DC00000F03EFE01B0F0BD9C16202038162020F9
:102DD0004C16202088162020AC1620204C042020E1
:102DE000540420203C11202082B001200190344E58
:102DF000344F354D05E0206B00F0F4FC204600F028
:102E0000F1FC3068002817D000F0D4FCF868C468E2
:102E1000201D00F06CFC2868401E28603068401EB1
:102E2000306000F0D1FC6120205C0228E9D001284C
:102E3000E4D00028DFD03EE0244800682449096837
:102E4000C96A0029DDD1411E88412249096801294A
:102E5000019900D801460029D3D11F4800681F49B5
:102E60000968401A0228CCD31D490868401C086034
:102E7000194800681949096888421ED31348006838
:102E800013490968C96A002912D1411E88411149B4
:102E900009680129019900D80146002908D10E4886
:102EA00000680E490968401A022801D300F01AFD93
:102EB00001F02CFEA5E772B6FEE772B6FEE7C0464B
:102EC00034112020C0162020301120204011202055
:102ED000440420205C04202074162020D4162020D6
:102EE00038112020F0B583B002930F4601900A9C60
:102EF000206B9600A5223146FDF775FB206B8019EB
:102F0000031F072021463431089D002F30D03A7826
:102F10000A70002A29D07A784A70002A25D0BA7817
:102F20008A70002A21D0FA78CA70002A1DD03A7916
:102F30000A71002A19D07A794A71002A15D0BA7913
:102F40008A71002A11D0FA79CA71002A0DD03A7A12
:102F50000A72002A09D07A7A4A72002A05D0BA7A0F
:102F60008A72002A01D0FA7ACA720022CA7201E07B
:102F700000220A7083430093099F0026E664092D0E
:102F800000D30925A564E562201D00F0E7FB20467B
:102F9000183000F0E3FB0A20401BA061266566653F
:102FA000A665E6652046503006746462246100AA76
:102FB00007CA00F0B5FA2060002F00D03C6003B0D3
:102FC000F0BD0000F0B583B0002936D01D460F4695
:102FD00006460292099C0898019000F0EBFBCD4850
:102FE0000068002815D1164800F0AEFB154800F027
:102FF000ABFBC74813490160C44811490160002078
:10300000009014200C21104A104B00F0A5FFC1497C
:10301000086000F0D9FBA761E56101982062266095
:10302000201D00F09BFB0298002804D02820215C82
:1030300004220A43225403B0F0BD72B6FEE7C04634
:103040000C1620202016202000032020F003202032
:10305000F0B585B0044601F027FC234A1168884288
:1030600033D200940190A94F05E068602D61386863
:10307000314600F076FB38680168002927D0C06827
:103080000468C5682E1D304600F031FB296A2846C9
:1030900088472820285C4007EDD5A8690019A04280
:1030A000E3D89C4E306800280DD004950394002589
:1030B000029501F0EBFB306802A92A462B4600F08E
:1030C00096FF0028D7D172B6FEE7002107E09049AD
:1030D0000A683A60086001210198009C024A106069
:1030E000216005B0F0BDC0464004202081B0002022
:1030F00000900A48006872B6401C09D0FEE70098AC
:10310000002808D10098002805D10098002802D195
:1031100000980028F3D001B07047C046F40020208A
:103120008AB07A4E7B4F30680468002C02D0C068A9
:10313000056800E0002500F007FE04A8FFF788FFFF
:103140000499002902D001F0E1FC52E0002C15D0D6
:10315000854213D8029001F0D9FC3068C068C46879
:10316000201D019000F0C3FA2820205C410709D4FB
:1031700021462831FA221040087037E0002C12D086
:10318000002215E0A069411961602461029A914210
:10319000314603D8511B81425D4914D20868019918
:1031A00000F0DFFA22E05A49096809684A424A41B8
:1031B000291A386800F050FC01F0A8FC002818D14A
:1031C00000F03EFC15E03868002800D19BE009942F
:1031D00008950025079501F059FB386807A92A468C
:1031E0002B4600F004FF002800D18CE0216A204625
:1031F0008847386804A90022029202E0386804A9CE
:10320000002201F0C6F800288DD004980028F5D4DB
:10321000069D6869002802D0281D00F068FA03A8FE
:10322000FFF716FF04990929E8D8C04679440979BF
:1032300049008F440A0A0A0442570A0A0442282015
:10324000295CFE220A402A54D8E728216A5C01231F
:1032500013436B54AB6905995A186A602D61824219
:1032600024D98842304625D28A42304622D3344679
:103270002E462836296A2846884730782646400751
:10328000BCD5386800283AD0A86905990995401836
:103290000890029C079401F0F9FA386807A92246C1
:1032A000234600F0A4FE0028A8D128E0401A984246
:1032B0001748DCD2291D006811E028216A5C01232F
:1032C00013436B540599A96100291AD00918696044
:1032D0002D618142304600D80D480068291D00F05C
:1032E00040FA8BE72820285C810703D4284600F0A9
:1032F00079FA83E72835FE21084028707EE772B608
:10330000FEE772B6FEE772B6FEE7C046480420202C
:1033100058042020D8162020F0B581B00446064677
:10332000443600F047FA01203756012F12DB2546BC
:10333000243504E0781E79B2012907460ADD2868A1
:10334000002807D0284601F0A1FB0028F2D000F0A9
:10335000E3FBEFE7FF25757000F036FA00F02AFA7C
:1033600000203756012F11DB103404E0781E79B2AB
:10337000012907460ADD2068002807D0204601F011
:1033800085FB0028F2D000F0C7FBEFE7357000F0B6
:103390001BFA01B0F0BD0000F0B583B0054600F0A7
:1033A000D3FC52480368002B02D0514909781DE034
:1033B0000721CA434F4B5907194601D0D91D114067
:1033C0004D4C0326B6029E191640083E06600022A8
:1033D00006C4326072600368721A0B604A60474923
:1033E0000A6047490A60424A012111700024002DF9
:1033F00001D4224600E001222E460836092E6CD365
:103400000A406AD107222946914310310024B14273
:1034100000D821466A0700D00E46711E384A12684D
:1034200091425AD2344D2A685768B74207D2116880
:10343000002904D015460A464F68B742F7D39A428E
:103440004BD02C6811682960B91B11292DD3931911
:103450005D0701D072B6FEE759605660264E3168AE
:10346000994204D20E689E420D46F8D301E03546DB
:103470000E46696801916F1802975F680299994238
:1034800003D101997F186F602B46D919B14201D041
:10349000304606E00068864203D07068C019586064
:1034A000306818609D4200D02B605068F34B19685B
:1034B000091A1960114B1D68A94200D2196008341D
:1034C000ED490978002313600E4B1D686D1C1D60CB
:1034D0004B1E9941C9070843506001F017FB600774
:1034E00001D072B6FEE7204603B0F0BD50042020A4
:1034F0003416202028052020A41620206C16202019
:10350000601620207C16202004480168002903D082
:103510000168CA6C521CCA640068704744042020C9
:103520000346083B1960011F01231B060B6001467F
:103530000C39034B0B60014620390A604038704754
:10354000ED30000083B0F0B5C6B04B914C924D9376
:103550004BA94591012529020491002839D0401E2C
:10356000039000273C460BE02CA0FEF76BFF049F66
:103570000398001B414241410E43641C012E29D097
:103580004598C11D0720814308460830459003C96E
:10359000FDF732F9FDF76EF900900191002C01D092
:1035A0001CA200E019A205A8C0190499CE1B022391
:1035B0003146FCF7D1FE0022B042294600DA11461E
:1035C00000282E4600D416460E43012ECCD0C71933
:1035D000CEE700270498874204D205A80A21C155E6
:1035E0007F1C02E01AA0FEF72DFF254D05AE2846F0
:1035F00031463A4600F06DF8284631463A4600F02A
:1036000068F846B0F0BC01BC03B00047252E2A661E
:10361000000000002C252E2A660000005365726908
:10362000616C706C6F7420627566666572206F766F
:103630006572666C6F77206F7220666F726D617451
:1036400074696E67206572726F72210A0000000053
:1036500053657269616C706C6F7420627566666523
:10366000722066756C6C2C206E6F207370616365C0
:1036700020666F72206E65776C696E65210A0000A6
:1036800000801040EFF3108072B6704782B070B5C2
:10369000C2B00D4604464692479346AB01930120C3
:1036A000010202AE30462A46FCF738FE3046FCF7EF
:1036B00037FF002808D0054602AE31782046FEF7D5
:1036C000FFFD761C6D1EF8D142B070BC01BC02B08B
:1036D000004770B5002A09D014460D4606462978E1
:1036E0003046FEF7EDFD6D1C641EF8D170BD4168DB
:1036F00082688A60516001694B68834200D14A60E8
:103700000A68521E0A6000220261086870470000C1
:10371000034B036080201060024808607047C04679
:103720004413202044112020034B036080201060AC
:10373000024808607047C046A8152020A813202022
:10374000FEE780F3108870470021016002460832CE
:10375000C94342608160C26002617047002101611B
:103760007047B0B50B685A1C0BD004460834626829
:1037700015689D4208D8546825689D422546F6D9AB
:1037800004E00269556801E015462246A960086117
:103790004D608A6051600168491C0160B0BD42689B
:1037A0004A6093688B600861596003685B1C036022
:1037B0009160704772B60A480168491C0160BFF306
:1037C0004F8FBFF36F8F704705480168002903D002
:1037D000491E016002D0704772B6FEE762B67047BC
:1037E000F4002020B0B5002844D0234909784A1EAF
:1037F0009141C907041F2268114205D008380368A7
:10380000002B03D072B6FEE772B6FEE78A43226051
:10381000054600F099FA28462168184A13685B1893
:103820001360174B1C68844204D2236883422246EB
:10383000F8D301E01A46234654681519854202D18F
:1038400009195160104644189C4201D01C4607E0FB
:103850000C4C2468A34203D05C68611841601C686A
:103860000460824200D0106007480168491C016072
:1038700001F04CF9B0BDC04634162020601620205F
:10388000A416202050042020801620206848012102
:103890000170694801706948017066480021016043
:1038A000816002494160072101607047FF7C000090
:1038B0000B4A13681868203080F30988022080F3CF
:1038C0001488BFF36F8F3FBCAE4608BC04BC62B621
:1038D0001847C046C046C046C046C046C046C0465F
:1038E00044042020F0B585B0064651480178514F78
:1038F00038680122049290433860B8687D2214022F
:103900004D4A1378002B224646D0002947D18E42DB
:1039100000D30E46711E01914A4310184749097899
:103920000029039400D02D21451A00D8054672B60F
:10393000BFF34F8FBFF36F8F0024E0430290FFF778
:1039400005F9002830D07D60BC60386804990843D0
:103950003860002E04D0BFF34F8F30BFBFF36F8F9E
:1039600062B6BFF34F8FBFF36F8F72B6BFF34F8F47
:10397000BFF36F8F062038603868C00320D4039DE2
:103980006E43B868361A3046294601F0DFF92946F9
:103990004143891B491937E01A460029B7D08321D2
:1039A00089008E42B5D2B5E7B86878603868049966
:1039B0000843386020480078002808D1029808E0C1
:1039C0001D480078002808D10299039E07E003985B
:1039D000401E786062B605B0F0BD039E711EBA68E5
:1039E000521B521800283346354600D103469A42EE
:1039F000084600D810462D2A00D301460F4A1278F7
:103A0000002A00D1014601987960BC603A680499A7
:103A10000A433A6000F086F907480078002801D18F
:103A2000029800E0681E786062B605B0F0BDC0463E
:103A30006816202010E000E02C1120202811202002
:103A40000120000703490860BFF34F8FBFF36F8F5A
:103A50007047C04604ED00E070B515460E460446BA
:103A6000FFF7A8FE4420215C20464430FF2901D105
:103A7000002101704178FF2901D100214170FFF739
:103A8000A3FEA06B002805D12046243031462A46EB
:103A900000F076F82046FFF73FFC70BD70B50028B7
:103AA0002CD0DF490A68002A01D072B6FEE70A6806
:103AB000521C0A60A2490C68DB4D2968091D0646A4
:103AC0000846FFF714FEA4192868446006D34B4843
:103AD00000682968091DFFF744FE0AE046480068AF
:103AE0002968091DFFF73DFE964801688C4200D207
:103AF000046001F00BF8002800D070BDFFF7A0FFB4
:103B000070BDC0460349096801608D49096841607C
:103B10007047C04678162020C248012101607047D6
:103B200070B5002818D00C46BF4D29681831FFF732
:103B300018FE834806682868001DFFF7D8FD601C42
:103B40000CD03419286844600ED32C4800682968CA
:103B5000091DFFF706FE70BD72B6FEE72868011D5D
:103B60002748FFF71CFE70BD234800682968091D1F
:103B7000FFF7F7FD734801688C4200D2046070BD06
:103B8000F0B581B000281BD015460C46A64E316812
:103B90001831FFF704FE6A4807683068001DFFF718
:103BA000A6FD002D01D00020C443002D0AD0601CCA
:103BB00008D13068011D1248FFF7F1FD01B0F0BDDA
:103BC00072B6FEE73C193068446007D30B480068C2
:103BD0003168091DFFF7C5FD01B0F0BD064800685A
:103BE0003168091DFFF7BDFD564801688C4200D2BF
:103BF000046001B0F0BDC0464C04202054042020D5
:103C0000AC162020F0B581B000281DD0C36C002B6D
:103C10001CD0826C8A4200D80A46012B14D1C16A9A
:103C2000914211D0804B1B68984211D0C2628369C7
:103C3000002B02D40A239A1A8261142569437D4E0F
:103C4000711842698A4205D001B0F0BD72B6FEE734
:103C500072B6FEE7041D07462046FFF748FDF86AE6
:103C600073490A68904200D908604543701921469B
:103C7000FFF795FD01B0F0BDB0B588B00024069403
:103C8000059406A805A904AAFFF742FD0598002897
:103C900033D0069D002D32D0049A642107910799F4
:103CA00064292ED10799612102236B542863029560
:103CB00007A801900094154815A12346FFF712F9B3
:103CC0002846FFF707F8144807990160002910D02B
:103CD00000F0B8FF411C16D001280AD172B6E043AB
:103CE000184908600D48012101601548046000F082
:103CF000A3F80B48006808B0B0BD72B6FEE772B614
:103D0000FEE772B6FEE772B6FEE7C046E92D000098
:103D100049444C4500000000641620209C162020D9
:103D20007452000006490A681218064B1B689A4232
:103D300001D972B6FEE70A68101808607047C046DD
:103D4000D41620207416202035480168491C0160D3
:103D50007047C046F0B581B031480068002802D0F5
:103D6000304801212CE02F48002101602E4C2068B2
:103D7000006B02682D498A4208D142688A4205D107
:103D800082688A4202D1C068884204D020682168D3
:103D90003431FFF7D5FC2648016814231A464A43FC
:103DA000244DAE58002E0ED0AA1853685B6853609D
:103DB00015460835AB4201D15B685360DA68226072
:103DC000016001B0F0BDAA1800291DD01E464E4367
:103DD00076191746143F3F68002F17D1012913D0D9
:103DE0001746283F3F68002F13D102290CD01746F1
:103DF0003C3F3F68002F0FD1032905D0091F503ADF
:103E00001668002EE0D0D0E772B6FEE7143E491ED9
:103E100004E0283E891E01E03C3EC91E3246C4E74C
:103E200038112020E016202044042020A5A5A5A5B7
:103E3000401120205C042020B0B582B0FF20010496
:103E4000124A13680B4313600006116801431160A6
:103E5000FFF71CFD0E4C00252560FFF729FDFFF73D
:103E600079FF0195206872B6401C09D0FEE70198E1
:103E7000002808D10198002805D10198002802D116
:103E800001980028F3D0002002B0B0BD20ED00E082
:103E9000F4002020B0B5024601200024214600F0A5
:103EA0000DF8002809D004608460C46005462146EE
:103EB0002246234600F09BF82846B0BDF0B581B0FD
:103EC00000280FD00646009200250F4608462946D6
:103ED00032462B46FCF70AFA4A1E9141012903D1CA
:103EE00072B6FEE772B6FEE74F21C943884201D39E
:103EF00072B6FEE75030FFF74FFA0446002828D08C
:103F000020464430E663064627648570002F20462D
:103F100001D0204650302060FFF74CFCA563FF2005
:103F2000307021687070E06B226C431E504308189B
:103F30005343CA186160A060E26020461030FFF76A
:103F400003FC20462430FFF7FFFBFFF73DFC009801
:103F50003072204601B0F0BD70B582B0002807D0A5
:103F6000002B07D0002907D1002A05D072B6FEE742
:103F700072B6FEE772B6FEE7002903D0002A01D12F
:103F800072B6FEE750240194019C502C2DD11D46A1
:103F90004435069E019CD86319640029184600D058
:103FA000104618600120A8701C46FFF703FC002093
:103FB000A063FF20287021686870E06B226C431EAC
:103FC000504308185343CA186160A060E26020465D
:103FD0001030FFF7B9FB20462430FFF7B5FBFFF7A1
:103FE000F3FB2E72204602B070BD72B6FEE7F0B54C
:103FF00089B00892002812D01D460446002910D02E
:10400000022D02D1E06B01283FD11646059100F048
:104010003DFC00280AD1002E08D072B6FEE772B629
:10402000FEE7206C0028EBD072B6FEE7FFF7C2FB7C
:10403000E06BA16B022D51D081424FD3089800282C
:1040400000D1D9E02646443606A8FFF75BFDFFF70E
:10405000BBFBFFF779FEFFF7ADFB3078FF2801D1FE
:10406000002030707078FF2801D100207070FFF7B9
:10407000ABFB06A808A900F085FB002807D0204666
:10408000FFF74AF900F042FDB8E072B6FEE72746B6
:104090001037FFF78FFBE06B0290A06B0190FFF7EA
:1040A00093FB0298019981420DD108993846FFF798
:1040B00037FD2046FFF730F900F028FD002807D132
:1040C000FFF7BEFC04E02046FFF726F900F01EFDD6
:1040D000FFF770FBE06BA16B81424CD2226CA66BA8
:1040E000002A059919D00127002D1BD0E068FCF7A4
:1040F00039FA206CE168091AE1602268914203D222
:104100004042A1680818E060701E31468141A81E37
:10411000424242410A40B61A18E0206800280ED0F8
:10412000012713E06068FCF71DFA206C616808182D
:104130006060A168884209D32068606006E0A068DA
:1041400000F038FC0021A16047424741701CA06389
:10415000606A00280CD02434204600F097FC002828
:1041600001D0FFF76DFCFFF72FFB012009B0F0BD78
:10417000002FF6D0F7E7049603970BE02046FFF7F1
:10418000CBF800F0C3FCFFF715FBE06BA16B81429D
:10419000049EA3D3089800282ED0FFF715FBFFF745
:1041A000D3FDFFF707FB3078FF2801D100203070E6
:1041B0007078FF2801D100207070FFF705FB06A87A
:1041C00008A900F0DFFA002800D058E7FFF7F2FA5C
:1041D000E76BA66BFFF7F8FABE42CFD108990398B8
:1041E000FFF79EFC2046FFF797F800F08FFC0028B1
:1041F000C9D1FFF725FCC6E7FFF7E6FA002009B0B2
:10420000F0BDF0B583B0002814D01D460446002947
:1042100012D0022D02D1E06B012835D10F46029257
:10422000FFF730FAE16BA26B022D0AD08A4208D365
:10423000002565E072B6FEE7206C0028E9D072B672
:10424000FEE74521635CA16B226CA66B002A1DD0A2
:1042500039461F460190002D26D0E068FCF782F910
:10426000206CE168091AE1602268914203D2404261
:10427000A1680818E060701E31468141A81E4242C4
:1042800042410A40B61A1BE072B6FEE721680029D7
:1042900018D1A168054608461F4600F08BFB3B4637
:1042A00028460021A1600DE06068FCF75BF9206CF6
:1042B000616808186060A168884201D32068606066
:1042C00001983B46711CA1637F2B13D0FF2B13D1A8
:1042D000616A0125002913D006462434204600F0E7
:1042E000D5FB0299002910D00028304608D00125BE
:1042F0000D6005E072B6FEE74534591C21700125BA
:10430000FFF71FFA284603B0F0BD3046F8E770B556
:10431000002804D0026C002A03D072B6FEE772B601
:10432000FEE70268002A23D00D460446FFF7AAF9EB
:10433000A36BE26B934219D221464522A25C5B1C1F
:10434000A3637F2A19D0FF2A19D14A6A0124002ABF
:1043500019D006462431084600F098FB002D16D0EF
:10436000002830460FD001242C600CE000240AE025
:104370008268002AD8D072B6FEE772B6FEE74531F1
:10438000521C0A700124FFF7DCF9204670BD30464C
:10439000F9E7F0B585B0049200280CD01546044624
:1043A00000292ED00F4600F071FA002805D1002D0B
:1043B00003D072B6FEE772B6FEE7FFF7FBF9A56B16
:1043C000002D23D0226C002A0AD03846E1688918D3
:1043D000E160A368994201D32168E160FCF7C2F86B
:1043E000681EA06320690125002800D189E01034EF
:1043F000204600F04BFB002800D182E0FFF720FBB5
:104400007FE0206C0028CDD072B6FEE7002504982E
:10441000002876D000952646443602A8FFF772FBA6
:10442000FFF7D2F9FFF790FCFFF7C4F93078FF28C7
:1044300001D1002030707078FF2801D10020707009
:10444000204624300190FFF7BFF902A804A900F02C
:1044500099F900280DD02046FEF75EFF00F056FBCC
:10446000FFF7A8F9A56BFFF7AFF9002D1BD10025C9
:1044700049E0FFF79FF9A56BFFF7A6F9002D05D0DE
:104480002046FEF749FF00F041FB0CE0049901983B
:10449000FFF746FB2046FEF73FFF00F037FB002802
:1044A00001D1FFF7CDFAFFF785F9A56B002D89D172
:1044B0000498002824D0FFF787F9FFF745FCFFF7A1
:1044C00079F93078FF2801D1002030707078FF280A
:1044D00001D100207070FFF777F902A804A900F05D
:1044E00051F90028C5D02046FEF716FF00F00EFB5C
:1044F000FFF760F9A56BFFF767F9002DD3D1B6E799
:10450000009DFFF761F9284605B0F0BDF0B583B016
:10451000002833D00446002932D00D460292FFF71E
:10452000B1F8A66B002E30D04421675C226C002AC3
:104530000CD00190E0688118E160A068814201D34D
:104540002168E1602846FCF70DF80198711EA1630F
:104550007F2F1CD0FF2F1CD12169012500291CD0E1
:1045600006461034204600F091FA0299002919D02D
:104570000028304611D001250D600EE072B6FEE72E
:10458000206C0028C9D072B6FEE7002505E072B69F
:10459000FEE74434791C21700125FFF7D2F8284644
:1045A00003B0F0BD3046F8E7F0B585B004910028BF
:1045B00005D00446006C002803D072B6FEE772B640
:1045C000FEE70D4600F062F9002803D1002D01D06E
:1045D00072B6FEE7FFF7EEF8A06B002818D0401E79
:1045E000A0632068002802D1FEF78EFFA06020693A
:1045F0000126002800D1BFE01034204600F046FA22
:10460000002800D1B8E0FFF71BFAFFF7DDF846E01D
:1046100000260498002800D1AEE02746443702A8BF
:10462000FFF770FAFFF7D0F8FFF78EFBFFF7C2F83D
:104630003878FF2801D1002038707878FF2801D120
:1046400000207870204624300190FFF7BDF802A8C2
:1046500004A900F097F8002800960DD02046FEF738
:104660005BFE00F053FAFFF7A5F8A56BFFF7ACF877
:104670000026002D38D112E0FFF79CF8A56BFFF75C
:10468000A3F8002D06D02046FEF746FE00F03EFAC5
:10469000002629E02068002804D000260AE03046E1
:1046A00005B0F0BDFFF786F8A06800F0B3F9064644
:1046B000FFF78AF804990198FFF732FA2046FEF7CF
:1046C0002BFE00F023FA00280ED1FFF7B9F90BE01A
:1046D0002046FEF721FE00F019FAFFF76BF8A56BF4
:1046E000FFF772F8002D36D0FFF764F8A06B0028B2
:1046F00000D074E70498002828D0FFF765F8FFF78A
:1047000023FBFFF757F83878FF2801D100203870D5
:104710007878FF2801D100207870FFF755F802A8BB
:1047200004A900F02FF80028D2D1FFF743F8A56BB9
:10473000FFF74AF8002D05D02046FEF7EDFD00F00A
:10474000E5F9D1E720680028B4D1ABE7002E009E40
:1047500012D072B6FEE7002E11D0FFF72BF80198A9
:10476000006800260028314603D0206B00680A212B
:10477000091AA068FFF746FAFFF726F88FE7002628
:104780008DE70000F0B581B000281FD00C4600294D
:104790001ED00546FFF70EF86A688348076821684F
:1047A00000264B1C19D0824803682868834201D038
:1047B00097420FD2BA1A91420CD9881A20607C48CD
:1047C0000068286078480068686006E072B6FEE716
:1047D00072B6FEE7002020600126FEF7F5FF3046A6
:1047E00001B0F0BDF0B587B01F4604AB07C3900021
:1047F000FEF7D2FD0025EC4300281CD006460397A7
:104800006420FEF7C9FD002812D007460D980C99C8
:104810006122BD543E6300910190029704AA07CA29
:10482000039BFEF75FFB3846FEF754FA012402E0D3
:104830003046FEF7D7FF204607B0F0BDF0B587B091
:104840000D9D002D1BD00E9C002C1AD064260596C1
:10485000059E642E17D10C9E0496059F61270226A3
:10486000E6552563029406AD0195049D0095FEF77B
:1048700039FB2046FEF72EFA069807B0F0BD72B657
:10488000FEE772B6FEE772B6FEE700000548006874
:10489000002805D0D3480068414241414800704794
:1048A000012070479C1620203F4800687047C04692
:1048B000F0B583B0CB480068002806D0D248016824
:1048C000491C0160002003B0F0BD374801684C1C52
:1048D00004601BD3CA4801680968002901D072B678
:1048E000FEE70168314A13680360116030490A68C5
:1048F000521C0A6001680968002903D00068C0687A
:10490000006801E00020C043BE490860BD49086856
:10491000844201D200203FE00023DA43B84E3068E1
:10492000006800282FD001920020029003E0306838
:10493000006800282CD03068C068C7687868844256
:1049400023D33D1D2846FEF7D2FEB86A002803D0C7
:1049500038461830FEF7CBFEF86AA5490968884248
:1049600001D9A349086014214143A24840182946AF
:10497000FEF715FFF86AA0490968C96A8842D6D3CC
:1049800001200290D3E7029304E002469D4901E032
:104990009C49019A0A60029898490968002992D0B6
:1049A000012003B0F0BDC046D416202054042020BE
:1049B00078162020B0B501460020002926D08E4A66
:1049C0001268914201D072B6FEE7CA6C002A1ED06E
:1049D000521ECA641AD18A6CCB6A934216D00C1D3F
:1049E0000D462046FEF783FEA86CE8620A21091AEC
:1049F000A9617F490A68904200D9086014214143A7
:104A00007C4840182146FEF7CAFE0120B0BD72B6B0
:104A1000FEE7C046F0B581B000281DD0C16A764DD2
:104A20002A68D26A914212D28269002A04D42A6882
:104A3000D26A0A239A1A8261142671436D4A511868
:104A400042698A420BD02968C96AC1621AE0806C47
:104A50002968C96A884215D3002001B0F0BD041D41
:104A600007462046FEF743FE2868C06AF8626049A0
:104A70000A68904200D9086046435E488019214682
:104A8000FEF78DFE012001B0F0BDC046B0B5C06894
:104A9000C568002D0DD02C4618342046FEF727FEA1
:104AA00050480068002806D050482146FEF777FE9F
:104AB0001FE072B6FEE72C1D2046FEF718FEE86ADE
:104AC0004B490A68904200D9086014214143494883
:104AD00040182146FEF763FE49480168096800292D
:104AE00003D00068C068006801E00020C043454969
:104AF0000860E86A40490968C96A884203D93F49A1
:104B000001200860B0BD0020B0BDC046F0B581B046
:104B1000344C206800280DD0FEF74CFE2068401E63
:104B2000206020680027002806D0FEF74DFE38469A
:104B300001B0F0BD72B6FEE72B4800680028F4D043
:104B40002A4E3068002833D00097294F02E03068A1
:104B500000281FD0F068C46820461830FEF7C7FD53
:104B6000251D2846FEF7C3FDE06A3968884200D952
:104B70003860142141431F4840182946FEF70FFEB4
:104B8000E06A1D490968C96A8842E0D301201B49CF
:104B90000860DCE71A4801680968002903D000684A
:104BA000C068006801E00020C043009F154908600C
:104BB000154C2568002D0CD0104E01E06D1E06D05E
:104BC000FFF776FE0028F9D001203060F6E70020DC
:104BD00020600A4800680028A7D0FEF731FF0127AF
:104BE000A3E7C0463811202030112020881620204D
:104BF000401120205C04202044042020E0162020C6
:104C00004C0420207416202084162020F0B583B098
:104C10001C4615460E4607462C20FEF7BDFB002815
:104C20000DD0089928220023835400910190234637
:104C30000446384631462A46FEF7C4F9204603B0FA
:104C4000F0BD000070B586B0FEF7B4FD1D4E3068B3
:104C5000002814D11C4C2046FEF776FD1B4D28463B
:104C6000FEF772FD1A4805601A48046000200090A3
:104C700014200C21184A194BFFF76EF93060FEF72B
:104C8000A3FD306800281AD000240594049405A8D8
:104C900004A903AAFEF748FD039A04980599052381
:104CA0000093019002910E480EA12346FFF7C6FD26
:104CB0000E490860002802D0012006B070BD72B60F
:104CC000FEE7C046D81620200C16202020162020F3
:104CD000580420204804202000032020F003202036
:104CE00021310000546D722053766300DC162020C1
:104CF000B0B584B0002812D00446134D28680028AF
:104D00000FD001AF16C705290EDCFFF7BFFD014626
:104D10002868022910D1089A01A900230FE072B671
:104D2000FEE7002004B0B0BD01A900241A462346C6
:104D3000FFF767FA04B0B0BD01A900221346FFF7E0
:104D400056F904B0B0BDC046D816202043088B42A7
:104D50001AD3002203098B4279D3030A8B425ED314
:104D6000030B8B4242D3030C8B4227D30902FF2251
:104D700012BA030C8B4202D31212090203D0030BA6
:104D80008B4233D31AE0D3E0411A8041401C704774
:104D900003460B4371D443088B42F5D30022030929
:104DA0008B4254D3030A8B4239D3030B8B421DD35E
:104DB000030C8B4202D394466EE0090AC30B8B426C
:104DC00001D3CB03C01A5241830B8B4201D38B0317
:104DD000C01A5241430B8B4201D34B03C01A5241BC
:104DE000030B8B4201D30B03C01A5241C30A8B42FF
:104DF00001D3CB02C01A5241830A8B4201D38B02EA
:104E0000C01A5241430A8B4201D34B02C01A52418D
:104E1000030A8B4201D30B02C01A5241CDD2C309FF
:104E20008B4201D3CB01C01A524183098B4201D37B
:104E30008B01C01A524143098B4201D34B01C01A66
:104E4000524103098B4201D30B01C01A5241C308DE
:104E50008B4201D3CB00C01A524183088B4201D34D
:104E60008B00C01A524143088B4201D34B00C01A39
:104E70005241411A524110007047CA0F00D04942B6
:104E8000031000D34042534000229C4603098B424A
:104E90002DD3030A8B4212D38901FC2212BA030AD2
:104EA0008B420CD3890192118B4208D38901921154
:104EB0008B4204D3890137D0921100E08909C309DC
:104EC0008B4201D3CB01C01A524183098B4201D3DB
:104ED0008B01C01A524143098B4201D34B01C01AC6
:104EE000524103098B4201D30B01C01A5241C3083E
:104EF0008B4201D3CB00C01A524183088B4201D3AD
:104F00008B00C01A5241D9D243088B4201D34B00C7
:104F1000C01A5241411A00D201465241104663461E
:104F20005B1000D34042704763465B1000D34042A1
:104F300001B50021004201D0C9430846C046C04621
:104F400002BDF8B5040C8BB2264682B25E43104611
:104F500058430D0C370C3604002180191646794150
:104F60006E43370C36048019264679416E43891901
:104F7000F8BD00004900CA020243100000D004201E
:104F80004A0D01D001221043044A490D914201D13A
:104F900002210843012800D105207047FF070000C7
:104FA00030380A2801D201207047002070470000E5
:104FB00010B500290AD00878002807D005487844A1
:104FC000FCF780FF002801D0002010BD0248784483
:104FD00010BD0000DA020000D202000010B5002966
:104FE0000AD00878002807D005487844FCF76AFF03
:104FF000002801D0002010BD0248784410BD0000F8
:10500000CA020000C202000070B5420064414B00B9
:105010005C41120E39D01B0E38D0FF2A3CD0FF2B3A
:105020003AD0D2187F3A40024902400A490A45184C
:10503000ED0106004E43000A090A48430104731AB1
:105040004019190C4318990F04D05B080121490736
:105050005B1A521CD80904D3401CF50301D19D06EC
:1050600007D0FF2A08D2D50506D0E407204340190F
:1050700070BD0125A843F4E7002A01DCE00770BDFC
:105080002402FF202043C00570BD1B0EFF2A03D061
:10509000FF2B01D0E00770BDFF2636064500B54264
:1050A00006D84D00B54203D8D218FF2A00D0E7E752
:1050B000004870BD0000C07F03B4024878448446B5
:1050C00003BC6047BDBCFFFF03B40248784484467C
:1050D00003BC60470DC3FFFF040000080000000090
:1050E0000000000200010000108182838485868711
:1050F00088898B8C8D8E8F919293959697999A9C97
:105100009D9FA0A2A3A5A7A8AAACAEB0B2B3B5B705
:10511000B9BCBEC0C2C5C7C9CCCED1D4D7D9DCDFDB
:10512000E2E6E9ECF0F3F7FAFE0000000000000010
:1051300000000000303132333435363738394142DF
:1051400043444546403058003031323334353637E9
:1051500038396162636465664030780030313233DB
:10516000343536373839616263646566787000308B
:105170003132333435363738394142434445465865
:105180005000000002400000000000A000000000ED
:1051900005400000000000C8000000000C400000B6
:1051A0000000409C00000000194000000020BCBE30
:1051B0000000000034400000BFC91B8E0000000446
:1051C000B5400000504BCFD06607E2CF0100000091
:1051D0006C4100003E8251AADFEEA73401000000BE
:1051E000D9420000DCB5A0E23A301F97FFFFFFFF75
:1051F000B4450000FD25A0C8E9A3C14FFFFFFFFF94
:10520000FF3F00000000008000000000FF3F0000A2
:1052100000000080000000000800080700000000F7
:10522000B80B00002001010008070000B80B0000C7
:105230002000010008000400000300000710000027
:1052400008076200000000000000000000000000ED
:10525000000000000000000008000000180000002E
:105260000030000025732025730D0A005B494E466F
:105270004F5D000009000000C8530000000020201E
:10528000F800000020010000C0540000F8002020B9
:10529000F0160000480100001C0000004300000060
:1052A000F8FFFFFF0C0000000E0000000F000000E0
:1052B0002E0000001001000043000000F8FFFFFF77
:1052C0000040404040404040404041414141414019
:1052D00040404040404040404040404040404040CE
:1052E000400502020202020202020202020202025D
:1052F0000220202020202020202020020202020262
:1053000002029090909090901010101010101010B9
:1053100010101010101010101010101002020202C5
:105320000202888888888888080808080808080809
:105330000808080808080808080808080202020205
:10534000400000000000000000000000000000001D
:10535000000000000000000000000000000000004D
:10536000000000000000000000000000000000003D
:10537000000000000000000000000000000000002D
:10538000000000000000000000000000000000001D
:10539000000000000000000000000000000000000D
:1053A00000000000000000000000000000000000FD
:1053B00000000000000000000000000000000000ED
:1053C00000000000000000001400000014000000B5
:1053D00000000000000000000000000000000000CD
:1053E00000000000B80B0000010000000000864033
:1053F00000000000010000000000000000000000AC
:10540000000000000000000000000000000000009C
:105410000100000000000940010000000000000041
:10542000000000000000000000000000000000007C
:10543000000000000000000000000000000000006C
:10544000000000000000000000000000000000005C
:10545000000000000000000000000000000000004C
:10546000000000000000000000000000000000003C
:10547000000000000000000000000000000000002C
:105480000000000000000000C52B0000992B000068
:10549000F52B000000000A4002000000010000009F
:1054A00000000A40010000000000000000000000B1
:1054B000E803000000800E4400006040AAAAAAAAE7
:04000005000000C136
:00000001FF
