:020000040000FA
:1000000020182020C5010000C9010000CB0100001C
:1000100000000000000000000000000000000000E0
:10002000000000000000000000000000E90A0000DD
:100030000000000000000000510A00000510000050
:10004000D3010000D9080000D3010000D301000053
:10005000D3010000D3010000D3010000D301000050
:1000600000000000D3010000D301000000000000E8
:1000700000000000D3010000D30100003110000097
:10008000D3010000D3010000D3010000D301000020
:10009000D3010000D30100000000000000000000B8
:1000A000D3010000D30100000000000000000000A8
:1000B000D301000000000000D3010000D3010000C4
:1000C00000F002F800F052F812A030C808382418E6
:1000D0002D18AC4201D100F049F80FCCA246AB4636
:1000E0000CA730CF2D1B083F3F197C427F1E544484
:1000F0002D090426F441641EAC4201D300F036F809
:100100000126334200D0FB1A3343984754465D46DC
:10011000DFE7000024350000443500000000000047
:10012000103A02D378C878C1FAD8520701D330C840
:1001300030C101D504680C60704700000000000069
:100140007047000000000000002300240025002666
:10015000103A01D378C1FBD8520700D330C100D583
:100160000B6070471FB51FBD10B510BD00F0AAF998
:100170001146FFF7F7FF01F01DF800F0C2F903B4D4
:10018000FFF7F2FF03BC00F0C5F9000070B50546AB
:100190000C46164602E00FCC0FC5103E102EFAD2C8
:1001A000082E02D303CC03C5083E042E07D301CC8E
:1001B00001C5361F03E021782970641C6D1C761E72
:1001C000F9D270BD06480047FEE7FEE7FEE7FEE70E
:1001D000FEE7FEE703480449024A044B704700006B
:1001E000C1000000201720202018202020172020E8
:1001F0004343514330B55C18010C130C0D4692B2C9
:100200005D4380B251432C19054655430A0C09043D
:100210004D1962415843010C00044019514130BD51
:10022000F8B5042A2CD3830712D00B78491C03702D
:10023000401C521E83070BD00B78491C0370401CD6
:10024000521E830704D00B78491C0370401C521EB9
:100250008B079B0F05D0C91ADF002023DE1B08C9BE
:100260000AE0FFF793FFF8BD1D4608C9FD401C4694
:10027000B4402C4310C0121F042AF5D2F308C91A47
:10028000521EF0D40B78491C0370401C521EEAD455
:100290000B78491C0370401C012AE4D409780170D2
:1002A000F8BDD2B210B513029A1813049A1800F0D0
:1002B000E4F810BD7047704770470000F0B5FF25A7
:1002C0002D04C609C209FF2704462E400137CB0979
:1002D0003E4348402A402B400746002A6BD0002B63
:1002E00069D0AA4267D0AB4265D0002800DA324616
:1002F0000125ED0529432C4309022002090AD21ADF
:100300004B0C7F24E31A434C000A7C44E35C7D24BD
:100310002404121914145B00A218884201D3521C41
:1003200000E0400049420C465C4324115C43DB0181
:100330006415E318040A5C43C502200D0C464443CF
:100340006419250A5D432303EC0C0D466543000345
:100350000019EB184C42A34201D35B18401CD40592
:100360002018002B07D05B00C91804D3401C0029BB
:1003700001D1400840003F2189048A4209D3002A64
:1003800008DC1106090F04D0032149074018C00FEB
:10039000C007F0BD01224100120689187F225206D3
:1003A0009142F6D205214907C84201D59010F0BD0F
:1003B000FF20C005F0BD002F00DA32461648AA42E1
:1003C00007D2AB4205D21902090E17D0F80FC007A9
:1003D000F0BDFF2563002D06AB42F9D84900A942C4
:1003E000F6D8AB4201D1A942F2D0A94201D10021F5
:1003F00001E061004908D0050843F0BD1102090E73
:10040000FBD0FF200243D005F0BD0A46014610464E
:1004100054E70000963200000000C07F1F22030C4A
:1004200002D10F2200041CD0030E01D10002083AB1
:10043000030F01D10001121F830F01D18000921E12
:10044000002801DB4000521ED2055118021251183B
:100450001922904004D3491C002801D149084900C1
:1004600008467047C10FC90700D0404201229207D9
:100470001143D3E701218907D0E701E004C0091F38
:100480000429FBD28B0701D50280801CC90700D04C
:100490000270704700290BD0C30702D00270401CC5
:1004A000491E022904D3830702D50280801C891EBD
:1004B000E3E70022EEE70022DFE700000048704794
:1004C000F80020207546FFF7F9FFAE4605006946A3
:1004D0005346C008C000854618B020B5FFF77AFE25
:1004E00060BCB64600260027C0C5C0C5C0C5C0C593
:1004F000C0C5C0C5C0C5C0C5403D490849008D46FE
:10050000704710B50446C046C0462046FFF737FE88
:1005100010BD000001491820ABBEFEE72600020016
:100520007047811E091F00BFFCD2704770B50A7862
:100530000C231A400124240305196E689E43B21847
:100540006A604978072211400359934359180151B1
:1005500070BD0000B0B51122120283580C4C1C4033
:100560000B894D881D438B792B430A4D1D402B1958
:1005700083508B88CC791C43097821435D239B00F1
:100580001940801842689A4389184160B0BDC0463E
:1005900080CCFFFF7F33000010B5012212038318C7
:1005A0000C785C604978815010BD0000F0B57A4A43
:1005B00082183B4BC31808794E793A4D784C002E7F
:1005C00023D0202804D00526F601002803D003E01C
:1005D000354E002800D18826576F2F403743576784
:1005E000976F2F4037439767566B26405663966B3D
:1005F000264096630026566596658F26F6435F680B
:1006000037405F609F6837409F608E790968202877
:100610000BD0002819D1491E5160D76E2F40882178
:100620000F43D7661746703719E0491E5160D16EE7
:1006300029401D4F3943D166116F29403943116755
:1006400001214907194D174609E049085160D76E45
:100650002F400521C9010F43D766174670373C6804
:100660002C400C433C60D16A4D4C2140D162116B4F
:10067000214011630021D16411658F21C943D46FDA
:100680000C40D4671C680C401C600643BD20304001
:100690001168074B0B40C018801C1060F0BDC046AD
:1006A0008418000024493E0001040000FFFFFFCF32
:1006B0004000FFCFB0B54A68364BC250364A80186A
:1006C0000A78222A58D8930001A4E3589F46C046CE
:1006D0006F070000790700006F070000790700002E
:1006E000790700007907000079070000790700000A
:1006F00079070000790700007907000079070000FA
:1007000079070000790700007907000079070000E9
:100710005D070000790700005D0700007907000011
:1007200079070000790700007907000079070000C9
:1007300079070000790700007907000079070000B9
:1007400079070000790700007907000079070000A9
:100750005D070000790700005D07000003231B0709
:1007600004689C4301235B07E318036004E0032350
:100770001B0704689C4304600B69C360CB68074C8B
:100780001C40C36A064D1D402B19C362097A1143F0
:100790000160B0BD0818000004180000777702005F
:1007A0008888FDFF10B507239B041940920080182C
:1007B000024A84589C436118815010BD30180000D3
:1007C00010B5029CA400001911431943014A81503D
:1007D00010BDC0465018000092008018014A815098
:1007E0007047C0461018000010B50122120383188C
:1007F0000C789C604B7883508978014A815010BDF9
:100800000C110000B0B51122120283580124A34339
:1008100083500B888C781C438B882343094C1C40E5
:100820008358094D1D40631983508B79CC791C4343
:10083000097A21437E231940801842689A4351184F
:100840004160B0BD18670000E798FDFF10B50122B8
:10085000120383180C789C604978815010BD000009
:10086000B0B582B014480221016014480160012033
:1008700001F0E8FD1249086000281AD011480090E4
:1008800011A0142101220024234602F097FC054602
:1008900010480560002D0DD002F0DEFA02460094EB
:1008A00001212846234602F0FBFC012803D102B0B7
:1008B000B0BDFEE7FEE7FEE780E200E000E100E019
:1008C000AC162020210F0000537065656454696DDB
:1008D00065720000DC162020F0B583B0344D284648
:1008E00018380068800760D5324E103E3068C00668
:1008F00031492AD5086840210140304F39703048CD
:1009000000680024019401AA214602F0D7F80128CA
:100910000ED13878002801D0012000E0E0432949B9
:100920000A68801808602648006801A901F0C7FF1E
:100930000198002803D001200007234908601D4AC0
:1009400010681021014311601B493068800628D5CA
:10095000086880210140194F7970194E30680024D1
:10096000029402AA214602F0A9F801280DD1787854
:10097000002801D0E04300E0012014490A688018F3
:100980000860306802A901F09AFF0298002803D09D
:10099000012000070C490860064A10682021014325
:1009A0001160286802210143296003B0F0BDC046F0
:1009B0005811404048300A4080330A4058012020F6
:1009C000AC1620200003202004ED00E028052020A4
:1009D00070B501200404164D2C61642000F038FB32
:1009E0002C60322000F034FB002412A5285D00F0BA
:1009F00051F8641C172CF9D100242546B020284357
:100A0000C0B200F047F8204600F044F8102000F093
:100A100041F82646002000F051F8701C46B2002E26
:100A2000F8D5681CE9B207290546E7D370BDC04672
:100A300090320A40AED580A83FD30040A1C8DA1258
:100A400081CFD9F1DB40A4A68D14AF0000000000D7
:100A5000EFF309800E4B1A6820381060F0C044464E
:100A60004D4656465F46F0C008B572B601F04AFCE6
:100A700062B60CBC116808681030F0C8A046A946E0
:100A8000B246BB4680F309882038F0C81847C046F4
:100A900048042020B0B501231905114A11615B04F7
:100AA0001361104C2568ED06FCD4206320684007D4
:100AB000FCD4206A13601160B0BDC04610B501239C
:100AC0001905074A11615B041360064B1C68E406B4
:100AD000FCD4186318684007FCD4186A116010BD74
:100AE00090320A4010B1464070470000F0B52B49E3
:100AF0008720C86601239A032948026088220A6178
:100B0000284A0824146084248C628024146082247F
:100B10004C6110251560244D4D600D605B064D68DD
:100B20001D434D600D681D430D604C641F4C651CDA
:100B30008D641F4D8326AE610E67A61C6E610E4646
:100B40000C3E812737600E46083E3760CC620F634B
:100B50002F60AF62EF63174EEE65CC640C654C639B
:100B60008C631146303903240C601460014630391F
:100B7000114A0A60014640390B6010490160104873
:100B80000168104A0A4302600F48016A302211438B
:100B90000162016811430160F0BDC046108042400F
:100BA000D0320A40D0120A4082000C0081000400BA
:100BB00084804240810002000800130008001302F4
:100BC00090330A403035000028300A4010B51148F3
:100BD0001149FFF7ABFC03225102104803680B4395
:100BE000036001210B0204681C430460002343617D
:100BF0004262826B07239A4382631A02836B934398
:100C00008363826A042313438362826A0A43826293
:100C100010BDC04600200F40E435000000320F40F8
:100C200070B582B0194C1A492046FFF7DDFD19490D
:100C30002046FFF7BBFC00250095204629462A46A2
:100C40002B46FFF7BDFD204629462A46FFF7AAFDA1
:100C5000204629462A46FFF7BFFD0126009620467A
:100C600029462A462B46FFF7ABFD20462946324649
:100C7000FFF798FD204629463246FFF7ADFD0648AE
:100C800086600321016002B070BDC046000086404E
:100C9000E6350000EC3500000011864070B582B0EA
:100CA000194C1A492046FFF79FFD19492046FFF7C6
:100CB0007DFC00250095204629462A462B46FFF755
:100CC0007FFD204629462A46FFF76CFD204629462F
:100CD0002A46FFF781FD01260096204629462A462E
:100CE0002B46FFF76DFD204629463246FFF75AFD99
:100CF000204629463246FFF76FFD064886600321ED
:100D0000016002B070BDC04600000940F43500002B
:100D1000F83500000011094010B50D4C0D49204672
:100D2000FFF73AFC0C492046FFF714FC0B484168DA
:100D30000B4A0A400F324260816812220A432D2179
:100D40008A438260016801220A43026010BDC046E6
:100D500000A04640003600000236000004B14640C4
:100D600000FCFFFF044800210160044801680322E1
:100D7000914301607047C04608030B4000010B40DF
:100D800010B5084C08492046FFF72EFD07492046BC
:100D9000FFF790FC064801680122114301600548F5
:100DA000026010BD002086400C36000010360000A6
:100DB000283086400831864010B5194C1949204624
:100DC000FFF744FD18492046FFF71CFD0320C1032F
:100DD000164802688A4302600169154A0A401132C6
:100DE0000261416917220A4328218A43426142680D
:100DF00001210A4043688B439A1842608A020D4BD6
:100E00001C6814431C60FF2212060B4B1C689443A1
:100E10008A07A2181A6002680A43026010BDC04621
:100E2000008010402436000026360000009110405B
:100E30000000FFFF289010400CE400E080B500F0B7
:100E400021F8FFF753FEFFF78DFFFFF7E9FEFFF7ED
:100E500025FFFFF795FFFFF7B9FEFFF7ADFFFFF79F
:100E60005BFFB820044900220A5404490A54242094
:100E700003490A5480BDC04644022020600120205E
:100E80001C022020F0B581B0104811494160114882
:100E90004160114B5960114C6160114D6960114EF8
:100EA0007160114F7960114841601149074A116022
:100EB000084A116019602160296031603960016061
:100EC0001020FFF72EFB01B0F0BDC04600080A401D
:100ED000030000B100280A400008864000080940CD
:100EE0000028864000280F400088104000A8464097
:100EF0000100002600280DD081688900064A812360
:100F00008B50416989008B5006C8044BCA50416818
:100F10008068C8507047C04604804240901200006C
:100F2000F0B581B02E4E30680024E14301F014FE8C
:100F30000128254613D12B480468002101602A4866
:100F40000568016030680A460B4601F028FB204620
:100F5000FFF788FA04462846FFF784FA0546234936
:100F60001420086048602248076820463946FFF789
:100F7000A5F9204902F0BEFA1F49FFF79FF906467E
:100F80001A4CA06028463946FFF798F9194902F033
:100F9000B1FA1949FFF792F90546206114484068F3
:100FA000164902F0A7FA074630461249FFF786F9BC
:100FB0000146384602F09EFA114C2146FFF77EF9B1
:100FC0000A4EF06028460B49FFF778F9014638468B
:100FD00002F090FA2146FFF771F9706101B0F0BD9F
:100FE000AC1620200003202028052020000020200F
:100FF000EC002020000070420BD7A33CC3F5C84092
:101000000000C84210B500F041FE044601F028FF80
:10101000002803D00120000702490860204600F0A4
:1010200062FE10BD04ED00E0642000F011F8FBE763
:1010300080B505480068C0B20B2804D10348006899
:10104000C0B200F06BF980BD209010402491104098
:10105000B0B5002820D00446EFF30580002807D063
:101060007D2005022846FFF75CFA641EFAD113E0E2
:1010700001F0E4FE022808D17D20C1004C43204647
:1010800002F03CF900F0E2FFB0BD7D2005022846E9
:10109000FFF747FA641EFAD1B0BD00000C480168A2
:1010A0000020002900D070470A4909680029FAD1B8
:1010B000094909680029F6D1084800680849096803
:1010C000491E884201D00120704702207047C04667
:1010D000C41620201C172020C0162020E81620202F
:1010E0006C11202080B50248FFF704FF80BDC04688
:1010F000CC002020B0B59F21C943144A01E028311B
:101100000DD04318A8241C5D012CF8D1AC241B5928
:10111000002BF4D09C580125AC439C50EFE7B0BDA8
:10112000B0B59F21C943094A01E028310DD04318C9
:10113000A8241C5D012CF8D1AC241B59002BF4D041
:101140009C58012525439D50EFE7B0BD04180000D1
:1011500070B5032929D828234B43C518297A0835A7
:10116000002913D0446861428A42104600DC0846D8
:10117000A24200DC04466868002816D00C2608212C
:10118000002C09DC002C11D4002405E0686800283C
:101190000BD000240C2608216A5C0021FFF71CFB01
:1011A000AA5D68682146FFF717FB70BD64420826F8
:1011B0000C21F1E782B0FFF741FEFFF793FFFFF745
:1011C00007FCFFF74DFB00F021F800240A4D2046F4
:1011D000294600F021F801263046294600F01CF887
:1011E000009601947202054805A1234601F0D2FD44
:1011F00001F01AF8FEE7C04624FAFFFF29100000AC
:10120000546573745461736B0000000080B5064828
:1012100001680648884780BD80B50A4601460248F5
:1012200083680248984780BDC00020201800202015
:1012300070B503460079821FD2B2FB2A00D270BD7E
:101240005A7A103A052AFAD80A33C0467A441279F3
:10125000520097440240303828451729EFD12949D8
:101260000C68002CEBD019785A78120251189A7831
:101270001204DD782D06AA1851181A795D792D020D
:10128000AA189D792D04DE7936067519AA181D7ADB
:101290005E7A360275199E7A3604DB7A1B069B1934
:1012A0005B19A04770BD0B29C9D1164909690029EE
:1012B000C5D0884770BD0B29C1D112498968002962
:1012C000BDD0884770BD0B29B9D10E49C968002926
:1012D000B5D0884770BD0F29B1D10A494A6803E0EB
:1012E0000F29ACD107494A69002AA8D019785C783F
:1012F000240261189C782404DB781B061B195918FA
:10130000904770BD480520200022002904D00378B2
:101310009A18401C491EFAD1D0B27047F0B581B07E
:101320003E4C21787944097949008F4402392931AA
:101330000A4B532863D13A490A683B4B9854012021
:1013400035E037490B68384AD054581C08600A28E1
:1013500030D3507993791B021818D3791B04127A71
:101360001206D21812182F480260183A0D23DB43D8
:101370009A424ED800220A602270026001B0F0BD8D
:10138000482819D126490A68274B985403200EE0B3
:10139000592811D122490A68234B9854042006E0A9
:1013A0005A2809D11E490A681F4B98540220207000
:1013B000501C086001B0F0BD194800210160217087
:1013C00001B0F0BD164D296816291DD8164A505493
:1013D0004A1C2A60134E33689A42EBD1124A0746E0
:1013E0001046FFF791FF874203D129680E48FFF7A7
:1013F0001FFF002028602070306001B0F0BD084859
:101400000021016001B0F0BD002028602070054976
:10141000CFE70520207001B0F0BDC0466005202058
:10142000440520205C0120202C052020F0B581B04F
:10143000044600F091FC7A480168491C01607A4F2B
:10144000396800290AD036480068002847D1E06A88
:101450003968C96A814242D83C6040E03C6000681B
:1014600001283CD1714D284600F040FC284614303C
:1014700000F03CFC2846283000F038FC28463C3080
:1014800000F034FC2846503000F030FC2846643030
:1014900000F02CFC2846783000F028FC28468C30E0
:1014A00000F024FC2846A03000F020FCB43528468B
:1014B00000F01CFC1B4D284600F018FC1A4E30466C
:1014C00000F014FC194800F011FC544800F00EFC28
:1014D000174800F00BFC17480560174806601748CE
:1014E0000168491C21640160E06A4E490A68904223
:1014F00000D90860142141434C484018211D00F0D8
:1015000020FC00F033FC06480068002806D0E06AA2
:101510003968C96A814201D200F06AFD01B0F0BDAC
:10152000D81620207416202088162020C4162020CB
:10153000E816202050042020580420207811202074
:1015400082B001200190344E344F354D05E0206BC0
:1015500000F01AFC204600F017FC3068002817D075
:1015600000F0FAFBF868C468201D00F093FB2868BF
:10157000401E28603068401E306000F0F7FB61209C
:10158000205C0228E9D00128E4D00028DFD03EE02A
:101590002448006824490968C96A0029DDD1411E30
:1015A0008841224909680129019900D8014600298A
:1015B000D3D11F4800681F490968401A0228CCD3BC
:1015C0001D490868401C08601948006819490968E5
:1015D00088421ED31348006813490968C96A002964
:1015E00012D1411E8841114909680129019900D889
:1015F0000146002908D10E4800680E490968401AC2
:10160000022801D300F046FC01F058FDA5E772B6B0
:10161000FEE772B6FEE7C04670112020FC162020BF
:101620006C1120207C112020480420206004202000
:10163000B01620201017202074112020F0B583B0A0
:1016400002930F4601900A9C206B9600A52231461A
:10165000FEF727FE206B8019031F07202146343137
:10166000089D002F30D03A780A70002A29D07A7865
:101670004A70002A25D0BA788A70002A21D0FA78D8
:10168000CA70002A1DD03A790A71002A19D07A79D5
:101690004A71002A15D0BA798A71002A11D0FA79D4
:1016A000CA71002A0DD03A7A0A72002A09D07A7AD1
:1016B0004A72002A05D0BA7A8A72002A01D0FA7AD0
:1016C000CA720022CA7201E000220A7083430093AA
:1016D000099F0026E664092D00D30925A564E5626B
:1016E000201D00F00DFB2046183000F009FB0A20F9
:1016F000401BA06126656665A665E66520465030FC
:1017000006746462246100AA07CA00F0ADFA206082
:10171000002F00D03C6003B0F0BD0000F0B583B0F6
:10172000002936D01D460F4606460292099C0898AD
:10173000019000F011FBCD480068002815D1164833
:1017400000F0D4FA154800F0D1FAC74813490160F7
:10175000C448114901600020009014200C21104A57
:10176000104B00F0D1FEC149086000F0FFFAA761FC
:10177000E561019820622660201D00F0C1FA029800
:10178000002804D02820215C04220A43225403B0FC
:10179000F0BD72B6FEE7C046481620205C16202039
:1017A00004032020F4032020F0B585B0044601F0A6
:1017B00053FB234A1168884233D200940190A94F09
:1017C00005E068602D613868314600F09CFA3868A1
:1017D0000168002927D0C0680468C5682E1D3046FE
:1017E00000F058FA296A284688472820285C4007D4
:1017F000EDD5A8690019A042E3D89C4E30680028B6
:101800000DD0049503940025029501F017FB306874
:1018100002A92A462B4600F0C2FE0028D7D172B694
:10182000FEE7002107E090490A683A60086001215C
:101830000198009C024A1060216005B0F0BDC046CE
:101840004404202081B0002000900A48006872B64D
:10185000401C09D0FEE70098002808D10098002815
:1018600005D10098002802D100980028F3D001B0DB
:101870007047C046F40020208AB07A4E7B4F306813
:101880000468002C02D0C068056800E0002500F064
:1018900033FD04A8FFF788FF0499002902D001F066
:1018A0000DFC52E0002C15D0854213D8029001F0B7
:1018B00005FC3068C068C468201D019000F0EAF99A
:1018C0002820205C410709D421462831FA22104003
:1018D000087037E0002C12D0002215E0A0694119F1
:1018E00061602461029A9142314603D8511B8142C2
:1018F0005D4914D20868019900F005FA22E05A49BE
:10190000096809684A424A41291A386800F07CFB94
:1019100001F0D4FB002818D100F06AFB15E038680C
:10192000002800D19BE0099408950025079501F057
:1019300085FA386807A92A462B4600F030FE0028B1
:1019400000D18CE0216A20468847386804A900222B
:10195000029202E0386804A9002200F0F2FF002899
:101960008DD004980028F5D4069D6869002802D01F
:10197000281D00F08FF903A8FFF716FF0499092925
:10198000E8D8C0467944097949008F440A0A0A0414
:1019900042570A0A04422820295CFE220A402A549F
:1019A000D8E728216A5C012313436B54AB6905997E
:1019B0005A186A602D61824224D98842304625D265
:1019C0008A42304622D334462E462836296A284693
:1019D0008847307826464007BCD5386800283AD07A
:1019E000A8690599099540180890029C079401F090
:1019F00025FA386807A92246234600F0D0FD0028C2
:101A0000A8D128E0401A98421748DCD2291D006866
:101A100011E028216A5C012313436B540599A961E5
:101A200000291AD0091869602D618142304600D81A
:101A30000D480068291D00F066F98BE72820285C16
:101A4000810703D4284600F09FF983E72835FE215B
:101A5000084028707EE772B6FEE772B6FEE772B6FF
:101A6000FEE7C0464C0420205C04202014172020F0
:101A7000F0B581B004460646443600F06DF9012009
:101A80003756012F12DB2546243504E0781E79B243
:101A9000012907460ADD2868002807D0284601F0FA
:101AA000CDFA0028F2D000F00FFBEFE7FF257570AC
:101AB00000F05CF900F050F900203756012F11DBDF
:101AC000103404E0781E79B2012907460ADD206847
:101AD000002807D0204601F0B1FA0028F2D000F02B
:101AE000F3FAEFE7357000F041F901B0F0BD000006
:101AF000F0B583B0054600F0FFFBCB480368002B30
:101B000002D0C64909781DE00721CA434D4B590749
:101B1000194601D0D91D1140C24C0326B6029E19A8
:101B20001640083E0660002206C4326072600368F8
:101B3000721A0B604A6044490A60B9490A60B74AA0
:101B4000012111700024002D01D4224600E0012261
:101B50002E460836092E6CD30A406AD10722294640
:101B6000914310310024B14200D821466A0700D0C9
:101B70000E46711EAA4A126891425AD2A94D2A688D
:101B80005768B74207D21168002904D015460A46A3
:101B90004F68B742F7D39A424BD02C68116829603E
:101BA000B91B11292DD393195D0701D072B6FEE739
:101BB000596056609B4E3168994204D20E689E422D
:101BC0000D46F8D301E035460E46696801916F185D
:101BD00002975F680299994203D101997F186F605B
:101BE0002B46D919B14201D0304606E00068864242
:101BF00003D07068C0195860306818609D4200D0EA
:101C00002B605068864B1968091A19600E4B1D68C5
:101C1000A94200D219600834804909780023136072
:101C20000A4B1D686D1C1D604B1E9941C907084376
:101C3000506001F043FA600701D072B6FEE720461B
:101C400003B0F0BD61052020A8162020B816202082
:101C500004480168002903D00168CA6C521CCA6498
:101C600000687047480420200346083B1960011FA4
:101C700001231B060B6001460C39034B0B60014628
:101C800020390A604038704745180000EFF3108093
:101C900072B67047416882688A60516001694B681A
:101CA000834200D14A600A68521E0A600022026123
:101CB00008687047034B036080201060024808608A
:101CC0007047C0468013202080112020034B036002
:101CD00080201060024808607047C046E41520204C
:101CE000E4132020FEE780F3108870470021016094
:101CF00002460832C94342608160C2600261704797
:101D0000002101617047B0B50B685A1C0BD0044626
:101D10000834626815689D4208D8546825689D4259
:101D20002546F6D904E00269556801E015462246C9
:101D3000A96008614D608A6051600168491C0160BA
:101D4000B0BD42684A6093688B600861596003685F
:101D50005B1C03609160704772B60A480168491CB9
:101D60000160BFF34F8FBFF36F8F70470548016865
:101D7000002903D0491E016002D0704772B6FEE709
:101D800062B67047F4002020B0B5002844D0234943
:101D900009784A1E9141C907041F2268114205D0E3
:101DA00008380368002B03D072B6FEE772B6FEE770
:101DB0008A432260054600F09FFA28462168184AA7
:101DC00013685B181360174B1C68844204D22368A5
:101DD00083422246F8D301E01A4623465468151977
:101DE000854202D109195160104644189C4201D025
:101DF0001C4607E00C4C2468A34203D05C686118C1
:101E000041601C680460824200D01060074801688D
:101E1000491C016001F052F9B0BDC0467016202087
:101E20009C162020E016202054042020BC162020E0
:101E30006B48012101706C4801706C480170694861
:101E40000021016081600249416007210160704703
:101E5000FF7C000000000000000000000000000007
:101E60000B4A13681868203080F30988022080F339
:101E70001488BFF36F8F3FBCAE4608BC04BC62B68B
:101E80001847C046C046C046C046C046C046C046C9
:101E900048042020F0B585B0064651480178514FDE
:101EA00038680122049290433860B8687D22140299
:101EB0004D4A1378002B224646D0002947D18E4246
:101EC00000D30E46711E01914A4310184749097804
:101ED0000029039400D02D21451A00D8054672B67A
:101EE000BFF34F8FBFF36F8F0024E0430290FFF7E3
:101EF000D5F8002830D07D60BC603868049908436C
:101F00003860002E04D0BFF34F8F30BFBFF36F8F08
:101F100062B6BFF34F8FBFF36F8F72B6BFF34F8FB1
:101F2000BFF36F8F062038603868C00320D4039D4C
:101F30006E43B868361A3046294601F0DFF9294663
:101F40004143891B491937E01A460029B7D083213C
:101F500089008E42B5D2B5E7B868786038680499D0
:101F60000843386020480078002808D1029808E02B
:101F70001D480078002808D10299039E07E00398C5
:101F8000401E786062B605B0F0BD039E711EBA684F
:101F9000521B521800283346354600D103469A4258
:101FA000084600D810462D2A00D301460F4A127861
:101FB000002A00D1014601987960BC603A68049912
:101FC0000A433A6000F086F907480078002801D1FA
:101FD000029800E0681E786062B605B0F0BDC046A9
:101FE000A416202010E000E06811202064112020B9
:101FF0000120000703490860BFF34F8FBFF36F8FC5
:102000007047C04604ED00E070B515460E46044624
:10201000FFF7A2FE4420215C20464430FF2901D175
:10202000002101704178FF2901D100214170FFF7A3
:102030009DFEA06B002805D12046243031462A465B
:1020400000F076F82046FFF713FD70BD70B500284C
:102050002CD0DF490A68002A01D072B6FEE70A6870
:10206000521C0A60A2490C68DB4D2968091D06460E
:102070000846FFF70FFEA4192868446006D34B48B2
:1020800000682968091DFFF73EFE0AE0464800681F
:102090002968091DFFF737FE964801688C4200D277
:1020A000046001F00BF8002800D070BDFFF7A0FF1E
:1020B00070BDC0460349096801608D4909684160E7
:1020C0007047C046B4162020C24801210160704705
:1020D00070B5002818D00C46BF4D29681831FFF79D
:1020E00012FE834806682868001DFFF7D3FD601CB8
:1020F0000CD03419286844600ED32C480068296835
:10210000091DFFF700FE70BD72B6FEE72868011DCD
:102110002748FFF716FE70BD234800682968091D8F
:10212000FFF7F1FD734801688C4200D2046070BD76
:10213000F0B581B000281BD015460C46A64E31687C
:102140001831FFF7FEFD6A4807683068001DFFF789
:10215000A1FD002D01D00020C443002D0AD0601C39
:1021600008D13068011D1248FFF7EBFD01B0F0BD4A
:1021700072B6FEE73C193068446007D30B4800682C
:102180003168091DFFF7BFFD01B0F0BD06480068CA
:102190003168091DFFF7B7FD564801688C4200D22F
:1021A000046001B0F0BDC046500420205804202037
:1021B000E8162020F0B581B000281DD0C36C002B9C
:1021C0001CD0826C8A4200D80A46012B14D1C16A05
:1021D000914211D0804B1B68984211D0C262836932
:1021E000002B02D40A239A1A8261142569437D4E7A
:1021F000711842698A4205D001B0F0BD72B6FEE79F
:1022000072B6FEE7041D07462046FFF743FDF86A55
:1022100073490A68904200D9086045437019214605
:10222000FFF78FFD01B0F0BDB0B588B00024069473
:10223000059406A805A904AAFFF73CFD0598002807
:1022400033D0069D002D32D0049A6421079107995E
:1022500064292ED10799612102236B5428630295CA
:1022600007A801900094154815A12346FFF7E6F949
:102270002846FFF7DBF8144807990160002910D0C1
:1022800000F0B8FF411C16D001280AD172B6E04315
:10229000184908600D48012101601548046000F0EC
:1022A000A3F80B48006808B0B0BD72B6FEE772B67E
:1022B000FEE772B6FEE772B6FEE7C04641150000C3
:1022C00049444C4500000000A0162020D8162020CC
:1022D0003036000006490A681218064B1B689A42FD
:1022E00001D972B6FEE70A68101808607047C04648
:1022F00010172020B016202035480168491C0160C5
:102300007047C046F0B581B031480068002802D05F
:10231000304801212CE02F48002101602E4C20681C
:10232000006B02682D498A4208D142688A4205D171
:1023300082688A4202D1C068884204D0206821683D
:102340003431FFF7CFFC2648016814231A464A436C
:10235000244DAE58002E0ED0AA1853685B68536007
:1023600015460835AB4201D15B685360DA682260DC
:10237000016001B0F0BDAA1800291DD01E464E43D1
:1023800076191746143F3F68002F17D1012913D043
:102390001746283F3F68002F13D102290CD017465B
:1023A0003C3F3F68002F0FD1032905D0091F503A49
:1023B0001668002EE0D0D0E772B6FEE7143E491E44
:1023C00004E0283E891E01E03C3EC91E3246C4E7B7
:1023D000741120201C17202048042020A5A5A5A5A5
:1023E0007C11202060042020B0B582B0FF200104C1
:1023F000124A13680B431360000611680143116011
:10240000FFF716FD0E4C00252560FFF729FDFFF7AD
:1024100079FF0195206872B6401C09D0FEE701984B
:10242000002808D10198002805D10198002802D180
:1024300001980028F3D0002002B0B0BD20ED00E0EC
:10244000F4002020B0B5024601200024214600F00F
:102450000DF8002809D004608460C4600546214658
:102460002246234600F09BF82846B0BDF0B581B067
:1024700000280FD00646009200250F460846294640
:1024800032462B46FDF7B4FE4A1E9141012903D185
:1024900072B6FEE772B6FEE74F21C943884201D308
:1024A00072B6FEE75030FFF723FB0446002828D021
:1024B00020464430E663064627648570002F204698
:1024C00001D0204650302060FFF746FCA563FF2076
:1024D000307021687070E06B226C431E5043081806
:1024E0005343CA186160A060E26020461030FFF7D5
:1024F000FDFB20462430FFF7F9FBFFF737FC00987F
:102500003072204601B0F0BD70B582B0002807D00F
:10251000002B07D0002907D1002A05D072B6FEE7AC
:1025200072B6FEE772B6FEE7002903D0002A01D199
:1025300072B6FEE750240194019C502C2DD11D460B
:102540004435069E019CD86319640029184600D0C2
:10255000104618600120A8701C46FFF7FDFB002004
:10256000A063FF20287021686870E06B226C431E16
:10257000504308185343CA186160A060E2602046C7
:102580001030FFF7B3FB20462430FFF7AFFBFFF717
:10259000EDFB2E72204602B070BD72B6FEE7F0B5BC
:1025A00089B00892002812D01D460446002910D098
:1025B000022D02D1E06B01283FD11646059100F0B3
:1025C0003DFC00280AD1002E08D072B6FEE772B694
:1025D000FEE7206C0028EBD072B6FEE7FFF7BCFBED
:1025E000E06BA16B022D51D081424FD30898002897
:1025F00000D1D9E02646443606A8FFF75BFDFFF779
:10260000B5FBFFF779FEFFF7A7FB3078FF2801D174
:10261000002030707078FF2801D100207070FFF723
:10262000A5FB06A808A900F085FB002807D02046D6
:10263000FFF71EFA00F042FDB8E072B6FEE727464B
:102640001037FFF789FBE06B0290A06B0190FFF75A
:102650008DFB0298019981420DD108993846FFF708
:1026600037FD2046FFF704FA00F028FD002807D1C7
:10267000FFF7BEFC04E02046FFF7FAF900F01EFD6C
:10268000FFF76AFBE06BA16B81424CD2226CA66B18
:10269000002A059919D00127002D1BD0E068FDF70D
:1026A000BFFD206CE168091AE1602268914203D203
:1026B0004042A1680818E060701E31468141A81EA2
:1026C000424242410A40B61A18E0206800280ED063
:1026D000012713E06068FDF7A3FD206C616808180E
:1026E0006060A168884209D32068606006E0A06845
:1026F00000F038FC0021A16047424741701CA063F4
:10270000606A00280CD02434204600F097FC002892
:1027100001D0FFF76DFCFFF729FB012009B0F0BDE8
:10272000002FF6D0F7E7049603970BE02046FFF75B
:102730009FF900F0C3FCFFF70FFBE06BA16B814238
:10274000049EA3D3089800282ED0FFF70FFBFFF7B5
:10275000D3FDFFF701FB3078FF2801D10020307056
:102760007078FF2801D100207070FFF7FFFA06A8EB
:1027700008A900F0DFFA002800D058E7FFF7ECFACC
:10278000E76BA66BFFF7F2FABE42CFD10899039828
:10279000FFF79EFC2046FFF76BF900F08FFC002846
:1027A000C9D1FFF725FCC6E7FFF7E0FA002009B022
:1027B000F0BDF0B583B0002814D01D4604460029B2
:1027C00012D0022D02D1E06B012835D10F460292C2
:1027D000FFF75CFAE16BA26B022D0AD08A4208D3A4
:1027E000002565E072B6FEE7206C0028E9D072B6DD
:1027F000FEE74521635CA16B226CA66B002A1DD00D
:1028000039461F460190002D26D0E068FDF708FDEF
:10281000206CE168091AE1602268914203D24042CB
:10282000A1680818E060701E31468141A81E42422E
:1028300042410A40B61A1BE072B6FEE72168002941
:1028400018D1A168054608461F4600F08BFB3B46A1
:1028500028460021A1600DE06068FDF7E1FC206CD6
:10286000616808186060A168884201D320686060D0
:1028700001983B46711CA1637F2B13D0FF2B13D112
:10288000616A0125002913D006462434204600F051
:10289000D5FB0299002910D00028304608D0012528
:1028A0000D6005E072B6FEE74534591C2170012524
:1028B000FFF719FA284603B0F0BD3046F8E770B5C7
:1028C000002804D0026C002A03D072B6FEE772B66C
:1028D000FEE70268002A23D00D460446FFF7D6F92A
:1028E000A36BE26B934219D221464522A25C5B1C8A
:1028F000A3637F2A19D0FF2A19D14A6A0124002A2A
:1029000019D006462431084600F098FB002D16D059
:10291000002830460FD001242C600CE000240AE08F
:102920008268002AD8D072B6FEE772B6FEE745315B
:10293000521C0A700124FFF7D6F9204670BD3046BC
:10294000F9E7F0B585B0049200280CD0154604468E
:1029500000292ED00F4600F071FA002805D1002D75
:1029600003D072B6FEE772B6FEE7FFF7F5F9A56B86
:10297000002D23D0226C002A0AD03846E16889183D
:10298000E160A368994201D32168E160FDF748FC4A
:10299000681EA06320690125002800D189E0103459
:1029A000204600F04BFB002800D182E0FFF720FB1F
:1029B0007FE0206C0028CDD072B6FEE70025049899
:1029C000002876D000952646443602A8FFF772FB11
:1029D000FFF7CCF9FFF790FCFFF7BEF93078FF283E
:1029E00001D1002030707078FF2801D10020707074
:1029F000204624300190FFF7B9F902A804A900F09D
:102A000099F900280DD02046FFF732F800F056FB68
:102A1000FFF7A2F9A56BFFF7A9F9002D1BD100253F
:102A200049E0FFF799F9A56BFFF7A0F9002D05D054
:102A30002046FFF71DF800F041FB0CE004990198D7
:102A4000FFF746FB2046FFF713F800F037FB00289E
:102A500001D1FFF7CDFAFFF77FF9A56B002D89D1E2
:102A60000498002824D0FFF781F9FFF745FCFFF711
:102A700073F93078FF2801D1002030707078FF287A
:102A800001D100207070FFF771F902A804A900F0CD
:102A900051F90028C5D02046FEF7EAFF00F00EFBF2
:102AA000FFF75AF9A56BFFF761F9002DD3D1B6E70F
:102AB000009DFFF75BF9284605B0F0BDF0B583B087
:102AC000002833D00446002932D00D460292FFF789
:102AD000DDF8A66B002E30D04421675C226C002A02
:102AE0000CD00190E0688118E160A068814201D3B8
:102AF0002168E1602846FDF793FB0198711EA163F0
:102B00007F2F1CD0FF2F1CD12169012500291CD04B
:102B100006461034204600F091FA0299002919D097
:102B20000028304611D001250D600EE072B6FEE798
:102B3000206C0028C9D072B6FEE7002505E072B609
:102B4000FEE74434791C21700125FFF7CCF82846B4
:102B500003B0F0BD3046F8E7F0B585B00491002829
:102B600005D00446006C002803D072B6FEE772B6AA
:102B7000FEE70D4600F062F9002803D1002D01D0D8
:102B800072B6FEE7FFF7E8F8A06B002818D0401EE9
:102B9000A0632068002802D1FFF75AF8A0602069DE
:102BA0000126002800D1BFE01034204600F046FA8C
:102BB000002800D1B8E0FFF71BFAFFF7D7F846E08E
:102BC00000260498002800D1AEE02746443702A82A
:102BD000FFF770FAFFF7CAF8FFF78EFBFFF7BCF8B4
:102BE0003878FF2801D1002038707878FF2801D18B
:102BF00000207870204624300190FFF7B7F802A833
:102C000004A900F097F8002800960DD02046FEF7A2
:102C10002FFF00F053FAFFF79FF8A56BFFF7A6F818
:102C20000026002D38D112E0FFF796F8A56BFFF7CC
:102C30009DF8002D06D02046FEF71AFF00F03EFA60
:102C4000002629E02068002804D000260AE030464B
:102C500005B0F0BDFFF780F8A06800F0B3F90646B4
:102C6000FFF784F804990198FFF732FA2046FEF73F
:102C7000FFFE00F023FA00280ED1FFF7B9F90BE0B0
:102C80002046FEF7F5FE00F019FAFFF765F8A56B90
:102C9000FFF76CF8002D36D0FFF75EF8A06B002828
:102CA00000D074E70498002828D0FFF75FF8FFF7FA
:102CB00023FBFFF751F83878FF2801D10020387046
:102CC0007878FF2801D100207870FFF74FF802A82C
:102CD00004A900F02FF80028D2D1FFF73DF8A56B2A
:102CE000FFF744F8002D05D02046FEF7C1FE00F0A6
:102CF000E5F9D1E720680028B4D1ABE7002E009EAB
:102D000012D072B6FEE7002E11D0FFF725F8019819
:102D1000006800260028314603D0206B00680A2195
:102D2000091AA068FFF746FAFFF720F88FE7002698
:102D30008DE70000F0B581B000281FD00C460029B7
:102D40001ED00546FFF708F86A68834807682168BF
:102D500000264B1C19D0824803682868834201D0A2
:102D600097420FD2BA1A91420CD9881A20607C4837
:102D70000068286078480068686006E072B6FEE780
:102D800072B6FEE7002020600126FEF7EFFF304616
:102D900001B0F0BDF0B587B01F4604AB07C390008B
:102DA000FEF7A6FE0025EC4300281CD0064603973C
:102DB0006420FEF79DFE002812D007460D980C995E
:102DC0006122BD543E6300910190029704AA07CA94
:102DD000039BFEF733FC3846FEF728FB012402E094
:102DE0003046FEF7D1FF204607B0F0BDF0B587B002
:102DF0000D9D002D1BD00E9C002C1AD0642605962C
:102E0000059E642E17D10C9E0496059F612702260D
:102E1000E6552563029406AD0195049D0095FEF7E5
:102E20000DFC2046FEF702FB069807B0F0BD72B617
:102E3000FEE772B6FEE772B6FEE7000005480068DE
:102E4000002805D0D34800684142414148007047FE
:102E500001207047D81620203F4800687047C046C0
:102E6000F0B583B0CB480068002806D0D24801688E
:102E7000491C0160002003B0F0BD374801684C1CBC
:102E800004601BD3CA4801680968002901D072B6E2
:102E9000FEE70168314A13680360116030490A682F
:102EA000521C0A6001680968002903D00068C068E4
:102EB000006801E00020C043BE490860BD490868C1
:102EC000844201D200203FE00023DA43B84E30684C
:102ED000006800282FD001920020029003E03068A3
:102EE000006800282CD03068C068C76878688442C1
:102EF00023D33D1D2846FEF7CDFEB86A002803D037
:102F000038461830FEF7C6FEF86AA54909688842B7
:102F100001D9A349086014214143A2484018294619
:102F2000FEF70FFFF86AA0490968C96A8842D6D33C
:102F300001200290D3E7029304E002469D4901E09C
:102F40009C49019A0A60029898490968002992D020
:102F5000012003B0F0BDC0461017202058042020E7
:102F6000B4162020B0B501460020002926D08E4A94
:102F70001268914201D072B6FEE7CA6C002A1ED0D8
:102F8000521ECA641AD18A6CCB6A934216D00C1DA9
:102F90000D462046FEF77EFEA86CE8620A21091A5B
:102FA000A9617F490A68904200D908601421414311
:102FB0007C4840182146FEF7C4FE0120B0BD72B621
:102FC000FEE7C046F0B581B000281DD0C16A764D3D
:102FD0002A68D26A914212D28269002A04D42A68ED
:102FE000D26A0A239A1A8261142671436D4A5118D3
:102FF00042698A420BD02968C96AC1621AE0806CB2
:103000002968C96A884215D3002001B0F0BD041DAB
:1030100007462046FEF73EFE2868C06AF86260490F
:103020000A68904200D9086046435E4880192146EC
:10303000FEF787FE012001B0F0BDC046B0B5C06804
:10304000C568002D0DD02C4618342046FEF722FE10
:1030500050480068002806D050482146FEF771FE0F
:103060001FE072B6FEE72C1D2046FEF713FEE86A4D
:103070004B490A68904200D90860142141434948ED
:1030800040182146FEF75DFE49480168096800299D
:1030900003D00068C068006801E00020C0434549D3
:1030A0000860E86A40490968C96A884203D93F490B
:1030B00001200860B0BD0020B0BDC046F0B581B0B1
:1030C000344C206800280DD0FEF746FE2068401ED4
:1030D000206020680027002806D0FEF747FE38460B
:1030E00001B0F0BD72B6FEE72B4800680028F4D0AE
:1030F0002A4E3068002833D00097294F02E030680C
:1031000000281FD0F068C46820461830FEF7C2FDC2
:10311000251D2846FEF7BEFDE06A3968884200D9C1
:103120003860142141431F4840182946FEF709FE24
:10313000E06A1D490968C96A8842E0D301201B4939
:103140000860DCE71A4801680968002903D00068B4
:10315000C068006801E00020C043009F1549086076
:10316000154C2568002D0CD0104E01E06D1E06D0C8
:10317000FFF776FE0028F9D001203060F6E7002046
:1031800020600A4800680028A7D0FEF731FF012719
:10319000A3E7C046741120206C112020C416202003
:1031A0007C11202060042020480420201C172020AF
:1031B00050042020B0162020C0162020F0B583B087
:1031C0001C4615460E4607462C20FEF791FC0028AB
:1031D0000DD00899282200238354009101902346A2
:1031E0000446384631462A46FEF798FA204603B090
:1031F000F0BD000070B586B0FEF7AEFD1D4E306824
:10320000002814D11C4C2046FEF770FD1B4D2846AB
:10321000FEF76CFD1A4805601A4804600020009013
:1032200014200C21184A194BFFF76EF93060FEF795
:103230009DFD306800281AD000240594049405A848
:1032400004A903AAFEF742FD039A049805990523F1
:103250000093019002910E480EA12346FFF7C6FD90
:103260000E490860002802D0012006B070BD72B679
:10327000FEE7C04614172020481620205C162020A8
:103280005C0420204C04202004032020F403202090
:1032900079180000546D72205376630018172020AF
:1032A000B0B584B0002812D00446134D2868002819
:1032B0000FD001AF16C705290EDCFFF7BFFD014691
:1032C0002868022910D1089A01A900230FE072B6DC
:1032D000FEE7002004B0B0BD01A900241A46234631
:1032E000FFF767FA04B0B0BD01A900221346FFF74B
:1032F00056F904B0B0BDC0461417202043088B42D5
:103300001AD3002203098B4279D3030A8B425ED37E
:10331000030B8B4242D3030C8B4227D30902FF22BB
:1033200012BA030C8B4202D31212090203D0030B10
:103330008B4233D31AE0D3E0411A8041401C7047DE
:1033400003460B4371D443088B42F5D30022030993
:103350008B4254D3030A8B4239D3030B8B421DD3C8
:10336000030C8B4202D394466EE0090AC30B8B42D6
:1033700001D3CB03C01A5241830B8B4201D38B0381
:10338000C01A5241430B8B4201D34B03C01A524126
:10339000030B8B4201D30B03C01A5241C30A8B4269
:1033A00001D3CB02C01A5241830A8B4201D38B0254
:1033B000C01A5241430A8B4201D34B02C01A5241F8
:1033C000030A8B4201D30B02C01A5241CDD2C3096A
:1033D0008B4201D3CB01C01A524183098B4201D3E6
:1033E0008B01C01A524143098B4201D34B01C01AD1
:1033F000524103098B4201D30B01C01A5241C30849
:103400008B4201D3CB00C01A524183088B4201D3B7
:103410008B00C01A524143088B4201D34B00C01AA3
:103420005241411A524110007047CA0F00D0494220
:10343000031000D34042534000229C4603098B42B4
:103440002DD3030A8B4212D38901FC2212BA030A3C
:103450008B420CD3890192118B4208D389019211BE
:103460008B4204D3890137D0921100E08909C30946
:103470008B4201D3CB01C01A524183098B4201D345
:103480008B01C01A524143098B4201D34B01C01A30
:10349000524103098B4201D30B01C01A5241C308A8
:1034A0008B4201D3CB00C01A524183088B4201D317
:1034B0008B00C01A5241D9D243088B4201D34B0032
:1034C000C01A5241411A00D2014652411046634689
:1034D0005B1000D34042704763465B1000D340420C
:1034E00001B50021004201D0C9430846C046C0468C
:1034F00002BD000070B5420064414B005C41120EF9
:1035000039D01B0E38D0FF2A3CD0FF2B3AD0D2182E
:103510007F3A40024902400A490A4518ED01060077
:103520004E43000A090A48430104731A4019190C52
:103530004318990F04D05B08012149075B1A521CFC
:10354000D80904D3401CF50301D19D0607D0FF2AFA
:1035500008D2D50506D0E4072043401970BD0125E7
:10356000A843F4E7002A01DCE00770BD2402FF2035
:103570002043C00570BD1B0EFF2A03D0FF2B01D0D6
:10358000E00770BDFF2636064500B54206D84D005F
:10359000B54203D8D218FF2A00D0E7E7004870BD33
:1035A0000000C07F8182838485868788898B8C8D8B
:1035B0008E8F919293959697999A9C9D9FA0A2A386
:1035C000A5A7A8AAACAEB0B2B3B5B7B9BCBEC0C2CD
:1035D000C5C7C9CCCED1D4D7D9DCDFE2E6E9ECF05F
:1035E000F3F7FAFE0800080700000000B80B00001F
:1035F0002001010008070000B80B000020000100B6
:103600000800040000030000071000000807620023
:1036100000000000000000000000000000000000AA
:10362000000000000800000018000000003000004A
:1036300009000000000000005836000000002020B3
:10364000F80000002001000050370000F8002020A2
:1036500028170000480100001400000014000000BA
:10366000000000000000000000000000000000005A
:1036700000000000B80B00000100000000008640C0
:103680000000000001000000000000000000000039
:10369000000000000000000000000000000000002A
:1036A00001000000000009400100000000000000CF
:1036B000000000000000000000000000000000000A
:1036C00000000000000000000000000000000000FA
:1036D00000000000000000000000000000000000EA
:1036E00000000000000000000000000000000000DA
:1036F00000000000000000000000000000000000CA
:1037000000000000000000000000000000000000B9
:10371000000000000000000021110000F510000072
:103720005111000000000A400200000001000000EA
:1037300000000A400100000000000000000000003E
:10374000E803000000800E4400006040AAAAAAAA74
:04000005000000C136
:00000001FF
