:020000040000FA
:10000000A8362020C1020000C5020000C70200007F
:1000100000000000000000000000000000000000E0
:10002000000000000000000000000000F5200000BB
:100030000000000000000000B120000001250000C9
:10004000CF020000DD1F0000CF020000CF02000041
:10005000CF020000CF020000CF020000CF0200005C
:1000600000000000CF020000CF02000000000000EE
:1000700000000000CF020000CF0200002525000094
:10008000CF020000CF020000CF020000CF0200002C
:10009000CF020000CF0200000000000000000000BE
:1000A000CF020000CF0200000000000000000000AE
:1000B000CF02000000000000CF020000CF020000CD
:1000C00000F002F800F0D1F812A030C80838241867
:1000D0002D18AC4201D100F0C8F80FCCA246AB46B7
:1000E0000CA730CF2D1B083F3F197C427F1E544484
:1000F0002D090426F441641EAC4201D300F0B5F88A
:100100000126334200D0FB1A3343984754465D46DC
:10011000DFE70000EC4500000C4600000000000096
:10012000103A02D378C878C1FAD8520701D330C840
:1001300030C101D504680C60704700000000000069
:100140007047000000000000002300240025002666
:10015000103A01D378C1FBD8520700D330C100D583
:100160000B60704710B56E2902D100F0C7FB10BDBF
:10017000702902D100F025FF10BD662902D104F0DC
:10018000F5F910BD652902D104F0F0F910BD672919
:1001900002D104F0EBF910BD612902D104F0EEF9AF
:1001A00010BD03681B0A01D380231943692902D1BA
:1001B00000F06EFB10BD642902D100F069FB10BD98
:1001C000752902D100F064FB10BD6F2902D100F047
:1001D000A3FE10BD782902D100F0E0FE10BDE92990
:1001E00002D100F03FFE10BDE42902D100F03AFE3A
:1001F00010BDF52902D100F035FE10BDEF2902D166
:1002000000F096FE10BDF82902D100F0D5FE10BD19
:100210000368DB0901D380231943632902D100F06D
:10022000B6FD10BD732902D100F0B9FD10BDE32960
:1002300002D101F028F910BDF32902D101F02BF908
:1002400010BD002010BD1FB500F0C8FE0400002046
:10025000002104F075F9401C60600020002104F0CA
:1002600059F9E0601FBD10B510BD01F07FFC1146CB
:10027000FFF7E9FF02F0E6FA01F0A0FC03B4FFF794
:10028000F2FF03BC01F0FAFC70B505460C461646B9
:1002900002E00FCC0FC5103E102EFAD2082E02D36A
:1002A00003CC03C5083E042E07D301CC01C5361F7D
:1002B00003E021782970641C6D1C761EF9D270BD94
:1002C00006480047FEE7FEE7FEE7FEE7FEE7FEE73B
:1002D00003480449044A054B70470000C100000070
:1002E000A8162020A8362020A8262020A8262020D6
:1002F0007CB51D4616460C00009007D04142A14235
:1003000002D30019401E01E00020C043064B7B448D
:100310002A4669460190304600F013FD002C02D0B9
:10032000009A002111707CBD570A000070B50C4680
:100330000546012A05D02878800600D5EA69002301
:1003400002E0012305E05B1C934202D2E05C00283E
:10035000F9D1A869E618C01AA861286AC0182862ED
:10036000284600F05CFA04E06A682078A968641CFA
:100370009047B442F8D3284600F067FA70BD0000F9
:10038000F3B50446002081B020622046E16888472A
:10039000002872D0252802D06268A168ABE0594FCE
:1003A00000267F442046E16888472028054608DB70
:1003B000312D06D2781920380078002801D0064364
:1003C000F0E7B00701D5042086430020E06107462E
:1003D000A0612A2D0AD0284604F094F8002827D0DE
:1003E000B8000019303D0090856119E00298BA000C
:1003F000121902C8916102902046E1688847012FD6
:10040000054617D1E06900281FDA202086431CE04A
:1004100000980A2180694843009940193038886162
:100420002046E1688847054604F06CF80028EFD1C3
:10043000012F0AD02E2D08D12046E16888470546B5
:10044000202006437F1C022FC3DBA069002803DAAB
:100450004042A06101200643F00701D010208643EE
:100460006C2D0BD0682D09D04C2D3CD06A2D38D086
:10047000742D38D07A2D36D016E040E0E1682F4652
:1004800020468847B842054609D16C2F29D0012063
:100490008002E168064320468847054604E06C2F49
:1004A0001DD0FF2001300643002D28D028464138BA
:1004B000192803D80120C0020643203520462660B3
:1004C0002946029A1646FFF74DFE002810D0012853
:1004D0000BD0F61DF008C0000830029055E7402010
:1004E000E1E78020D5E70020D3E7361D02964CE7F0
:1004F00062682846A1689047206A401C44E7206A49
:10050000FEBD0000E641000030B5441C03E0017868
:10051000401C00290DD08107F9D10B4BDD0104C827
:10052000D11A91432940FAD0001B0A0603D0C01EFD
:1005300030BD001B30BD0A0401D0801E30BD090251
:10054000FCD0401E30BD000001010101F8B5042AB5
:100550002CD3830712D00B78491C0370401C521E09
:1005600083070BD00B78491C0370401C521E830775
:1005700004D00B78491C0370401C521E8B079B0F44
:1005800005D0C91ADF002023DE1B08C90AE0FFF7E7
:100590007BFEF8BD1D4608C9FD401C46B4402C43F7
:1005A00010C0121F042AF5D2F308C91A521EF0D443
:1005B0000B78491C0370401C521EEAD40B78491C6E
:1005C0000370401C012AE4D409780170F8BDD2B24E
:1005D00010B513029A1813049A1800F001F810BD10
:1005E00001E004C0091F0429FBD28B0701D502805A
:1005F000801CC90700D00270704700290BD0C307C8
:1006000002D00270401C491E022904D3830702D580
:100610000280801C891EE3E70022EEE70022DFE76C
:10062000002203098B4273D3030A8B4258D3030B76
:100630008B423CD3030C8B4221D312E003460B4385
:100640007FD4002243088B4274D303098B425FD3CB
:10065000030A8B4244D3030B8B4228D3030C8B42F7
:100660000DD30902FF2212BA030C8B4202D31212DD
:10067000090265D0030B8B4219D300E0090AC30BB2
:100680008B4201D3CB03C01A5241830B8B4201D35F
:100690008B03C01A5241430B8B4201D34B03C01A48
:1006A0005241030B8B4201D30B03C01A5241C30AC0
:1006B0008B4201D3CB02C01A5241830A8B4201D331
:1006C0008B02C01A5241430A8B4201D34B02C01A1B
:1006D0005241030A8B4201D30B02C01A5241CDD2C0
:1006E000C3098B4201D3CB01C01A524183098B420B
:1006F00001D38B01C01A524143098B4201D34B01F4
:10070000C01A524103098B4201D30B01C01A524156
:10071000C3088B4201D3CB00C01A524183088B42DD
:1007200001D38B00C01A524143088B4201D34B00C6
:10073000C01A5241411A00D2014652411046704738
:100740005DE0CA0F00D04942031000D3404253403D
:100750009C46002203098B422DD3030A8B4212D3FD
:100760008901FC2212BA030A8B420CD3890192112F
:100770008B4208D3890192118B4204D389013AD06C
:10078000921100E08909C3098B4201D3CB01C01A41
:10079000524183098B4201D38B01C01A5241430954
:1007A0008B4201D34B01C01A524103098B4201D342
:1007B0000B01C01A5241C3088B4201D3CB00C01AAF
:1007C000524183088B4201D38B00C01A5241D9D2C7
:1007D00043088B4201D34B00C01A5241411A00D248
:1007E00001465241104663465B1001D34042002B44
:1007F00000D54942704763465B1000D3404201B5C3
:100800000449002802DC491C084000E00846C046B4
:10081000C04602BDFFFFFF7F70477047704770B54D
:10082000044685690068C10601D5302600E020260F
:10083000C00707D070BD62683046A1689047206A43
:10084000401C20626D1EF6D570BD70B504468569EA
:100850000078C00707D170BD6268A168202090476A
:10086000206A401C20626D1EF6D570BD09684A05DD
:1008700001D540B27047C905FCD500B27047096880
:100880004A0501D5C0B27047C905FCD580B2704792
:10089000F7B5002575291068009914A611D0FFF747
:1008A000E5FF002802DA404211A608E00099096835
:1008B0008A0701D50FA602E0490704D50EA6012537
:1008C00001E0FFF7DCFF009F0024243704E001F083
:1008D00034F930313955641C0028F8D12B463246A2
:1008E0002146009800F0BBFBFEBD000000000000A8
:1008F0002D0000002B00000020000000116802689D
:10090000006A530501D5087009E0D30501D50880B8
:1009100005E0130602D5C21705C100E008600120FA
:1009200070470000FFB50C461E468FB003CA089002
:1009300009914F007D0D00D16D1E00210846002059
:10094000C0460321099A89050840002A03DA82007B
:10095000801840080840800D01280A9002DD002020
:10096000C0430A90089807430DD0F048F049281872
:1009700048430714189800281DD07542291E1DDD14
:100980000A9842421BE01898012802D0002030212A
:1009900004E00020F24305E02154401CB042FBDBA0
:1009A00030460022189B002121540F998B600A6069
:1009B000486013B0F0BDBD1B6D1CDFE70A9A00292B
:1009C00000DA69420BA800F06BFD0BAB07CB03AB61
:1009D00007C30899099800F0CFFD6B4607C301468D
:1009E000D4480918002D00910BDDD24903980A9ACA
:1009F00049424018002303A90390684601F02CF8EF
:100A000008E003990A9A0023081803A9039068468E
:100A100000F0CCFF6B4607C30004000C03D000209D
:100A2000C043410800E01046189A002A03D0002273
:100A3000009215461EE0751E05D400F0D3FA303240
:100A400062556D1EF9D501220843079602D0002297
:100A50007F1C04E02078302801D100227F1E002A6C
:100A6000069787D01EE0112D07DA00F0BBFA30326E
:100A700062556D1C02460A43F5D1084303D0009825
:100A8000002819D00EE00021681E05E0235C625C9E
:100A900063542254401E491C8142F7DBA81B401EB0
:100AA00007950690079A18990020A0540F98079B65
:100AB000069A81600CC07CE711260020189059E747
:100AC000D21DF0B50D460446D10893B0C90003C944
:100AD0000C900D9103F000FD02460D98C00F01D05F
:100AE0002D2007E02068810701D52B2002E0400778
:100AF000C00F4001032A0F9001D0072A05DB0346EF
:100B00002946204600F070FC0EE12078800601D5D1
:100B1000E76900E006272846652D04D0662814D032
:100B2000672D69D12DE00020112F009001DB1123EA
:100B300000E07B1C0CAA03A910A8FFF7F3FE119993
:100B4000002610987D1C0E9142E001203B460CAA25
:100B5000C0070B900120009003A910A8FFF7E2FE48
:100B6000119D12981099002600280E9501D1781C2D
:100B70000D18781B02D446427D1C761EE81B00909F
:100B80003AE0012F00DA01270020112F009001DD4B
:100B9000112300E03B460CAA03A910A8FFF7C2FEF0
:100BA00011993D46109800260E91217809070BD423
:100BB0000E99A94200DA0D4603A9012D04DD4A1958
:100BC000203AD27F302A06D0B84201DA011D04DA79
:100BD000012100910FE06D1EEFE7002802DC86196D
:100BE0002D1A03E0411CA94200DD0D46801B401C6C
:100BF00000900120C0070B902078000705D40098D2
:100C0000A84202DB0020C043009069460020C87261
:100C10000B98012102AF0337C907884225D0022073
:100C200010902B2011900B9800280BDA40420B906B
:100C30002D20119006E00B9800F07FFF30317F1ED1
:100C40000B9039701099481E00291090F3DC0B9816
:100C50000028F0D111987F1E38702088000501D53A
:100C6000452000E065207F1E387001A8C01BC01D14
:100C70000B900F98002800D0012041190098C01750
:100C800009180B980818A169081A401EA06120785D
:100C9000C00602D42046FFF7C2FD0F98002805D0F9
:100CA0006268A1689047206A401C20622078C006D4
:100CB00025D52046FFF7B3FD21E0002E07DB0E9877
:100CC000B04204DD03A86268805DA16802E062684A
:100CD000A16830209047206A761C401C2062009852
:100CE000401E002800900AD100F078F9C0686268C0
:100CF0000168405CA1689047206A401C2062284639
:100D00006D1E0028D9DC07E062683878A1687F1C76
:100D10009047206A401C20620B99481E00290B90C6
:100D2000F2DC2046FFF791FD032042E601FCFFFFC5
:100D3000104D0000E1DFFFFF01694A1C02610878E5
:100D4000704700B58FB002910021059105490193CC
:100D500079440391114604906846FFF711FB0FB0E8
:100D600000BD0000E5FFFFFF0CC908399A4202D21E
:100D7000531C0B601070704710B54369002B02D0F4
:100D8000C046C04601E0FFF7D1FA012010BD12783D
:100D9000014624310A7000224A700122ECE71168F2
:100DA0000022D243E8E70000F7B50446154686B0B6
:100DB0002B487844002703C83E460090019111E07B
:100DC00007986A467100415A02A800F095FE411C3E
:100DD00007D02178890603D5E269391891420ED8E7
:100DE0003F18761C2078800602D5E069B84206DDFF
:100DF000AE42E5DB07987100405A0028E0D1A069B7
:100E0000C01BA0612046FFF70AFD154878445A38F8
:100E100003C800900020019116E041006A4607983F
:100E2000415A02A800F068FE0590401C0AD0002537
:100E300005E0626802A8A168405D90476D1C0598B6
:100E40008542F6D30498401CB0420490E5DB206A4A
:100E5000C01920622046FFF7F8FC09B0F0BD000081
:100E6000EA370000F7B5D21D0025D20815A6D2003A
:100E7000F52905CA11D0002A05DA00214042914126
:100E800011A60A4608E0009909688B0701D50FA64C
:100E900002E0490701D50EA601251146009F002456
:100EA000243704E000F09EF830323A55641C0246C4
:100EB0000A43F7D12B4632462146009800F0CFF87E
:100EC000FEBD0000000000002D0000002B0000000F
:100ED0002000000070B504460021243408E05507C6
:100EE000D2086D0F303565545D072A43DB08491C75
:100EF00015461D43F3D10468002310A2250708D529
:100F000020252C400C4304D0C46901230CA2641E8C
:100F1000C46100F0A4F870BD10B504462146106805
:100F2000FFF7ADFC002302462046FFF7D3FF10BDBC
:100F3000D21DD108C9000CC9CCE700000000000098
:100F400030000000F8B50F460188090502D5224C93
:100F50007C4402E0204C7C440E34054600212435BC
:100F600008E016071209360FA65D6E541E073243BD
:100F70001B09491C16461E43F3D122460478002360
:100F8000240705D5702F06D0002901D00223113285
:100F900000F065F8F8BD01231032F9E770B504469A
:100FA0000D4621461068FFF76AFC002302462946D9
:100FB0002046FFF7C7FF70BDD21DD308DB000CCB66
:100FC000C0E730B403682024126823430360082379
:100FD000C36130BC0023B5E75436000000487047B9
:100FE000400020200B4670B5024689078008084360
:100FF00019469D08141AA94125090807054308093F
:101000002C194841250A01060D43010A2C194141BA
:10101000200C0D0428430D0C00194D4100214019EE
:101020004D41C00869070843E908840F8D00254336
:10103000840024184D4124196D41121BAB4107E077
:101040000925ED432C11521963410024401C6141D4
:101050001C460A250026551BB441F1D270BDFFB5D0
:1010600004460D4681B0243000902168880604D5DE
:101070001022E0699143216000E00120A84201DDD7
:10108000471B00E000270498A1697A191018081A74
:10109000A0612078C00602D42046FFF7C0FB0026DE
:1010A00008E003986268A168805D9047206A401C50
:1010B000761C206204988642F3DB2078C0060AD5AD
:1010C0002046FFF7ACFB06E06268A168302090473D
:1010D000206A401C206238467F1E0028F4DC07E0AE
:1010E00000986268A168405D9047206A401C2062B9
:1010F00028466D1E0028F3DC2046FFF7A6FB20786B
:10110000000602D5022005B0F0BD0120FBE700007B
:10111000D21DF0B504460D46D0088DB0C00046681B
:1011200007683146384603F0D7F90246F00F01D080
:101130002D2307E02068810701D52B2302E040071B
:10114000C00F43016846002B037001D0012000E06E
:101150000020032A0A9001D0072A04DB29462046F2
:1011600000F042F92DE12078800601D40D2500E041
:10117000E5697000400D0D2D01904BDA300D002116
:101180000B9008460020C046032189050840002E28
:1011900005DA82008018C20F101840100840801530
:1011A000012801DD0020C043A9000023182906D32F
:1011B0009C460A460123183A1B07D34003E001224C
:1011C0001205CA4094460C31202902D33A462039F0
:1011D00000E032468A40002802DD002A06D119E0EC
:1011E000002817D10121C9078A4213D31946634643
:1011F0007F185E41002806D10120C007824202D13B
:10120000084687439E430B98310D814202D00198D6
:10121000401C01902088000502D57149794402E004
:101220006F49794419396B460A9830221A540A9842
:101230000A7C401C1A54401C0A900198002801DCCA
:10124000302000E031201872019A0120002A02D0DB
:10125000644BD21804E072003A4302D0614A521C37
:101260000192002D02DC2278120703D56A462E2057
:10127000507202200022864694460CE0320336016A
:10128000120F6D1E8B5C02AA13546246521C401C46
:101290009446052A01DA002DF0DC002202AE08E0B7
:1012A0003B0F3F01CB5C521C6D1E3354401C082A7F
:1012B00001DA002DF4DC23689A0601D511E0401E06
:1012C000704504DD3218203AD27F302AF7D000284A
:1012D00007DD3218203AD27F2E2A02D11A0700D415
:1012E000401E002D03DD3E223254401C6D1E497C01
:1012F00031540199401C002906DA2D21471C315434
:1013000001984042019003E02B21471C3154019881
:101310007D21C900884206DBFFF790F93030F05597
:101320007F1C019101E0642808DB01986421FFF72C
:1013300085F93030F0557F1C019101E00A2806DB69
:1013400001980A21FFF77AF93030F0557F1C019897
:101350000A21FFF773F93031F1550A98A1697F1C12
:101360007A191018081AA0612078C00602D4204605
:10137000FFF755FA216A6E460A980818206204E0C1
:1013800062683078A168761C90470A98401E0A90DF
:10139000401CF5D12078C00602D52046FFF73FFA61
:1013A00002AE09E03078761C3E280DD06268A16854
:1013B0009047206A401C20627F1EF3D22046FFF730
:1013C00044FA0DB00320F0BD206A4019206203E00A
:1013D0006268A168302090476D1EEDD3F8E70000E9
:1013E000C333000001FCFFFFF8B51F46044601238C
:1013F0000068DB02032601461840072A05DB0028A7
:1014000001D017A506E017A504E0002801D016A515
:1014100000E016A5102081432160A069C01E002FA6
:10142000A06101D0401EA0612046FFF7F8F9002F0F
:1014300009D038466268A1689047206A401C206243
:10144000C01C206206E0206AFAE762682878A1687A
:101450006D1C9047761EF8D22046FFF7F6F9F8BDCE
:101460004E414E006E616E00494E4600696E660048
:1014700010B54369002B02D0C046C04601E0FFF71B
:1014800093FC012010BD1288014624318284002281
:10149000C2840122ECE711680022D243E8E7000091
:1014A000F7B516468AB0334878446C4603467C3319
:1014B000C06F5A689B680DC42E487844763003ACE0
:1014C0000DC80DC43720C001081837211B30FFF7A5
:1014D000B5F805460C46803D1B3C02D56442012010
:1014E00000E000200027099010E0E0070CD00C205D
:1014F00020497843794432464C39411868460123E3
:1015000000F054FA6B4607C364107F1C002CECD12A
:10151000184F7F442E3F16E0E80712D02001C01973
:101520000EC80691089307920068F04201D19819FD
:1015300008903246012306A903A800F037FA03AB4E
:1015400007C36D10641C002DE6D10998002806D051
:1015500032466946012303A800F07EFA05E0012324
:101560003246694603A800F021FA0A9B07C30DB072
:10157000F0BD00004C310000034640000A4610B5A3
:10158000400D0BD00121C9070F24A40200191C0330
:1015900064082143540D2143D20207E000210120B9
:1015A000F2E7D40F490021435200401E0029F8DA27
:1015B000DB0FDB07184310BDFFB50D46144685B0A1
:1015C0004868516802F06FFF00910190A868A16817
:1015D00002F069FF02910390A868616802F063FF5E
:1015E000029A12188242029201D2012000E00020E9
:1015F000019A0B18D2180028019202D08A4202D90F
:1016000003E08A4201D2012000E00020009908187E
:1016100000906868A16802F046FF029A12188242A0
:10162000029201D2012000E00020019A0B18D2188A
:101630000028019202D08A4202D903E08A4201D2F4
:10164000012000E000200099081800902868216817
:1016500040004900400849084018FA49471814E07A
:1016600001994000C90F0843009001980299400079
:10167000C90F08430190029803994000C90F08431D
:101680000290039840007F1E039000980028E7DA3C
:101690000898002801D0EC4E00E00026B74201DA9D
:1016A000012000E00020002804902AD0F71BF80653
:1016B000C00E15D0029B2021091A039A8B401A43B1
:1016C0000392029A019BC2408B401A430292019AF4
:1016D000009BC2408B4000991A430192C140009187
:1016E0007B110DD06F460320C11A03D50021820063
:1016F000B95003E08A008100BA587A50401EF3D5F1
:10170000374603980299002800D001200143089829
:101710000291002808460CD0002800D00120019931
:10172000019A490508430121D20AC902D202019255
:1017300000E001210E9B0122D207012B02D0002BD9
:1017400003D013E0002807D120E0904204D8904253
:101750000CD1019B0B4209D0019B5918019105D175
:101760000099491C009101D17F1C009200280DD0E6
:10177000102108460020C0460498002806D00F9883
:10178000002803D0082108460020C04628682168A8
:10179000019B009A4840C10F0598C90739430EC004
:1017A00009B0F0BDFFB587B0099A08980899536849
:1017B00092684068896896460022039317469446CB
:1017C000089A12685300099A5B081268520052087E
:1017D0009A1A9E4BD4180A9A002A01D0352200E0AA
:1017E000402206920022012315460492DB0705934E
:1017F00024E0002D05D175460346039E4D1BB341E1
:1018000009D375466646039B491B049D9841059B79
:101810007519AC465F4163463B4308D0059B049E67
:10182000DD0776082E435B080496059301E0521EFF
:10183000641EC50FED0749184041521C069B9A4291
:10184000D7DB002D04D17546039A6B1A824101D271
:1018500003200CE0039A0B466B404240134303D035
:10186000014303D0012002E0022000E00020614695
:1018700001910021009702910A99002905D0614643
:1018800040020143704B019102E080070023029067
:101890009C4201DA012000E0002007003AD01A1B28
:1018A000D006C00E15D0029D2021019C091AC5400A
:1018B0008C402543029C8C4000D001242543019C90
:1018C0000295009DC4408D4000992C430194C14075
:1018D000009154111DD06D460221002202290CD125
:1018E0000320001B07E0002804DB8600AE59002E11
:1018F00000D00122401C0328F5DB081B02D588001C
:101900002A5004E08000285810438A00A850491E3D
:10191000E3D51C460A98002802980CD0002800D075
:1019200001200199019A490508430121D20AC902FF
:10193000D202019200E00121109B0122D207012B6B
:1019400002D0002B03D013E0002807D11FE0904203
:1019500004D890420CD1019B0B4209D0019B59182D
:10196000019105D10099491C009101D1641C00929C
:1019700000280CD0102108460020C046002F06D0B9
:101980001198002803D0082108460020C046089876
:101990000999019A009B006809684840C10F07989F
:1019A000C907214382600AC00BB0F0BD00B585B005
:1019B000019300920A460146002302A8FFF7FCFDAE
:1019C00002A807C805B000BDFFB50A461F4685B08E
:1019D0000799019301230091014602A8FFF7ECFD4E
:1019E00002990398049ECA0F4900D20700920F2261
:1019F000490892028C1A0021002800DB0C464500A1
:101A000013486D08844214D3079A002A04DA441E4E
:101A10000026104DF64302E004460D460E46102106
:101A200008460020C046002F03D0042108460020AD
:101A3000C0462005E90A0843009908436905F20AEF
:101A40001143ADE602C0FFFF013C0000FF3F000074
:101A5000FF070000FFFFFF7F00B585B001930092F4
:101A60000A460146002302A8FFF79CFE02A807C809
:101A7000A8E7FFB50A461F4685B0079901930123E1
:101A80000091014602A8FFF78DFE02990398049E7B
:101A9000CA0F4900D20700920F22490892028C1AFD
:101AA0000021002800DB0C46450011486D088442E7
:101AB00014D3079A002A04DA441E00260D4DF6437B
:101AC00002E004460D460E46102108460020C0469E
:101AD000002F03D0042108460020C0462005E90A53
:101AE0000843009908436905F20A114358E60000CB
:101AF000FF070000FFFFFF7FF8B516460C460546BE
:101B000000F054F80368FF200230C05C012807D0C1
:101B1000FF2C0FD8185D00280CD001202C70F8BDC8
:101B2000FF333246214608331868C7182846002379
:101B3000B847F8BD0020C043F8BD01468008081A28
:101B400002091018020A1018020C1018C0088200AE
:101B500012185200891A01E0401C0A390A29FBD2E6
:101B60007047000000487047200020207546FFF7AE
:101B7000F9FFAE46050069465346C008C0008546D9
:101B800018B020B5FEF7A4FB60BCB64600260027BF
:101B9000C0C5C0C5C0C5C0C5C0C5C0C5C0C5C0C51D
:101BA000403D490849008D467047000010B5FFF7D9
:101BB00015FA001D10BD00BF8929000010B50446AC
:101BC000C046C0462046FEF759FB10BD82078B0772
:101BD0009A423FD170B5920F0AD0032402780B7855
:101BE000401C491C002A33D09A4231D12042F5D101
:101BF000214EF40104C808C9951B9543254018D10E
:101C00009A420FD104C808C9951B9543254010D1AD
:101C10009A4207D104C808C9951B9543254008D1AD
:101C20009A42E7D012BA1BBA01209A4200D240422F
:101C300070BD12BA1BBA2DBA18241000E04019006A
:101C4000E140401A05D12E00E64002D1083CF4D113
:101C5000D01A70BD02780B78401C491C002A09D0AC
:101C60009A4207D102780B78401C491C002A01D007
:101C70009A42EFD0D01A70470101010101491820A2
:101C8000ABBEFEE7260002007047811E091F00BFA1
:101C9000FCD2704770B50A780C231A400124240343
:101CA00005196E689E43B2186A6049780722114090
:101CB000035993435918015170BD0000B0B511226A
:101CC000120283580C4C1C400B894D881D438B79A4
:101CD0002B430A4D1D402B1983508B88CC791C4314
:101CE000097821435D239B001940801842689A437C
:101CF00089184160B0BDC04680CCFFFF7F33000033
:101D000010B50122120383180C785C604978815069
:101D100010BD0000F0B57A4A82183B4BC318087911
:101D20004E793A4D784C002E23D0202804D0052639
:101D3000F601002803D003E0354E002800D18826A4
:101D4000576F2F4037435767976F2F403743976739
:101D5000566B26405663966B264096630026566562
:101D600096658F26F6435F6837405F609F6837400F
:101D70009F608E79096820280BD0002819D1491E50
:101D80005160D76E2F4088210F43D76617467037B2
:101D900019E0491E5160D16E29401D4F3943D1666B
:101DA000116F29403943116701214907194D174621
:101DB00009E049085160D76E2F400521C9010F4342
:101DC000D766174670373C682C400C433C60D16A9C
:101DD0004D4C2140D162116B214011630021D1642F
:101DE00011658F21C943D46F0C40D4671C680C4027
:101DF0001C600643BD2030401168074B0B40C018E3
:101E0000801C1060F0BDC0468418000024493E00CC
:101E100001040000FFFFFFCF4000FFCFB0B54A68CC
:101E2000364BC250364A80180A78222A58D8930076
:101E300001A4E3589F46C046D71E0000E11E0000E3
:101E4000D71E0000E11E0000E11E0000E11E0000A0
:101E5000E11E0000E11E0000E11E0000E11E000086
:101E6000E11E0000E11E0000E11E0000E11E000076
:101E7000E11E0000E11E0000C51E0000E11E000082
:101E8000C51E0000E11E0000E11E0000E11E000072
:101E9000E11E0000E11E0000E11E0000E11E000046
:101EA000E11E0000E11E0000E11E0000E11E000036
:101EB000E11E0000E11E0000C51E0000E11E000042
:101EC000C51E000003231B0704689C4301235B0716
:101ED000E318036004E003231B0704689C430460C9
:101EE0000B69C360CB68074C1C40C36A064D1D409C
:101EF0002B19C362097A11430160B0BD08180000B4
:101F000004180000777702008888FDFF10B50723CA
:101F10009B04194092008018024A84589C4361181F
:101F2000815010BD3018000010B5029CA4000019AB
:101F300011431943014A815010BDC046501800009A
:101F400092008018014A81507047C0461018000066
:101F500010B50122120383180C789C604B788350D3
:101F60008978014A815010BD0C110000B0B51122D2
:101F7000120283580124A34383500B888C781C439E
:101F80008B882343094C1C408358094D1D4063191D
:101F900083508B79CC791C43097A21437E231940E5
:101FA000801842689A4351184160B0BD186700001C
:101FB000E798FDFF10B50122120383180C789C608E
:101FC0004978815010BD0000034A8018026812064B
:101FD000FCD481617047C04608110000B0B51E48AE
:101FE0000068800736D51D4C2546103D2868C00680
:101FF00009D5206810210143216019484069002853
:1020000001D000F0D3FB2868800609D52068202184
:102010000143216012488069002801D000F0C6FB0E
:102020002868400609D520684021014321600C48FA
:10203000C069002801D000F0B9FB2868000609D566
:1020400020688021014321600548006A002801D0F2
:1020500000F0ACFBB0BDC0464011404048300A40E3
:102060002402202083B0B0B5C1B004464591469209
:10207000479345AB00930120010201AD284622465B
:10208000FEF736F9E9480549054A2B4601F0E4F820
:1020900041B0B0BC01BC03B00047C046EB460000F5
:1020A000F3460000000000000000000000000000F7
:1020B000EFF309800E4B1A6820381060F0C04446D8
:1020C0004D4656465F46F0C008B572B601F0E0FBDB
:1020D00062B60CBC116808681030F0C8A046A9466A
:1020E000B246BB4680F309882038F0C81847C0467E
:1020F0008C03202070470000F0B52D498720C8666A
:1021000001239A032B48026088220A612A4A082484
:10211000146084248C628024146082244C61102515
:102120001560264D4D600D605B064D681D434D608A
:102130000D681D430D604C64214C651C8D64214D60
:102140008326AE610E67A61C6E618126EE650F4682
:102150000C3F3E600F46083F3E602E60AE62EE636D
:10216000194D4D664D658D65CD650D664C638C636F
:10217000CC640C651146303903240C6014600146B0
:102180003039132212040A60014640390B600F49AE
:102190000160FF2000020E490A6802430A600D48F0
:1021A000016AF02211430162016811430160F0BD30
:1021B00010804240D0320A40D0120A4082000C0007
:1021C000810004008480424081000E000000130260
:1021D00090330A4028300A4010B511481149FFF7E2
:1021E00059FD03225102104803680B43036001218B
:1021F0000B0204681C430460002343614262826B4B
:1022000007239A4382631A02836B93438363826A30
:10221000042313438362826A0A43826210BDC0466C
:1022200000200F408C46000000320F4070B582B095
:10223000194C1A492046FFF78BFE19492046FFF733
:1022400069FD00250095204629462A462B46FFF7C2
:102250006BFE204629462A46FFF758FE20462946AF
:102260002A46FFF76DFE01260096204629462A469B
:102270002B46FFF759FE204629463246FFF746FE19
:10228000204629463246FFF75BFE0648866003215A
:10229000016002B070BDC046000086408E4600005E
:1022A000944600000011864070B582B0194C1A495E
:1022B0002046FFF74DFE19492046FFF72BFD00256C
:1022C0000095204629462A462B46FFF72DFE20463C
:1022D00029462A46FFF71AFE204629462A46FFF7D6
:1022E0002FFE01260096204629462A462B46FFF758
:1022F0001BFE204629463246FFF708FE20462946A7
:102300003246FFF71DFE064886600321016002B0D9
:1023100070BDC046000009409C460000A046000079
:102320000011094010B50D4C0D492046FFF7E8FC9F
:102330000C492046FFF7C2FC0B4841680B4A0A4093
:102340000F324260816812220A432D218A43826043
:10235000016801220A43026010BDC04600A0464049
:10236000A8460000AA46000004B1464000FCFFFF5A
:102370000448002101600448016803229143016080
:102380007047C04608030B4000010B4010B5084CD5
:1023900008492046FFF7DCFD07492046FFF73EFDD0
:1023A000064801680122114301600548026010BD22
:1023B00000208640B4460000B84600002830864021
:1023C0000831864010B5194C19492046FFF7F2FD37
:1023D00018492046FFF7CAFD0320C10316480268CA
:1023E0008A4302600169154A0A401132026141695B
:1023F00017220A4328218A434261426801210A4088
:1024000043688B439A1842608A020D4B1C68144340
:102410001C60FF2212060B4B1C6894438A07A2180B
:102420001A6002680A43026010BDC0460080104076
:10243000CC460000CE460000009110400000FFFF97
:10244000289010400CE400E080B500F021F8FFF780
:1024500053FEFFF78DFFFFF7E9FEFFF725FFFFF7BC
:1024600095FFFFF7B9FEFFF7ADFFFFF75BFFB82061
:10247000044900220A5404490A54242003490A54F6
:1024800080BDC0466801202084002020400120201B
:10249000F0B581B010481149416011484160114BBD
:1024A0005960114C6160114D6960114E7160114F9E
:1024B0007960114841601149074A1160084A11606A
:1024C0001960216029603160396001601020FFF7D8
:1024D000DCFB01B0F0BDC04600080A40030000B1BB
:1024E00000280A400008864000080940002886406D
:1024F00000280F400088104000A846400100002638
:1025000010B500F0A5FE044601F00AFD002803D036
:102510000120000702490860204600F0EAFE10BDD5
:1025200004ED00E080B505480068C0B20B2804D176
:1025300003480068C0B200F025FA80BD209010402A
:10254000249110400C4801680020002900D07047F9
:102550000A4909680029FAD1094909680029F6D110
:102560000848006808490968491E884201D00120CE
:10257000704702207047C04650162020A416202025
:102580004C16202070162020FC10202070B590B032
:102590000CA004A90A4678C878C278C878C278C85E
:1025A00078C214480290144801901448009074486E
:1025B0000224134B224600F027F81248046010B0A2
:1025C00070BDC04600200A402000000000200A40E4
:1025D00010000000060000000500000000200A4076
:1025E0004000000000200A408000000007000000BA
:1025F000080000003D280000352800006D2800007C
:102600008928000000E100E0F0B585B00C460546E1
:10261000481E8141681E2E4686410E40501E1146BE
:10262000814131400191012954D10C980B990A9EA6
:10263000AB60EE60296168612A71282050430390E5
:102640000027029704E0183428370398B84241D095
:102650002868C551C2192420029E0490165420688F
:1026600050606168D160A3689360E3681361236977
:10267000D361636913629661AA6890470646401E5B
:1026800086412868C11988680969AA6890470028A6
:1026900000D0B61C2868C2191675EB68002BD2D082
:1026A000D0690E499847002805D02868C019049AB7
:1026B000815C491C81542868C219106AEB6807497B
:1026C00098470028BFD02868C019049A815C491C2B
:1026D0008154B8E7019805B0F0BDC046AD270000B1
:1026E000B0B502460020002A20D0137999421DD2AD
:1026F0002820484311680C182420215C1069012906
:1027000008D81546002800D08047204600F04EF833
:10271000696905E0002802D0154680472A465169BC
:10272000A069002902D0044688472046B0BD0000B9
:102730000CA0FFF797FCFFF729FF114C11A5002112
:102740002046FFF7CDFF064601212046FFF7C8FFD0
:10275000024628463146FFF785FCC82000F076FF88
:10276000EDE7C046456E636F646572205072696E16
:1027700074205461736B20537461727465642E000D
:1027800000002020526967687420456E636F64659D
:10279000723A20256C642C204C65667420456E636B
:1027A0006F6465723A20256C6400000070B50446C1
:1027B000C16806684068B26890470546B268A0687C
:1027C00021699047227D03211140002D00D0091D71
:1027D000002800D0083188082075481E0D2809D827
:1027E0000549C140C90705D0800004A10858A16966
:1027F0000818A06170BDC046EF3D00000100000058
:10280000FFFFFFFF02000000FFFFFFFF01000000CD
:10281000FEFFFFFF0100000001000000FEFFFFFFC0
:1028200001000000FFFFFFFF02000000FFFFFFFFAD
:102830000100000080B500F095FD80BD80B500F07E
:102840009BFD80BD82B0FFF7FFFD002302200090BA
:102850000193012002020348034901F0FBFA00F052
:10286000A9FFFEE731270000D8460000C0B20828C3
:1028700002D88100034B5A50092801D30020704729
:1028800001207047240220202722D20180580840CE
:10289000411E88417047000070B503460079821FD1
:1028A000D2B2FB2A00D270BD5A7A103A052AFAD861
:1028B0000A33C0467A4412795200974402403038B5
:1028C00028451729EFD129490C68002CEBD019783D
:1028D0005A78120251189A781204DD782D06AA1837
:1028E00051181A795D792D02AA189D792D04DE7987
:1028F00036067519AA181D7A5E7A360275199E7AFF
:102900003604DB7A1B069B195B19A04770BD0B29A7
:10291000C9D1164909690029C5D0884770BD0B295E
:10292000C1D1124989680029BDD0884770BD0B29E3
:10293000B9D10E49C9680029B5D0884770BD0F29A3
:10294000B1D10A494A6803E00F29ACD107494A6965
:10295000002AA8D019785C78240261189C78240495
:10296000DB781B061B195918904770BDD80420202E
:102970000022002904D003789A18401C491EFAD17D
:10298000D0B27047F0B581B03E4C217879440979D6
:1029900049008F44023929310A4B532863D13A49FF
:1029A0000A683B4B9854012035E037490B68384A98
:1029B000D054581C08600A2830D3507993791B02F0
:1029C0001818D3791B04127A1206D21812182F483D
:1029D0000260183A0D23DB439A424ED800220A6067
:1029E0002270026001B0F0BD482819D126490A685A
:1029F000274B985403200EE0592811D122490A6828
:102A0000234B9854042006E05A2809D11E490A682D
:102A10001F4B985402202070501C086001B0F0BD7C
:102A2000194800210160217001B0F0BD164D2968E0
:102A300016291DD8164A50544A1C2A60134E336872
:102A40009A42EBD1124A07461046FFF791FF8742A0
:102A500003D129680E48FFF71FFF0020286020706F
:102A6000306001B0F0BD08480021016001B0F0BD48
:102A70000020286020700549CFE70520207001B0B4
:102A8000F0BDC046F0042020D40420208000202087
:102A9000BC042020F0B581B0044600F063FC7A4805
:102AA0000168491C01607A4F396800290AD036480C
:102AB0000068002847D1E06A3968C96A814242D873
:102AC0003C6040E03C60006801283CD1714D2846E4
:102AD00000F012FC2846143000F00EFC2846283086
:102AE00000F00AFC28463C3000F006FC2846503036
:102AF00000F002FC2846643000F0FEFB28467830E7
:102B000000F0FAFB28468C3000F0F6FB2846A03097
:102B100000F0F2FBB435284600F0EEFB1B4D2846D2
:102B200000F0EAFB1A4E304600F0E6FB194800F0D0
:102B3000E3FB544800F0E0FB174800F0DDFB1748CA
:102B400005601748066017480168491C2164016048
:102B5000E06A4E490A68904200D908601421414356
:102B60004C484018211D00F0F2FB00F005FC06481F
:102B70000068002806D0E06A3968C96A814201D23B
:102B800000F036FD01B0F0BD6416202004162020B0
:102B90001816202050162020701620209403202084
:102BA0009C0320200811202082B001200190344E87
:102BB000344F354D05E0206B00F0ECFB204600F073
:102BC000E9FB3068002817D000F0CCFBF868C46837
:102BD000201D00F064FB2868401E28603068401EFD
:102BE000306000F0C9FB6120205C0228E9D0012898
:102BF000E4D00028DFD03EE024480068244909687A
:102C0000C96A0029DDD1411E88412249096801298C
:102C1000019900D801460029D3D11F4800681F49F7
:102C20000968401A0228CCD31D490868401C086076
:102C3000194800681949096888421ED3134800687A
:102C400013490968C96A002912D1411E88411149F6
:102C500009680129019900D80146002908D10E48C8
:102C600000680E490968401A022801D300F012FCDE
:102C700001F048FAA5E772B6FEE772B6FEE7C04675
:102C80000011202084162020FC1020200C11202070
:102C90008C032020A40320203C16202098162020FE
:102CA00004112020F0B583B002930F4601900A9CD6
:102CB000206B9600A5223146FDF789FC206B801918
:102CC000031F072021463431089D002F30D03A7869
:102CD0000A70002A29D07A784A70002A25D0BA785A
:102CE0008A70002A21D0FA78CA70002A1DD03A7959
:102CF0000A71002A19D07A794A71002A15D0BA7956
:102D00008A71002A11D0FA79CA71002A0DD03A7A54
:102D10000A72002A09D07A7A4A72002A05D0BA7A51
:102D20008A72002A01D0FA7ACA720022CA7201E0BD
:102D300000220A7083430093099F0026E664092D50
:102D400000D30925A564E562201D00F0DFFA2046C6
:102D5000183000F0DBFA0A20401BA061266566658A
:102D6000A665E6652046503006746462246100AAB8
:102D700007CA00F05BFA2060002F00D03C6003B06F
:102D8000F0BD0000F0B585B0044601F0C5F8234A57
:102D90001168884233D200940190A94F05E0686021
:102DA0002D613868314600F0B4FA386801680029AE
:102DB00027D0C0680468C5682E1D304600F06FFA41
:102DC000296A284688472820285C4007EDD5A8694D
:102DD0000019A042E3D89C4E306800280DD004951D
:102DE00003940025029501F089F8306802A92A466B
:102DF0002B4600F038FE0028D7D172B6FEE700213E
:102E000007E090490A683A60086001210198009C37
:102E1000024A1060216005B0F0BDC0468803202042
:102E200081B0002000900A48006872B6401C09D0AA
:102E3000FEE70098002808D10098002805D10098E6
:102E4000002802D100980028F3D001B07047C04696
:102E5000180020208AB07A4E7B4F30680468002C1E
:102E600002D0C068056800E0002500F00BFD04A852
:102E7000FFF788FF0499002902D001F043F952E0DE
:102E8000002C15D0854213D8029001F03BF9306830
:102E9000C068C468201D019000F001FA2820205C61
:102EA000410709D421462831FA221040087037E042
:102EB000002C12D0002215E0A06941196160246144
:102EC000029A9142314603D8511B81425D4914D286
:102ED0000868019900F01DFA22E05A49096809685A
:102EE0004A424A41291A386800F08EFB01F00AF97B
:102EF000002818D100F07CFB15E03868002800D1CC
:102F00009BE0099408950025079500F0F7FF3868C5
:102F100007A92A462B4600F0A6FD002800D18CE028
:102F2000216A20468847386804A90022029202E0FC
:102F3000386804A9002200F0A0FE00288DD0049873
:102F40000028F5D4069D6869002802D0281D00F0ED
:102F5000A6F903A8FFF716FF04990929E8D8C04687
:102F60007944097949008F440A0A0A0442570A0A37
:102F700004422820295CFE220A402A54D8E728214E
:102F80006A5C012313436B54AB6905995A186A6054
:102F90002D61824224D98842304625D28A42304669
:102FA00022D334462E462836296A28468847307868
:102FB00026464007BCD5386800283AD0A86905994C
:102FC000099540180890029C079400F097FF386814
:102FD00007A92246234600F046FD0028A8D128E094
:102FE000401A98421748DCD2291D006811E02821B8
:102FF0006A5C012313436B540599A96100291AD017
:10300000091869602D618142304600D80D4800687A
:10301000291D00F07EF98BE72820285C810703D466
:10302000284600F0B7F983E72835FE2108402870CC
:103030007EE772B6FEE772B6FEE772B6FEE7C046FE
:1030400090032020A00320209C162020F0B581B002
:1030500004460646443600F085F901203756012F14
:1030600012DB2546243504E0781E79B20129074693
:103070000ADD2868002807D0284601F003F8002858
:10308000F2D000F021FBEFE7FF25757000F074F936
:1030900000F068F900203756012F11DB103404E0EE
:1030A000781E79B2012907460ADD2068002807D07A
:1030B000204600F0E7FF0028F2D000F005FBEFE724
:1030C000357000F059F901B0F0BD0000F0B583B0E3
:1030D000054600F0D7FBD7480368002B02D0D24941
:1030E00009781DE00721CA434D4B5907194601D005
:1030F000D91D1140CE4C0326B6029E191640083E3B
:103100000660002206C4326072600368721A0B60A7
:103110004A6044490A60C5490A60C34A01211170E6
:103120000024002D01D4224600E001222E4608365C
:10313000092E6CD30A406AD10722294691431031E7
:103140000024B14200D821466A0700D00E46711E05
:10315000B64A126891425AD2B54D2A685768B742AA
:1031600007D21168002904D015460A464F68B742B5
:10317000F7D39A424BD02C6811682960B91B1129EA
:103180002DD393195D0701D072B6FEE759605660E2
:10319000A74E3168994204D20E689E420D46F8D37C
:1031A00001E035460E46696801916F1802975F6825
:1031B0000299994203D101997F186F602B46D91962
:1031C000B14201D0304606E00068864203D0706804
:1031D000C0195860306818609D4200D02B6050685C
:1031E000924B1968091A19600E4B1D68A94200D24A
:1031F000196008348C490978002313600A4B1D6854
:103200006D1C1D604B1E9941C9070843506000F0BA
:1032100079FF600701D072B6FEE7204603B0F0BD2B
:10322000F104202038162020441620200346083BB5
:103230001960011F01231B060B6001460C39034B6B
:103240000B60014620390A6040387047212E00008B
:10325000EFF3108072B6704782B070B5C2B00D4601
:1032600004464692479346AB01930120010202AE09
:1032700030462A46FDF73CF83046FDF745F9002870
:1032800008D0054602AE31782046FEF79DFE761C3A
:103290006D1EF8D142B070BC01BC02B0004741685D
:1032A00082688A60516001694B68834200D14A603C
:1032B0000A68521E0A600022026108687047000016
:1032C000034B036080201060024808607047C046CE
:1032D0001013202010112020034B03608020106069
:1032E000024808607047C0467415202074132020DF
:1032F000FEE780F310887047002101600246083223
:10330000C94342608160C26002617047002101616F
:103310007047B0B50B685A1C0BD00446083462687D
:1033200015689D4208D8546825689D422546F6D9FF
:1033300004E00269556801E015462246A96008616B
:103340004D608A6051600168491C0160B0BD4268EF
:103350004A6093688B600861596003685B1C036076
:103360009160704772B60A480168491C0160BFF35A
:103370004F8FBFF36F8F704705480168002903D056
:10338000491E016002D0704772B6FEE762B6704710
:1033900018002020B0B5002844D0234909784A1EDF
:1033A0009141C907041F2268114205D008380368FB
:1033B000002B03D072B6FEE772B6FEE78A432260A6
:1033C000054600F05FFA28462168184A13685B1822
:1033D0001360174B1C68844204D223688342224640
:1033E000F8D301E01A46234654681519854202D1E4
:1033F00009195160104644189C4201D01C4607E050
:103400000C4C2468A34203D05C68611841601C68BE
:103410000460824200D0106007480168491C0160C6
:1034200000F070FEB0BDC046001620202C162020F3
:103430006816202098032020481620206848012183
:103440000170694801706948017066480021016097
:10345000816002494160072101607047FF7C0000E4
:103460000B4A13681868203080F30988022080F323
:103470001488BFF36F8F3FBCAE4608BC04BC62B675
:103480001847C046C046C046C046C046C046C046B3
:103490008C032020F0B585B0064651480178514F85
:1034A00038680122049290433860B8687D22140283
:1034B0004D4A1378002B224646D0002947D18E4230
:1034C00000D30E46711E01914A43101847490978EE
:1034D0000029039400D02D21451A00D8054672B664
:1034E000BFF34F8FBFF36F8F0024E0430290FFF7CD
:1034F00029F8002830D07D60BC6038680499084302
:103500003860002E04D0BFF34F8F30BFBFF36F8FF2
:1035100062B6BFF34F8FBFF36F8F72B6BFF34F8F9B
:10352000BFF36F8F062038603868C00320D4039D36
:103530006E43B868361A3046294600F0B9FE29466F
:103540004143891B491937E01A460029B7D0832126
:1035500089008E42B5D2B5E7B868786038680499BA
:103560000843386020480078002808D1029808E015
:103570001D480078002808D10299039E07E00398AF
:10358000401E786062B605B0F0BD039E711EBA6839
:10359000521B521800283346354600D103469A4242
:1035A000084600D810462D2A00D301460F4A12784B
:1035B000002A00D1014601987960BC603A680499FC
:1035C0000A433A6000F04CF907480078002801D11E
:1035D000029800E0681E786062B605B0F0BDC04693
:1035E0003416202010E000E0F8102020F4102020F5
:1035F0000120000703490860BFF34F8FBFF36F8FAF
:103600007047C04604ED00E070B515460E4604460E
:10361000FFF7A8FE4420215C20464430FF2901D159
:10362000002101704178FF2901D100214170FFF78D
:10363000A3FEA06B002805D12046243031462A463F
:1036400000F076F82046FFF701FD70BD70B5002848
:103650002CD0C2490A68002A01D072B6FEE70A6877
:10366000521C0A6085490C68BE4D2968091D064632
:103670000846FFF714FEA4192868446006D34B4897
:1036800000682968091DFFF744FE0AE04648006803
:103690002968091DFFF73DFE794801688C4200D278
:1036A000046000F02FFD002800D070BDFFF7A0FFE0
:1036B00070BDC046034909680160704909684160EE
:1036C0007047C04640162020A54801210160704780
:1036D00070B5002818D00C46A24D29681831FFF7A4
:1036E00018FE664806682868001DFFF7D8FD601CB4
:1036F0000CD03419286844600ED32C48006829681F
:10370000091DFFF706FE70BD72B6FEE72868011DB1
:103710002748FFF71CFE70BD234800682968091D73
:10372000FFF7F7FD564801688C4200D2046070BD77
:10373000F0B581B000281BD015460C46894E316883
:103740001831FFF704FE4D4807683068001DFFF789
:10375000A6FD002D01D00020C443002D0AD0601C1E
:1037600008D13068011D1248FFF7F1FD01B0F0BD2E
:1037700072B6FEE73C193068446007D30B48006816
:103780003168091DFFF7C5FD01B0F0BD06480068AE
:103790003168091DFFF7BDFD394801688C4200D230
:1037A000046001B0F0BDC046940320209C0320209B
:1037B00070162020B0B588B000240694059406A8A1
:1037C00005A904AAFFF77CFD0598002833D0069DC3
:1037D000002D32D0049A64210791079964292ED1D3
:1037E0000799612102236B542863029507A8019071
:1037F0000094154815A12346FFF754FA2846FFF711
:1038000049F9144807990160002910D000F0FAFC2A
:10381000411C16D001280AD172B6E043184908604D
:103820000D48012101601548046000F0A3F80B4821
:10383000006808B0B0BD72B6FEE772B6FEE772B6B9
:10384000FEE772B6FEE7C046A92B000049444C458E
:10385000000000003016202064162020FC460000E6
:1038600006490A681218064B1B689A4201D972B6BB
:10387000FEE70A68101808607047C04698162020B6
:103880003C16202035480168491C01607047C0463D
:10389000F0B581B031480068002802D030480121DD
:1038A0002CE02F48002101602E4C2068006B02683C
:1038B0002D498A4208D142688A4205D182688A42EB
:1038C00002D1C068884204D0206821683431FFF7F3
:1038D0000FFD2648016814231A464A43244DAE586A
:1038E000002E0ED0AA1853685B6853601546083541
:1038F000AB4201D15B685360DA682260016001B0BD
:10390000F0BDAA1800291DD01E464E437619174651
:10391000143F3F68002F17D1012913D01746283FC5
:103920003F68002F13D102290CD017463C3F3F6857
:10393000002F0FD1032905D0091F503A1668002E19
:10394000E0D0D0E772B6FEE7143E491E04E0283E00
:10395000891E01E03C3EC91E3246C4E70411202006
:10396000A41620208C032020A5A5A5A50C1120209D
:10397000A4032020B0B582B0FF200104124A1368CE
:103980000B4313600006116801431160FFF756FDF9
:103990000E4C00252560FFF763FDFFF779FF0195C9
:1039A000206872B6401C09D0FEE70198002808D1B3
:1039B0000198002805D10198002802D1019800281B
:1039C000F3D0002002B0B0BD20ED00E018002020B0
:1039D00070B582B0002807D0002B07D0002907D18E
:1039E000002A05D072B6FEE772B6FEE772B6FEE7B1
:1039F000002903D0002A01D172B6FEE750240194B9
:103A0000019C502C2DD11D464435069E019CD86347
:103A100019640029184600D0104618600120A870CB
:103A20001C46FFF79FFC0020A063FF202870216840
:103A30006870E06B226C431E504308185343CA1849
:103A40006160A060E26020461030FFF755FC204620
:103A50002430FFF751FCFFF78FFC2E72204602B096
:103A600070BD72B6FEE7F0B589B00892002812D09A
:103A70001D460446002910D0022D02D1E06B01281A
:103A80003FD11646059100F039FA00280AD1002EE0
:103A900008D072B6FEE772B6FEE7206C0028EBD0C5
:103AA00072B6FEE7FFF75EFCE06BA16B022D51D012
:103AB00081424FD30898002800D1D9E026464436E9
:103AC00006A8FFF7F7FDFFF757FCFFF7DBFEFFF750
:103AD00049FC3078FF2801D1002030707078FF2831
:103AE00001D100207070FFF747FC06A808A900F07C
:103AF00081F9002807D02046FFF7A8FA00F002FB62
:103B0000B8E072B6FEE727461037FFF72BFCE06BF4
:103B10000290A06B0190FFF72FFC0298019981425F
:103B20000DD108993846FFF7D3FD2046FFF78EFAEE
:103B300000F0E8FA002807D1FFF75AFD04E020461C
:103B4000FFF784FA00F0DEFAFFF70CFCE06BA16BE4
:103B500081424CD2226CA66B002A059919D001270C
:103B6000002D1BD0E068FCF7F1FC206CE168091A1D
:103B7000E1602268914203D24042A1680818E060E7
:103B8000701E31468141A81E424242410A40B61A87
:103B900018E0206800280ED0012713E06068FCF7C9
:103BA000D5FC206C616808186060A168884209D360
:103BB0002068606006E0A06800F034FA0021A1608F
:103BC00047424741701CA063606A00280CD024342F
:103BD000204600F057FA002801D0FFF709FDFFF753
:103BE000CBFB012009B0F0BD002FF6D0F7E704961B
:103BF00003970BE02046FFF729FA00F083FAFFF75E
:103C0000B1FBE06BA16B8142049EA3D3089800280E
:103C10002ED0FFF7B1FBFFF735FEFFF7A3FB30789F
:103C2000FF2801D1002030707078FF2801D10020DA
:103C30007070FFF7A1FB06A808A900F0DBF80028C8
:103C400000D058E7FFF78EFBE76BA66BFFF794FBFE
:103C5000BE42CFD108990398FFF73AFD2046FFF7FF
:103C6000F5F900F04FFA0028C9D1FFF7C1FCC6E70B
:103C7000FFF782FB002009B0F0BDF0B585B00492DB
:103C800000280CD01546044600292ED00F4600F01F
:103C900035F9002805D1002D03D072B6FEE772B6C3
:103CA000FEE7FFF75FFBA56B002D23D0226C002AF7
:103CB0000AD03846E1688918E160A368994201D3C7
:103CC0002168E160FCF742FC681EA06320690125C1
:103CD000002800D189E01034204600F0D3F90028F4
:103CE00000D182E0FFF784FC7FE0206C0028CDD07B
:103CF00072B6FEE700250498002876D00095264687
:103D0000443602A8FFF7D6FCFFF736FBFFF7BAFDF3
:103D1000FFF728FB3078FF2801D100203070707841
:103D2000FF2801D100207070204624300190FFF759
:103D300023FB02A804A900F05DF800280DD020465E
:103D4000FFF784F900F0DEF9FFF70CFBA56BFFF736
:103D500013FB002D1BD1002549E0FFF703FBA56BEA
:103D6000FFF70AFB002D05D02046FFF76FF900F0A2
:103D7000C9F90CE004990198FFF7AAFC2046FFF767
:103D800065F900F0BFF9002801D1FFF731FCFFF71A
:103D9000E9FAA56B002D89D10498002824D0FFF7FB
:103DA000EBFAFFF76FFDFFF7DDFA3078FF2801D15E
:103DB000002030707078FF2801D100207070FFF76C
:103DC000DBFA02A804A900F015F80028C5D02046A7
:103DD000FFF73CF900F096F9FFF7C4FAA56BFFF77F
:103DE000CBFA002DD3D1B6E7009DFFF7C5FA2846E0
:103DF00005B0F0BDF0B581B000281FD00C460029F9
:103E00001ED00546FFF7AEFA6A6883480768216846
:103E100000264B1C19D0824803682868834201D0D1
:103E200097420FD2BA1A91420CD9881A20607C4866
:103E30000068286078480068686006E072B6FEE7AF
:103E400072B6FEE7002020600126FFF795FA3046A3
:103E500001B0F0BDF0B587B01F4604AB07C39000BA
:103E6000FFF734F90025EC4300281CD006460397E1
:103E70006420FFF72BF9002812D007460D980C9903
:103E80006122BD543E6300910190029704AA07CAC3
:103E9000039BFEF707FF3846FEF7FCFD012402E016
:103EA0003046FFF777FA204607B0F0BDF0B587B08F
:103EB0000D9D002D1BD00E9C002C1AD0642605965B
:103EC000059E642E17D10C9E0496059F612702263D
:103ED000E6552563029406AD0195049D0095FEF715
:103EE000E1FE2046FEF7D6FD069807B0F0BD72B69B
:103EF000FEE772B6FEE772B6FEE70000054800680E
:103F0000002805D0B548006841424141480070474B
:103F100001207047641620203F4800687047C04663
:103F2000F0B583B0AD480068002806D0B4480168F9
:103F3000491C0160002003B0F0BD374801684C1CEB
:103F400004601BD3AC4801680968002901D072B62F
:103F5000FEE70168314A13680360116030490A685E
:103F6000521C0A6001680968002903D00068C06813
:103F7000006801E00020C043A04908609F4908682C
:103F8000844201D200203FE00023DA439A4E306899
:103F9000006800282FD001920020029003E03068D2
:103FA000006800282CD03068C068C76878688442F0
:103FB00023D33D1D2846FFF772F9B86A002803D0C5
:103FC00038461830FFF76BF9F86A87490968884264
:103FD00001D9854908601421414384484018294685
:103FE000FFF7B5F9F86A82490968C96A8842D6D3E9
:103FF00001200290D3E7029304E002467F4901E0EA
:104000007E49019A0A6002987A490968002992D08B
:10401000012003B0F0BDC046981620209C0320204C
:1040200040162020B0B501460020002926D0704A55
:104030001268914201D072B6FEE7CA6C002A1ED007
:10404000521ECA641AD18A6CCB6A934216D00C1DD8
:104050000D462046FFF723F9A86CE8620A21091AE9
:10406000A96161490A68904200D90860142141435E
:104070005E4840182146FFF76AF90120B0BD72B6CC
:10408000FEE7C046B0B5C068C568002D0DD02C460F
:1040900018342046FFF703F950480068002806D07E
:1040A00050482146FFF753F91FE072B6FEE72C1D7A
:1040B0002046FFF7F4F8E86A4B490A68904200D9B5
:1040C000086014214143494840182146FFF73FF951
:1040D000494801680968002903D00068C068006881
:1040E00001E00020C04345490860E86A404909688A
:1040F000C96A884203D93F4901200860B0BD002049
:10410000B0BDC046F0B581B0344C206800280DD059
:10411000FFF728F92068401E20602068002700284B
:1041200006D0FFF729F9384601B0F0BD72B6FEE7B8
:104130002B4800680028F4D02A4E3068002833D07D
:104140000097294F02E0306800281FD0F068C4684B
:1041500020461830FFF7A3F8251D2846FFF79FF8E3
:10416000E06A3968884200D93860142141431F4809
:1041700040182946FFF7EBF8E06A1D490968C96A4B
:104180008842E0D301201B490860DCE71A48016837
:104190000968002903D00068C068006801E00020B9
:1041A000C043009F15490860154C2568002D0CD0B0
:1041B000104E01E06D1E06D0FFF7B2FE0028F9D0C8
:1041C00001203060F6E7002020600A4800680028DF
:1041D000A7D0FFF70DFA0127A3E7C046041120205E
:1041E000FC102020501620200C112020A403202099
:1041F0008C032020A4162020940320203C1620208D
:104200004C16202070B586B0FFF7ACF81D4E306814
:10421000002814D11C4C2046FFF76EF81B4D284691
:10422000FFF76AF81A4805601A48046000200090F9
:1042300014200C21184A194BFFF7CAFB3060FFF716
:104240009BF8306800281AD000240594049405A82F
:1042500004A903AAFFF740F8039A049805990523D7
:104260000093019002910E480EA12346FFF71EFE17
:104270000E490860002802D0012006B070BD72B659
:10428000FEE7C0469C162020D8152020EC152020E3
:10429000A003202090032020480220203803202063
:1042A000552E0000546D722053766300A016202016
:1042B00043088B421AD3002203098B4279D3030AA5
:1042C0008B425ED3030B8B4242D3030C8B4227D32A
:1042D0000902FF2212BA030C8B4202D31212090206
:1042E00003D0030B8B4233D31AE0D3E0411A804151
:1042F000401C704703460B4371D443088B42F5D3EF
:10430000002203098B4254D3030A8B4239D3030B97
:104310008B421DD3030C8B4202D394466EE0090AF4
:10432000C30B8B4201D3CB03C01A5241830B8B4288
:1043300001D38B03C01A5241430B8B4201D34B0371
:10434000C01A5241030B8B4201D30B03C01A5241D6
:10435000C30A8B4201D3CB02C01A5241830A8B425B
:1043600001D38B02C01A5241430A8B4201D34B0244
:10437000C01A5241030A8B4201D30B02C01A5241A8
:10438000CDD2C3098B4201D3CB01C01A524183095C
:104390008B4201D38B01C01A524143098B4201D396
:1043A0004B01C01A524103098B4201D30B01C01AC1
:1043B0005241C3088B4201D3CB00C01A524183083B
:1043C0008B4201D38B00C01A524143088B4201D368
:1043D0004B00C01A5241411A524110007047CA0F97
:1043E00000D04942031000D34042534000229C4673
:1043F00003098B422DD3030A8B4212D38901FC227D
:1044000012BA030A8B420CD3890192118B4208D352
:10441000890192118B4204D3890137D0921100E0B7
:104420008909C3098B4201D3CB01C01A52418309C8
:104430008B4201D38B01C01A524143098B4201D3F5
:104440004B01C01A524103098B4201D30B01C01A20
:104450005241C3088B4201D3CB00C01A524183089A
:104460008B4201D38B00C01A5241D9D243088B42F0
:1044700001D34B00C01A5241411A00D201465241A9
:10448000104663465B1000D34042704763465B10A2
:1044900000D3404201B50021004201D0C943084683
:1044A000C046C04602BDF8B5040C8BB2264682B2A7
:1044B0005E43104658430D0C370C3604002180191A
:1044C000164679416E43370C3604801926467941E9
:1044D0006E438919F8BD00004900CA02024310006A
:1044E00000D004204A0D01D001221043044A490D96
:1044F000914201D102210843012800D105207047D3
:10450000FF07000030380A2801D201207047002040
:104510007047000010B500290AD00878002807D09D
:1045200005487844FDF752FB002801D0002010BD5B
:104530000248784410BD0000FE010000F6010000B2
:1045400010B500290AD00878002807D0054878441B
:10455000FDF73CFB002801D0002010BD0248784444
:1045600010BD0000EE010000E601000003B40248A7
:104570007844844603BC60474DC5FFFF03B402483E
:104580007844844603BC60478DCBFFFF04000008DD
:104590000000000000000002000100001000000008
:1045A000000000000000000030313233343536376F
:1045B0003839414243444546403058003031323367
:1045C0003435363738396162636465664030780067
:1045D0003031323334353637383961626364656679
:1045E0007870003031323334353637383941424310
:1045F000444546585000000002400000000000A062
:104600000000000005400000000000C8000000009D
:104610000C4000000000409C000000001940000019
:104620000020BCBE0000000034400000BFC91B8E4B
:1046300000000004B5400000504BCFD06607E2CF29
:10464000010000006C4100003E8251AADFEEA73459
:1046500001000000D9420000DCB5A0E23A301F970B
:10466000FFFFFFFFB4450000FD25A0C8E9A3C14F2F
:10467000FFFFFFFFFF3F0000000000800000000080
:10468000FF3F000000000080000000000800080755
:1046900000000000B80B0000200101000807000026
:1046A000B80B000020000100080004000003000017
:1046B0000710000008076200000000000000000072
:1046C00000000000000000000000000008000000E2
:1046D0001800000000300000656E636F6465725F53
:1046E0007072696E745F7461736B0025732025733B
:1046F0000D0A005B494E464F5D00000009000000B6
:104700005048000000002020200000002001000090
:10471000704800002000202088360000480100007A
:104720001C00000043000000F8FFFFFF0C00000029
:104730000E0000000F0000002E000000100100001D
:1047400043000000F8FFFFFF004040404040404071
:104750004040414141414140404040404040404054
:1047600040404040404040404005020202020202F8
:104770000202020202020202022020202020202047
:10478000202020020202020202029090909090905B
:104790001010101010101010101010101010101019
:1047A000101010100202020202028888888888888D
:1047B0000808080808080808080808080808080879
:1047C0000808080802020202400000000000000081
:1047D00000000000000000000000000000000000D9
:1047E00000000000000000000000000000000000C9
:1047F00000000000000000000000000000000000B9
:1048000000000000000000000000000000000000A8
:104810000000000000000000000000000000000098
:104820000000000000000000000000000000000088
:104830000000000000000000000000000000000078
:104840000000000000000000000000000000000068
:104850006C042020020000000000000000000000A6
:104860000000000000000000AAAAAAAA00000000A0
:04000005000000C136
:00000001FF
