:020000040000FA
:1000000038172020C1020000C5020000C70200000E
:1000100000000000000000000000000000000000E0
:10002000000000000000000000000000892900001E
:100030000000000000000000F1280000FD2D00007D
:10004000CF02000039240000CF020000CF020000E0
:10005000CF020000CF020000CF020000CF0200005C
:1000600000000000CF020000CF02000000000000EE
:1000700000000000CF020000CF020000CF0200000D
:10008000CF020000CF020000CF020000CF0200002C
:10009000CF020000CF0200000000000000000000BE
:1000A000CF020000CF0200000000000000000000AE
:1000B000CF02000000000000CF020000CF020000CD
:1000C00000F002F800F0D1F812A030C80838241867
:1000D0002D18AC4201D100F0C8F80FCCA246AB46B7
:1000E0000CA730CF2D1B083F3F197C427F1E544484
:1000F0002D090426F441641EAC4201D300F0B5F88A
:100100000126334200D0FB1A3343984754465D46DC
:10011000DFE70000AC5C0000CC5C000000000000E9
:10012000103A02D378C878C1FAD8520701D330C840
:1001300030C101D504680C60704700000000000069
:100140007047000000000000002300240025002666
:10015000103A01D378C1FBD8520700D330C100D583
:100160000B60704710B56E2902D100F029FC10BD5C
:10017000702902D100F065FD10BD662902D105F09D
:100180001BF910BD652902D105F016F910BD6729CC
:1001900002D105F011F910BD612902D105F014F961
:1001A00010BD03681B0A01D380231943692902D1BA
:1001B00000F0D0FB10BD642902D100F0CBFB10BDD4
:1001C000752902D100F0C6FB10BD6F2902D100F0E5
:1001D000E3FC10BD782902D100F020FD10BDE92913
:1001E00002D100F07FFC10BDE42902D100F07AFCBE
:1001F00010BDF52902D100F075FC10BDEF2902D128
:1002000000F0D6FC10BDF82902D100F015FD10BD9C
:100210000368DB0901D380231943632902D101F06C
:1002200018FA10BD732902D101F01BFA10BDE329A1
:1002300002D101F025FA10BDF32902D101F028FA0C
:1002400010BD002010BD1FB501F0B6FA040000205B
:10025000002104F041FF401C60600020002104F0F8
:1002600025FFE0601FBD10B510BD01F07DFA1146FD
:10027000FFF7E9FF02F022FE01F012FE03B4FFF7E0
:10028000F2FF03BC01F0C0FE70B505460C461646F1
:1002900002E00FCC0FC5103E102EFAD2082E02D36A
:1002A00003CC03C5083E042E07D301CC01C5361F7D
:1002B00003E021782970641C6D1C761EF9D270BD94
:1002C00006480047FEE7FEE7FEE7FEE7FEE7FEE73B
:1002D00003480449024A044B70470000C100000073
:1002E0003816202038172020381620204343514349
:1002F00030B55C18010C130C0D4692B25D4380B210
:1003000051432C19054655430A0C09044D19624105
:100310005843010C00044019514130BD7CB51D46C5
:1003200016460C00009007D04142A14202D30019AA
:10033000401E01E00020C043064B7B442A4669462C
:100340000190304600F055FB002C02D0009A0021AD
:1003500011707CBDDB06000030B5441C03E0017861
:10036000401C00290DD08107F9D10B4BDD0104C8D9
:10037000D11A91432940FAD0001B0A0603D0C01EAF
:1003800030BD001B30BD0A0401D0801E30BD090203
:10039000FCD0401E30BD000001010101F8B5042A67
:1003A0002CD3830712D00B78491C0370401C521EBB
:1003B00083070BD00B78491C0370401C521E830727
:1003C00004D00B78491C0370401C521E8B079B0FF6
:1003D00005D0C91ADF002023DE1B08C90AE0FFF799
:1003E00053FFF8BD1D4608C9FD401C46B4402C43D0
:1003F00010C0121F042AF5D2F308C91A521EF0D4F5
:100400000B78491C0370401C521EEAD40B78491C1F
:100410000370401C012AE4D409780170F8BDD2B2FF
:1004200010B513029A1813049A1800F0DBFC10BDE3
:10043000002203098B4273D3030A8B4258D3030B68
:100440008B423CD3030C8B4221D312E003460B4377
:100450007FD4002243088B4274D303098B425FD3BD
:10046000030A8B4244D3030B8B4228D3030C8B42E9
:100470000DD30902FF2212BA030C8B4202D31212CF
:10048000090265D0030B8B4219D300E0090AC30BA4
:100490008B4201D3CB03C01A5241830B8B4201D351
:1004A0008B03C01A5241430B8B4201D34B03C01A3A
:1004B0005241030B8B4201D30B03C01A5241C30AB2
:1004C0008B4201D3CB02C01A5241830A8B4201D323
:1004D0008B02C01A5241430A8B4201D34B02C01A0D
:1004E0005241030A8B4201D30B02C01A5241CDD2B2
:1004F000C3098B4201D3CB01C01A524183098B42FD
:1005000001D38B01C01A524143098B4201D34B01E5
:10051000C01A524103098B4201D30B01C01A524148
:10052000C3088B4201D3CB00C01A524183088B42CF
:1005300001D38B00C01A524143088B4201D34B00B8
:10054000C01A5241411A00D201465241104670472A
:100550005DE0CA0F00D04942031000D3404253402F
:100560009C46002203098B422DD3030A8B4212D3EF
:100570008901FC2212BA030A8B420CD38901921121
:100580008B4208D3890192118B4204D389013AD05E
:10059000921100E08909C3098B4201D3CB01C01A33
:1005A000524183098B4201D38B01C01A5241430946
:1005B0008B4201D34B01C01A524103098B4201D334
:1005C0000B01C01A5241C3088B4201D3CB00C01AA1
:1005D000524183088B4201D38B00C01A5241D9D2B9
:1005E00043088B4201D34B00C01A5241411A00D23A
:1005F00001465241104663465B1001D34042002B36
:1006000000D54942704763465B1000D3404201B5B4
:100610000449002802DC491C084000E00846C046A6
:10062000C04602BDFFFFFF7F704770477047000064
:100630000121C9050123411842001B06D3185B0E96
:100640000AD0C1100722D206891840075242D1426F
:1006500001D5520089187047090208D50146002AC1
:1006600003D0C10FC90700207047104670474202EF
:1006700002D0002002497047072109050143F4E731
:100680000000F87FF0B5FF252D04C609C209FF2739
:1006900004462E400137CB093E4348402A402B40B8
:1006A0000746002A6BD0002B69D0AA4267D0AB4224
:1006B00065D0002800DA32460125ED0529432C4398
:1006C00009022002090AD21A4B0C7F24E31A434C78
:1006D000000A7C44E35C7D242404121914145B009A
:1006E000A218884201D3521C00E0400049420C4647
:1006F0005C4324115C43DB016415E318040A5C438A
:10070000C502200D0C4644436419250A5D432303AA
:10071000EC0C0D46654300030019EB184C42A34254
:1007200001D35B18401CD4052018002B07D05B00B8
:10073000C91804D3401C002901D1400840003F21C2
:1007400089048A4209D3002A08DC1106090F04D063
:10075000032149074018C00FC007F0BD0122410026
:10076000120689187F2252069142F6D205214907C6
:10077000C84201D59010F0BDFF20C005F0BD002F8C
:1007800000DA32461648AA4207D2AB4205D2190215
:10079000090E17D0F80FC007F0BDFF2563002D0626
:1007A000AB42F9D84900A942F6D8AB4201D1A942DF
:1007B000F2D0A94201D1002101E061004908D00531
:1007C0000843F0BD1102090EFBD0FF200243D00503
:1007D000F0BD0A460146104654E70000024D0000F5
:1007E0000000C07F10B501469E240002CA15A30771
:1007F000002A02D01843002A04DBA21A002A0CDDCA
:10080000D04010BD1206120E01D140004008A21ABD
:1008100003D4D04040420028F3DDFF2248001206F6
:10082000904201D9002010BDC817C043584010BDE8
:100830001F22030C02D10F2200041CD0030E01D191
:100840000002083A030F01D10001121F830F01D1EA
:100850008000921E002801DB4000521ED205511874
:10086000021251181922904004D3491C002801D1CA
:100870004908490008467047C10FC90700D04042E7
:10088000012292071143D3E701218907D0E770B510
:10089000044685690068C10601D5302600E020269F
:1008A000C00707D070BD62683046A1689047206AD3
:1008B000401C20626D1EF6D570BD70B5044685697A
:1008C0000078C00707D170BD6268A16820209047FA
:1008D000206A401C20626D1EF6D570BD09684A056D
:1008E00001D540B27047C905FCD500B27047096810
:1008F0004A0501D5C0B27047C905FCD580B2704722
:1009000070B50C460546012A05D02878800600D52A
:10091000EA69002302E0012305E05B1C934202D256
:10092000E05C0028F9D1A869E618C01AA861286A15
:10093000C01828622846FFF7AAFF04E06A682078FA
:10094000A968641C9047B442F8D32846FFF7B5FF66
:1009500070BD0000F7B5002575291068009914A630
:1009600011D0FFF7BBFF002802DA404211A608E0D1
:10097000009909688A0701D50FA602E0490704D546
:100980000EA6012501E0FFF7B2FF009F00242437E7
:1009900004E000F0A2FE30313955641C0028F8D183
:1009A0002B4632462146009800F079FAFEBD000041
:1009B000000000002D0000002B00000020000000BF
:1009C00011680268006A530501D5087009E0D30573
:1009D00001D5088005E0130602D5C21705C100E065
:1009E000086001207047000001694A1C0261087814
:1009F000704700B58FB00291002105910549019320
:100A00007944039111460490684600F027F90FB02D
:100A100000BD0000E5FFFFFF0CC908399A4202D271
:100A2000531C0B6010707047F7B50446154686B02E
:100A30002B487844002703C83E460090019111E0FE
:100A400007986A467100415A02A800F025FE411C31
:100A500007D02178890603D5E269391891420ED86A
:100A60003F18761C2078800602D5E069B84206DD82
:100A7000AE42E5DB07987100405A0028E0D1A0693A
:100A8000C01BA0612046FFF702FF154878445A3882
:100A900003C800900020019116E041006A460798C3
:100AA000415A02A800F0F8FD0590401C0AD000252C
:100AB00005E0626802A8A168405D90476D1C05983A
:100AC0008542F6D30498401CB0420490E5DB206ACE
:100AD000C01920622046FFF7F0FE09B0F0BD00000B
:100AE000E2490000F7B5D21D0025D20815A6D200B4
:100AF000F52905CA11D0002A05DA002140429141AA
:100B000011A60A4608E0009909688B0701D50FA6CF
:100B100002E0490701D50EA601251146009F0024D9
:100B2000243704E000F07EF930323A55641C024666
:100B30000A43F7D12B4632462146009800F0AFF920
:100B4000FEBD0000000000002D0000002B00000092
:100B50002000000070B504460021243408E0550749
:100B6000D2086D0F303565545D072A43DB08491CF8
:100B700015461D43F3D10468002310A2250708D5AC
:100B800020252C400C4304D0C46901230CA2641E10
:100B9000C46100F084F970BD10B5044621461068A8
:100BA000FFF7A5FE002302462046FFF7D3FF10BD46
:100BB000D21DD108C9000CC9CCE70000000000001C
:100BC00030000000F8B50F460188090502D5224C17
:100BD0007C4402E0204C7C440E3405460021243540
:100BE00008E016071209360FA65D6E541E07324341
:100BF0001B09491C16461E43F3D1224604780023E4
:100C0000240705D5702F06D0002901D00223113208
:100C100000F045F9F8BD01231032F9E770B504463C
:100C20000D4621461068FFF762FE00230246294662
:100C30002046FFF7C7FF70BDD21DD308DB000CCBE9
:100C4000C0E730B4036820241268234303600823FC
:100C5000C36130BC0023B5E74C480000F3B504463F
:100C6000002081B020622046E1688847002872D0C9
:100C7000252802D06268A168ABE0594F00267F4466
:100C80002046E16888472028054608DB312D06D23A
:100C9000781920380078002801D00643F0E7B00723
:100CA00001D5042086430020E0610746A0612A2D7B
:100CB0000AD0284604F0F2F9002827D0B80000191D
:100CC000303D0090856119E00298BA00121902C8FF
:100CD000916102902046E1688847012F054617D1AF
:100CE000E06900281FDA202086431CE000980A21D2
:100CF0008069484300994019303888612046E1688E
:100D00008847054604F0CAF90028EFD1012F0AD020
:100D10002E2D08D12046E16888470546202006434D
:100D20007F1C022FC3DBA069002803DA4042A061C8
:100D300001200643F00701D0102086436C2D0BD014
:100D4000682D09D04C2D3CD06A2D38D0742D38D068
:100D50007A2D36D016E040E0E1682F4620468847DD
:100D6000B842054609D16C2F29D001208002E168E4
:100D7000064320468847054604E06C2F1DD0FF201F
:100D800001300643002D28D028464138192803D8C1
:100D90000120C00206432035204626602946029ADB
:100DA0001646FFF7DFF9002810D001280BD0F61DFA
:100DB000F008C0000830029055E74020E1E78020AD
:100DC000D5E70020D3E7361D02964CE76268284637
:100DD000A1689047206A401C44E7206AFEBD0000DD
:100DE000C647000001E004C0091F0429FBD28B079D
:100DF00001D50280801CC90700D00270704700290D
:100E00000BD0C30702D00270401C491E022904D334
:100E1000830702D50280801C891EE3E70022EEE7EB
:100E20000022DFE70B4670B50246890780080843B9
:100E300019469D08141AA941250908070543080900
:100E40002C194841250A01060D43010A2C1941417C
:100E5000200C0D0428430D0C00194D4100214019B0
:100E60004D41C00869070843E908840F8D002543F8
:100E7000840024184D4124196D41121BAB4107E039
:100E80000925ED432C11521963410024401C614196
:100E90001C460A250026551BB441F1D270BDFFB592
:100EA00004460D4681B0243000902168880604D5A0
:100EB0001022E0699143216000E00120A84201DD99
:100EC000471B00E000270498A1697A191018081A36
:100ED000A0612078C00602D42046FFF7D8FC002687
:100EE00008E003986268A168805D9047206A401C12
:100EF000761C206204988642F3DB2078C0060AD56F
:100F00002046FFF7C4FC06E06268A16830209047E5
:100F1000206A401C206238467F1E0028F4DC07E06F
:100F200000986268A168405D9047206A401C20627A
:100F300028466D1E0028F3DC2046FFF7BEFC207813
:100F4000000602D5022005B0F0BD0120FBE700003D
:100F5000FFB50C461E468FB003CA089009914F009A
:100F60007D0D00D16D1E002108460020C0460321E2
:100F7000099A89050840002A03DA8200801840088F
:100F80000840800D01280A9002DD0020C0430A902D
:100F9000089807430DD0F048F04928184843071433
:100FA000189800281DD07542291E1DDD0A9842425E
:100FB0001BE01898012802D00020302104E0002016
:100FC000F24305E02154401CB042FBDB30460022D6
:100FD000189B002121540F998B600A60486013B060
:100FE000F0BDBD1B6D1CDFE70A9A002900DA6942DB
:100FF0000BA800F029FC0BAB07CB03AB07C3089988
:10100000099800F08DFC6B4607C30146D4480918C7
:10101000002D00910BDDD24903980A9A49424018ED
:10102000002303A90390684600F0EAFE08E0039954
:101030000A9A0023081803A90390684600F08AFE64
:101040006B4607C30004000C03D00020C0434108D6
:1010500000E01046189A002A03D00022009215469C
:101060001EE0751E05D4FFF7DDFE303262556D1EA1
:10107000F9D501220843079602D000227F1C04E024
:101080002078302801D100227F1E002A069787D0C1
:101090001EE0112D07DAFFF7C5FE303262556D1CD8
:1010A00002460A43F5D1084303D00098002819D01E
:1010B0000EE00021681E05E0235C625C635422544C
:1010C000401E491C8142F7DBA81B401E0795069075
:1010D000079A18990020A0540F98079B069A8160E0
:1010E0000CC07CE711260020189059E7D21DF0B5FE
:1010F0000D460446D10893B0C90003C90C900D9168
:1011000003F0A0FF02460D98C00F01D02D2007E08C
:101110002068810701D52B2002E04007C00F400165
:10112000032A0F9001D0072A05DB034629462046F3
:1011300000F046FB0EE12078800601D5E76900E06B
:1011400006272846652D04D0662814D0672D69D15E
:101150002DE00020112F009001DB112300E07B1C0B
:101160000CAA03A910A8FFF7F3FE11990026109806
:101170007D1C0E9142E001203B460CAAC0070B905B
:101180000120009003A910A8FFF7E2FE119D12981C
:101190001099002600280E9501D1781C0D18781B97
:1011A00002D446427D1C761EE81B00903AE0012FD7
:1011B00000DA01270020112F009001DD112300E04B
:1011C0003B460CAA03A910A8FFF7C2FE11993D46A1
:1011D000109800260E91217809070BD40E99A94288
:1011E00000DA0D4603A9012D04DD4A19203AD27F09
:1011F000302A06D0B84201DA011D04DA012100913B
:101200000FE06D1EEFE7002802DC86192D1A03E0BF
:10121000411CA94200DD0D46801B401C00900120AE
:10122000C0070B902078000705D40098A84202DB85
:101230000020C043009069460020C8720B9801212D
:1012400002AF0337C907884225D0022010902B2017
:1012500011900B9800280BDA40420B902D20119032
:1012600006E00B9800F039FA30317F1E0B90397090
:101270001099481E00291090F3DC0B980028F0D13B
:1012800011987F1E38702088000501D5452000E0A8
:1012900065207F1E387001A8C01BC01D0B900F98E1
:1012A000002800D0012041190098C01709180B9898
:1012B0000818A169081A401EA0612078C00602D44F
:1012C0002046FFF7E4FA0F98002805D06268A1686D
:1012D0009047206A401C20622078C00625D5204611
:1012E000FFF7D5FA21E0002E07DB0E98B04204DDAF
:1012F00003A86268805DA16802E06268A16830208E
:101300009047206A761C401C20620098401E0028EE
:1013100000900AD100F050FAC06862680168405C31
:10132000A1689047206A401C206228466D1E002854
:10133000D9DC07E062683878A1687F1C9047206A92
:10134000401C20620B99481E00290B90F2DC2046BD
:10135000FFF7B3FA032042E601FCFFFF104D000047
:10136000E1DFFFFFD21DF0B504460D46D0088DB079
:10137000C000466807683146384603F063FE0246FF
:10138000F00F01D02D2307E02068810701D52B2322
:1013900002E04007C00F43016846002B037001D0F4
:1013A000012000E00020032A0A9001D0072A04DB74
:1013B0002946204600F004FA2DE12078800601D469
:1013C0000D2500E0E5697000400D0D2D01904BDA10
:1013D000300D00210B9008460020C04603218905EE
:1013E0000840002E05DA82008018C20F1018401045
:1013F00008408015012801DD0020C043A90000231A
:10140000182906D39C460A460123183A1B07D340E5
:1014100003E001221205CA4094460C31202902D370
:101420003A46203900E032468A40002802DD002A90
:1014300006D119E0002817D10121C9078A4213D328
:10144000194663467F185E41002806D10120C00777
:10145000824202D1084687439E430B98310D814258
:1014600002D00198401C01902088000502D57149E6
:10147000794402E06F49794419396B460A98302261
:101480001A540A980A7C401C1A54401C0A9001986D
:10149000002801DC302000E031201872019A012080
:1014A000002A02D0644BD21804E072003A4302D002
:1014B000614A521C0192002D02DC2278120703D5EA
:1014C0006A462E20507202200022864694460CE086
:1014D00032033601120F6D1E8B5C02AA1354624652
:1014E000521C401C9446052A01DA002DF0DC002233
:1014F00002AE08E03B0F3F01CB5C521C6D1E335423
:10150000401C082A01DA002DF4DC23689A0601D574
:1015100011E0401E704504DD3218203AD27F302A97
:10152000F7D0002807DD3218203AD27F2E2A02D1C8
:101530001A0700D4401E002D03DD3E223254401C09
:101540006D1E497C31540199401C002906DA2D2179
:10155000471C315401984042019003E02B21471C65
:10156000315401987D21C900884206DBFEF76EFFE9
:101570003030F0557F1C019101E0642808DB0198B0
:101580006421FEF763FF3030F0557F1C019101E0CC
:101590000A2806DB01980A21FEF758FF3030F05583
:1015A0007F1C01980A21FEF751FF3031F1550A984E
:1015B000A1697F1C7A191018081AA0612078C0064A
:1015C00002D42046FFF763F9216A6E460A9808188C
:1015D000206204E062683078A168761C90470A981F
:1015E000401E0A90401CF5D12078C00602D5204646
:1015F000FFF74DF902AE09E03078761C3E280DD099
:101600006268A1689047206A401C20627F1EF3D266
:101610002046FFF752F90DB00320F0BD206A4019B3
:10162000206203E06268A168302090476D1EEDD310
:10163000F8E70000F83F000001FCFFFF10B5436928
:10164000002B02D0C046C04601E0FFF759F9012047
:1016500010BD1278014624310A7000224A7001221E
:10166000ECE711680022D243E8E710B54369002B8C
:1016700002D0C046C04601E0FFF7D6F9012010BDF8
:1016800012880146243182840022C2840122ECE7C0
:1016900011680022D243E8E7F8B516460C46054625
:1016A00000F082F80368FF200230C05C012807D0F8
:1016B000FF2C0FD8185D00280CD001202C70F8BD2D
:1016C000FF333246214608331868C71828460023DE
:1016D000B847F8BD0020C043F8BD01468008081A8D
:1016E00002091018020A1018020C1018C008820013
:1016F00012185200891A01E0401C0A390A29FBD24B
:101700007047000010B5FF231B0644009C421DD803
:101710004C009C421AD80346124A0B4307D4401A85
:1017200002D3EFF3008010BDEFF3008010BD081A64
:1017300003D3EFF30080904305E0EFF30080012135
:101740009043C907084380F3008810BD0D231B0494
:101750001A4204D01146002000F0AAFB10BD00F090
:10176000BFFB10BD00000090754600F0C1FBAE4607
:10177000050069465346C008C000854618B020B52C
:10178000FEF7A6FD60BCB64600260027C0C5C0C552
:10179000C0C5C0C5C0C5C0C5C0C5C0C5403D49085D
:1017A00049008D467047000010B500F005F8001D97
:1017B00010BD00BF25390000004870476800202098
:1017C000F8B51F46044601230068DB0203260146E4
:1017D0001840072A05DB002801D017A506E017A549
:1017E00004E0002801D016A500E016A510208143D2
:1017F0002160A069C01E002FA06101D0401EA06121
:101800002046FFF744F8002F09D038466268A168E7
:101810009047206A401C2062C01C206206E0206ABB
:10182000FAE762682878A1686D1C9047761EF8D2A6
:101830002046FFF742F8F8BD4E414E006E616E0043
:10184000494E4600696E6600F7B516468AB03348C1
:1018500078446C4603467C33C06F5A689B680DC45D
:101860002E487844763003AC0DC80DC43720C00133
:10187000081837211B30FEF7E9FD05460C46803D70
:101880001B3C02D56442012000E0002000270990A3
:1018900010E0E0070CD00C20204978437944324610
:1018A0004C3941186846012300F054FA6B4607C3CF
:1018B00064107F1C002CECD1184F7F442E3F16E0A3
:1018C000E80712D02001C0190EC8069108930792AC
:1018D0000068F04201D1981908903246012306A908
:1018E00003A800F037FA03AB07C36D10641C002D8A
:1018F000E6D10998002806D032466946012303A89C
:1019000000F07EFA05E001233246694603A800F0A4
:1019100021FA0A9B07C30DB0F0BD00002C3C00006B
:10192000034640000A4610B5400D0BD00121C907FF
:101930000F24A40200191C0364082143540D214301
:10194000D20207E000210120F2E7D40F4900214331
:101950005200401E0029F8DADB0FDB07184310BDE8
:10196000FFB50D46144685B04868516803F051FB39
:1019700000910190A868A16803F04BFB02910390CD
:10198000A868616803F045FB029A1218824202922D
:1019900001D2012000E00020019A0B18D218002883
:1019A000019202D08A4202D903E08A4201D2012088
:1019B00000E000200099081800906868A16803F012
:1019C00028FB029A12188242029201D2012000E002
:1019D0000020019A0B18D2180028019202D08A42E6
:1019E00002D903E08A4201D2012000E000200099E0
:1019F00008180090286821684000490040084908FC
:101A00004018FA49471814E001994000C90F0843EB
:101A10000090019802994000C90F08430190029874
:101A200003994000C90F08430290039840007F1EAD
:101A3000039000980028E7DA0898002801D0EC4EBF
:101A400000E00026B74201DA012000E00020002873
:101A500004902AD0F71BF806C00E15D0029B202157
:101A6000091A039A8B401A430392029A019BC240BF
:101A70008B401A430292019A009BC2408B4000990E
:101A80001A430192C14000917B110DD06F46032093
:101A9000C11A03D500218200B95003E08A008100F9
:101AA000BA587A50401EF3D5374603980299002859
:101AB00000D00120014308980291002808460CD06C
:101AC000002800D001200199019A4905084301210D
:101AD000D20AC902D202019200E001210E9B01222A
:101AE000D207012B02D0002B03D013E0002807D12E
:101AF00020E0904204D890420CD1019B0B4209D0C7
:101B0000019B5918019105D10099491C009101D1FF
:101B10007F1C009200280DD0102108460020C046EE
:101B20000498002806D00F98002803D00821084602
:101B30000020C04628682168019B009A4840C10FD8
:101B40000598C90739430EC009B0F0BDFFB587B08D
:101B5000099A089808995368926840688968964677
:101B60000022039317469446089A12685300099A74
:101B70005B081268520052089A1A9E4BD4180A9AAF
:101B8000002A01D0352200E04022069200220123E3
:101B900015460492DB07059324E0002D05D1754618
:101BA0000346039E4D1BB34109D375466646039B0E
:101BB000491B049D9841059B7519AC465F416346DE
:101BC0003B4308D0059B049EDD0776082E435B0847
:101BD0000496059301E0521E641EC50FED074918D7
:101BE0004041521C069B9A42D7DB002D04D175461A
:101BF000039A6B1A824101D203200CE0039A0B4630
:101C00006B404240134303D0014303D0012002E064
:101C1000022000E00020614601910021009702911E
:101C20000A99002905D0614640020143704B019199
:101C300002E08007002302909C4201DA012000E0CC
:101C4000002007003AD01A1BD006C00E15D0029D06
:101C50002021019C091AC5408C402543029C8C40E0
:101C600000D001242543019C0295009DC4408D4075
:101C700000992C430194C140009154111DD06D4630
:101C80000221002202290CD10320001B07E00028BA
:101C900004DB8600AE59002E00D00122401C032830
:101CA000F5DB081B02D588002A5004E08000285884
:101CB00010438A00A850491EE3D51C460A98002804
:101CC00002980CD0002800D001200199019A490502
:101CD00008430121D20AC902D202019200E0012187
:101CE000109B0122D207012B02D0002B03D013E05E
:101CF000002807D11FE0904204D890420CD1019BEC
:101D00000B4209D0019B5918019105D10099491C3A
:101D1000009101D1641C009200280CD010210846CB
:101D20000020C046002F06D01198002803D00821BB
:101D300008460020C04608980999019A009B00684F
:101D400009684840C10F0798C907214382600AC04B
:101D50000BB0F0BD00B585B0019300920A46014674
:101D6000002302A8FFF7FCFD02A807C805B000BDCC
:101D7000FFB50A461F4685B00799019301230091DC
:101D8000014602A8FFF7ECFD02990398049ECA0FD2
:101D90004900D20700920F22490892028C1A0021B2
:101DA000002800DB0C46450013486D08844214D31C
:101DB000079A002A04DA441E0026104DF64302E07A
:101DC00004460D460E46102108460020C046002F4E
:101DD00003D0042108460020C0462005E90A084334
:101DE000009908436905F20A1143ADE602C0FFFFFE
:101DF000013C0000FF3F0000FF070000FFFFFF7FE6
:101E000000B585B0019300920A460146002302A85E
:101E1000FFF79CFE02A807C8A8E7FFB50A461F46C1
:101E200085B00799019301230091014602A8FFF7AD
:101E30008DFE02990398049ECA0F4900D2070092B2
:101E40000F22490892028C1A0021002800DB0C4660
:101E5000450011486D08844214D3079A002A04DA19
:101E6000441E00260D4DF64302E004460D460E4684
:101E7000102108460020C046002F03D00421084648
:101E80000020C0462005E90A084300990843690577
:101E9000F20A114358E60000FF070000FFFFFF7F32
:101EA00010B50446C046C0462046FEF7E7F910BD0F
:101EB000C80212D54803400F002804D0C803C0430D
:101EC000012188407047EFF30080000100090321E1
:101ED0000907084380F3008870470020704700001E
:101EE00010B5024800F060F810BD00000000C07F8F
:101EF000004870474800202082078B079A423FD154
:101F000070B5920F0AD0032402780B78401C491C4C
:101F1000002A33D09A4231D12042F5D1214EF4012A
:101F200004C808C9951B9543254018D19A420FD182
:101F300004C808C9951B9543254010D19A4207D182
:101F400004C808C9951B9543254008D19A42E7D09B
:101F500012BA1BBA01209A4200D2404270BD12BA96
:101F60001BBA2DBA18241000E0401900E140401AB5
:101F700005D12E00E64002D1083CF4D1D01A70BD44
:101F800002780B78401C491C002A09D09A4207D1DC
:101F900002780B78401C491C002A01D09A42EFD0ED
:101FA000D01A70470101010110B50C461107090F45
:101FB000092904D00A290AD008290CD104E01146C5
:101FC0000820FFF775FF06E0510606D501E051062F
:101FD00001D50120C007214610BDD10607D501015A
:101FE0000909CC084907000E0006044309E0410F27
:101FF00020024907000A0143200E00061D22D1419C
:1020000001430846E7E7000001491820ABBEFEE7A0
:10201000260002007047811E091F00BFFCD27047D6
:10202000B0B51122120283580C4C1C400B894D880C
:102030001D438B792B430A4D1D402B1983508B88F0
:10204000CC791C43097821435D239B0019408018FB
:1020500042689A4389184160B0BDC04680CCFFFFFA
:102060007F33000010B50122120383180C785C60E6
:102070004978815010BD0000F0B57A4A82183B4B78
:10208000C31808794E793A4D784C002E23D0202879
:1020900004D00526F601002803D003E0354E0028C1
:1020A00000D18826576F2F4037435767976F2F40CF
:1020B00037439767566B26405663966B2640966368
:1020C0000026566596658F26F6435F6837405F6049
:1020D0009F6837409F608E79096820280BD00028C0
:1020E00019D1491E5160D76E2F4088210F43D76602
:1020F0001746703719E0491E5160D16E29401D4FB7
:102100003943D166116F29403943116701214907CD
:10211000194D174609E049085160D76E2F40052137
:10212000C9010F43D766174670373C682C400C43F3
:102130003C60D16A4D4C2140D162116B214011634A
:102140000021D16411658F21C943D46F0C40D4673D
:102150001C680C401C600643BD2030401168074BD2
:102160000B40C018801C1060F0BDC04684180000F1
:1021700024493E0001040000FFFFFFCF4000FFCFD5
:10218000B0B54A68364BC250364A80180A78222ABF
:1021900058D8930001A4E3589F46C0463B22000054
:1021A000452200003B22000045220000452200009D
:1021B0004522000045220000452200004522000083
:1021C0004522000045220000452200004522000073
:1021D000452200004522000045220000292200007F
:1021E000452200002922000045220000452200006F
:1021F0004522000045220000452200004522000043
:102200004522000045220000452200004522000032
:10221000452200004522000045220000292200003E
:10222000452200002922000003231B0704689C4369
:1022300001235B07E318036004E003231B07046822
:102240009C4304600B69C360CB68074C1C40C36AA5
:10225000064D1D402B19C362097A11430160B0BDC0
:102260000818000004180000777702008888FDFF36
:1022700010B507239B04194092008018024A845825
:102280009C436118815010BD3018000010B5029CAD
:10229000A400001911431943014A815010BDC046E2
:1022A0005018000092008018014A81507047C046C3
:1022B0001018000010B50122120383180C789C60DE
:1022C0004B7883508978014A815010BD0C11000071
:1022D000B0B51122120283580124A34383500B8806
:1022E0008C781C438B882343094C1C408358094D30
:1022F0001D40631983508B79CC791C43097A2143A3
:102300007E231940801842689A4351184160B0BD3D
:1023100018670000E798FDFF10B50122120383182B
:102320000C789C604978815010BD0000034A8018E9
:1023300002681206FCD481617047C0460811000093
:1023400086B002E0142001F011FC00F0B1FD059010
:1023500000F0AAFD049001241027022500950197A2
:1023600002940020042603900146059A334600F0AB
:102370000DFA0095049D01970294032120462A46F8
:10238000334600F003FA0C4A1068411C11603128F2
:10239000D8DB0598FEF74CF904460E462846FEF7B2
:1023A00047F902460094019604480B4600F0C8F82D
:1023B000014803990160C5E7AC002020735D00006F
:1023C000B0B582B0144802210160144801600120B8
:1023D00001F0C8FD1249086000281AD01148009089
:1023E00011A0142101220024234602F077FC0546A7
:1023F00010480560002D0DD002F0BEFA0246009490
:1024000001212846234602F0DBFC012803D102B05B
:10241000B0BDFEE7FEE7FEE780E200E000E100E09D
:10242000C41520201D2D0000537065656454696D2E
:1024300065720000F4152020F0B583B0344D2846B5
:1024400018380068800760D5324E103E3068C006EC
:1024500031492AD5086840210140304F3970304851
:1024600000680024019401AA214602F0B7F801286F
:102470000ED13878002801D0012000E0E04329493E
:102480000A68801808602648006801A901F0A7FFC3
:102490000198002803D001200007234908601D4A45
:1024A00010681021014311601B493068800628D54F
:1024B000086880210140194F7970194E3068002456
:1024C000029402AA214602F089F801280DD17878F9
:1024D000002801D0E04300E0012014490A68801878
:1024E0000860306802A901F07AFF0298002803D042
:1024F000012000070C490860064A106820210143AA
:102500001160286802210143296003B0F0BDC04674
:102510005811404048300A4080330A40A80020202B
:10252000C41520205002202004ED00E07804202073
:1025300080B5024800F0DCFB80BDC04618002020BA
:1025400083B0B0B5C1B0044645914692479345ABC0
:1025500000930120010201AD28462246FDF7DEFE70
:1025600005480649064A2B4601F000F941B0B0BCC7
:1025700001BC03B00047C04600801040645D00000D
:102580006C5D0000F0B581B00C4606461C488642E2
:10259000354600DC05461B48854200DB0546002722
:1025A000002E394600DA694224483A46FFF77AFE9F
:1025B000002E00DA3D46012220482946FFF772FE30
:1025C0000F488442264600DC06460E48864200DB61
:1025D00006461B4D002C06D40024284631462246D0
:1025E000FFF760FE05E0002128460A46FFF75AFE85
:1025F0007442012228462146FFF754FE01B0F0BD87
:1026000048F4FFFFB80B000070B50C4D00242846BD
:1026100021462246FFF746FE01262846214632463D
:10262000FFF740FE064D284621462246FFF73AFEB8
:10263000284621463246FFF735FE70BD0000864031
:102640000000094070B501200404164D2C6164207F
:1026500000F0E6FB2C60322000F0E2FB002412A523
:10266000285D00F067F9641C172CF9D10024254679
:10267000B0202843C0B200F05DF9204600F05AF9BE
:10268000102000F057F92646002000F067F9701C72
:1026900046B2002EF8D5681CE9B207290546E7D3F3
:1026A00070BDC04690320A40AED580A83FD30040EE
:1026B000A1C8DA1281CFD9F1DB40A4A68D14AF00F6
:1026C000F0B583B01E461746044680090222024038
:1026D000501802905038C0B200F02CF964B2E017E4
:1026E0008443210910200843019000F023F90F25AD
:1026F0002540284600F01EF9203FF8B2089F102E12
:1027000010D1000120490E18002406E0305DC0B24F
:1027100000F024F9641C082C16D0002FF6D0305D90
:10272000C043F4E70621414316484418002506E05B
:10273000605DC0B200F012F96D1C062D1FD0002F95
:10274000F6D0605DC043F4E702984F38C0B200F0A5
:10275000F1F80198C0B200F0EDF8284600F0EAF870
:102760000836002406E0305DC0B200F0F7F8641CC3
:10277000082C04D0002FF6D0305DC043F4E703B03E
:10278000F0BDC046145500003C570000F0B58BB0BA
:102790001F4614460991079000251046294602F06D
:1027A00072FC002800D07F1C0126F00703948443AC
:1027B00002942046FEF716F8059038061298089005
:1027C00011980A901098069026D00A98440817E0AD
:1027D000059802F023FB0A21FDF72AFE08980090D5
:1027E00030220A432046684307994018C0B209992D
:1027F0000A9BFFF765FFF8B26D1CE9B281420BD26C
:10280000E843381801063146E2D001210A2251433B
:10281000401E0206FAD1DBE7089800900A9B59088F
:1028200038460491484307994018C0B22E220999AE
:10283000FFF746FF0598FEF71FF80146029802F0E1
:1028400053FD069900290BD0044601200A2250436B
:10285000491E0A06FAD1FEF717F80146204601E0A4
:102860007F21C90502F0E8FCFDF7BCFF06990029AD
:1028700028D004460798461D002518E0012120466F
:1028800002F0CCFA0A21FDF7D3FD0898009030221F
:102890000A43E819049948433018C0B209990A9BC1
:1028A000FFF70EFF6D1CE8B2069988420AD2E84392
:1028B00008180106E2D001210A225143401E0206F7
:1028C000FAD1DCE70021039802F0D2FB002807D1FF
:1028D000089800902D22079809990A9BFFF7F0FEAF
:1028E0000BB0F0BD00000000000000000000000080
:1028F000EFF309800E4B1A6820381060F0C0444690
:102900004D4656465F46F0C008B572B601F08AFAE9
:1029100062B60CBC116808681030F0C8A046A94621
:10292000B246BB4680F309882038F0C81847C04635
:1029300098032020B0B501231905114A11615B04E9
:102940001361104C2568ED06FCD420632068400715
:10295000FCD4206A13601160B0BDC04610B50123DD
:102960001905074A11615B041360064B1C68E406F5
:10297000FCD4186318684007FCD4186A116010BDB5
:1029800090320A4010B1464070470000B0B5E149AE
:1029900087208867012082031E4802608822CA615E
:1029A0001D4A0823136084234B6380231360822312
:1029B0000B62102414600B65184B4B65184C832573
:1029C000A561CD675B1C636181230B604B60154D76
:1029D0008D63CB632360A362E3638D65CD650D6476
:1029E0004D641146303903230B60136001463039C2
:1029F0000D4A0A6002600D4801680D4A0A430260F0
:102A00000C48016A302211430162016811430160E0
:102A1000B0BDC046D0320A40D0120A408200040045
:102A20008480424081000C000800130090330A406B
:102A30003055000028300A4070B582B01B4C1C494C
:102A40002046FFF737FC1B492046FFF715FB1A48C5
:102A500001683C4A0A40026000250095204629464C
:102A60002A462B46FFF712FC204629462A46FFF746
:102A7000FFFB204629462A46FFF714FC0126009654
:102A8000204629462A462B46FFF700FC20462946C9
:102A90003246FFF7EDFB204629463246FFF702FC9F
:102AA000064886600321016002B070BD00008640C8
:102AB0001C5D0000205D0000041886400011864067
:102AC00070B582B01B4C1C492046FFF7F3FB1B4935
:102AD0002046FFF7D1FA1A4801681A4A0A400260F4
:102AE00000250095204629462A462B46FFF7CEFBB7
:102AF000204629462A46FFF7BBFB204629462A46A0
:102B0000FFF7D0FB01260096204629462A462B4691
:102B1000FFF7BCFB204629463246FFF7A9FB2046BB
:102B200029463246FFF7BEFB074886600321016055
:102B300002B070BD00000940285D00002C5D00005F
:102B4000041809407F00FFFF0011094010B50D4C2B
:102B50000D492046FFF786FA0C492046FFF760FA38
:102B60000B4841680B4A0A400F32426081681222CA
:102B70000A432D218A438260016801220A430260D0
:102B800010BDC04600A04640345D0000365D000028
:102B900004B1464000FCFFFF0448002101600448E6
:102BA00001680322914301607047C04608030B404F
:102BB00000010B4010B5084C08492046FFF77AFB8E
:102BC00007492046FFF7DCFA064801680122114355
:102BD00001600548026010BD00208640405D000095
:102BE000445D0000283086400831864010B5124C04
:102BF00012492046FFF790FB11492046FFF768FB7A
:102C00000320C1030F4802688A43026001690E4A2B
:102C10000A4011320261416917220A4328218A437E
:102C20004261416801221140436893435918416051
:102C300001681143016010BD00801040585D000024
:102C40005A5D0000009110400000FFFF80B500F0C9
:102C50001FF8FFF79BFEFFF79FFFFFF7EDFEFFF763
:102C60002FFFFFF7A7FFFFF7C1FFFFF76FFFB820A8
:102C7000044900220A5404490A54242003490A54EE
:102C800080BDC04694012020B00020206C0120208F
:102C9000F0B581B00D480E4941600E4A51600E4BAF
:102CA00059600E4C61600E4D69600E4E71600E4FA2
:102CB00079600E49016011601960216029603160FE
:102CC00039601020FFF7A7F901B0F0BD00080A40F5
:102CD000030000B100280A400008864000080940AF
:102CE000002886400088104000A8464001000026C9
:102CF00000280DD081688900064A81238B504169E4
:102D000089008B5006C8044BCA5041688068C8507F
:102D10007047C0460480424090120000F0B581B078
:102D20002E4E30680024E14301F0A6FC0128254620
:102D300013D12B480468002101602A48056801600E
:102D400030680A460B4601F0BAF92046FDF794FDBB
:102D500004462846FDF790FD0546574914200860B3
:102D600048602148076820463946FDF78BFC1F491B
:102D700002F062FA1E49FDF785FC06464E4CA06043
:102D800028463946FDF77EFC184902F055FA1849E5
:102D9000FDF778FC0546206113484068154902F0AC
:102DA0004BFA074630461149FDF76CFC01463846A0
:102DB00002F042FA104C2146FDF764FC3E4EF060F2
:102DC00028460A49FDF75EFC0146384602F034FA0F
:102DD0002146FDF757FC706101B0F0BDC4152020FD
:102DE000500220207804202038002020000070426B
:102DF0000BD7A33CC3F5C8400000C84210B500F093
:102E0000B1FC044601F0BCFD002803D001200007FE
:102E100002490860204600F0F6FC10BD04ED00E019
:102E2000B0B5002820D00446EFF30580002807D075
:102E30007D2005022846FFF7EEF8641EFAD113E064
:102E400001F08CFD022808D17D20C1004C432046B2
:102E500001F0E4FF00F08AFEB0BD7D2005022846A7
:102E6000FFF7D9F8641EFAD1B0BD000065480168CB
:102E70000020002900D07047094909680029FAD1CB
:102E8000084909680029F6D15F4800689A4909682D
:102E9000491E884201D00120704702207047C04679
:102EA00034162020D81520200348C0687047C0463B
:102EB000014840697047C0460000202082B0FFF7FB
:102EC000C5FEFFF735FBFFF7BDFBFFF79DFBFFF7E7
:102ED00077FA4B2000010146FFF754FB0023012045
:102EE00000900193034804A1802201F0E3FC00F06C
:102EF0002BFFFEE741230000446973706C61795435
:102F000061736B00F0B581B0044600F0B5FC7A48FF
:102F10000168491C01607A4F396800290AD0364897
:102F20000068002847D1E06A3968C96A814242D8FE
:102F30003C6040E03C60006801283CD1714D28466F
:102F400000F064FC2846143000F060FC284628306D
:102F500000F05CFC28463C3000F058FC284650301D
:102F600000F054FC2846643000F050FC28467830CD
:102F700000F04CFC28468C3000F048FC2846A0307D
:102F800000F044FCB435284600F040FC1B4D2846B8
:102F900000F03CFC1A4E304600F038FC194800F0B6
:102FA00035FC544800F032FC174800F02FFC17485D
:102FB00005601748066017480168491C21640160D4
:102FC000E06A4E490A68904200D9086014214143E2
:102FD0004C484018211D00F044FC00F057FC064806
:102FE0000068002806D0E06A3968C96A814201D2C7
:102FF00000F08EFD01B0F0BDF01520208C152020D2
:10300000A0152020DC15202000162020A003202061
:10301000A80320209010202082B001200190344E7F
:10302000344F354D05E0206B00F03EFC204600F0AB
:103030003BFC3068002817D000F01EFCF868C4681C
:10304000201D00F0B6FB2868401E28603068401E36
:10305000306000F01BFC6120205C0228E9D00128D0
:10306000E4D00028DFD03EE0244800682449096805
:10307000C96A0029DDD1411E884122490968012918
:10308000019900D801460029D3D11F4800681F4983
:103090000968401A0228CCD31D490868401C086002
:1030A000194800681949096888421ED31348006806
:1030B00013490968C96A002912D1411E8841114982
:1030C00009680129019900D80146002908D10E4854
:1030D00000680E490968401A022801D300F06AFC12
:1030E00001F07CFDA5E772B6FEE772B6FEE7C046CA
:1030F00088102020141620208410202094102020D6
:1031000098032020B0032020C81520202816202056
:103110008C102020F0B583B002930F4601900A9CDA
:10312000206B9600A5223146FDF779F9206B8019B6
:10313000031F072021463431089D002F30D03A78F4
:103140000A70002A29D07A784A70002A25D0BA78E5
:103150008A70002A21D0FA78CA70002A1DD03A79E4
:103160000A71002A19D07A794A71002A15D0BA79E1
:103170008A71002A11D0FA79CA71002A0DD03A7AE0
:103180000A72002A09D07A7A4A72002A05D0BA7ADD
:103190008A72002A01D0FA7ACA720022CA7201E049
:1031A00000220A7083430093099F0026E664092DDC
:1031B00000D30925A564E562201D00F031FB2046FF
:1031C000183000F02DFB0A20401BA06126656665C3
:1031D000A665E6652046503006746462246100AA44
:1031E00007CA00F0ADFA2060002F00D03C6003B0A9
:1031F000F0BD0000F0B583B0002936D01D460F4663
:1032000006460292099C0898019000F035FBCD48D3
:103210000068002815D1164800F0F8FA154800F0AB
:10322000F5FAC74813490160C448114901600020FC
:10323000009014200C21104A104B00F0F5FEC149FB
:10324000086000F023FBA761E56101982062266019
:10325000201D00F0E5FA0298002804D02820215C07
:1032600004220A43225403B0F0BD72B6FEE7C04602
:1032700060152020741520205402202044032020B3
:10328000F0B585B0044601F077FB234A1168884207
:1032900033D200940190A94F05E068602D61386831
:1032A000314600F0C0FA38680168002927D0C068AC
:1032B0000468C5682E1D304600F07BFA296A28464E
:1032C00088472820285C4007EDD5A8690019A0424E
:1032D000E3D89C4E306800280DD004950394002557
:1032E000029501F03BFB306802A92A462B4600F00C
:1032F000E6FE0028D7D172B6FEE7002107E090492C
:103300000A683A60086001210198009C024A106036
:10331000216005B0F0BDC0469403202081B000209C
:1033200000900A48006872B6401C09D0FEE7009879
:10333000002808D10098002805D10098002802D163
:1033400000980028F3D001B07047C046400020200C
:103350008AB07A4E7B4F30680468002C02D0C06877
:10336000056800E0002500F057FD04A8FFF788FF7E
:103370000499002902D001F031FC52E0002C15D054
:10338000854213D8029001F029FC3068C068C468F7
:10339000201D019000F00DFA2820205C410709D47F
:1033A00021462831FA221040087037E0002C12D054
:1033B000002215E0A069411961602461029A9142DE
:1033C000314603D8511B81425D4914D208680199E6
:1033D00000F029FA22E05A49096809684A424A413C
:1033E000291A386800F0A0FB01F0F8FB002818D17A
:1033F00000F08EFB15E03868002800D19BE00994AE
:1034000008950025079501F0A9FA386807A92A460A
:103410002B4600F054FE002800D18CE0216A2046A3
:103420008847386804A90022029202E0386804A99B
:10343000002201F016F800288DD004980028F5D459
:10344000069D6869002802D0281D00F0B2F903A883
:10345000FFF716FF04990929E8D8C046794409798D
:1034600049008F440A0A0A0442570A0A04422820E3
:10347000295CFE220A402A54D8E728216A5C0123ED
:1034800013436B54AB6905995A186A602D618242E7
:1034900024D98842304625D28A42304622D3344647
:1034A0002E462836296A284688473078264640071F
:1034B000BCD5386800283AD0A86905990995401804
:1034C0000890029C079401F049FA386807A922463F
:1034D000234600F0F4FD0028A8D128E0401A9842C5
:1034E0001748DCD2291D006811E028216A5C0123FD
:1034F00013436B540599A96100291AD00918696012
:103500002D618142304600D80D480068291D00F029
:103510008AF98BE72820285C810703D4284600F02D
:10352000C3F983E72835FE21084028707EE772B68C
:10353000FEE772B6FEE772B6FEE7C0469C032020A7
:10354000AC0320202C162020F0B581B0044606469E
:10355000443600F091F901203756012F12DB254641
:10356000243504E0781E79B2012907460ADD28686F
:10357000002807D0284601F0F1FA0028F2D000F028
:1035800033FBEFE7FF25757000F080F900F074F968
:1035900000203756012F11DB103404E0781E79B279
:1035A000012907460ADD2068002807D0204601F0DF
:1035B000D5FA0028F2D000F017FBEFE7357000F0E5
:1035C00065F901B0F0BD0000F0B583B0054600F02C
:1035D00023FCDD480368002B02D0D84909781DE0A0
:1035E0000721CA434D4B5907194601D0D91D114037
:1035F000D44C0326B6029E191640083E06600022EF
:1036000006C4326072600368721A0B604A604449F3
:103610000A60CB490A60C94A012111700024002DBB
:1036200001D4224600E001222E460836092E6CD332
:103630000A406AD107222946914310310024B14241
:1036400000D821466A0700D00E46711EBC4A126897
:1036500091425AD2BB4D2A685768B74207D21168C7
:10366000002904D015460A464F68B742F7D39A425C
:103670004BD02C6811682960B91B11292DD39319DF
:103680005D0701D072B6FEE759605660AD4E3168F5
:10369000994204D20E689E420D46F8D301E03546A9
:1036A0000E46696801916F1802975F680299994206
:1036B00003D101997F186F602B46D919B14201D00F
:1036C000304606E00068864203D07068C019586032
:1036D000306818609D4200D02B605068984B196884
:1036E000091A19600E4B1D68A94200D219600834EE
:1036F00092490978002313600A4B1D686D1C1D60F8
:103700004B1E9941C9070843506001F067FA6007F2
:1037100001D072B6FEE7204603B0F0BD7C04202045
:10372000C0152020D015202004480168002903D0AE
:103730000168CA6C521CCA64006870479803202054
:103740000346083B1960011F01231B060B6001465D
:103750000C39034B0B60014620390A604038704732
:103760001D330000EFF3108072B6704782B070B561
:10377000C2B00D4604464692479346AB01930120E2
:10378000010202AE30462A46FCF7C8FD3046FCF77F
:10379000E3FD002808D0054602AE31782046FEF74A
:1037A000C5FD761C6D1EF8D142B070BC01BC02B0E4
:1037B0000047416882688A60516001694B688342B2
:1037C00000D14A600A68521E0A600022026108683D
:1037D00070470000034B03608020106002480860BF
:1037E0007047C0469812202098102020034B036099
:1037F00080201060024808607047C046FC142020FA
:10380000FC122020FEE780F3108870470021016041
:1038100002460832C94342608160C260026170475B
:10382000002101617047B0B50B685A1C0BD00446EB
:103830000834626815689D4208D8546825689D421E
:103840002546F6D904E00269556801E0154622468E
:10385000A96008614D608A6051600168491C01607F
:10386000B0BD42684A6093688B6008615960036824
:103870005B1C03609160704772B60A480168491C7E
:103880000160BFF34F8FBFF36F8F7047054801682A
:10389000002903D0491E016002D0704772B6FEE7CE
:1038A00062B6704740002020B0B5002844D02349BC
:1038B00009784A1E9141C907041F2268114205D0A8
:1038C00008380368002B03D072B6FEE772B6FEE735
:1038D0008A432260054600F09FFA28462168184A6C
:1038E00013685B181360174B1C68844204D223686A
:1038F00083422246F8D301E01A462346546815193C
:10390000854202D109195160104644189C4201D0E9
:103910001C4607E00C4C2468A34203D05C68611885
:1039200041601C680460824200D010600748016852
:10393000491C016001F052F9B0BDC0468815202035
:10394000B4152020F8152020A4032020D415202011
:103950006B48012101706C4801706C480170694826
:1039600000210160816002494160072101607047C8
:10397000FF7C0000000000000000000000000000CC
:103980000B4A13681868203080F30988022080F3FE
:103990001488BFF36F8F3FBCAE4608BC04BC62B650
:1039A0001847C046C046C046C046C046C046C0468E
:1039B00098032020F0B585B0064651480178514F54
:1039C00038680122049290433860B8687D2214025E
:1039D0004D4A1378002B224646D0002947D18E420B
:1039E00000D30E46711E01914A43101847490978C9
:1039F0000029039400D02D21451A00D8054672B63F
:103A0000BFF34F8FBFF36F8F0024E0430290FFF7A7
:103A10002DFA002830D07D60BC60386804990843D6
:103A20003860002E04D0BFF34F8F30BFBFF36F8FCD
:103A300062B6BFF34F8FBFF36F8F72B6BFF34F8F76
:103A4000BFF36F8F062038603868C00320D4039D11
:103A50006E43B868361A3046294601F0DFF9294628
:103A60004143891B491937E01A460029B7D0832101
:103A700089008E42B5D2B5E7B86878603868049995
:103A80000843386020480078002808D1029808E0F0
:103A90001D480078002808D10299039E07E003988A
:103AA000401E786062B605B0F0BD039E711EBA6814
:103AB000521B521800283346354600D103469A421D
:103AC000084600D810462D2A00D301460F4A127826
:103AD000002A00D1014601987960BC603A680499D7
:103AE0000A433A6000F086F907480078002801D1BF
:103AF000029800E0681E786062B605B0F0BDC0466E
:103B0000BC15202010E000E0801020207C10202038
:103B10000120000703490860BFF34F8FBFF36F8F89
:103B20007047C04604ED00E070B515460E460446E9
:103B3000FFF7A2FE4420215C20464430FF2901D13A
:103B4000002101704178FF2901D100214170FFF768
:103B50009DFEA06B002805D12046243031462A4620
:103B600000F076F82046FFF7EFFC70BD70B5002836
:103B70002CD0DF490A68002A01D072B6FEE70A6835
:103B8000521C0A60A2490C68DB4D2968091D0646D3
:103B90000846FFF70EFEA4192868446006D34B4878
:103BA00000682968091DFFF73EFE0AE046480068E4
:103BB0002968091DFFF737FE964801688C4200D23C
:103BC000046001F00BF8002800D070BDFFF7A0FFE3
:103BD00070BDC0460349096801608D4909684160AC
:103BE0007047C046CC152020C248012101607047B3
:103BF00070B5002818D00C46BF4D29681831FFF762
:103C000012FE834806682868001DFFF7D2FD601C7D
:103C10000CD03419286844600ED32C4800682968F9
:103C2000091DFFF700FE70BD72B6FEE72868011D92
:103C30002748FFF716FE70BD234800682968091D54
:103C4000FFF7F1FD734801688C4200D2046070BD3B
:103C5000F0B581B000281BD015460C46A64E316841
:103C60001831FFF7FEFD6A4807683068001DFFF74E
:103C7000A0FD002D01D00020C443002D0AD0601CFF
:103C800008D13068011D1248FFF7EBFD01B0F0BD0F
:103C900072B6FEE73C193068446007D30B480068F1
:103CA0003168091DFFF7BFFD01B0F0BD064800688F
:103CB0003168091DFFF7B7FD564801688C4200D2F4
:103CC000046001B0F0BDC046A0032020A80320205E
:103CD00000162020F0B581B000281DD0C36C002B49
:103CE0001CD0826C8A4200D80A46012B14D1C16ACA
:103CF000914211D0804B1B68984211D0C2628369F7
:103D0000002B02D40A239A1A8261142569437D4E3E
:103D1000711842698A4205D001B0F0BD72B6FEE763
:103D200072B6FEE7041D07462046FFF742FDF86A1B
:103D300073490A68904200D90860454370192146CA
:103D4000FFF78FFD01B0F0BDB0B588B00024069438
:103D5000059406A805A904AAFFF73CFD05980028CC
:103D600033D0069D002D32D0049A64210791079923
:103D700064292ED10799612102236B54286302958F
:103D800007A801900094154815A12346FFF7C2F932
:103D90002846FFF7B7F8144807990160002910D0AA
:103DA00000F0B8FF411C16D001280AD172B6E043DA
:103DB000184908600D48012101601548046000F0B1
:103DC000A3F80B48006808B0B0BD72B6FEE772B643
:103DD000FEE772B6FEE772B6FEE7C0461930000095
:103DE00049444C4500000000B8152020F015202063
:103DF000BC5D000006490A681218064B1B689A420F
:103E000001D972B6FEE70A68101808607047C0460C
:103E100028162020C815202035480168491C01605B
:103E20007047C046F0B581B031480068002802D024
:103E3000304801212CE02F48002101602E4C2068E1
:103E4000006B02682D498A4208D142688A4205D136
:103E500082688A4202D1C068884204D02068216802
:103E60003431FFF7CFFC2648016814231A464A4331
:103E7000244DAE58002E0ED0AA1853685B685360CC
:103E800015460835AB4201D15B685360DA682260A1
:103E9000016001B0F0BDAA1800291DD01E464E4396
:103EA00076191746143F3F68002F17D1012913D008
:103EB0001746283F3F68002F13D102290CD0174620
:103EC0003C3F3F68002F0FD1032905D0091F503A0E
:103ED0001668002EE0D0D0E772B6FEE7143E491E09
:103EE00004E0283E891E01E03C3EC91E3246C4E77C
:103EF0008C1020203416202098032020A5A5A5A5ED
:103F000094102020B0032020B0B582B0FF2001041F
:103F1000124A13680B4313600006116801431160D5
:103F2000FFF716FD0E4C00252560FFF729FDFFF772
:103F300079FF0195206872B6401C09D0FEE7019810
:103F4000002808D10198002805D10198002802D145
:103F500001980028F3D0002002B0B0BD20ED00E0B1
:103F600040002020B0B5024601200024214600F088
:103F70000DF8002809D004608460C460054621461D
:103F80002246234600F09BF82846B0BDF0B581B02C
:103F900000280FD00646009200250F460846294605
:103FA00032462B46FCF7A2F94A1E9141012903D162
:103FB00072B6FEE772B6FEE74F21C943884201D3CD
:103FC00072B6FEE75030FFF7FFFA0446002828D00B
:103FD00020464430E663064627648570002F20465D
:103FE00001D0204650302060FFF746FCA563FF203B
:103FF000307021687070E06B226C431E50430818CB
:104000005343CA186160A060E26020461030FFF799
:10401000FDFB20462430FFF7F9FBFFF737FC009843
:104020003072204601B0F0BD70B582B0002807D0D4
:10403000002B07D0002907D1002A05D072B6FEE771
:1040400072B6FEE772B6FEE7002903D0002A01D15E
:1040500072B6FEE750240194019C502C2DD11D46D0
:104060004435069E019CD86319640029184600D087
:10407000104618600120A8701C46FFF7FDFB0020C9
:10408000A063FF20287021686870E06B226C431EDB
:10409000504308185343CA186160A060E26020468C
:1040A0001030FFF7B3FB20462430FFF7AFFBFFF7DC
:1040B000EDFB2E72204602B070BD72B6FEE7F0B581
:1040C00089B00892002812D01D460446002910D05D
:1040D000022D02D1E06B01283FD11646059100F078
:1040E0003DFC00280AD1002E08D072B6FEE772B659
:1040F000FEE7206C0028EBD072B6FEE7FFF7BCFBB2
:10410000E06BA16B022D51D081424FD3089800285B
:1041100000D1D9E02646443606A8FFF75BFDFFF73D
:10412000B5FBFFF779FEFFF7A7FB3078FF2801D139
:10413000002030707078FF2801D100207070FFF7E8
:10414000A5FB06A808A900F085FB002807D020469B
:10415000FFF7FAF900F042FDB8E072B6FEE7274635
:104160001037FFF789FBE06B0290A06B0190FFF71F
:104170008DFB0298019981420DD108993846FFF7CD
:1041800037FD2046FFF7E0F900F028FD002807D1B1
:10419000FFF7BEFC04E02046FFF7D6F900F01EFD55
:1041A000FFF76AFBE06BA16B81424CD2226CA66BDD
:1041B000002A059919D00127002D1BD0E068FCF7D3
:1041C000EDF8206CE168091AE1602268914203D29F
:1041D0004042A1680818E060701E31468141A81E67
:1041E000424242410A40B61A18E0206800280ED028
:1041F000012713E06068FCF7D1F8206C61680818AB
:104200006060A168884209D32068606006E0A06809
:1042100000F038FC0021A16047424741701CA063B8
:10422000606A00280CD02434204600F097FC002857
:1042300001D0FFF76DFCFFF729FB012009B0F0BDAD
:10424000002FF6D0F7E7049603970BE02046FFF720
:104250007BF900F0C3FCFFF70FFBE06BA16B814221
:10426000049EA3D3089800282ED0FFF70FFBFFF77A
:10427000D3FDFFF701FB3078FF2801D1002030701B
:104280007078FF2801D100207070FFF7FFFA06A8B0
:1042900008A900F0DFFA002800D058E7FFF7ECFA91
:1042A000E76BA66BFFF7F2FABE42CFD108990398ED
:1042B000FFF79EFC2046FFF747F900F08FFC00282F
:1042C000C9D1FFF725FCC6E7FFF7E0FA002009B0E7
:1042D000F0BDF0B583B0002814D01D460446002977
:1042E00012D0022D02D1E06B012835D10F46029287
:1042F000FFF738FAE16BA26B022D0AD08A4208D38D
:10430000002565E072B6FEE7206C0028E9D072B6A1
:10431000FEE74521635CA16B226CA66B002A1DD0D1
:1043200039461F460190002D26D0E068FCF736F88C
:10433000206CE168091AE1602268914203D2404290
:10434000A1680818E060701E31468141A81E4242F3
:1043500042410A40B61A1BE072B6FEE72168002906
:1043600018D1A168054608461F4600F08BFB3B4666
:1043700028460021A1600DE06068FCF70FF8206C72
:10438000616808186060A168884201D32068606095
:1043900001983B46711CA1637F2B13D0FF2B13D1D7
:1043A000616A0125002913D006462434204600F016
:1043B000D5FB0299002910D00028304608D00125ED
:1043C0000D6005E072B6FEE74534591C21700125E9
:1043D000FFF719FA284603B0F0BD3046F8E770B58C
:1043E000002804D0026C002A03D072B6FEE772B631
:1043F000FEE70268002A23D00D460446FFF7B2F913
:10440000A36BE26B934219D221464522A25C5B1C4E
:10441000A3637F2A19D0FF2A19D14A6A0124002AEE
:1044200019D006462431084600F098FB002D16D01E
:10443000002830460FD001242C600CE000240AE054
:104440008268002AD8D072B6FEE772B6FEE7453120
:10445000521C0A700124FFF7D6F9204670BD304681
:10446000F9E7F0B585B0049200280CD01546044653
:1044700000292ED00F4600F071FA002805D1002D3A
:1044800003D072B6FEE772B6FEE7FFF7F5F9A56B4B
:10449000002D23D0226C002A0AD03846E168891802
:1044A000E160A368994201D32168E160FBF776FFE0
:1044B000681EA06320690125002800D189E010341E
:1044C000204600F04BFB002800D182E0FFF720FBE4
:1044D0007FE0206C0028CDD072B6FEE7002504985E
:1044E000002876D000952646443602A8FFF772FBD6
:1044F000FFF7CCF9FFF790FCFFF7BEF93078FF2803
:1045000001D1002030707078FF2801D10020707038
:10451000204624300190FFF7B9F902A804A900F061
:1045200099F900280DD02046FFF70EF800F056FB51
:10453000FFF7A2F9A56BFFF7A9F9002D1BD1002504
:1045400049E0FFF799F9A56BFFF7A0F9002D05D019
:104550002046FEF7F9FF00F041FB0CE004990198BA
:10456000FFF746FB2046FEF7EFFF00F037FB002881
:1045700001D1FFF7CDFAFFF77FF9A56B002D89D1A7
:104580000498002824D0FFF781F9FFF745FCFFF7D6
:1045900073F93078FF2801D1002030707078FF283F
:1045A00001D100207070FFF771F902A804A900F092
:1045B00051F90028C5D02046FEF7C6FF00F00EFBDB
:1045C000FFF75AF9A56BFFF761F9002DD3D1B6E7D4
:1045D000009DFFF75BF9284605B0F0BDF0B583B04C
:1045E000002833D00446002932D00D460292FFF74E
:1045F000B9F8A66B002E30D04421675C226C002AEB
:104600000CD00190E0688118E160A068814201D37C
:104610002168E1602846FBF7C1FE0198711EA16385
:104620007F2F1CD0FF2F1CD12169012500291CD010
:1046300006461034204600F091FA0299002919D05C
:104640000028304611D001250D600EE072B6FEE75D
:10465000206C0028C9D072B6FEE7002505E072B6CE
:10466000FEE74434791C21700125FFF7CCF8284679
:1046700003B0F0BD3046F8E7F0B585B004910028EE
:1046800005D00446006C002803D072B6FEE772B66F
:10469000FEE70D4600F062F9002803D1002D01D09D
:1046A00072B6FEE7FFF7E8F8A06B002818D0401EAE
:1046B000A0632068002802D1FFF736F8A0602069C7
:1046C0000126002800D1BFE01034204600F046FA51
:1046D000002800D1B8E0FFF71BFAFFF7D7F846E053
:1046E00000260498002800D1AEE02746443702A8EF
:1046F000FFF770FAFFF7CAF8FFF78EFBFFF7BCF879
:104700003878FF2801D1002038707878FF2801D14F
:1047100000207870204624300190FFF7B7F802A8F7
:1047200004A900F097F8002800960DD02046FEF767
:104730000BFF00F053FAFFF79FF8A56BFFF7A6F801
:104740000026002D38D112E0FFF796F8A56BFFF791
:104750009DF8002D06D02046FEF7F6FE00F03EFA4A
:10476000002629E02068002804D000260AE0304610
:1047700005B0F0BDFFF780F8A06800F0B3F9064679
:10478000FFF784F804990198FFF732FA2046FEF704
:10479000DBFE00F023FA00280ED1FFF7B9F90BE099
:1047A0002046FEF7D1FE00F019FAFFF765F8A56B79
:1047B000FFF76CF8002D36D0FFF75EF8A06B0028ED
:1047C00000D074E70498002828D0FFF75FF8FFF7BF
:1047D00023FBFFF751F83878FF2801D1002038700B
:1047E0007878FF2801D100207870FFF74FF802A8F1
:1047F00004A900F02FF80028D2D1FFF73DF8A56BEF
:10480000FFF744F8002D05D02046FEF79DFE00F08E
:10481000E5F9D1E720680028B4D1ABE7002E009E6F
:1048200012D072B6FEE7002E11D0FFF725F80198DE
:10483000006800260028314603D0206B00680A215A
:10484000091AA068FFF746FAFFF720F88FE700265D
:104850008DE70000F0B581B000281FD00C4600297C
:104860001ED00546FFF708F86A6883480768216884
:1048700000264B1C19D0824803682868834201D067
:1048800097420FD2BA1A91420CD9881A20607C48FC
:104890000068286078480068686006E072B6FEE745
:1048A00072B6FEE7002020600126FEF7EFFF3046DB
:1048B00001B0F0BDF0B587B01F4604AB07C3900050
:1048C000FEF782FE0025EC4300281CD00646039725
:1048D0006420FEF779FE002812D007460D980C9947
:1048E0006122BD543E6300910190029704AA07CA59
:1048F000039BFEF70FFC3846FEF704FB012402E0A1
:104900003046FEF7D1FF204607B0F0BDF0B587B0C6
:104910000D9D002D1BD00E9C002C1AD064260596F0
:10492000059E642E17D10C9E0496059F61270226D2
:10493000E6552563029406AD0195049D0095FEF7AA
:10494000E9FB2046FEF7DEFA069807B0F0BD72B626
:10495000FEE772B6FEE772B6FEE7000005480068A3
:10496000002805D0D34800684142414148007047C3
:1049700001207047F01520203F4800687047C0466E
:10498000F0B583B0CB480068002806D0D248016853
:10499000491C0160002003B0F0BD374801684C1C81
:1049A00004601BD3CA4801680968002901D072B6A7
:1049B000FEE70168314A13680360116030490A68F4
:1049C000521C0A6001680968002903D00068C068A9
:1049D000006801E00020C043BE490860BD49086886
:1049E000844201D200203FE00023DA43B84E306811
:1049F000006800282FD001920020029003E0306868
:104A0000006800282CD03068C068C7687868844285
:104A100023D33D1D2846FEF7CCFEB86A002803D0FC
:104A200038461830FEF7C5FEF86AA549096888427D
:104A300001D9A349086014214143A24840182946DE
:104A4000FEF70FFFF86AA0490968C96A8842D6D301
:104A500001200290D3E7029304E002469D4901E061
:104A60009C49019A0A60029898490968002992D0E5
:104A7000012003B0F0BDC04628162020A803202046
:104A8000CC152020B0B501460020002926D08E4A42
:104A90001268914201D072B6FEE7CA6C002A1ED09D
:104AA000521ECA641AD18A6CCB6A934216D00C1D6E
:104AB0000D462046FEF77DFEA86CE8620A21091A21
:104AC000A9617F490A68904200D9086014214143D6
:104AD0007C4840182146FEF7C4FE0120B0BD72B6E6
:104AE000FEE7C046F0B581B000281DD0C16A764D02
:104AF0002A68D26A914212D28269002A04D42A68B2
:104B0000D26A0A239A1A8261142671436D4A511897
:104B100042698A420BD02968C96AC1621AE0806C76
:104B20002968C96A884215D3002001B0F0BD041D70
:104B300007462046FEF73DFE2868C06AF8626049D5
:104B40000A68904200D9086046435E4880192146B1
:104B5000FEF787FE012001B0F0BDC046B0B5C068C9
:104B6000C568002D0DD02C4618342046FEF721FED6
:104B700050480068002806D050482146FEF771FED4
:104B80001FE072B6FEE72C1D2046FEF712FEE86A13
:104B90004B490A68904200D90860142141434948B2
:104BA00040182146FEF75DFE494801680968002962
:104BB00003D00068C068006801E00020C043454998
:104BC0000860E86A40490968C96A884203D93F49D0
:104BD00001200860B0BD0020B0BDC046F0B581B076
:104BE000344C206800280DD0FEF746FE2068401E99
:104BF000206020680027002806D0FEF747FE3846D0
:104C000001B0F0BD72B6FEE72B4800680028F4D072
:104C10002A4E3068002833D00097294F02E03068D0
:104C200000281FD0F068C46820461830FEF7C1FD88
:104C3000251D2846FEF7BDFDE06A3968884200D987
:104C40003860142141431F4840182946FEF709FEE9
:104C5000E06A1D490968C96A8842E0D301201B49FE
:104C60000860DCE71A4801680968002903D0006879
:104C7000C068006801E00020C043009F154908603B
:104C8000154C2568002D0CD0104E01E06D1E06D08D
:104C9000FFF776FE0028F9D001203060F6E700200B
:104CA00020600A4800680028A7D0FEF731FF0127DE
:104CB000A3E7C0468C10202084102020DC15202083
:104CC00094102020B00320209803202034162020A8
:104CD000A0032020C8152020D8152020F0B583B0CF
:104CE0001C4615460E4607462C20FEF76DFC002894
:104CF0000DD0089928220023835400910190234667
:104D00000446384631462A46FEF774FA204603B078
:104D1000F0BD000070B586B0FEF7AEFD1D4E3068E8
:104D2000002814D11C4C2046FEF770FD1B4D284670
:104D3000FEF76CFD1A4805601A48046000200090D8
:104D400014200C21184A194BFFF76EF93060FEF75A
:104D50009DFD306800281AD000240594049405A80D
:104D600004A903AAFEF742FD039A049805990523B6
:104D70000093019002910E480EA12346FFF7C6FD55
:104D80000E490860002802D0012006B070BD72B63E
:104D9000FEE7C0462C162020601520207415202028
:104DA000AC0320209C032020540220204403202018
:104DB00051330000546D722053766300301620206A
:104DC000B0B584B0002812D00446134D28680028DE
:104DD0000FD001AF16C705290EDCFFF7BFFD014656
:104DE0002868022910D1089A01A900230FE072B6A1
:104DF000FEE7002004B0B0BD01A900241A462346F6
:104E0000FFF767FA04B0B0BD01A900221346FFF70F
:104E100056F904B0B0BDC0462C16202043088B4282
:104E20001AD3002203098B4279D3030A8B425ED343
:104E3000030B8B4242D3030C8B4227D30902FF2280
:104E400012BA030C8B4202D31212090203D0030BD5
:104E50008B4233D31AE0D3E0411A8041401C7047A3
:104E600003460B4371D443088B42F5D30022030958
:104E70008B4254D3030A8B4239D3030B8B421DD38D
:104E8000030C8B4202D394466EE0090AC30B8B429B
:104E900001D3CB03C01A5241830B8B4201D38B0346
:104EA000C01A5241430B8B4201D34B03C01A5241EB
:104EB000030B8B4201D30B03C01A5241C30A8B422E
:104EC00001D3CB02C01A5241830A8B4201D38B0219
:104ED000C01A5241430A8B4201D34B02C01A5241BD
:104EE000030A8B4201D30B02C01A5241CDD2C3092F
:104EF0008B4201D3CB01C01A524183098B4201D3AB
:104F00008B01C01A524143098B4201D34B01C01A95
:104F1000524103098B4201D30B01C01A5241C3080D
:104F20008B4201D3CB00C01A524183088B4201D37C
:104F30008B00C01A524143088B4201D34B00C01A68
:104F40005241411A524110007047CA0F00D04942E5
:104F5000031000D34042534000229C4603098B4279
:104F60002DD3030A8B4212D38901FC2212BA030A01
:104F70008B420CD3890192118B4208D38901921183
:104F80008B4204D3890137D0921100E08909C3090B
:104F90008B4201D3CB01C01A524183098B4201D30A
:104FA0008B01C01A524143098B4201D34B01C01AF5
:104FB000524103098B4201D30B01C01A5241C3086D
:104FC0008B4201D3CB00C01A524183088B4201D3DC
:104FD0008B00C01A5241D9D243088B4201D34B00F7
:104FE000C01A5241411A00D201465241104663464E
:104FF0005B1000D34042704763465B1000D34042D1
:1050000001B50021004201D0C9430846C046C04650
:1050100002BDF8B5040C8BB2264682B25E43104640
:1050200058430D0C370C360400218019164679417F
:105030006E43370C36048019264679416E43891930
:10504000F8BD00004900CA020243100000D004204D
:105050004A0D01D001221043044A490D914201D169
:1050600002210843012800D105207047FF070000F6
:1050700010B500F08DF8EFF30080800001D501201D
:1050800010BD002010BD10B500F0ACF8EFF30080AB
:10509000800001D4012010BD002010BD30380A2846
:1050A00001D20120704700207047000010B5002990
:1050B0000AD00878002807D005487844FCF71CFF80
:1050C000002801D0002010BD0248784410BD000027
:1050D000260D00001E0D000010B500290AD008782A
:1050E000002807D005487844FCF706FF002801D0C7
:1050F000002010BD0248784410BD0000160D0000CD
:105100000E0D000070B50125ED0704004C4020D4C1
:10511000441A01D2001B0919C60D4B00F2B2FF2A36
:1051200029D01B0E2CD000020C0228432C43D31A8A
:10513000DC40051910D2280A02D3401C6D0611D09C
:10514000761EF6058019FF2A00DA70BDC00DC00575
:1051500070BD694000F0CEF801200543C541521CE6
:10516000761CE8E764089C40C90161408900E7D1EA
:105170000124A043E4E71B0E440200D0034870BDA5
:10518000002AFCD1C00FC00770BD00BF0000C07F67
:105190000123DB0502000A430DD4DA4203D49A420C
:1051A00007D488427047D84214D4D94212D48842D6
:1051B000704780427047DA4203D59A42F9D581425E
:1051C00070475B004200DA4204D24A00DA4201D260
:1051D0008142704710B5024AFCF794FA10BD00BF37
:1051E000090013040123DB0502000A430DD4DA424F
:1051F00003D49A4207D488427047D84214D4D94283
:1052000012D48842704780427047DA4203D59A42EE
:10521000F9D5814270475B004200DA4204D24A006D
:10522000DA4201D28142704710B5024AFCF76AFAAD
:1052300010BD00BF0900160470B5420064414B0068
:105240005C41120E39D01B0E38D0FF2A3CD0FF2B08
:105250003AD0D2187F3A40024902400A490A45181A
:10526000ED0106004E43000A090A48430104731A7F
:105270004019190C4318990F04D05B080121490704
:105280005B1A521CD80904D3401CF50301D19D06BA
:1052900007D0FF2A08D2D50506D0E40720434019DD
:1052A00070BD0125A843F4E7002A01DCE00770BDCA
:1052B0002402FF202043C00570BD1B0EFF2A03D02F
:1052C000FF2B01D0E00770BDFF2636064500B54232
:1052D00006D84D00B54203D8D218FF2A00D0E7E720
:1052E000004870BD0000C07F70B50125ED070400C7
:1052F0004C4022D4441A02D26C40001B0919C60D3E
:105300004B00F2B2FF2A4BD01B0E50D000020C0211
:10531000A8432C43D31ADC40051B05D5AD0019D397
:105320006D08761E521E37D0F605280A01D2801964
:1053300070BD70416D0603D070BD6940FFF7E8FE97
:105340009C4009026140490001D0401E70BD01240B
:10535000A04370BD6D081DD001202B0C01D12D0480
:1053600010302B0E01D12D0208302B0F01D12D0151
:10537000001DAB0F01D1AD00801CEB0F01D16D0002
:10538000401C361A121A6D00680AF5054019012AE8
:1053900002DB70BD002070BDC036300AC00770BD92
:1053A0001B0E440201D1FF2B00D1024870BD002A20
:1053B000F0D070BD0000C07F03B40248784484463A
:1053C00003BC60472DBDFFFF03B402487844844608
:1053D00003BC604795BFFFFF8182838485868788F1
:1053E000898B8C8D8E8F919293959697999A9C9D8F
:1053F0009FA0A2A3A5A7A8AAACAEB0B2B3B5B7B9F7
:10540000BCBEC0C2C5C7C9CCCED1D4D7D9DCDFE2BF
:10541000E6E9ECF0F3F7FAFE0000000000000000FF
:1054200030313233343536373839414243444546DA
:1054300040305800303132333435363738396162D4
:1054400063646566403078000400000800000000D6
:1054500000000002000100001030313233343536D4
:105460003738396162636465667870003031323391
:1054700034353637383941424344454658500000A8
:1054800002400000000000A00000000005400000F5
:10549000000000C8000000000C4000000000409C1C
:1054A00000000000194000000020BCBE0000000009
:1054B00034400000BFC91B8E00000004B54000004E
:1054C000504BCFD06607E2CF010000006C410000D6
:1054D0003E8251AADFEEA73401000000D94200004D
:1054E000DCB5A0E23A301F97FFFFFFFFB445000094
:1054F000FD25A0C8E9A3C14FFFFFFFFFFF3F00004C
:105500000000008000000000FF3F0000000000805D
:10551000000000000000000000000000002F00005C
:1055200000000700070000147F147F1400242A7F66
:105530002A120062640813230036495522500000E5
:105540000503000000001C224100000041221C0055
:105550000014083E08140008083E0808000000A0D7
:1055600060000008080808080000606000000020D3
:1055700010080402003E5149453E0000427F4000B1
:10558000004261514946002141454B310018141237
:105590007F10002745454539003C4A494930000104
:1055A0007109050300364949493600064949291E53
:1055B00000003636000000005636000000081422B5
:1055C00041000014141414140000412214080002B5
:1055D0000151090600324959513E007C1211127CDA
:1055E000007F49494936003E41414122007F414107
:1055F000221C007F49494941007F09090901003EF9
:105600004149497A007F0808087F0000417F410036
:10561000002040413F01007F08142241007F4040AC
:105620004040007F020C027F007F0408107F003E94
:105630004141413E007F09090906003E4151215E7A
:10564000007F091929460046494949310001017F77
:105650000101003F4040403F001F2040201F003F0D
:105660004038403F006314081463000708700807BF
:1056700000615149454300007F41410000552A55D2
:105680002A55000041417F0000040201020400404D
:10569000404040400000010204000020545454786F
:1056A000007F48444438003844444420003844448F
:1056B000487F00385454541800087E09010200182D
:1056C000A4A4A47C007F080404780000447D40006A
:1056D000004080847D00007F102844000000417F4E
:1056E0004000007C04180478007C0804047800382A
:1056F0004444443800FC242424180018242418FCB2
:10570000007C0804040800485454542000043F441A
:105710004020003C4040207C001C2040201C003CDD
:105720004030403C004428102844001CA0A0A07C2D
:10573000004464544C441414141414140000000065
:10574000000000000000000000000000000000F861
:1057500000000000000000333000000000100C06C4
:10576000100C0600000000000000000040C078405F
:10577000C0784000043F04043F040400007088FC2B
:1057800008300000001820FF211E0000F008F00083
:10579000E018000000211C031E211E0000F00888F4
:1057A000700000001E2123241927211010160E005E
:1057B000000000000000000000000000000000E009
:1057C000180402000000000718204000000204181E
:1057D000E00000000040201807000000404080F07A
:1057E000804040000202010F01020200000000F0B0
:1057F000000000000101011F010101000000000084
:105800000000000080B070000000000000000000F8
:105810000000000000010101010101010000000081
:105820000000000000303000000000000000000018
:1058300080601804006018060100000000E01008F5
:105840000810E000000F102020100F00001010F8CA
:10585000000000000020203F202000000070080809
:105860000888700000302824222130000030088889
:10587000884830000018202020110E000000C020B1
:1058800010F8000000070424243F240000F80888D2
:10589000880808000019212020110E0000E010885F
:1058A00088180000000F112020110E000038080891
:1058B000C83808000000003F0000000000708808A1
:1058C00008887000001C222121221C0000E0100822
:1058D0000810E0000000312222110F00000000C07B
:1058E000C000000000000030300000000000008018
:1058F0000000000000008060000000000000804008
:105900002010080000010204081020004040404020
:105910004040400004040404040404000008102073
:1059200040800000002010080402010000704808B8
:105930000808F0000000003036010000C030C82820
:10594000E810E0000718272423140B000000C038DB
:10595000E0000000203C23020227382008F8888855
:1059600088700000203F202020110E00C030080861
:1059700008083800071820202010080008F8080838
:105980000810E000203F202020100F0008F8888831
:10599000E8081000203F20202320180008F88888FD
:1059A000E8081000203F200003000000C030080875
:1059B0000838000007182020221E020008F80800FE
:1059C0000008F808203F210101213F20000808F8C5
:1059D000080800000020203F2020000000000808E8
:1059E000F8080800C08080807F00000008F888C0A8
:1059F00028180800203F20012638200008F8080059
:105A000000000000203F20202020300008F8F8008F
:105A1000F8F80800203F003F003F200008F830C0A1
:105A20000008F808203F200007183F00E010080891
:105A30000810E0000F10202020100F0008F80808C0
:105A40000808F000203F210101010000E0100808D3
:105A50000810E0000F18242438504F0008F88888F8
:105A600088887000203F2000030C302000708808D8
:105A7000080838000038202121221C00180808F8E6
:105A8000080818000000203F2000000008F8080067
:105A90000008F808001F202020201F000878880038
:105AA00000C83808000007380E010000F80800F8A8
:105AB0000008F800033C0700073C03000818688052
:105AC0008068180820302C03032C30200838C800C8
:105AD000C83808000000203F200000001008080817
