:020000040000FA
:1000000078282020C5010000C9010000CB010000B4
:1000100000000000000000000000000000000000E0
:10002000000000000000000000000000950C00002F
:100030000000000000000000510C0000BD10000096
:10004000D3010000590B0000D3010000D3010000D0
:10005000D3010000D3010000D3010000D301000050
:1000600000000000D3010000D301000000000000E8
:1000700000000000D3010000D3010000DD100000EB
:10008000D3010000D3010000D3010000D301000020
:10009000D3010000D30100000000000000000000B8
:1000A000D3010000D30100000000000000000000A8
:1000B000D301000000000000D3010000D3010000C4
:1000C00000F002F800F052F812A030C808382418E6
:1000D0002D18AC4201D100F049F80FCCA246AB4636
:1000E0000CA730CF2D1B083F3F197C427F1E544484
:1000F0002D090426F441641EAC4201D300F036F809
:100100000126334200D0FB1A3343984754465D46DC
:10011000DFE70000446D0000646D00000000000097
:10012000103A02D378C878C1FAD8520701D330C840
:1001300030C101D504680C60704700000000000069
:100140007047000000000000002300240025002666
:10015000103A01D378C1FBD8520700D330C100D583
:100160000B6070471FB51FBD10B510BD00F026FB1A
:100170001146FFF7F7FF01F05FFA00F03EFB03B412
:10018000FFF7F2FF03BC00F041FB000070B505462D
:100190000C46164602E00FCC0FC5103E102EFAD2C8
:1001A000082E02D303CC03C5083E042E07D301CC8E
:1001B00001C5361F03E021782970641C6D1C761E72
:1001C000F9D270BD06480047FEE7FEE7FEE7FEE70E
:1001D000FEE7FEE703480449044A054B7047000068
:1001E000C1000000781E202078282020781F2020C1
:1001F000781F2020F8B5042A2CD3830712D00B785F
:10020000491C0370401C521E83070BD00B78491CFD
:100210000370401C521E830704D00B78491C0370E6
:10022000401C521E8B079B0F05D0C91ADF002023EC
:10023000DE1B08C90AE0FFF7A9FFF8BD1D4608C983
:10024000FD401C46B4402C4310C0121F042AF5D2B6
:10025000F308C91A521EF0D40B78491C0370401CD5
:10026000521EEAD40B78491C0370401C012AE4D4C6
:1002700009780170F8BDD2B210B513029A181304B0
:100280009A1800F001F810BD01E004C0091F04290C
:10029000FBD28B0701D50280801CC90700D00270F9
:1002A000704700290BD0C30702D00270401C491EC2
:1002B000022904D3830702D50280801C891EE3E74C
:1002C0000022EEE70022DFE7002203098B4273D30E
:1002D000030A8B4258D3030B8B423CD3030C8B4253
:1002E00021D312E003460B437FD4002243088B4204
:1002F00074D303098B425FD3030A8B4244D3030BAD
:100300008B4228D3030C8B420DD30902FF2212BA71
:10031000030C8B4202D31212090265D0030B8B42ED
:1003200019D300E0090AC30B8B4201D3CB03C01AD7
:100330005241830B8B4201D38B03C01A5241430BB2
:100340008B4201D34B03C01A5241030B8B4201D3A2
:100350000B03C01A5241C30A8B4201D3CB02C01A0D
:100360005241830A8B4201D38B02C01A5241430A85
:100370008B4201D34B02C01A5241030A8B4201D374
:100380000B02C01A5241CDD2C3098B4201D3CB011B
:10039000C01A524183098B4201D38B01C01A5241CA
:1003A00043098B4201D34B01C01A524103098B42CE
:1003B00001D30B01C01A5241C3088B4201D3CB00B9
:1003C000C01A524183088B4201D38B00C01A52419C
:1003D00043088B4201D34B00C01A5241411A00D24C
:1003E00001465241104670475DE0CA0F00D04942B5
:1003F000031000D3404253409C46002203098B4225
:100400002DD3030A8B4212D38901FC2212BA030AAC
:100410008B420CD3890192118B4208D3890192112E
:100420008B4204D389013AD0921100E08909C309B3
:100430008B4201D3CB01C01A524183098B4201D3B5
:100440008B01C01A524143098B4201D34B01C01AA0
:10045000524103098B4201D30B01C01A5241C30818
:100460008B4201D3CB00C01A524183088B4201D387
:100470008B00C01A5241D9D243088B4201D34B00A2
:10048000C01A5241411A00D20146524110466346F9
:100490005B1001D34042002B00D5494270476346B0
:1004A0005B1000D3404201B50449002802DC491C1E
:1004B000084000E00846C046C04602BDFFFFFF7F7F
:1004C0007047704770470000F0B5FF252D04C6093E
:1004D000C209FF2704462E400137CB093E4348405E
:1004E0002A402B400746002A6BD0002B69D0AA4235
:1004F00067D0AB4265D0002800DA32460125ED0511
:1005000029432C4309022002090AD21A4B0C7F24EA
:10051000E31A434C000A7C44E35C7D242404121952
:1005200014145B00A218884201D3521C00E0400062
:1005300049420C465C4324115C43DB016415E3181B
:10054000040A5C43C502200D0C4644436419250A85
:100550005D432303EC0C0D46654300030019EB18C3
:100560004C42A34201D35B18401CD4052018002B39
:1005700007D05B00C91804D3401C002901D14008F2
:1005800040003F2189048A4209D3002A08DC110671
:10059000090F04D0032149074018C00FC007F0BD60
:1005A00001224100120689187F2252069142F6D29A
:1005B00005214907C84201D59010F0BDFF20C005B4
:1005C000F0BD002F00DA32461648AA4207D2AB42ED
:1005D00005D21902090E17D0F80FC007F0BDFF258C
:1005E00063002D06AB42F9D84900A942F6D8AB42C8
:1005F00001D1A942F2D0A94201D1002101E061005C
:100600004908D0050843F0BD1102090EFBD0FF20B8
:100610000243D005F0BD0A460146104654E70000EB
:100620003A5600000000C07F10B501469E2400022B
:10063000CA15A307002A02D01843002A04DBA21A15
:10064000002A0CDDD04010BD1206120E01D1400070
:100650004008A21A03D4D04040420028F3DDFF2214
:1006600048001206904201D9002010BDC817C043AF
:10067000584010BD1F22030C02D10F2200041CD0D1
:10068000030E01D10002083A030F01D10001121F2D
:10069000830F01D18000921E002801DB4000521E12
:1006A000D2055118021251181922904004D3491C46
:1006B000002801D14908490008467047C10FC90701
:1006C00000D04042012292071143D3E7012189075C
:1006D000D0E710B500F06AF8006810BD10B5044608
:1006E00000F064F8046010BDC10D10B50906090ED4
:1006F0002ED0FF2931D07E292DD319D0962916D29C
:10070000024675398A4005D0002402468A4003D348
:10071000012302E00124F8E700230222CA41511E0E
:100720008843002B03D08018002C00D0904310BDCC
:100730000121420201D1012200E00022C00FC007C6
:100740000029F4D0002AF2D17F21C905084310BD49
:10075000C00FC00710BD0021EFE74102FAD00148E9
:1007600010BD00000000C07F10B5FF22C30D134074
:1007700009D05A4007D0914205DA5C42A14202DD1D
:10078000C905081810BDC40FE407002B06D0002AC5
:1007900006D0002902DBFF20C0050443204610BD1F
:1007A0004102FCD0004810BD0000C07F00487047E7
:1007B0000800202000487047080020207546FFF7F9
:1007C000F9FFAE46050069465346C008C00085469D
:1007D00018B020B5FFF7FEFC60BCB6460026002727
:1007E000C0C5C0C5C0C5C0C5C0C5C0C5C0C5C0C5E1
:1007F000403D490849008D46704710B50446C04643
:10080000C0462046FFF7BBFC10BD00000149182080
:10081000ABBEFEE7260002007047811E091F00BF25
:10082000FCD2704770B50A780C231A4001242403C7
:1008300005196E689E43B2186A6049780722114014
:10084000035993435918015170BD0000B0B51122EE
:10085000120283580C4C1C400B894D881D438B7928
:100860002B430A4D1D402B1983508B88CC791C4398
:10087000097821435D239B001940801842689A4300
:1008800089184160B0BDC04680CCFFFF7F330000B7
:1008900010B50122120383180C785C6049788150EE
:1008A00010BD0000F0B57A4A82183B4BC318087996
:1008B0004E793A4D784C002E23D0202804D00526BE
:1008C000F601002803D003E0354E002800D1882629
:1008D000576F2F4037435767976F2F4037439767BE
:1008E000566B26405663966B2640966300265665E7
:1008F00096658F26F6435F6837405F609F68374094
:100900009F608E79096820280BD0002819D1491ED4
:100910005160D76E2F4088210F43D7661746703736
:1009200019E0491E5160D16E29401D4F3943D166EF
:10093000116F29403943116701214907194D1746A5
:1009400009E049085160D76E2F400521C9010F43C6
:10095000D766174670373C682C400C433C60D16A20
:100960004D4C2140D162116B214011630021D164B3
:1009700011658F21C943D46F0C40D4671C680C40AB
:100980001C600643BD2030401168074B0B40C01867
:10099000801C1060F0BDC0468418000024493E0051
:1009A00001040000FFFFFFCF4000FFCFB0B54A6851
:1009B000364BC250364A80180A78222A58D89300FB
:1009C00001A4E3589F46C046670A0000710A000070
:1009D000670A0000710A0000710A0000710A000035
:1009E000710A0000710A0000710A0000710A00001B
:1009F000710A0000710A0000710A0000710A00000B
:100A0000710A0000710A0000550A0000710A000016
:100A1000550A0000710A0000710A0000710A000006
:100A2000710A0000710A0000710A0000710A0000DA
:100A3000710A0000710A0000710A0000710A0000CA
:100A4000710A0000710A0000550A0000710A0000D6
:100A5000550A000003231B0704689C4301235B071E
:100A6000E318036004E003231B0704689C4304604D
:100A70000B69C360CB68074C1C40C36A064D1D4020
:100A80002B19C362097A11430160B0BD0818000038
:100A900004180000777702008888FDFF10B507234F
:100AA0009B04194092008018024A84589C436118A4
:100AB000815010BD3018000010B5029CA400001930
:100AC00011431943014A815010BDC046501800001F
:100AD00092008018014A81507047C04610180000EB
:100AE00010B50122120383180C789C604B78835058
:100AF0008978014A815010BD0C110000B0B5112257
:100B0000120283580124A34383500B888C781C4322
:100B10008B882343094C1C408358094D1D406319A1
:100B200083508B79CC791C43097A21437E23194069
:100B3000801842689A4351184160B0BD18670000A0
:100B4000E798FDFF10B50122120383180C789C6012
:100B50004978815010BD0000F0B583B0344D28466F
:100B600018380068800760D5324E103E3068C006E5
:100B700031492AD5086840210140304F397030484A
:100B800000680024019401AA214604F023F90128F9
:100B90000ED13878002801D0012000E0E043294937
:100BA0000A68801808602648006801A904F013F854
:100BB0000198002803D001200007234908601D4A3E
:100BC00010681021014311601B493068800628D548
:100BD000086880210140194F7970194E306800244F
:100BE000029402AA214604F0F5F801280DD1787884
:100BF000002801D0E04300E0012014490A68801871
:100C00000860306802A903F0E6FF0298002803D0CC
:100C1000012000070C490860064A106820210143A2
:100C20001160286802210143296003B0F0BDC0466D
:100C30005811404048300A4080330A406800202064
:100C4000001E2020F002202004ED00E018062020E5
:100C5000EFF309800E4B1A6820381060F0C044464C
:100C60004D4656465F46F0C008B572B603F038FDF3
:100C700062B60CBC116808681030F0C8A046A946DE
:100C8000B246BB4680F309882038F0C81847C046F2
:100C90003805202070470000F0B52D498720C86630
:100CA00001239A032B48026088220A612A4A0824F9
:100CB000146084248C628024146082254D61102489
:100CC0001460264C661C4E600E605B064E681E4328
:100CD0004E600E681E430E604D64214D8D64214EA2
:100CE0008327B7610F676D1C75618125F5650F4618
:100CF0000C3F3D600F46083F3D603560B562F563CF
:100D0000CC640C654C638C63174C4C664C658C65ED
:100D1000CC650C661146303903240C601460014622
:100D20003039132212040A60014640390B600F4922
:100D30000160352000020E490A6802430A600D482E
:100D4000016A302211430162016811430160F0BD64
:100D500010804240D0320A40D0120A4081000C007C
:100D6000820004008480424081000E0000001302D3
:100D700090330A4028300A4010B511481149FFF756
:100D800051FD03225102104803680B430360012107
:100D90000B0204681C430460002343614262826BBF
:100DA00007239A4382631A02836B93438363826AA5
:100DB000042313438362826A0A43826210BDC046E1
:100DC00000200F40B45B000000320F4070B582B0CD
:100DD0001B4C1C492046FFF783FE1B492046FFF7AA
:100DE00061FD1A4801683C4A0A40026000250095EE
:100DF000204629462A462B46FFF75EFE2046294616
:100E00002A46FFF74BFE204629462A46FFF760FE9A
:100E100001260096204629462A462B46FFF74CFE1F
:100E2000204629463246FFF739FE204629463246FB
:100E3000FFF74EFE064886600321016002B070BDD8
:100E400000008640B65B0000BC5B000004188640D2
:100E50000011864070B582B01B4C1C492046FFF73C
:100E60003FFE1B492046FFF71DFD1A4801681A4A3C
:100E70000A40026000250095204629462A462B4656
:100E8000FFF71AFE204629462A46FFF707FE2046AE
:100E900029462A46FFF71CFE0126009620462946D1
:100EA0002A462B46FFF708FE204629463246FFF722
:100EB000F5FD204629463246FFF70AFE07488660C0
:100EC0000321016002B070BD00000940C45B000056
:100ED000C85B0000041809407F00FFFF00110940B3
:100EE00010B50D4C0D492046FFF7D2FC0C492046A9
:100EF000FFF7ACFC0B4841680B4A0A400F324260D6
:100F0000816812220A432D218A43826001680122EE
:100F10000A43026010BDC04600A04640D05B0000FE
:100F2000D25B000004B1464000FCFFFF04480021F2
:100F30000160044801680322914301607047C04684
:100F400008030B4000010B4010B5084C084920462F
:100F5000FFF7C6FD07492046FFF728FD0648016850
:100F60000122114301600548026010BD0020864047
:100F7000DC5B0000E05B00002830864008318640E2
:100F800010B5194C19492046FFF7DCFD18492046D9
:100F9000FFF7B4FD0320C103164802688A430260CC
:100FA0000169154A0A4011320261416917220A4358
:100FB00028218A434261426801210A4043688B43E9
:100FC0009A1842608A020D4B1C6814431C60FF2271
:100FD00012060B4B1C6894438A07A2181A60026819
:100FE0000A43026010BDC04600801040F45B000060
:100FF000F65B0000009110400000FFFF28901040B9
:101000000CE400E080B500F021F8FFF745FEFFF7A3
:101010008DFFFFF7DBFEFFF71DFFFFF795FFFFF7E3
:10102000ABFEFFF7ADFFFFF75BFFB82004490022DE
:101030000A5404490A54242003490A5480BDC04676
:10104000300220204C01202008022020F0B581B081
:1010500010481149416011484160114B5960114CD1
:101060006160114D6960114E7160114F79601148D6
:1010700041601149074A1160084A116019602160F6
:1010800029603160396001601020FFF7C6FB01B0B4
:10109000F0BDC04600080A40030000B100280A4025
:1010A00000088640000809400028864000280F40BC
:1010B0000088104000A846400100002610B502F04C
:1010C0005EFD044603F06AFF002803D001200007FC
:1010D00036490860204602F068FE10BD80B505481C
:1010E0000068C0B20B2804D103480068C0B200F009
:1010F000B7FB80BD209010402491104080B582B095
:10110000254988420ED02549884218D02449884272
:1011100027D0244988422FD1234801680969002932
:1011200029D129E0204800680168012901DB491E16
:10113000016006C8083891421EDA41601CE01A4876
:1011400000683C21415C4A1E0168914201DA491C59
:10115000016006C8121D083891420DDBC91E4160AE
:101160000AE0114801683C228A5C002A04D00A681F
:10117000920089184969016000210191A94800681D
:1011800001AA03F06FF90198002803D0012000079D
:101190000649086002B080BD6C0020209800202025
:1011A000C4002020F00020200000202004ED00E0FA
:1011B00089004018C2607047F0B581B01E461546E0
:1011C0000F4604462C21FFF77DF8A7602671A07812
:1011D0000F2101408031A17068426841C001E907D8
:1011E000490E0818E1783F220A408018E07001B0EB
:1011F000F0BD000083490A68002A04D0824207D06B
:10120000926A002AFAD10A68826208600020704758
:101210000020C0437047C046B0B57A48046801E07A
:10122000E070A46A002C00D1EBE02079A168884727
:10123000E1784A0702D02288521C2280CA099042D3
:1012400002D1C72001400EE0C7220A40CB085B1C38
:1012500007251D40EB009A18E270002D04D04722AC
:101260001140C0010918E170E0780721014005290B
:1012700007D8C0467944097949008F4405441F5C6A
:101280000269F8210840CBE7A2780F211140C2097A
:101290004006C00F82427ED1A170E168002901D0D2
:1012A0002046884700202080A078F0210140481C7B
:1012B000A070E078F8210140481CB1E7C109400660
:1012C000C00F884256D1A0780F252840A070E16851
:1012D000002901D020468847A078014629400F29DF
:1012E00005D0F0210140401C28404018A0706169E1
:1012F000002901D02046884700202080E078F8218E
:101300000140C81C8CE7C1094006C00F884246D185
:101310002088222800D284E7A0780F210140503194
:10132000A170216A002901D020468847E078F82181
:101330000140481D74E7C1094206D20F8A4239D1E3
:1013400021880B2900D26CE7F8210840401C67E790
:10135000A2780F211140C2094006C00F82423DD140
:101360006031A170616A002900D15AE720468847A0
:10137000A46A57E720880B2800D252E7A1780F20F3
:101380000840022837D001282FD13120A070A16950
:10139000002928D129E08031A170A46A42E7A07811
:1013A0000F2101401031A170216900290FD0204682
:1013B00088470CE0A0780F2101401031A17021690D
:1013C000002901D020468847208809280DD8002010
:1013D0002080E078F8210140881C21E71031A170BD
:1013E0002169002901D020468847E078F821014092
:1013F000E170A46A16E74220A070E1690029F2D1E9
:10140000F3E7B0BDEC02202080B582B00548012191
:1014100000910190044805A18022002303F058FDAB
:1014200002B080BD141E20201D3E00004F4C4544DC
:101430005F4D454E55000000B0B5002820D0044651
:10144000EFF30580002807D07D2005022846FFF72E
:10145000E4F9641EFAD113E003F08EFD022808D1EE
:101460007D20C1004C43204603F0AAFF02F066FF36
:10147000B0BD7D2005022846FFF7CFF9641EFAD1E2
:10148000B0BD0000F0B583B0504C204601F056F9D5
:101490004F49204601F0C7FC4E4D28683C27C15DEE
:1014A000002902D1C168002969D08168204601F075
:1014B00049FC4421615AC0B2081AC10F40184008C3
:1014C000C1B2286883680822204601F09BFB286887
:1014D000C05D002874D0002514263C4C0DE0890026
:1014E0004018143000688368B2B20A21204601F027
:1014F00089FB0D366D1C042D1FD0364800684168ED
:101500006918C25D914218DA02689142E7D130460B
:1015100014380B2100910B3082B200218023204629
:1015200001F038F9B2B2022120462BA301F06AFB88
:101530002848006841686918D1E7264C206840684F
:1015400000280ADD142080210090019102901F489C
:101550007C210E22782301F05BFB2068C15D40688E
:10156000001D88422CDA36208021009001910290E3
:1015700016487C213C22782301F04AFB20E01749E1
:10158000204601F0DFFB4421615AC5B2481BC10F60
:1015900040184008C6B24620205A4008C7B220462C
:1015A00031463A460D4B01F02DFB142000900A3EC7
:1015B000B1B214350C3FBAB220462B4601F0EAF81E
:1015C000024801F022FC03B0F0BDC046D407202041
:1015D000745C0000000020203E0000000C5C000055
:1015E0000C4801680020002900D070470A490968AA
:1015F0000029FAD1094909680029F6D1084800688C
:1016000008490968491E884201D00120704702201C
:101610007047C0461C1E2020701E2020181E20204F
:101620003C1E2020BC18202080B5FFF7EDFE0020D6
:1016300002F0B8FE80BD000082B0FFF7E3FC00239B
:1016400002200090019301204202034803A103F00D
:101650003FFC02F0D7FFFEE729160000696E6974AF
:101660005F7461736B000000491ECAB2007E824243
:1016700000D3411EC8B2704770B5054618204843D4
:101680002B4C2618F26A1C36317D2046904781008B
:1016900061184988ADB2A94209D130753269C1B229
:1016A00020469047810061184988A942F5D070BD55
:1016B000027E481CC1B2914200D30020C0B27047E4
:1016C000F0B581B018214143194C65182E461C36DF
:1016D000317D880022185788205A0090EA6A2046F7
:1016E00090473075009A2A85AF8480002118498878
:1016F000E984C91BE983205A801A04B2002C04D45F
:10170000012030800020224604E00A483080012079
:10171000401A6242F08110B20DB22946FEF7E2FD96
:10172000F1802046294603F06DFEB08001B0F0BD87
:10173000680C2020FFFF000010B50821415E0A223E
:10174000825E914214DA828883899A188281C388E2
:10175000C489E318C3811BB2012B05DB0488A218DE
:10176000828142889A1AC281491C0181012010BDE0
:10177000002010BD70B503460079821FD2B2FB2A4B
:1017800000D270BD5A7A103A052AFAD80A33C046F8
:101790007A4412795200974402403038284517297C
:1017A000EFD129490C68002CEBD019785A78120235
:1017B00051189A781204DD782D06AA1851181A7952
:1017C0005D792D02AA189D792D04DE7936067519EA
:1017D000AA181D7A5E7A360275199E7A3604DB7A6B
:1017E0001B069B195B19A04770BD0B29C9D116496F
:1017F00009690029C5D0884770BD0B29C1D112499C
:1018000089680029BDD0884770BD0B29B9D10E4920
:10181000C9680029B5D0884770BD0F29B1D10A49E0
:101820004A6803E00F29ACD107494A69002AA8D0C9
:1018300019785C78240261189C782404DB781B06F4
:101840001B195918904770BD380620200022002926
:1018500004D003789A18401C491EFAD1D0B27047C0
:10186000F0B581B03E4C21787944097949008F4424
:10187000023929310A4B532863D13A490A683B4B54
:101880009854012035E037490B68384AD054581C29
:1018900008600A2830D3507993791B021818D3793D
:1018A0001B04127A1206D21812182F480260183A36
:1018B0000D23DB439A424ED800220A602270026058
:1018C00001B0F0BD482819D126490A68274B985421
:1018D00003200EE0592811D122490A68234B98545D
:1018E000042006E05A2809D11E490A681F4B985463
:1018F00002202070501C086001B0F0BD1948002182
:101900000160217001B0F0BD164D296816291DD85F
:10191000164A50544A1C2A60134E33689A42EBD13F
:10192000124A07461046FFF791FF874203D1296804
:101930000E48FFF71FFF002028602070306001B0C4
:10194000F0BD08480021016001B0F0BD0020286012
:1019500020700549CFE70520207001B0F0BDC046DA
:101960005006202034062020480120201C0620207C
:10197000F0B581B0044602F067FB7A480168491C63
:1019800001607A4F396800290AD03648006800287B
:1019900047D1E06A3968C96A814242D83C6040E078
:1019A0003C60006801283CD1714D284602F000FAE5
:1019B0002846143002F0FCF92846283002F0F8F9E5
:1019C00028463C3002F0F4F92846503002F0F0F995
:1019D0002846643002F0ECF92846783002F0E8F945
:1019E00028468C3002F0E4F92846A03002F0E0F9F5
:1019F000B435284602F0DCF91B4D284602F0D8F930
:101A00001A4E304602F0D4F9194802F0D1F9544880
:101A100002F0CEF9174802F0CBF9174805601748D5
:101A2000066017480168491C21640160E06A4E495C
:101A30000A68904200D90860142141434C4840187C
:101A4000211D02F0E0F902F009FB064800680028B9
:101A500006D0E06A3968C96A814201D202F040FCCE
:101A600001B0F0BD301E2020C81D2020DC1D20202C
:101A70001C1E20203C1E2020400520204805202040
:101A8000C818202082B001200190344E344F354DCB
:101A900005E0206B02F0F0FA204602F0EDFA306823
:101AA000002817D002F0D0FAF868C468201D02F0B0
:101AB0004FF92868401E28603068401E306002F0F0
:101AC000CDFA6120205C0228E9D00128E4D000286A
:101AD000DFD03EE02448006824490968C96A00292B
:101AE000DDD1411E8841224909680129019900D8A8
:101AF00001460029D3D11F4800681F490968401AD0
:101B00000228CCD31D490868401C086019480068A9
:101B10001949096888421ED31348006813490968A7
:101B2000C96A002912D1411E884111490968012959
:101B3000019900D80146002908D10E4800680E49D5
:101B40000968401A022801D302F01CFB03F018FBBD
:101B5000A5E772B6FEE772B6FEE7C046C0182020C1
:101B6000501E2020BC182020CC1820203805202012
:101B700050052020041E2020641E2020C418202090
:101B8000F0B583B002930F4601900A9C206B96003B
:101B9000A5223146FEF76FFB206B8019031F07203B
:101BA00021463431089D002F30D03A780A70002A3F
:101BB00029D07A784A70002A25D0BA788A70002A0B
:101BC00021D0FA78CA70002A1DD03A790A71002A09
:101BD00019D07A794A71002A15D0BA798A71002A07
:101BE00011D0FA79CA71002A0DD03A7A0A72002A05
:101BF00009D07A7A4A72002A05D0BA7A8A72002A03
:101C000001D0FA7ACA720022CA7201E000220A7078
:101C100083430093099F0026E664092D00D309251C
:101C2000A564E562201D02F0CDF82046183002F0D0
:101C3000C9F80A20401BA06126656665A665E665B1
:101C40002046503006746462246100AA07CA00F07E
:101C5000A9FA2060002F00D03C6003B0F0BD000066
:101C6000F0B583B0002936D01D460F4606460292D5
:101C7000099C0898019002F0E7F9CD480068002817
:101C800015D1164802F094F8154802F091F8C748AB
:101C900013490160C44811490160002000901420DC
:101CA0000C21104A104B02F0BBFDC149086002F044
:101CB000D5F9A761E561019820622660201D02F038
:101CC00081F80298002804D02820215C04220A43CD
:101CD000225403B0F0BD72B6FEE7C046981D202026
:101CE000AC1D2020F4032020E4042020F0B585B0B2
:101CF000044603F04FF9234A1168884233D2009416
:101D00000190A94F05E068602D613868314602F006
:101D10005CF838680168002927D0C0680468C56885
:101D20002E1D304602F014F8296A284688472820DC
:101D3000285C4007EDD5A8690019A042E3D89C4E65
:101D4000306800280DD0049503940025029503F017
:101D500013F9306802A92A462B4602F0ACFD002890
:101D6000D7D172B6FEE7002107E090490A683A60D1
:101D7000086001210198009C024A1060216005B0B2
:101D8000F0BDC0463405202081B0002000900A48F4
:101D9000006872B6401C09D0FEE70098002808D100
:101DA0000098002805D10098002802D1009800284A
:101DB000F3D001B07047C046040020208AB07A4EAC
:101DC0007B4F30680468002C02D0C068056800E0D2
:101DD000002502F07FFC04A8FFF788FF0499002982
:101DE00002D003F0CDF952E0002C15D0854213D873
:101DF000029003F0C5F93068C068C468201D0190E6
:101E000001F0A6FF2820205C410709D42146283193
:101E1000FA221040087037E0002C12D0002215E0A2
:101E2000A069411961602461029A9142314603D848
:101E3000511B81425D4914D20868019901F0C5FF28
:101E400022E05A49096809684A424A41291A386811
:101E500002F052FA03F094F9002818D102F040FA87
:101E600015E03868002800D19BE00994089500250A
:101E7000079503F081F8386807A92A462B4602F037
:101E80001AFD002800D18CE0216A20468847386876
:101E900004A90022029202E0386804A9002202F09C
:101EA000DCFE00288DD004980028F5D4069D6869D2
:101EB000002802D0281D01F04BFF03A8FFF716FFF2
:101EC00004990929E8D8C0467944097949008F4422
:101ED0000A0A0A0442570A0A04422820295CFE2200
:101EE0000A402A54D8E728216A5C012313436B5423
:101EF000AB6905995A186A602D61824224D98842DB
:101F0000304625D28A42304622D334462E462836E1
:101F1000296A28468847307826464007BCD5386865
:101F200000283AD0A8690599099540180890029CA4
:101F3000079403F021F8386807A92246234602F0E7
:101F4000BAFC0028A8D128E0401A98421748DCD2F1
:101F5000291D006811E028216A5C012313436B549A
:101F60000599A96100291AD0091869602D6181427B
:101F7000304600D80D480068291D01F026FF8BE788
:101F80002820285C810703D4284602F075F883E7EF
:101F90002835FE21084028707EE772B6FEE772B64B
:101FA000FEE772B6FEE7C0463C0520204C05202027
:101FB000681E2020F0B581B004460646443602F083
:101FC00043F801203756012F12DB2546243504E063
:101FD000781E79B2012907460ADD2868002807D053
:101FE000284603F08DF80028F2D002F093FAEFE7CC
:101FF000FF25757002F032F802F026F800203756FF
:10200000012F11DB103404E0781E79B20129074654
:102010000ADD2068002807D0204603F071F8002868
:10202000F2D002F077FAEFE7357002F017F801B05E
:10203000F0BD0000F0B583B0054602F04BFB5248FE
:102040000368002B02D0514909781DE00721CA43DB
:102050004F4B5907194601D0D91D11404D4C03264D
:10206000B6029E191640083E0660002206C4326081
:1020700072600368721A0B604A6047490A604749F8
:102080000A60424A012111700024002D01D4224629
:1020900000E001222E460836092E6CD30A406AD190
:1020A00007222946914310310024B14200D821462D
:1020B0006A0700D00E46711E384A126891425AD201
:1020C000344D2A685768B74207D21168002904D0F6
:1020D00015460A464F68B742F7D39A424BD02C6850
:1020E00011682960B91B11292DD393195D0701D0FF
:1020F00072B6FEE759605660264E3168994204D2A6
:102100000E689E420D46F8D301E035460E466968DA
:1021100001916F1802975F680299994203D1019962
:102120007F186F602B46D919B14201D0304606E0C6
:102130000068864203D07068C01958603068186023
:102140009D4200D02B605068144B1968091A196021
:10215000114B1D68A94200D2196008340B49097857
:10216000002313600E4B1D686D1C1D604B1E9941B2
:10217000C9070843506003F003F8600701D072B646
:10218000FEE7204603B0F0BD44052020C01D2020FE
:10219000B40C2020341E2020FC1D2020F01D202007
:1021A0000C1E20200346083B1960011F01231B065B
:1021B0000B6001460C39034B0B60014620390A6065
:1021C00040387047891D0000042808D8800005A108
:1021D0000958094800680840411E8841704700209E
:1021E0007047C0460010000000010000000200001F
:1021F000000400000008000080330A40F0B581B000
:10220000594C204600F09AFA1249204600F09AFDF7
:102210004421615AC5B2481BC10F40184008C6B2DC
:102220004620205A4008C7B2204631463A46094B5C
:1022300000F0E8FC142000900A3EB1B214350C3FC7
:10224000BAB220462B4600F0A5FA204600F0DDFD8C
:1022500001B0F0BD1A5C0000F0B581B0424C2046E0
:1022600000F06CFA1249204600F06CFD4421615ADE
:10227000C5B2481BC10F40184008C6B24620205ABC
:102280004008C7B2204631463A46094B00F0BAFC36
:10229000142000900A3EB1B214350C3FBAB2204669
:1022A0002B4600F077FA204600F0AFFD01B0F0BDFC
:1022B0002A5C0000F0B581B02B4C204600F03EFABD
:1022C0001249204600F03EFD4421615AC5B2481B28
:1022D000C10F40184008C6B24620205A4008C7B275
:1022E000204631463A46094B00F08CFC1420009001
:1022F0000A3EB1B214350C3FBAB220462B4600F06C
:1023000049FA204600F081FD01B0F0BD3A5C0000C2
:10231000F0B581B0EF4C204600F010FA134920468A
:1023200000F010FD4421615AC5B2481BC10F40188E
:102330004008C6B24620205A4008C7B2204631465F
:102340003A460A4B00F05EFC142000900A3EB1B2FF
:1023500014350C3FBAB220462B4600F01BFA20463B
:1023600000F053FD01B0F0BDD40720204A5C00000E
:10237000F0B58FB04B20029080000790002502F04E
:1023800009FE0390D34F099512E0384600F03DFD59
:10239000322001F0D3FF0C98E74903F0C9FA054653
:1023A00002F0F8FD0399401A00097D2800D388E166
:1023B000384600F0C3F902F0EDFD06903846C649F4
:1023C00000F031FD3846C54900F0BCFC0446FF2052
:1023D0008105284603F0F2FAFEF726F90521FDF7FC
:1023E00081FF0A916008402105910C1A4D20099E39
:1023F0000C950EE0A1B2AAB20EAB384600F002FC7A
:102400000B982418B54880194078761C052E0C9D31
:1024100040D00EA9099A4A700870384600F092FC24
:102420000B903046FEF752F9AD4903F0C7FA294642
:1024300003F07EFA03F0BAF94121090603F0BEFA6F
:10244000A84903F075FAFEF7EFF805460A98B0427E
:10245000D0D101210891384600F0DFFC1320009014
:10246000A01E81B228460F3882B20B98001D83B29D
:10247000384600F06EF90021384600F0CEFCA1B2DB
:10248000AAB20EAB384600F0BDFB3846089900F002
:10249000C4FCB5E73846944900F0C5FC039806999A
:1024A0000E1A3846914900F04DFC04469048864289
:1024B0000496304600D38E48FEF708F98D49FEF7A2
:1024C00003F86108059A571A8B4903F077FAFEF76B
:1024D000ABF80A902846FEF7A7F8064600255720D5
:1024E000089508E00B983F188048401940780D3651
:1024F0006D1C072D2AD00DA9089A4A7008707548DE
:1025000000F020FC0B902846FEF7E0F83F2109067A
:1025100003F054FA0C9903F00BFA03F047F9014663
:1025200003F006FA754903F003FAFEF77DF8044656
:1025300030180A21FDF7D6FE0A988142D2DAB9B2E4
:10254000A2B20DAB634800F05DFBCBE70298C1007F
:10255000049D2846FDF7B8FE08910C98FEF764F834
:1025600004460B2060430A90AF2081002846FDF707
:10257000ABFE0691079864300590E500002605E063
:102580000F3509320A92761C802E5AD03046FEF75B
:102590009DF804465A4903F011FA0C9903F0C8F962
:1025A00003F004F9574903F009FA574903F0C0F959
:1025B000FEF73AF8074682B2B1B246480B9100F0F6
:1025C0002AFA52486843524940185249884209D869
:1025D00008980599884205D2B81E82B23D480B99E9
:1025E00000F019FA20464C4903F0E8F90C9903F081
:1025F0009FF94A4903F09CF903F0D8F8414903F0E8
:10260000DDF9474903F094F9FEF70EF8044682B26B
:10261000304F38460B9900F0FEF942480A9A504371
:102620004149401841498842AAD8079806998142F1
:10263000A6D2A01C82B238460B9900F0ECF90A9A97
:102640009EE70220009005213E227625214F384644
:102650002B4600F09FF80499694335488142354E76
:1026600000D292E60846324902F0AAFE04467628D5
:1026700000D32C46012C00D8012400252846FEF763
:1026800025F87D21C90503F099F90C9903F050F95B
:1026900003F08CF8314603F091F9FDF7C5FF3E30A9
:1026A00082B2681D86B23846314600F0B4F93F2246
:1026B000384631461F4E00F0AEF96D1CAC42DDD1FC
:1026C00063E6044C204600F039F8204600F09DFBFC
:1026D0000FB0F0BDD4072020476000005A5C000016
:1026E0003333333F0000F041166A0000605C0000A5
:1026F000DC0500000080BB4400002041000048428F
:10270000EC51B83D000040400000704291C0DB0F2A
:1027100078FB2101F0F64302CDCCCC3DD00F4940EF
:102720000000E0407FBFDFEF080402011008040250
:10273000B80B0000CDCC8C3FCDCC4C3E80B53821C1
:10274000415C0268127C4A43D100406BFDF7B8FD42
:1027500080BDF0B583B015460E46089CA11889B21D
:102760000091029399198BB20746314600F00AFB9B
:10277000002C0DD000280BD000200090AAB23846C3
:102780003146029B00F096F86D1C641E2004F3D1C4
:1027900003B0F0BDF0B587B017460E4605460C9C59
:1027A000A01880B2009006935818059083B228466E
:1027B00000F0E8FA00282CD0002004900090284671
:1027C00031463A46069B00F075F8022C21D37F1C57
:1027D000A41E200415D0012001900090BAB20392EB
:1027E000A3B202932846314600F064F801980090A5
:1027F0000598401E81B22846039A029B00F05AF8C1
:10280000E71904980090BAB228463146069B00F0BA
:1028100051F807B0F0BDF0B589B0002B48D08C243A
:10282000045D002C44D005464835AC88A2423FD315
:10283000EC88A2423CD25E186C88A142089401D375
:10284000374600E0671EB4B20396B44200D1274673
:102850000594BFB22D88012400260496029707959F
:10286000AF42254600D9049C089FB9420F46039EFB
:1028700000D3079F0694059CB44200D10F46089CE4
:10288000A74200D2049D069E354309D107998F4285
:1028900000D80F460299A14200D32146CB1B3946EE
:1028A000002D05D1046BA468002500959BB2A047BC
:1028B00009B0F0BDF0B58BB0002B00D1A9E08C249D
:1028C000045D002C00D1A4E0109C022B08D3032C43
:1028D00004D0022C04D1C91A491C01E0D21A521C9E
:1028E0000646483601252C400A9410D1B78895B287
:1028F000BD4200D28DE0F788BD4200D389E08DB2A1
:10290000EF1874880795A54212D33D4611E034882C
:102910008FB2A7427DD37488A7427AD297B2FC18AF
:102920000894F4880697A74237D3089F079737E0A3
:10293000651E0994BCB20497BC4200D1254603949D
:10294000ACB2368801250027059702940896B44258
:102950002E462C4600D9059C0694079D099CA5424D
:102960000D46049F00D3089D039CBC4200D10D4638
:10297000ADB2099CA54200D2059E069F3E4309D1F7
:1029800008998D4200D80D460299A14200D32146F4
:102990004B1B2946002E34D03BE0671E0797089F4B
:1029A0000994BCB2BC42079F00D127460394BCB235
:1029B000B6880027049702940796B4422C4600D9A3
:1029C000049C0594069E099CA6421646089F00D3C7
:1029D000079E039CBC4200D11646B7B2099CA74291
:1029E00000D2049D059E354309D1079A974200D82D
:1029F0001746029AA24200D32246D31B3A46002D24
:102A000007D1046BA4680A9D009589B292B29BB26B
:102A1000A0470BB0F0BDF0B583B0034648339C88A7
:102A2000A24228D3DC88A24225D21C88A14222D30C
:102A30005B8899421FD205468C352D78002D1AD01F
:102A4000012500269942029500D2354601964E1C7A
:102A5000B7B2B74200D05F1EBFB2A742029E0CD8E9
:102A600035430DD0002D06D1036B9C6800230093E5
:102A7000029B9BB2A04703B0F0BD019E3543F1D14C
:102A8000A14200D821469F4200D31F467B1A0293E1
:102A9000002DE9D0EFE70000F0B583B001903020C1
:102AA000634C0021029021545448E0625448606411
:102AB000227E6588022A14D3A61D0127284603E03A
:102AC000361D7F1CBA420DD0735E00B2984200DC06
:102AD00018462CB29C42564CF2DD029D67551D46AD
:102AE000EEE72846411B6183A9B280B2884201D13A
:102AF00003B0F0BD0298205C48244D4908552EB221
:102B0000012730463946FEF7B7FD002530462946F5
:102B1000FEF7B2FD46484776005D454C8000205ADE
:102B20000299615C8900615A814205D1608B401E27
:102B30006083000401D1DBE76576678B002002909B
:102B4000FEF7BEFD0120FEF7BBFD607E002807D02A
:102B500020461C30FEF7F0FD20463430FEF7ECFD39
:102B6000019D443503E0781E07B2002FC0DD3C20F4
:102B7000205E00282CD482B20220285E11B281424D
:102B800026DA4020205E2821615E81420DDA00288D
:102B90001ED40023EB5E99421ADA984200DB1846F5
:102BA000CB179943401A83B20FE0002910D4029B3F
:102BB000EB5E98420CDA0028029E00D40E469E423C
:102BC00000DB1E46311A8BB281B20198FFF723FE5B
:102BD00026461C363046FEF7AFFD002803D1002004
:102BE000FEF76EFDF6E7264634363046FEF7A4FDC6
:102BF0000028B8D10120FEF763FDF6E76916000052
:102C0000B116000010B5524C446000F0EDF910BD53
:102C1000B0B5074C03252576628021800499E180B8
:102C2000A3800699618105992181FFF735FFB0BD29
:102C3000680C2020F0B583B0044600F02DFC00287D
:102C400029D021466A3100258D7020668F7B03785C
:102C5000082F3E4603D3401C20663E46083E2046D1
:102C6000903001908E70EA430292BA4093430B7009
:102C7000F3B2226E1778DF40CD7BAB19D8B20828AB
:102C80000BD3501C20660820801BC0B256788640AB
:102C90003E43083B02E0002051E03E468B70019825
:102CA00080780871029AAA4096434E70424242418F
:102CB0004A71DEB2226E1778F7400D7C5B19D8B2EC
:102CC000082809D3501C20660820801BC0B2567803
:102CD00086403E43083B00E03E468B70029A104619
:102CE000A8408643681EC0B28240B018019A107096
:102CF000487CC318D8B2082803D3206E401C206635
:102D0000083B8B70D8B2276E3E78C6408A7CD518B7
:102D1000E8B2082809D3781C20660820C01AC0B27F
:102D20007B7883403343083D00E033468D70029941
:102D3000084690408343501EC0B28140581840B2AC
:102D400003B0F0BD80B5024A426000F069FC80BD6E
:102D5000DD37000010B5074C0749084A084B2046EC
:102D600000F0ECF8204600F009FD0021204600F0BC
:102D700013FD10BDD4072020685C0000F13700006F
:102D800033350000F0B548308688C488059DA242DE
:102D90000DD201240027B542264600D83E46AA425D
:102DA00000D83C463443002C0DD10020F0BD012456
:102DB0000027B542264600D83E46AA4200D83C46E7
:102DC0003440002CF1D002884088814208D2012092
:102DD0000024934202460CD999420DD91043F0BD0C
:102DE000012000249342024609D999420AD9104091
:102DF000F0BD22469942F1D820461043F0BD22464C
:102E00009942F4D820461040F0BD10B5044600F0B9
:102E1000DDFB204600F0B9FC10BD022900D90121DC
:102E2000922281547047B0B50446806D884253D0D9
:102E30000D46A165743408782070487860708878F1
:102E4000A070C878E070087920714879607188793D
:102E5000A071C879E071087A2072487A6072887A25
:102E6000A072C87AE072087B2073487B6073887B0D
:102E7000A073C87BE073087C20741121284600F001
:102E800051FB60821321284600F04CFBA0821521E3
:102E9000284600F047FBE082002D1DD00D20215672
:102EA000A1760E202056E076627E002A14D0012AF8
:102EB00007D10F22A256914200DAA2761021625663
:102EC00007E00A22A3560C22A256D3188B4200DD3B
:102ED000A376904200DDE276B0BD00000149C165F5
:102EE0007047C046E5300000B0B504466D200025AF
:102EF0002554382022548D202554FF200230922260
:102F0000A0526163E362A5650498206321468D3178
:102F10000D71214638314D700168204688470648BA
:102F200020656065206B4168204688472046FFF792
:102F3000D5FF6D34E570B0BD0000FFFF70B582B005
:102F400016460D46044600930849094A334600F0E8
:102F50002AFC01AE304600F033FB01463278009582
:102F6000044B2046FFF7C0FF02B070BD413A00009D
:102F7000C138000037350000022B09D0012B04D0E6
:102F8000002B08D1401880B27047801A80B2704779
:102F9000401A80B27047801880B27047022B09D067
:102FA000012B04D0002B08D1801880B27047401844
:102FB00080B27047801A80B27047401A80B2704762
:102FC00070B582B0C46AC58F069E0096521B92B23D
:102FD000A04702B070BD10B582B0049C0094FFF70A
:102FE000EFFF02B010BD0000F0B585B01F460392A0
:102FF0000291064600F0BFFD39787268304690476E
:103000003749884265D03246643204927D1C0022E2
:1030100001920BE00291019941180191297872689F
:10302000304690476D1C2146A04254D087B20C46D2
:10303000481E80B28742F1D00498027B032A03988D
:1030400002991FD87A441279520097440115080F4B
:10305000F16D3046884703994018029912E0F16DEE
:10306000304688470399081A02990BE0F16D304603
:1030700088470299411804E0F16D3046884702996B
:10308000091A0398049A508011803046394600F09E
:1030900003FA002804D00146304600F025F800E08D
:1030A00000200499097B0329B5D8C04679440979E1
:1030B00049008F44040A01070299091AAAE70299F4
:1030C0004118A7E70399091A01E0039941180391F0
:1030D000A1E700200190019880B205B0F0BDC04684
:1030E000FFFF000000207047F0B591B00166074671
:1030F0006437002207923A723A7D0C78082A134608
:1031000003D3491C01661346083B014692310891DE
:103110003B720799C943049191408C431094BC7150
:10312000D9B2056E2C78CC40797DCA18D6B2082E5B
:1031300009D36E1C06660826F31ADBB26D789D4033
:103140002543083A00E025463A72089B1B78BB727B
:10315000049C8C40A5430395FD7159425941F97275
:10316000D6B2056E2B78F340B97D0F915418E2B2B8
:10317000082A0AD36A1C02660822921BD6B2697812
:10318000B14019430E91083C00E00E933C72E3B24B
:10319000056E024638462F78DF400A90C37D1E191F
:1031A000F1B2082909D3691C11660821091BC9B2AB
:1031B0006D788D403D43083E00E03D46109840B29A
:1031C00010900A990E72F0B2146E2778C740087EEC
:1031D00002908019C1B2082909920AD3611C1166B4
:1031E0000821891BC9B262788A403A4301920838A3
:1031F00000E00197039C0A9908721098012800DAF0
:103200003DE10F9E701E049A1146B140C0B20E9E61
:103210008E4311468140581E71189A40C0B2012356
:103220004FB2954383406019181A45B20A98067B3D
:103230000A98008839462A463346FFF79DFE014624
:103240000A980C4601800A98408839460A9F2A4607
:103250003346FFF7A3FE7880032E2AD87E443679C2
:103260007600B744011E0814109925466318039987
:1032700049B2411820E010992346611A4D1C039968
:1032800049B2411A4C1C411C5B1C204614E00399B6
:1032900049B2254663181099411A4A1C411C104630
:1032A0000AE010994118039A52B2A21A551C631CE5
:1032B00002E0254623460146099C89B20091A9B245
:1032C00082B29BB22046FFF75DFD002800D1D6E018
:1032D0000798B880099F05E0039840B20B99814296
:1032E00000DBC8E00A98047A3B6E1A78E240807CE2
:1032F0002118CDB2082D0AD35D1C3D6608252C1B74
:10330000E4B25B78A34013430693083900E00692C9
:103310000A9B1972CAB23D6E2C78D440DA7C5318DD
:10332000DEB2082E09D36E1C3E660826711AC9B299
:103330006D788D402543083B00E02546049C2146DE
:1033400081400698884306900A990B722046904067
:10335000854305950CE0531C3B6608231B1ADBB222
:1033600052789A400A43C31F0A990B72D007B3D010
:103370004B790E79069D0F46079AB879841B787AA7
:10338000002825D131463E7B78880F914FB21093AB
:103390005AB20D9239463346FFF700FE0E900A9856
:1033A000008839460A9F0D9A3346FFF7E5FD01462E
:1033B000F87A089A10700096EBB2E0B2834200D31C
:1033C000034609980E9AFFF775FA079A109B0F9E0D
:1033D000E0B2E9B2814203D32D1B5B1C1646CCE759
:1033E0007B71A919397105980E900F91B8790D90DC
:1033F00078880B903E7B38884DB210935CB229469A
:1034000022463346FFF7B8FD0C900B9829460B94E3
:1034100022463346FFF7C2FD0246B87A0899087083
:1034200000960D980F99441AE5B20E980646C7B259
:10343000AF423B4600D32B4609980C99FFF73AFA66
:10344000AF4206D3361B0E96109B5B1C00210A9FD1
:10345000CBE70A99109848710F9830180871087ACC
:10346000099F3A6E1178C140431CDCB2082C00D38E
:1034700071E70A4678E70A98807A089908700499F3
:103480000846029A9040019B8343501EC0B281407F
:10349000581840B211B0F0BD70B50C46816D863041
:1034A0001731FF2C03D8612C2ED340882FE0808861
:1034B0000E1835460021284600F034F8361802214F
:1034C000284600F02FF82D1DA042F3D370783178F4
:1034D0000902081841424141002812D0A04201D1FE
:1034E000F01C0EE0B17870184278715C09028A18FD
:1034F00051425141002A04D0A2420646F2D1C01CDA
:10350000FFE700290CD170BD412C01D300880918B8
:103510004878002804D00A789442F8D1881C70BDFD
:10352000002070BD42185278405C0002801880B2C2
:10353000704701207047F0B583B000919221415C43
:1035400007261746374001240194BC400025012975
:10355000029500D02546022900D3029CB24301689F
:10356000097C51438AB20290416B88180099421835
:103570000898002819D00298923004E06D00640089
:103580005B1E190419D011782143694011707F1C0A
:103590003740F3D10178012900D0019D012900D8DD
:1035A000019C0299498F5218EAE71078204368403D
:1035B0001070521C5B1E1804F7D103B0F0BD000060
:1035C000082101700048704768082020F0B583B0DA
:1035D00004463820205C02902068407C0190204600
:1035E00038304778002501262068037C1846684358
:1035F0000A490840616B08180090FAB20021204681
:1036000000F0ADF80298864206D2761C08357F1C81
:10361000F8B201998842E7D303B0F0BDF8FF00008B
:10362000F0B585B00D4604466A2000262654204693
:1036300000F0A1FA297862682046904721466A3155
:103640000191214690310291684A904221D06E1C2E
:103650000025C021039104950BE0039004984019C4
:1036600004903178626820469047761C3A46B8420A
:1036700013D081B21746501E80B28142F1D020464D
:10368000FFF7D8FA05460398C028E6D102980078DB
:10369000E3E7C0200390049635460198007800289F
:1036A0000ED00021029A5156049A521B40B21018B3
:1036B0004718039948B2012803DBC8B23F1800E05D
:1036C000049FB8B205B0F0BDB0B53821415CCA0066
:1036D0008287046862694264227CD2004287024683
:1036E00038325378DD00C58715815D18607C8542CE
:1036F00000D9C11AC818C0005081B0BD70B582B0E1
:1037000004460546403500262E81006CE064A888FA
:1037100068816B8AAA8A298AE88A00902046FFF786
:1037200031FB8C34002817D001202070288A298989
:10373000814200D22881688A6989814200D96881E2
:10374000A88AA989814200D2A881E88AE9898142B0
:1037500000D9E88102B070BD267002B070BDB0B56E
:1037600082B06C46A27161712371069900918568DF
:103770000F2101222346A84702B0B0BD10B58468CE
:103780000A2100221346A04710BD10B584681021FD
:1037900000221346A04710BD10B50A4684680B21CD
:1037A0000023A04710BDB0B52324002505550560B2
:1037B000044608340EC404994161856101462331F1
:1037C000CD70FF224A714A7000F001F8B0BD10B50B
:1037D0008468092100221346A04710BD0348002930
:1037E00002D00A2900D008467047C046FFFF0000FB
:1037F000F0B581B0143900200C2932D87944097908
:1038000049008F44062E2E1D17302E2E2E2E2E2EC2
:10381000360001252E041C4F3E610A242046FDF788
:103820000BFE3E602046FDF707FE2846290539605D
:1038300001B0F0BD01200105134A116101B0F0BDD6
:103840000120002A0DD00021104C5D5C2668F60690
:10385000FCD4256325686D07FCD4256A491C914278
:10386000F3D101B0F0BD01200105074A116001B09C
:10387000F0BD01204104044B002A02D0196001B0C0
:10388000F0BD196101B0F0BD90320A4010B1464060
:1038900080B582B001AA1170012100F002F802B0D7
:1038A00080BD10B513460A4604691721A04710BD14
:1038B00010B50A46046920210023A04710BD00006E
:1038C000F0B581B00C46143C052C22D87C442479F8
:1038D0006400A7441A02020E1A1A00210446154673
:1038E000FFF7E6FF20462946FFF7D2FF012001B08F
:1038F000F0BD012504460E46294615461F46FFF732
:10390000D7FF31463B4620462A460469A04701B00E
:10391000F0BD002001B0F0BD10B5C468192100222F
:103920001346A04710BD10B50A46C46816210023EF
:10393000A04710BD10B50A46C46815210023A04752
:1039400010BD10B513460A46C4681721A04710BD24
:1039500070B582B00C46054608E01838022815D22A
:10396000641CEE68002228461346B04721780846BA
:103970001729F2DC1538022813D2627801A80270E8
:10398000EE6800232846B047A41CEFE7FE2913D1B8
:10399000627801A802702921284600F0E7F8A41CEB
:1039A000E4E7172908D1607801AA107001212846A0
:1039B000FFF7C7FFA41CD9E702B070BD10B5C468FB
:1039C000182100221346A04710BDF0B581B004466F
:1039D0004669282100252A462B46B047E66814216F
:1039E00020462A462B46B0474B260122009220460D
:1039F000314600F0BBF82068027929272046394675
:103A000000F0B4F8204631462A4600F0AFF82068AE
:103A100002792046394600F0A9F820463146009A3E
:103A200000F0A4F8206842792046394600F09EF85C
:103A300001B0F0BD8A7C2223C254016070470000AF
:103A4000B0B50D46044600F021F8014601200029DA
:103A500000D0B0BD092D0BD00A2D10D1054620464F
:103A6000FFF7B3FF08492046FFF772FF2846B0BDB5
:103A7000044905462046FFF7DDFF2846B0BD00207B
:103A8000B0BDC046386E0000F66D0000F0B581B0E4
:103A900004460B39002004295DD81546794409797C
:103AA00049008F44025812061D00002D46D02D49B2
:103AB00045E02046FFF782FF81212046FFF73AFFCD
:103AC00020462946FFF72FFF34E026462236002DF8
:103AD00039D022492046FFF73BFF2068C07C38E000
:103AE0001E462046FFF76AFF2220205C009077796F
:103AF00040212046FFF71EFFF80000994718F8B252
:103B0000010910312046FFF715FF0F2139402046EB
:103B1000FFF709FFB079B02101432046FFF703FF0B
:103B200032683079C006010E2046FFF70AFF6D1E8D
:103B30002806F5D12046FFF7EFFE0BE00A492046A4
:103B4000FFF706FF06E006492046FFF701FF206861
:103B5000807C3070012001B0F0BDC046EF6D0000E8
:103B6000E86D0000306E00002B6E000010B5446957
:103B70000023A04710BD2621002242547047EFF3D6
:103B8000108072B670470000F0B581B0002801D0F7
:103B900072B6FEE714460E4600F056FA244D286829
:103BA000C06D00282BD12868602101224254002CCE
:103BB00025D0204807682868001D00F0C9F8601C5F
:103BC0000AD03C19286844600CD31D480068296855
:103BD000091D00F0FAF810E02868011D194800F0EE
:103BE00012F90AE0144800682968091D00F0EDF890
:103BF000124801688C4200D2046000F071FB00F0B2
:103C00002DFA00F021FA2868C46D002C06D0002E91
:103C100001D0002000E0601E2968C8652868602186
:103C20000022425400F01AFA204601B0F0BDC0460E
:103C300038052020641E202040052020041E20205E
:103C4000480520203C1E2020F0B581B006463748AC
:103C5000374D0024294622462346FDF7ADFA354864
:103C6000012329462246FDF7A7FA334802232946B5
:103C70002246FDF7A1FA31480327294622463B4652
:103C8000FDF79AFA2E48042329462246FDF794FAB6
:103C9000264839463246FDF78BFA264839463246E1
:103CA000FDF786FA244D284639463246FDF780FA5C
:103CB000224839463246FDF77BFA214839463246DA
:103CC000FDF776FA1948FDF795FA1A48FDF792FACA
:103CD0002846FDF78FFA1948FDF78CFA1848FDF7CA
:103CE00089FA184D2868002805D00094032122463F
:103CF000234601F037FB2868002808D112480090BD
:103D000012481E210122002301F0BAFA28602D6812
:103D1000002D08D001F03EF902460094012128460A
:103D2000234601F01FFB01B0F0BDC0466C0020200F
:103D3000C921000098002020C4002020F00020208D
:103D40001C012020C41D2020A33D0000005C0000B9
:103D5000416882688A60516001694B68834200D182
:103D60004A600A68521E0A600022026108687047B1
:103D7000034B036080201060024808607047C04613
:103D8000D01A2020D0182020034B03608020106020
:103D9000024808607047C046341D2020341B202094
:103DA000FEE780B5FDF738FA80BD80F310887047D4
:103DB0000021016002460832C94342608160C2604E
:103DC00002617047002101617047B0B50B685A1C51
:103DD0000BD004460834626815689D4208D85468C0
:103DE00025689D422546F6D904E00269556801E040
:103DF00015462246A96008614D608A6051600168DD
:103E0000491C0160B0BD42684A6093688B600861DC
:103E1000596003685B1C036091607047FEF79AFF6E
:103E20003C20504F0521395400244FA13C607C6058
:103E3000B960FC603C61BC62FC623C637C63BC6357
:103E4000394614314BA228CA28C168CA68C14E4EEF
:103E5000042131544DA050494FA253689568D2684F
:103E600034607460B060F4603761304614302AC04A
:103E700032627462B462F46234637463B4634A4855
:103E80004AA1046044600246083292C214302925D7
:103E90002946FCF717FA484848A1046044600246E6
:103EA000083292C214302946FCF70CFA474848A160
:103EB000046044600246083292C214302946FCF77E
:103EC00001FA474847A1046044600246083292C2A2
:103ED00014302946FCF7F6F94548464946A20460E5
:103EE00044608260C160066114302946FCF7EAF93B
:103EF0004448454945A2046044608260C16006614F
:103F000014302946FCF7DEF94348444944A20460D2
:103F100044608260C160066114302946FCF7D2F922
:103F20004248434943A2046044608260C160066124
:103F300014302946FCF7C6F9FEF71AFA4048FFF795
:103F400083FEFDF79FFA3F4DE24301212046FFF734
:103F50001BFEFDF797FA2868C1680029F4D00020FD
:103F60008847F1E7F40220204D61696E204D656EAF
:103F700075000000340320207403202094062020C4
:103F800054062020B40320203403202052756E20D4
:103F90005461736B73000000D406202014072020A6
:103FA00054072020940720207403202053686F7743
:103FB0002053746174757300940620205365742037
:103FC0005069642053706565640000005406202029
:103FD00053657420506964204D696C6561676500A4
:103FE000B4032020506C61792047616D65000000AA
:103FF000D4062020FD21000072756E205461736B81
:1040000030310000140720205922000072756E2004
:104010005461736B3032000054072020B522000039
:1040200072756E205461736B30330000940720204A
:104030001123000072756E205461736B30340000E0
:10404000FD1000000000202072B60A480168491CDB
:104050000160BFF34F8FBFF36F8F70470548016852
:10406000002903D0491E016002D0704772B6FEE7F6
:1040700062B6704704002020B0B5002844D0234920
:1040800009784A1E9141C907041F2268114205D0D0
:1040900008380368002B03D072B6FEE772B6FEE75D
:1040A0008A432260054600F015FB28462168184A1D
:1040B00013685B181360174B1C68844204D2236892
:1040C00083422246F8D301E01A4623465468151964
:1040D000854202D109195160104644189C4201D012
:1040E0001C4607E00C4C2468A34203D05C686118AE
:1040F00041601C680460824200D01060074801687B
:10410000491C016001F03CF8B0BDC046C01D202034
:10411000F01D2020341E202044052020101E2020C9
:104120006B48012101706C4801706C48017069484E
:1041300000210160816002494160072101607047F0
:10414000FF7C0000000000000000000000000000F4
:104150000B4A13681868203080F30988022080F326
:104160001488BFF36F8F3FBCAE4608BC04BC62B678
:104170001847C046C046C046C046C046C046C046B6
:1041800038052020F0B585B0064651480178514FDA
:1041900038680122049290433860B8687D22140286
:1041A0004D4A1378002B224646D0002947D18E4233
:1041B00000D30E46711E01914A43101847490978F1
:1041C0000029039400D02D21451A00D8054672B667
:1041D000BFF34F8FBFF36F8F0024E0430290FDF7D2
:1041E000FFF9002830D07D60BC603868049908432E
:1041F0003860002E04D0BFF34F8F30BFBFF36F8FF6
:1042000062B6BFF34F8FBFF36F8F72B6BFF34F8F9E
:10421000BFF36F8F062038603868C00320D4039D39
:104220006E43B868361A3046294601F0C9F8294667
:104230004143891B491937E01A460029B7D0832129
:1042400089008E42B5D2B5E7B868786038680499BD
:104250000843386020480078002808D1029808E018
:104260001D480078002808D10299039E07E00398B2
:10427000401E786062B605B0F0BD039E711EBA683C
:10428000521B521800283346354600D103469A4245
:10429000084600D810462D2A00D301460F4A12784E
:1042A000002A00D1014601987960BC603A680499FF
:1042B0000A433A6000F0FCF907480078002801D171
:1042C000029800E0681E786062B605B0F0BDC04696
:1042D000F81D202010E000E0B8182020B41820209D
:1042E0000120000703490860BFF34F8FBFF36F8FB2
:1042F0007047C04604ED00E070B515460E46044612
:10430000FFF7A2FE4420215C20464430FF2901D162
:10431000002101704178FF2901D100214170FFF790
:104320009DFEA06B002805D12046243031462A4648
:1043300000F024F92046FDF73DFE70BD70B5002861
:104340002CD06D490A68002A01D072B6FEE70A68CF
:10435000521C0A60DD490C68A64D2968091D0646F5
:104360000846FFF7F5FCA4192868446006D3A34863
:1043700000682968091DFFF728FD0AE09E480068CB
:104380002968091DFFF721FDD14801688C4200D240
:10439000046000F0F5FE002800D070BDFFF7A0FF1C
:1043A00070BDC04670B50446FFF74EFE002C01D12B
:1043B00090480468251D2846FFF7CAFCA06A00281B
:1043C00003D020461830FFF7C3FC22480168491C7F
:1043D0000160884E306884421AD01F480168491E27
:1043E00001606120205C022809D0012804D0002847
:1043F0002BD1206BFFF740FE2046FFF73DFE7E48A5
:104400000168096800290CD00068C06800680AE0EB
:1044100012482946FFF7F7FC11480168491C016062
:1044200003E00020C043AA490860FFF717FE9E483A
:104430000068002802D03068844200D070BDDB489C
:104440000068002803D072B6FEE772B6FEE7FFF7F9
:1044500047FF70BDC8182020BC182020501E202007
:10446000C0182020F0B581B0002803D0002903D067
:1044700072B6FEE772B6FEE715460646FFF77FFB0B
:104480006022B35C0224B454F26D521CF265012B1D
:104490002DD13146B26A002A01D072B6FEE7074636
:1044A000C2480068002802D0183114480FE0081DE7
:1044B0000C460090FFF74CFCE06AC0490A68904245
:1044C00000D9086014214143BD4840180099FFF706
:1044D0009AFCF06AB7490968C96A8842384606D921
:1044E000002D01D001212960B14901220A60FFF7A6
:1044F0005CFC01B0F0BDC046C41820201C1E20206A
:104500000349096801607149096841607047C04604
:10451000081E2020A64801210160704770B50028C0
:1045200018D00C46A34D29681831FFF74EFC674898
:1045300006682868001DFFF70BFC601C0CD03419BE
:10454000286844600ED32D4800682968091DFFF7CC
:104550003CFC70BD72B6FEE72868011D2848FFF7D5
:1045600052FC70BD244800682968091DFFF72DFC26
:10457000574801688C4200D2046070BDF0B581B02C
:1045800000281BD015460C468A4E31681831FFF7BB
:104590003AFC4E4807683068001DFFF7D9FB002D34
:1045A00001D00020C443002D0AD0601C08D130681F
:1045B000011D1348FFF727FC01B0F0BD72B6FEE7FE
:1045C0003C193068446007D30C4800683168091D05
:1045D000FFF7FBFB01B0F0BD074800683168091D1B
:1045E000FFF7F3FB3A4801688C4200D2046001B047
:1045F000F0BDC04638052020400520204805202079
:104600003C1E2020B0B588B000240694059406A86E
:1046100005A904AAFFF7ACFB0598002833D0069D36
:10462000002D32D0049A64210791079964292ED174
:104630000799612102236B542863029507A8019012
:104640000094154815A12346FDF79AFA2846FDF770
:104650008FF9144807990160002910D000F02CFE52
:10466000411C16D001280AD172B6E04318490860EF
:104670000D48012101601548046000F0A3F80B48C3
:10468000006808B0B0BD72B6FEE772B6FEE772B65B
:10469000FEE772B6FEE7C046851A000049444C4565
:1046A00000000000F41D2020301E2020506E00006D
:1046B00006490A681218064B1B689A4201D972B65D
:1046C000FEE70A68101808607047C046641E202084
:1046D000041E202035480168491C01607047C0460F
:1046E000F0B581B031480068002802D0304801217F
:1046F0002CE02F48002101602E4C2068006B0268DE
:104700002D498A4208D142688A4205D182688A428C
:1047100002D1C068884204D0206821683431FFF794
:104720003FFB2648016814231A464A43244DAE58DD
:10473000002E0ED0AA1853685B68536015460835E2
:10474000AB4201D15B685360DA682260016001B05E
:10475000F0BDAA1800291DD01E464E4376191746F3
:10476000143F3F68002F17D1012913D01746283F67
:104770003F68002F13D102290CD017463C3F3F68F9
:10478000002F0FD1032905D0091F503A1668002EBB
:10479000E0D0D0E772B6FEE7143E491E04E0283EA2
:1047A000891E01E03C3EC91E3246C4E7C4182020E1
:1047B000701E202038052020A5A5A5A5CC182020F6
:1047C00050052020B0B582B0FF200104124A1368C2
:1047D0000B4313600006116801431160FFF7A0FC52
:1047E0000E4C00252560FFF7B3FCFFF779FF01951C
:1047F000206872B6401C09D0FEE70198002808D155
:104800000198002805D10198002802D101980028BC
:10481000F3D0002002B0B0BD20ED00E00400202065
:1048200070B582B0002807D0002B07D0002907D12F
:10483000002A05D072B6FEE772B6FEE772B6FEE752
:10484000002903D0002A01D172B6FEE7502401945A
:10485000019C502C2DD11D464435069E019CD863E9
:1048600019640029184600D0104618600120A8706D
:104870001C46FFF7E9FB0020A063FF202870216899
:104880006870E06B226C431E504308185343CA18EB
:104890006160A060E26020461030FFF789FA204690
:1048A0002430FFF785FAFFF7D9FB2E72204602B0BD
:1048B00070BD72B6FEE7F0B589B00892002812D03C
:1048C0001D460446002910D0022D02D1E06B0128BC
:1048D0003FD11646059100F04FFB00280AD1002E6B
:1048E00008D072B6FEE772B6FEE7206C0028EBD067
:1048F00072B6FEE7FFF7A8FBE06BA16B022D51D06B
:1049000081424FD30898002800D1D9E0264644368A
:1049100006A8FFF7F5FDFFF7A1FBFFF7DBFEFFF7AA
:1049200093FB3078FF2801D1002030707078FF2889
:1049300001D100207070FFF791FB06A808A900F0D4
:1049400097FA002807D02046FDF734FB00F018FC4A
:10495000B8E072B6FEE727461037FFF775FBE06B4D
:104960000290A06B0190FFF779FB029801998142B8
:104970000DD108993846FFF7D1FD2046FDF71AFB07
:1049800000F0FEFB002807D1FFF7AAFC04E0204658
:10499000FDF710FB00F0F4FBFFF756FBE06BA16B9B
:1049A00081424CD2226CA66B002A059919D00127AE
:1049B000002D1BD0E068FBF71DFC206CE168091A94
:1049C000E1602268914203D24042A1680818E06089
:1049D000701E31468141A81E424242410A40B61A29
:1049E00018E0206800280ED0012713E06068FBF76C
:1049F00001FC206C616808186060A168884209D3D6
:104A00002068606006E0A06800F04AFB0021A16019
:104A100047424741701CA063606A00280CD02434D0
:104A2000204600F06DFB002801D0FFF759FCFFF78E
:104A300015FB012009B0F0BD002FF6D0F7E7049672
:104A400003970BE02046FDF7B5FA00F099FBFFF75E
:104A5000FBFAE06BA16B8142049EA3D30898002867
:104A60002ED0FFF7FBFAFFF735FEFFF7EDFA3078AF
:104A7000FF2801D1002030707078FF2801D100207C
:104A80007070FFF7EBFA06A808A900F0F1F900280A
:104A900000D058E7FFF7D8FAE76BA66BFFF7DEFA0E
:104AA000BE42CFD108990398FFF738FD2046FDF7A5
:104AB00081FA00F065FB0028C9D1FFF711FCC6E7B9
:104AC000FFF7CCFA002009B0F0BDF0B583B00028A4
:104AD00014D01D460446002912D0022D02D1E06BED
:104AE000012835D10F460292FFF749F8E16BA26B1E
:104AF000022D0AD08A4208D3002565E072B6FEE78F
:104B0000206C0028E9D072B6FEE74521635CA16BFA
:104B1000226CA66B002A1DD039461F460190002D3D
:104B200026D0E068FBF766FB206CE168091AE160BB
:104B30002268914203D24042A1680818E060701ECA
:104B400031468141A81E424242410A40B61A1BE04A
:104B500072B6FEE72168002918D1A168054608460B
:104B60001F4600F09DFA3B4628460021A1600DE05B
:104B70006068FBF73FFB206C616808186060A16803
:104B8000884201D32068606001983B46711CA16394
:104B90007F2B13D0FF2B13D1616A0125002913D07D
:104BA00006462434204600F0ABFA0299002910D0C2
:104BB0000028304608D001250D6005E072B6FEE7FA
:104BC0004534591C21700125FFF7EFF8284603B042
:104BD000F0BD3046F8E770B5002804D0026C002A1A
:104BE00003D072B6FEE772B6FEE70268002A23D051
:104BF0000D460446FEF7C3FFA36BE26B934219D246
:104C000021464522A25C5B1CA3637F2A19D0FF2AA0
:104C100019D14A6A0124002A19D0064624310846CF
:104C200000F06EFA002D16D0002830460FD0012477
:104C30002C600CE000240AE08268002AD8D072B60A
:104C4000FEE772B6FEE74531521C0A700124FFF7F9
:104C5000ACF8204670BD3046F9E7F0B585B0049257
:104C600000280CD01546044600292ED00F4600F02F
:104C700083F9002805D1002D03D072B6FEE772B685
:104C8000FEE7FFF7E1F9A56B002D23D0226C002A87
:104C90000AD03846E1688918E160A368994201D3D7
:104CA0002168E160FBF7A6FA681EA0632069012570
:104CB000002800D189E01034204600F021FA0028B5
:104CC00000D182E0FFF70CFB7FE0206C0028CDD004
:104CD00072B6FEE700250498002876D00095264697
:104CE000443602A8FFF70CFCFFF7B8F9FFF7F2FC17
:104CF000FFF7AAF93078FF2801D1002030707078D2
:104D0000FF2801D100207070204624300190FFF769
:104D1000A5F902A804A900F0ABF800280DD02046A0
:104D2000FDF748F900F02CFAFFF78EF9A56BFFF7B5
:104D300095F9002D1BD1002549E0FFF785F9A56BFA
:104D4000FFF78CF9002D05D02046FDF733F900F070
:104D500017FA0CE004990198FFF7E0FB2046FDF7F5
:104D600029F900F00DFA002801D1FFF7B9FAFFF791
:104D70006BF9A56B002D89D10498002824D0FFF78A
:104D80006DF9FFF7A7FCFFF75FF93078FF2801D135
:104D9000002030707078FF2801D100207070FFF77C
:104DA0005DF902A804A900F063F80028C5D02046E8
:104DB000FDF700F900F0E4F9FFF746F9A56BFFF7FE
:104DC0004DF9002DD3D1B6E7009DFFF747F92846EE
:104DD00005B0F0BDF0B583B0002833D004460029FB
:104DE00032D00D460292FEF7CAFEA66B002E30D0DE
:104DF0004421675C226C002A0CD00190E068811885
:104E0000E160A068814201D32168E1602846FBF798
:104E1000F1F90198711EA1637F2F1CD0FF2F1CD1C7
:104E20002169012500291CD006461034204600F0D7
:104E300067F90299002919D00028304611D00125C0
:104E40000D600EE072B6FEE7206C0028C9D072B685
:104E5000FEE7002505E072B6FEE74434791C2170B8
:104E60000125FEF7A2FF284603B0F0BD3046F8E763
:104E7000F0B581B000281FD00C4600291ED0054691
:104E8000FFF7E2F86A6883480768216800264B1C30
:104E900019D0824803682868834201D097420FD214
:104EA000BA1A91420CD9881A20607C4800682860A0
:104EB00078480068686006E072B6FEE772B6FEE702
:104EC000002020600126FFF7C9F8304601B0F0BD90
:104ED000F0B587B01F4604AB07C39000FDF7AAF8F2
:104EE0000025EC4300281CD0064603976420FDF7FC
:104EF000A1F8002812D007460D980C996122BD54E4
:104F00003E6300910190029704AA07CA039BFCF735
:104F100037FE3846FCF72CFD012402E03046FFF74F
:104F2000ABF8204607B0F0BDF0B587B00D9D002D61
:104F30001BD00E9C002C1AD064260596059E642E6C
:104F400017D10C9E0496059F61270226E65525631E
:104F5000029406AD0195049D0095FCF711FE2046D4
:104F6000FCF706FD069807B0F0BD72B6FEE772B614
:104F7000FEE772B6FEE7000005480068002805D08D
:104F8000B5480068414241414800704701207047E0
:104F9000301E20203F4800687047C046F0B583B0FF
:104FA000AD480068002806D0B4480168491C01607B
:104FB000002003B0F0BD374801684C1C04601BD3CF
:104FC000AC4801680968002901D072B6FEE70168A3
:104FD000314A13680360116030490A68521C0A6044
:104FE00001680968002903D00068C068006801E012
:104FF0000020C043A04908609F490868844201D24C
:1050000000203FE00023DA439A4E30680068002811
:105010002FD001920020029003E030680068002841
:105020002CD03068C068C7687868844223D33D1D9F
:105030002846FEF78DFEB86A002803D0384618309F
:10504000FEF786FEF86A87490968884201D98549D2
:10505000086014214143844840182946FEF7D3FED6
:10506000F86A82490968C96A8842D6D30120029049
:10507000D3E7029304E002467F4901E07E49019AAA
:105080000A6002987A490968002992D0012003B089
:10509000F0BDC046641E202048052020081E2020A8
:1050A000B0B501460020002926D0704A126891420E
:1050B00001D072B6FEE7CA6C002A1ED0521ECA6426
:1050C0001AD18A6CCB6A934216D00C1D0D4620462D
:1050D000FEF73EFEA86CE8620A21091AA96161493F
:1050E0000A68904200D90860142141435E48401884
:1050F0002146FEF788FE0120B0BD72B6FEE7C0462D
:10510000B0B5C068C568002D0DD02C4618342046B7
:10511000FEF71EFE50480068002806D05048214681
:10512000FEF771FE1FE072B6FEE72C1D2046FEF76B
:105130000FFEE86A4B490A68904200D908601421C2
:105140004143494840182146FEF75DFE4948016841
:105150000968002903D00068C068006801E00020E9
:10516000C04345490860E86A40490968C96A8842FD
:1051700003D93F4901200860B0BD0020B0BDC04642
:10518000F0B581B0344C206800280DD0FEF75CFFEC
:105190002068401E206020680027002806D0FEF707
:1051A0005DFF384601B0F0BD72B6FEE72B480068DF
:1051B0000028F4D02A4E3068002833D00097294FB9
:1051C00002E0306800281FD0F068C468204618301C
:1051D000FEF7BEFD251D2846FEF7BAFDE06A3968D8
:1051E000884200D93860142141431F48401829469D
:1051F000FEF709FEE06A1D490968C96A8842E0D3E2
:1052000001201B490860DCE71A4801680968002989
:1052100003D00068C068006801E00020C043009F20
:1052200015490860154C2568002D0CD0104E01E082
:105230006D1E06D0FFF7B2FE0028F9D001203060C5
:10524000F6E7002020600A4800680028A7D0FFF792
:1052500047F80127A3E7C046C4182020BC18202027
:105260001C1E2020CC18202050052020380520208E
:10527000701E202040052020041E2020181E202003
:10528000F0B583B01C4615460E4607462C20FCF7A9
:10529000D1FE00280DD008992822002383540091C4
:1052A000019023460446384631462A46FCF7D8FC8E
:1052B000204603B0F0BD000070B586B0FEF7C4FE16
:1052C0001D4E3068002814D11C4C2046FEF770FD9E
:1052D0001B4D2846FEF76CFD1A4805601A4804600D
:1052E0000020009014200C21184A194BFFF798FA5F
:1052F0003060FEF7B3FE306800281AD00024059411
:10530000049405A804A903AAFEF73EFD039A049895
:10531000059905230093019002910E480EA12346A2
:10532000FFF702FE0E490860002802D0012006B0F7
:1053300070BD72B6FEE7C046681E2020981D202072
:10534000AC1D20204C0520203C052020F40320200B
:10535000E4042020BD1D0000546D722053766300CC
:105360006C1E2020B0B584B0002812D00446134D26
:10537000286800280FD001AF16C705290EDCFFF7FB
:10538000FBFD01462868022910D1089A01A90023D3
:105390000FE072B6FEE7002004B0B0BD01A9002402
:1053A0001A462346FFF791FB04B0B0BD01A90022C5
:1053B0001346FFF780FA04B0B0BDC046681E202037
:1053C00043088B421AD3002203098B4279D3030A84
:1053D0008B425ED3030B8B4242D3030C8B4227D309
:1053E0000902FF2212BA030C8B4202D312120902E5
:1053F00003D0030B8B4233D31AE0D3E0411A804130
:10540000401C704703460B4371D443088B42F5D3CD
:10541000002203098B4254D3030A8B4239D3030B76
:105420008B421DD3030C8B4202D394466EE0090AD3
:10543000C30B8B4201D3CB03C01A5241830B8B4267
:1054400001D38B03C01A5241430B8B4201D34B0350
:10545000C01A5241030B8B4201D30B03C01A5241B5
:10546000C30A8B4201D3CB02C01A5241830A8B423A
:1054700001D38B02C01A5241430A8B4201D34B0223
:10548000C01A5241030A8B4201D30B02C01A524187
:10549000CDD2C3098B4201D3CB01C01A524183093B
:1054A0008B4201D38B01C01A524143098B4201D375
:1054B0004B01C01A524103098B4201D30B01C01AA0
:1054C0005241C3088B4201D3CB00C01A524183081A
:1054D0008B4201D38B00C01A524143088B4201D347
:1054E0004B00C01A5241411A524110007047CA0F76
:1054F00000D04942031000D34042534000229C4652
:1055000003098B422DD3030A8B4212D38901FC225B
:1055100012BA030A8B420CD3890192118B4208D331
:10552000890192118B4204D3890137D0921100E096
:105530008909C3098B4201D3CB01C01A52418309A7
:105540008B4201D38B01C01A524143098B4201D3D4
:105550004B01C01A524103098B4201D30B01C01AFF
:105560005241C3088B4201D3CB00C01A5241830879
:105570008B4201D38B00C01A5241D9D243088B42CF
:1055800001D34B00C01A5241411A00D20146524188
:10559000104663465B1000D34042704763465B1081
:1055A00000D3404201B50021004201D0C943084662
:1055B000C046C04602BDF8B5040C8BB2264682B286
:1055C0005E43104658430D0C370C360400218019F9
:1055D000164679416E43370C3604801926467941C8
:1055E0006E438919F8BD4100080200D004200A0E5C
:1055F00001D001221043090EFF2901D102210843E5
:10560000012800D10520704710B50121FBF7ACF847
:1056100010BD10B500210846FAF756FF10BD5E21F7
:1056200010B5C9430807FBF79FF810BDF0B50E464B
:1056300014465100FF22120687B0914203D311167F
:10564000316007B0F0BD01202502C0070543E00D21
:105650007838C206D20E2020871A6000000E7838F3
:10566000401181004D4878440B189C464358002A4D
:1056700014D06046406893400146F84003436046BA
:10568000806891408646F840014303916046714628
:10569000C0689140F84001430F4603E0604641680E
:1056A0000391876818462946FFF785FF0291049009
:1056B00029460398FFF77FFF039106903846294655
:1056C000FFF779FF0F460698029B3D18049A03994D
:1056D000BD4201D2012700E000278818C019002F21
:1056E00002D0884202D903E0884201D2012100E0C1
:1056F000002159180A4620329709C20C8906520324
:1057000040033760114301900846FAF7D7FF029033
:105710000198FAF7DBFF1221C943FBF725F8019046
:105720002846FAF7D3FF2521C943FBF71DF800905F
:105730000199029800F0FCF8009900F0F9F80121B5
:10574000C9024018050B2D032846029900F09AF96A
:10575000019900F097F9009900F088F9104900F0DC
:105760002DF900900F49284600F028F9009900F023
:10577000DFF800900C49284600F020F9009900F06D
:10578000D7F8002C00DB5CE701210907C91B316059
:105790000121C907484007B0F0BD00002A050000FC
:1057A000DB0FC92F22AAFD290000C92FF0B5024640
:1057B0000446514B83B040006946984209D2732198
:1057C0000906884202D20020C04300E00020009079
:1057D00030E05000494B400898426BD2484910468F
:1057E00000F0ECF8FAF780FF0746FAF71DFF800794
:1057F000800F00904349384600F0E0F8019042499C
:10580000384600F0DBF806464049384600F0D6F846
:1058100005463F49384600F0D1F8214600F026F908
:10582000294600F02FF9314600F02CF9019900F0DB
:1058300029F904462546009C002C3FDBE007354E45
:10584000294608461AD000F0B9F80546324900F05A
:10585000B5F8324900F06CF8294600F0AFF830494D
:1058600000F066F8294600F0A9F87F21C90500F08C
:105870005FF8A10700D5704003B0F0BD00F09EF8BE
:105880000746284900F09AF8274900F051F83946B0
:1058900000F094F8254900F04BF8394600F08EF8F6
:1058A000294600F08BF8294600F042F8A107E2D41F
:1058B00003B0F0BD1046FFF7B9FEBAE7FF2168005C
:1058C0000906884209D22846FFF78DFE042801D137
:1058D000FFF7A5FE284603B0F0BD884206D101209F
:1058E000FAF7FCFEFFF795FE03B0F0BD2846FFF780
:1058F0008BFE03B0F0BD0000B61F927E490E4946F4
:1059000083F9223F1A61342C0020A23300A0FD3914
:105910000000C93F00000080B93AB2BACA9F2A3DD0
:10592000DDFFFFBE336D4CB9DA82083CA0AA2ABE67
:1059300070B50125ED0704004C4020D4441A01D273
:10594000001B0919C60D4B00F2B2FF2A29D01B0E0D
:105950002CD000020C0228432C43D31ADC4005193A
:1059600010D2280A02D3401C6D0611D0761EF6050F
:105970008019FF2A00DA70BDC00DC00570BD6940F6
:1059800000F086F801200543C541521C761CE8E76B
:1059900064089C40C90161408900E7D10124A0430B
:1059A000E4E71B0E440200D0034870BD002AFCD17E
:1059B000C00FC00770BD00BF0000C07F70B54200BF
:1059C00064414B005C41120E39D01B0E38D0FF2AC7
:1059D0003CD0FF2B3AD0D2187F3A40024902400A0D
:1059E000490A4518ED0106004E43000A090A4843DA
:1059F0000104731A4019190C4318990F04D05B085D
:105A0000012149075B1A521CD80904D3401CF50335
:105A100001D19D0607D0FF2A08D2D50506D0E4079C
:105A20002043401970BD0125A843F4E7002A01DC9A
:105A3000E00770BD2402FF202043C00570BD1B0E8F
:105A4000FF2A03D0FF2B01D0E00770BDFF263606EA
:105A50004500B54206D84D00B54203D8D218FF2AFA
:105A600000D0E7E7004870BD0000C07F70B5012599
:105A7000ED07684004004C4002D5694000F008F88A
:105A8000FFF75CFF70B50125ED0704004C4022D400
:105A9000441A02D26C40001B0919C60D4B00F2B229
:105AA000FF2A4BD01B0E50D000020C02A8432C43FF
:105AB000D31ADC40051B05D5AD0019D36D08761E41
:105AC000521E37D0F605280A01D2801970BD7041E8
:105AD0006D0603D070BD6940FFF730FF9C4009029E
